{
	"data": {
		"bytecode": {
			"linkReferences": {},
			"object": "608060405234801562000010575f80fd5b5060405180602001604052805f81525062000031816200006860201b60201c565b5062000052620000466200007d60201b60201c565b6200008460201b60201c565b620000626200014760201b60201c565b62000634565b806002908162000079919062000474565b5050565b5f33905090565b5f60035f9054906101000a900473ffffffffffffffffffffffffffffffffffffffff1690508160035f6101000a81548173ffffffffffffffffffffffffffffffffffffffff021916908373ffffffffffffffffffffffffffffffffffffffff1602179055508173ffffffffffffffffffffffffffffffffffffffff168173ffffffffffffffffffffffffffffffffffffffff167f8be0079c531659141344cd1fd0a4f28419497f9722a3daafe3b4186f6b6457e060405160405180910390a35050565b600360159054906101000a900460ff16156200019a576040517f08c379a00000000000000000000000000000000000000000000000000000000081526004016200019190620005dc565b60405180910390fd5b60ff8016600360149054906101000a900460ff1660ff16146200020e5760ff600360146101000a81548160ff021916908360ff1602179055507f7f26b83ff96e1f2b6a682f133852f6798a09c465da95921460cefb384740249860ff60405162000205919062000619565b60405180910390a15b565b5f81519050919050565b7f4e487b71000000000000000000000000000000000000000000000000000000005f52604160045260245ffd5b7f4e487b71000000000000000000000000000000000000000000000000000000005f52602260045260245ffd5b5f60028204905060018216806200028c57607f821691505b602082108103620002a257620002a162000247565b5b50919050565b5f819050815f5260205f209050919050565b5f6020601f8301049050919050565b5f82821b905092915050565b5f60088302620003067fffffffffffffffffffffffffffffffffffffffffffffffffffffffffffffffff82620002c9565b620003128683620002c9565b95508019841693508086168417925050509392505050565b5f819050919050565b5f819050919050565b5f6200035c6200035662000350846200032a565b62000333565b6200032a565b9050919050565b5f819050919050565b62000377836200033c565b6200038f620003868262000363565b848454620002d5565b825550505050565b5f90565b620003a562000397565b620003b28184846200036c565b505050565b5b81811015620003d957620003cd5f826200039b565b600181019050620003b8565b5050565b601f8211156200042857620003f281620002a8565b620003fd84620002ba565b810160208510156200040d578190505b620004256200041c85620002ba565b830182620003b7565b50505b505050565b5f82821c905092915050565b5f6200044a5f19846008026200042d565b1980831691505092915050565b5f62000464838362000439565b9150826002028217905092915050565b6200047f8262000210565b67ffffffffffffffff8111156200049b576200049a6200021a565b5b620004a7825462000274565b620004b4828285620003dd565b5f60209050601f831160018114620004ea575f8415620004d5578287015190505b620004e1858262000457565b86555062000550565b601f198416620004fa86620002a8565b5f5b828110156200052357848901518255600182019150602085019450602081019050620004fc565b868310156200054357848901516200053f601f89168262000439565b8355505b6001600288020188555050505b505050505050565b5f82825260208201905092915050565b7f496e697469616c697a61626c653a20636f6e747261637420697320696e6974695f8201527f616c697a696e6700000000000000000000000000000000000000000000000000602082015250565b5f620005c460278362000558565b9150620005d18262000568565b604082019050919050565b5f6020820190508181035f830152620005f581620005b6565b9050919050565b5f60ff82169050919050565b6200061381620005fc565b82525050565b5f6020820190506200062e5f83018462000608565b92915050565b6141cc80620006425f395ff3fe608060405234801561000f575f80fd5b5060043610610245575f3560e01c806387962dcc11610139578063c0019692116100b6578063f242432a1161007a578063f242432a146106c1578063f2f842cc146106dd578063f2fde38b146106fb578063f62d188814610717578063f856cfe91461073357610245565b8063c001969214610609578063c70a2cf714610625578063cbeeee3f14610655578063e985e9c514610673578063ea4df068146106a357610245565b80638f754bce116100fd5780638f754bce146105635780639732f1d514610581578063a22cb465146105b1578063ac33e90e146105cd578063ae19a59e146105eb57610245565b806387962dcc146104bb57806389049a7f146104eb5780638a26cbfe146105095780638d0f7d36146105275780638da5cb5b1461054557610245565b80633e007c1f116101c75780634f4bcb991161018b5780634f4bcb991461043957806352cb7901146104575780636a5d48ca14610475578063706df79614610493578063715018a6146104b157610245565b80633e007c1f146103a55780633fb0d0cb146103c357806341620881146103e15780634e1273f4146103eb5780634e7286bf1461041b57610245565b80631b2ef1ca1161020e5780631b2ef1ca1461031557806320766729146103315780632eb2c2d61461034f57806330176e131461036b57806330ed51c81461038757610245565b8062fdd58e1461024957806301ffc9a714610279578063074186b0146102a95780630d454388146102c75780630e89341c146102e5575b5f80fd5b610263600480360381019061025e91906127cc565b610751565b6040516102709190612819565b60405180910390f35b610293600480360381019061028e9190612887565b610814565b6040516102a091906128cc565b60405180910390f35b6102b16108f5565b6040516102be9190612819565b60405180910390f35b6102cf6108fa565b6040516102dc9190612819565b60405180910390f35b6102ff60048036038101906102fa91906128e5565b6108ff565b60405161030c919061299a565b60405180910390f35b61032f600480360381019061032a91906129ba565b61095d565b005b610339610a66565b6040516103469190612819565b60405180910390f35b61036960048036038101906103649190612be8565b610a6b565b005b61038560048036038101906103809190612d51565b610b0c565b005b61038f610b27565b60405161039c9190612819565b60405180910390f35b6103ad610b2c565b6040516103ba9190612819565b60405180910390f35b6103cb610b31565b6040516103d89190612819565b60405180910390f35b6103e9610b36565b005b61040560048036038101906104009190612e58565b610f70565b6040516104129190612f85565b60405180910390f35b610423611087565b6040516104309190612819565b60405180910390f35b61044161108c565b60405161044e9190612819565b60405180910390f35b61045f611091565b60405161046c9190612819565b60405180910390f35b61047d611096565b60405161048a9190612819565b60405180910390f35b61049b61109b565b6040516104a89190612819565b60405180910390f35b6104b96110a0565b005b6104d560048036038101906104d091906128e5565b6110b3565b6040516104e29190612819565b60405180910390f35b6104f36110c8565b6040516105009190612819565b60405180910390f35b6105116110cd565b60405161051e9190612819565b60405180910390f35b61052f6110d2565b60405161053c9190612819565b60405180910390f35b61054d6110d7565b60405161055a9190612fb4565b60405180910390f35b61056b6110ff565b6040516105789190612819565b60405180910390f35b61059b600480360381019061059691906128e5565b611104565b6040516105a8919061299a565b60405180910390f35b6105cb60048036038101906105c69190612ff7565b6111aa565b005b6105d56111c0565b6040516105e29190612819565b60405180910390f35b6105f36111c5565b6040516106009190612819565b60405180910390f35b610623600480360381019061061e9190613035565b6111ca565b005b61063f600480360381019061063a91906128e5565b611289565b60405161064c9190612819565b60405180910390f35b61065d61129e565b60405161066a9190612819565b60405180910390f35b61068d600480360381019061068891906130b5565b6112a3565b60405161069a91906128cc565b60405180910390f35b6106ab611331565b6040516106b89190612819565b60405180910390f35b6106db60048036038101906106d691906130f3565b611336565b005b6106e56113d7565b6040516106f29190612819565b60405180910390f35b61071560048036038101906107109190613186565b6113dc565b005b610731600480360381019061072c9190612d51565b61145e565b005b61073b6115b2565b6040516107489190612819565b60405180910390f35b5f8073ffffffffffffffffffffffffffffffffffffffff168373ffffffffffffffffffffffffffffffffffffffff16036107c0576040517f08c379a00000000000000000000000000000000000000000000000000000000081526004016107b790613221565b60405180910390fd5b5f808381526020019081526020015f205f8473ffffffffffffffffffffffffffffffffffffffff1673ffffffffffffffffffffffffffffffffffffffff1681526020019081526020015f2054905092915050565b5f7fd9b67a26000000000000000000000000000000000000000000000000000000007bffffffffffffffffffffffffffffffffffffffffffffffffffffffff1916827bffffffffffffffffffffffffffffffffffffffffffffffffffffffff191614806108de57507f0e89341c000000000000000000000000000000000000000000000000000000007bffffffffffffffffffffffffffffffffffffffffffffffffffffffff1916827bffffffffffffffffffffffffffffffffffffffffffffffffffffffff1916145b806108ee57506108ed826115b7565b5b9050919050565b601981565b600181565b60605f6004805461090f9061326c565b90501161092a5760405180602001604052805f815250610956565b600461093583611620565b604051602001610946929190613368565b6040516020818303038152906040525b9050919050565b6109656116ea565b60018210158015610977575060108211155b6109b6576040517f08c379a00000000000000000000000000000000000000000000000000000000081526004016109ad906133d5565b60405180910390fd5b5f81116109f8576040517f08c379a00000000000000000000000000000000000000000000000000000000081526004016109ef9061343d565b60405180910390fd5b5f610a0283611768565b905080821115610a47576040517f08c379a0000000000000000000000000000000000000000000000000000000008152600401610a3e906134a5565b60405180910390fd5b610a6133848460405180602001604052805f8152506117fa565b505050565b600a81565b610a7361199d565b73ffffffffffffffffffffffffffffffffffffffff168573ffffffffffffffffffffffffffffffffffffffff161480610ab95750610ab885610ab361199d565b6112a3565b5b610af8576040517f08c379a0000000000000000000000000000000000000000000000000000000008152600401610aef90613533565b60405180910390fd5b610b0585858585856119a4565b5050505050565b610b146116ea565b8060049081610b2391906136dc565b5050565b600b81565b600e81565b600a81565b610b3e6116ea565b610b8160016040518060400160405280600481526020017f436c616e000000000000000000000000000000000000000000000000000000008152505f60326111ca565b610bc460026040518060400160405280600381526020017f54656400000000000000000000000000000000000000000000000000000000008152505f60326111ca565b610c0760036040518060400160405280600681526020017f526f6f74656400000000000000000000000000000000000000000000000000008152505f60326111ca565b610c4a60046040518060400160405280600681526020017f4c656164657200000000000000000000000000000000000000000000000000008152505f60326111ca565b610c8d60056040518060400160405280600681526020017f42726561746800000000000000000000000000000000000000000000000000008152505f60326111ca565b610cd060066040518060400160405280600881526020017f47726f756e6465640000000000000000000000000000000000000000000000008152505f60016111ca565b610d1360076040518060400160405280600581526020017f416c6976650000000000000000000000000000000000000000000000000000008152505f60326111ca565b610d5660086040518060400160405280600781526020017f426520426f6c64000000000000000000000000000000000000000000000000008152505f60196111ca565b610d9960096040518060400160405280600781526020017f5468756e646572000000000000000000000000000000000000000000000000008152505f60196111ca565b610ddc600a6040518060400160405280600a81526020017f526f79616c204c696f6e000000000000000000000000000000000000000000008152505f60196111ca565b610e1f600b6040518060400160405280600581526020017f46696768740000000000000000000000000000000000000000000000000000008152505f60196111ca565b610e62600c6040518060400160405280600481526020017f48656c6c000000000000000000000000000000000000000000000000000000008152505f60196111ca565b610ea5600d6040518060400160405280600781526020017f53696c656e6365000000000000000000000000000000000000000000000000008152505f60016111ca565b610ee8600e6040518060400160405280600581526020017f466c616d650000000000000000000000000000000000000000000000000000008152505f60016111ca565b610f2b600f6040518060400160405280600f81526020017f57696e67206f662046726565646f6d00000000000000000000000000000000008152505f60146111ca565b610f6e60106040518060400160405280600581526020017f5374696e670000000000000000000000000000000000000000000000000000008152505f600a6111ca565b565b60608151835114610fb6576040517f08c379a0000000000000000000000000000000000000000000000000000000008152600401610fad9061381b565b60405180910390fd5b5f835167ffffffffffffffff811115610fd257610fd16129fc565b5b6040519080825280602002602001820160405280156110005781602001602082028036833780820191505090505b5090505f5b845181101561107c5761104c85828151811061102457611023613839565b5b602002602001015185838151811061103f5761103e613839565b5b6020026020010151610751565b82828151811061105f5761105e613839565b5b6020026020010181815250508061107590613893565b9050611005565b508091505092915050565b600881565b600581565b600181565b603281565b601081565b6110a86116ea565b6110b15f611cb2565b565b6007602052805f5260405f205f915090505481565b600f81565b600181565b600381565b5f60035f9054906101000a900473ffffffffffffffffffffffffffffffffffffffff16905090565b600481565b60058181548110611113575f80fd5b905f5260205f20015f91509050805461112b9061326c565b80601f01602080910402602001604051908101604052809291908181526020018280546111579061326c565b80156111a25780601f10611179576101008083540402835291602001916111a2565b820191905f5260205f20905b81548152906001019060200180831161118557829003601f168201915b505050505081565b6111bc6111b561199d565b8383611d75565b5050565b600281565b600981565b6111d26116ea565b5f841180156111e2575060108411155b611221576040517f08c379a0000000000000000000000000000000000000000000000000000000008152600401611218906133d5565b60405180910390fd5b82600560018661123191906138da565b8154811061124257611241613839565b5b905f5260205f2001908161125691906136dc565b508160065f8681526020019081526020015f20819055508060075f8681526020019081526020015f208190555050505050565b6006602052805f5260405f205f915090505481565b600781565b5f60015f8473ffffffffffffffffffffffffffffffffffffffff1673ffffffffffffffffffffffffffffffffffffffff1681526020019081526020015f205f8373ffffffffffffffffffffffffffffffffffffffff1673ffffffffffffffffffffffffffffffffffffffff1681526020019081526020015f205f9054906101000a900460ff16905092915050565b600c81565b61133e61199d565b73ffffffffffffffffffffffffffffffffffffffff168573ffffffffffffffffffffffffffffffffffffffff16148061138457506113838561137e61199d565b6112a3565b5b6113c3576040517f08c379a00000000000000000000000000000000000000000000000000000000081526004016113ba90613533565b60405180910390fd5b6113d08585858585611edc565b5050505050565b600681565b6113e46116ea565b5f73ffffffffffffffffffffffffffffffffffffffff168173ffffffffffffffffffffffffffffffffffffffff1603611452576040517f08c379a00000000000000000000000000000000000000000000000000000000081526004016114499061397d565b60405180910390fd5b61145b81611cb2565b50565b5f600360159054906101000a900460ff1615905080801561149157506001600360149054906101000a900460ff1660ff16105b806114c057506114a030612165565b1580156114bf57506001600360149054906101000a900460ff1660ff16145b5b6114ff576040517f08c379a00000000000000000000000000000000000000000000000000000000081526004016114f690613a0b565b60405180910390fd5b6001600360146101000a81548160ff021916908360ff160217905550801561153d576001600360156101000a81548160ff0219169083151502179055505b816004908161154c91906136dc565b50611555610b36565b80156115ae575f600360156101000a81548160ff0219169083151502179055507f7f26b83ff96e1f2b6a682f133852f6798a09c465da95921460cefb384740249860016040516115a59190613a6e565b60405180910390a15b5050565b600d81565b5f7f01ffc9a7000000000000000000000000000000000000000000000000000000007bffffffffffffffffffffffffffffffffffffffffffffffffffffffff1916827bffffffffffffffffffffffffffffffffffffffffffffffffffffffff1916149050919050565b60605f600161162e84612187565b0190505f8167ffffffffffffffff81111561164c5761164b6129fc565b5b6040519080825280601f01601f19166020018201604052801561167e5781602001600182028036833780820191505090505b5090505f82602001820190505b6001156116df578080600190039150507f3031323334353637383961626364656600000000000000000000000000000000600a86061a8153600a85816116d4576116d3613a87565b5b0494505f850361168b575b819350505050919050565b6116f261199d565b73ffffffffffffffffffffffffffffffffffffffff166117106110d7565b73ffffffffffffffffffffffffffffffffffffffff1614611766576040517f08c379a000000000000000000000000000000000000000000000000000000000815260040161175d90613afe565b60405180910390fd5b565b5f60068214806117785750600e82145b15611796576006821461178c57600161178f565b60015b90506117f5565b60088214806117a55750600982145b806117b05750600a82145b806117bb5750600b82145b806117c65750600c82145b806117d15750600f82145b156117df57601990506117f5565b601082036117f057600a90506117f5565b603290505b919050565b5f73ffffffffffffffffffffffffffffffffffffffff168473ffffffffffffffffffffffffffffffffffffffff1603611868576040517f08c379a000000000000000000000000000000000000000000000000000000000815260040161185f90613b8c565b60405180910390fd5b5f61187161199d565b90505f61187d856122d8565b90505f611889856122d8565b9050611899835f89858589612350565b845f808881526020019081526020015f205f8973ffffffffffffffffffffffffffffffffffffffff1673ffffffffffffffffffffffffffffffffffffffff1681526020019081526020015f205f8282546118f39190613baa565b925050819055508673ffffffffffffffffffffffffffffffffffffffff165f73ffffffffffffffffffffffffffffffffffffffff168473ffffffffffffffffffffffffffffffffffffffff167fc3d58168c5ae7397731d063d5bbf3d657854427343f4c083240f7aacaa2d0f628989604051611970929190613bdd565b60405180910390a4611986835f89858589612358565b611994835f89898989612360565b50505050505050565b5f33905090565b81518351146119e8576040517f08c379a00000000000000000000000000000000000000000000000000000000081526004016119df90613c74565b60405180910390fd5b5f73ffffffffffffffffffffffffffffffffffffffff168473ffffffffffffffffffffffffffffffffffffffff1603611a56576040517f08c379a0000000000000000000000000000000000000000000000000000000008152600401611a4d90613d02565b60405180910390fd5b5f611a5f61199d565b9050611a6f818787878787612350565b5f5b8451811015611c0f575f858281518110611a8e57611a8d613839565b5b602002602001015190505f858381518110611aac57611aab613839565b5b602002602001015190505f805f8481526020019081526020015f205f8b73ffffffffffffffffffffffffffffffffffffffff1673ffffffffffffffffffffffffffffffffffffffff1681526020019081526020015f2054905081811015611b48576040517f08c379a0000000000000000000000000000000000000000000000000000000008152600401611b3f90613d90565b60405180910390fd5b8181035f808581526020019081526020015f205f8c73ffffffffffffffffffffffffffffffffffffffff1673ffffffffffffffffffffffffffffffffffffffff1681526020019081526020015f2081905550815f808581526020019081526020015f205f8b73ffffffffffffffffffffffffffffffffffffffff1673ffffffffffffffffffffffffffffffffffffffff1681526020019081526020015f205f828254611bf49190613baa565b9250508190555050505080611c0890613893565b9050611a71565b508473ffffffffffffffffffffffffffffffffffffffff168673ffffffffffffffffffffffffffffffffffffffff168273ffffffffffffffffffffffffffffffffffffffff167f4a39dc06d4c0dbc64b70af90fd698a233a518aa5d07e595d983b8c0526c8f7fb8787604051611c86929190613dae565b60405180910390a4611c9c818787878787612358565b611caa818787878787612536565b505050505050565b5f60035f9054906101000a900473ffffffffffffffffffffffffffffffffffffffff1690508160035f6101000a81548173ffffffffffffffffffffffffffffffffffffffff021916908373ffffffffffffffffffffffffffffffffffffffff1602179055508173ffffffffffffffffffffffffffffffffffffffff168173ffffffffffffffffffffffffffffffffffffffff167f8be0079c531659141344cd1fd0a4f28419497f9722a3daafe3b4186f6b6457e060405160405180910390a35050565b8173ffffffffffffffffffffffffffffffffffffffff168373ffffffffffffffffffffffffffffffffffffffff1603611de3576040517f08c379a0000000000000000000000000000000000000000000000000000000008152600401611dda90613e53565b60405180910390fd5b8060015f8573ffffffffffffffffffffffffffffffffffffffff1673ffffffffffffffffffffffffffffffffffffffff1681526020019081526020015f205f8473ffffffffffffffffffffffffffffffffffffffff1673ffffffffffffffffffffffffffffffffffffffff1681526020019081526020015f205f6101000a81548160ff0219169083151502179055508173ffffffffffffffffffffffffffffffffffffffff168373ffffffffffffffffffffffffffffffffffffffff167f17307eab39ab6107e8899845ad3d59bd9653f200f220920489ca2b5937696c3183604051611ecf91906128cc565b60405180910390a3505050565b5f73ffffffffffffffffffffffffffffffffffffffff168473ffffffffffffffffffffffffffffffffffffffff1603611f4a576040517f08c379a0000000000000000000000000000000000000000000000000000000008152600401611f4190613d02565b60405180910390fd5b5f611f5361199d565b90505f611f5f856122d8565b90505f611f6b856122d8565b9050611f7b838989858589612350565b5f805f8881526020019081526020015f205f8a73ffffffffffffffffffffffffffffffffffffffff1673ffffffffffffffffffffffffffffffffffffffff1681526020019081526020015f205490508581101561200d576040517f08c379a000000000000000000000000000000000000000000000000000000000815260040161200490613d90565b60405180910390fd5b8581035f808981526020019081526020015f205f8b73ffffffffffffffffffffffffffffffffffffffff1673ffffffffffffffffffffffffffffffffffffffff1681526020019081526020015f2081905550855f808981526020019081526020015f205f8a73ffffffffffffffffffffffffffffffffffffffff1673ffffffffffffffffffffffffffffffffffffffff1681526020019081526020015f205f8282546120b99190613baa565b925050819055508773ffffffffffffffffffffffffffffffffffffffff168973ffffffffffffffffffffffffffffffffffffffff168573ffffffffffffffffffffffffffffffffffffffff167fc3d58168c5ae7397731d063d5bbf3d657854427343f4c083240f7aacaa2d0f628a8a604051612136929190613bdd565b60405180910390a461214c848a8a86868a612358565b61215a848a8a8a8a8a612360565b505050505050505050565b5f808273ffffffffffffffffffffffffffffffffffffffff163b119050919050565b5f805f90507a184f03e93ff9f4daa797ed6e38ed64bf6a1f01000000000000000083106121e3577a184f03e93ff9f4daa797ed6e38ed64bf6a1f01000000000000000083816121d9576121d8613a87565b5b0492506040810190505b6d04ee2d6d415b85acef81000000008310612220576d04ee2d6d415b85acef8100000000838161221657612215613a87565b5b0492506020810190505b662386f26fc10000831061224f57662386f26fc10000838161224557612244613a87565b5b0492506010810190505b6305f5e1008310612278576305f5e100838161226e5761226d613a87565b5b0492506008810190505b612710831061229d57612710838161229357612292613a87565b5b0492506004810190505b606483106122c057606483816122b6576122b5613a87565b5b0492506002810190505b600a83106122cf576001810190505b80915050919050565b60605f600167ffffffffffffffff8111156122f6576122f56129fc565b5b6040519080825280602002602001820160405280156123245781602001602082028036833780820191505090505b50905082815f8151811061233b5761233a613839565b5b60200260200101818152505080915050919050565b505050505050565b505050505050565b61237f8473ffffffffffffffffffffffffffffffffffffffff1661270c565b1561252e578373ffffffffffffffffffffffffffffffffffffffff1663f23a6e6187878686866040518663ffffffff1660e01b81526004016123c5959493929190613ec3565b6020604051808303815f875af192505050801561240057506040513d601f19601f820116820180604052508101906123fd9190613f2f565b60015b6124a55761240c613f66565b806308c379a0036124685750612420613f85565b8061242b575061246a565b806040517f08c379a000000000000000000000000000000000000000000000000000000000815260040161245f919061299a565b60405180910390fd5b505b6040517f08c379a000000000000000000000000000000000000000000000000000000000815260040161249c90614084565b60405180910390fd5b63f23a6e6160e01b7bffffffffffffffffffffffffffffffffffffffffffffffffffffffff1916817bffffffffffffffffffffffffffffffffffffffffffffffffffffffff19161461252c576040517f08c379a000000000000000000000000000000000000000000000000000000000815260040161252390614112565b60405180910390fd5b505b505050505050565b6125558473ffffffffffffffffffffffffffffffffffffffff1661270c565b15612704578373ffffffffffffffffffffffffffffffffffffffff1663bc197c8187878686866040518663ffffffff1660e01b815260040161259b959493929190614130565b6020604051808303815f875af19250505080156125d657506040513d601f19601f820116820180604052508101906125d39190613f2f565b60015b61267b576125e2613f66565b806308c379a00361263e57506125f6613f85565b806126015750612640565b806040517f08c379a0000000000000000000000000000000000000000000000000000000008152600401612635919061299a565b60405180910390fd5b505b6040517f08c379a000000000000000000000000000000000000000000000000000000000815260040161267290614084565b60405180910390fd5b63bc197c8160e01b7bffffffffffffffffffffffffffffffffffffffffffffffffffffffff1916817bffffffffffffffffffffffffffffffffffffffffffffffffffffffff191614612702576040517f08c379a00000000000000000000000000000000000000000000000000000000081526004016126f990614112565b60405180910390fd5b505b505050505050565b5f808273ffffffffffffffffffffffffffffffffffffffff163b119050919050565b5f604051905090565b5f80fd5b5f80fd5b5f73ffffffffffffffffffffffffffffffffffffffff82169050919050565b5f6127688261273f565b9050919050565b6127788161275e565b8114612782575f80fd5b50565b5f813590506127938161276f565b92915050565b5f819050919050565b6127ab81612799565b81146127b5575f80fd5b50565b5f813590506127c6816127a2565b92915050565b5f80604083850312156127e2576127e1612737565b5b5f6127ef85828601612785565b9250506020612800858286016127b8565b9150509250929050565b61281381612799565b82525050565b5f60208201905061282c5f83018461280a565b92915050565b5f7fffffffff0000000000000000000000000000000000000000000000000000000082169050919050565b61286681612832565b8114612870575f80fd5b50565b5f813590506128818161285d565b92915050565b5f6020828403121561289c5761289b612737565b5b5f6128a984828501612873565b91505092915050565b5f8115159050919050565b6128c6816128b2565b82525050565b5f6020820190506128df5f8301846128bd565b92915050565b5f602082840312156128fa576128f9612737565b5b5f612907848285016127b8565b91505092915050565b5f81519050919050565b5f82825260208201905092915050565b5f5b8381101561294757808201518184015260208101905061292c565b5f8484015250505050565b5f601f19601f8301169050919050565b5f61296c82612910565b612976818561291a565b935061298681856020860161292a565b61298f81612952565b840191505092915050565b5f6020820190508181035f8301526129b28184612962565b905092915050565b5f80604083850312156129d0576129cf612737565b5b5f6129dd858286016127b8565b92505060206129ee858286016127b8565b9150509250929050565b5f80fd5b7f4e487b71000000000000000000000000000000000000000000000000000000005f52604160045260245ffd5b612a3282612952565b810181811067ffffffffffffffff82111715612a5157612a506129fc565b5b80604052505050565b5f612a6361272e565b9050612a6f8282612a29565b919050565b5f67ffffffffffffffff821115612a8e57612a8d6129fc565b5b602082029050602081019050919050565b5f80fd5b5f612ab5612ab084612a74565b612a5a565b90508083825260208201905060208402830185811115612ad857612ad7612a9f565b5b835b81811015612b015780612aed88826127b8565b845260208401935050602081019050612ada565b5050509392505050565b5f82601f830112612b1f57612b1e6129f8565b5b8135612b2f848260208601612aa3565b91505092915050565b5f80fd5b5f67ffffffffffffffff821115612b5657612b556129fc565b5b612b5f82612952565b9050602081019050919050565b828183375f83830152505050565b5f612b8c612b8784612b3c565b612a5a565b905082815260208101848484011115612ba857612ba7612b38565b5b612bb3848285612b6c565b509392505050565b5f82601f830112612bcf57612bce6129f8565b5b8135612bdf848260208601612b7a565b91505092915050565b5f805f805f60a08688031215612c0157612c00612737565b5b5f612c0e88828901612785565b9550506020612c1f88828901612785565b945050604086013567ffffffffffffffff811115612c4057612c3f61273b565b5b612c4c88828901612b0b565b935050606086013567ffffffffffffffff811115612c6d57612c6c61273b565b5b612c7988828901612b0b565b925050608086013567ffffffffffffffff811115612c9a57612c9961273b565b5b612ca688828901612bbb565b9150509295509295909350565b5f67ffffffffffffffff821115612ccd57612ccc6129fc565b5b612cd682612952565b9050602081019050919050565b5f612cf5612cf084612cb3565b612a5a565b905082815260208101848484011115612d1157612d10612b38565b5b612d1c848285612b6c565b509392505050565b5f82601f830112612d3857612d376129f8565b5b8135612d48848260208601612ce3565b91505092915050565b5f60208284031215612d6657612d65612737565b5b5f82013567ffffffffffffffff811115612d8357612d8261273b565b5b612d8f84828501612d24565b91505092915050565b5f67ffffffffffffffff821115612db257612db16129fc565b5b602082029050602081019050919050565b5f612dd5612dd084612d98565b612a5a565b90508083825260208201905060208402830185811115612df857612df7612a9f565b5b835b81811015612e215780612e0d8882612785565b845260208401935050602081019050612dfa565b5050509392505050565b5f82601f830112612e3f57612e3e6129f8565b5b8135612e4f848260208601612dc3565b91505092915050565b5f8060408385031215612e6e57612e6d612737565b5b5f83013567ffffffffffffffff811115612e8b57612e8a61273b565b5b612e9785828601612e2b565b925050602083013567ffffffffffffffff811115612eb857612eb761273b565b5b612ec485828601612b0b565b9150509250929050565b5f81519050919050565b5f82825260208201905092915050565b5f819050602082019050919050565b612f0081612799565b82525050565b5f612f118383612ef7565b60208301905092915050565b5f602082019050919050565b5f612f3382612ece565b612f3d8185612ed8565b9350612f4883612ee8565b805f5b83811015612f78578151612f5f8882612f06565b9750612f6a83612f1d565b925050600181019050612f4b565b5085935050505092915050565b5f6020820190508181035f830152612f9d8184612f29565b905092915050565b612fae8161275e565b82525050565b5f602082019050612fc75f830184612fa5565b92915050565b612fd6816128b2565b8114612fe0575f80fd5b50565b5f81359050612ff181612fcd565b92915050565b5f806040838503121561300d5761300c612737565b5b5f61301a85828601612785565b925050602061302b85828601612fe3565b9150509250929050565b5f805f806080858703121561304d5761304c612737565b5b5f61305a878288016127b8565b945050602085013567ffffffffffffffff81111561307b5761307a61273b565b5b61308787828801612d24565b9350506040613098878288016127b8565b92505060606130a9878288016127b8565b91505092959194509250565b5f80604083850312156130cb576130ca612737565b5b5f6130d885828601612785565b92505060206130e985828601612785565b9150509250929050565b5f805f805f60a0868803121561310c5761310b612737565b5b5f61311988828901612785565b955050602061312a88828901612785565b945050604061313b888289016127b8565b935050606061314c888289016127b8565b925050608086013567ffffffffffffffff81111561316d5761316c61273b565b5b61317988828901612bbb565b9150509295509295909350565b5f6020828403121561319b5761319a612737565b5b5f6131a884828501612785565b91505092915050565b7f455243313135353a2061646472657373207a65726f206973206e6f74206120765f8201527f616c6964206f776e657200000000000000000000000000000000000000000000602082015250565b5f61320b602a8361291a565b9150613216826131b1565b604082019050919050565b5f6020820190508181035f830152613238816131ff565b9050919050565b7f4e487b71000000000000000000000000000000000000000000000000000000005f52602260045260245ffd5b5f600282049050600182168061328357607f821691505b6020821081036132965761329561323f565b5b50919050565b5f81905092915050565b5f819050815f5260205f209050919050565b5f81546132c48161326c565b6132ce818661329c565b9450600182165f81146132e857600181146132fd5761332f565b60ff198316865281151582028601935061332f565b613306856132a6565b5f5b8381101561332757815481890152600182019150602081019050613308565b838801955050505b50505092915050565b5f61334282612910565b61334c818561329c565b935061335c81856020860161292a565b80840191505092915050565b5f61337382856132b8565b915061337f8284613338565b91508190509392505050565b7f496e76616c6964204e46542074797065000000000000000000000000000000005f82015250565b5f6133bf60108361291a565b91506133ca8261338b565b602082019050919050565b5f6020820190508181035f8301526133ec816133b3565b9050919050565b7f416d6f756e74206d7573742062652067726561746572207468616e207a65726f5f82015250565b5f61342760208361291a565b9150613432826133f3565b602082019050919050565b5f6020820190508181035f8301526134548161341b565b9050919050565b7f4d617820737570706c79207265616368656400000000000000000000000000005f82015250565b5f61348f60128361291a565b915061349a8261345b565b602082019050919050565b5f6020820190508181035f8301526134bc81613483565b9050919050565b7f455243313135353a2063616c6c6572206973206e6f7420746f6b656e206f776e5f8201527f6572206f7220617070726f766564000000000000000000000000000000000000602082015250565b5f61351d602e8361291a565b9150613528826134c3565b604082019050919050565b5f6020820190508181035f83015261354a81613511565b9050919050565b5f6020601f8301049050919050565b5f82821b905092915050565b5f6008830261359b7fffffffffffffffffffffffffffffffffffffffffffffffffffffffffffffffff82613560565b6135a58683613560565b95508019841693508086168417925050509392505050565b5f819050919050565b5f6135e06135db6135d684612799565b6135bd565b612799565b9050919050565b5f819050919050565b6135f9836135c6565b61360d613605826135e7565b84845461356c565b825550505050565b5f90565b613621613615565b61362c8184846135f0565b505050565b5b8181101561364f576136445f82613619565b600181019050613632565b5050565b601f82111561369457613665816132a6565b61366e84613551565b8101602085101561367d578190505b61369161368985613551565b830182613631565b50505b505050565b5f82821c905092915050565b5f6136b45f1984600802613699565b1980831691505092915050565b5f6136cc83836136a5565b9150826002028217905092915050565b6136e582612910565b67ffffffffffffffff8111156136fe576136fd6129fc565b5b613708825461326c565b613713828285613653565b5f60209050601f831160018114613744575f8415613732578287015190505b61373c85826136c1565b8655506137a3565b601f198416613752866132a6565b5f5b8281101561377957848901518255600182019150602085019450602081019050613754565b868310156137965784890151613792601f8916826136a5565b8355505b6001600288020188555050505b505050505050565b7f455243313135353a206163636f756e747320616e6420696473206c656e6774685f8201527f206d69736d617463680000000000000000000000000000000000000000000000602082015250565b5f61380560298361291a565b9150613810826137ab565b604082019050919050565b5f6020820190508181035f830152613832816137f9565b9050919050565b7f4e487b71000000000000000000000000000000000000000000000000000000005f52603260045260245ffd5b7f4e487b71000000000000000000000000000000000000000000000000000000005f52601160045260245ffd5b5f61389d82612799565b91507fffffffffffffffffffffffffffffffffffffffffffffffffffffffffffffffff82036138cf576138ce613866565b5b600182019050919050565b5f6138e482612799565b91506138ef83612799565b925082820390508181111561390757613906613866565b5b92915050565b7f4f776e61626c653a206e6577206f776e657220697320746865207a65726f20615f8201527f6464726573730000000000000000000000000000000000000000000000000000602082015250565b5f61396760268361291a565b91506139728261390d565b604082019050919050565b5f6020820190508181035f8301526139948161395b565b9050919050565b7f496e697469616c697a61626c653a20636f6e747261637420697320616c7265615f8201527f647920696e697469616c697a6564000000000000000000000000000000000000602082015250565b5f6139f5602e8361291a565b9150613a008261399b565b604082019050919050565b5f6020820190508181035f830152613a22816139e9565b9050919050565b5f819050919050565b5f60ff82169050919050565b5f613a58613a53613a4e84613a29565b6135bd565b613a32565b9050919050565b613a6881613a3e565b82525050565b5f602082019050613a815f830184613a5f565b92915050565b7f4e487b71000000000000000000000000000000000000000000000000000000005f52601260045260245ffd5b7f4f776e61626c653a2063616c6c6572206973206e6f7420746865206f776e65725f82015250565b5f613ae860208361291a565b9150613af382613ab4565b602082019050919050565b5f6020820190508181035f830152613b1581613adc565b9050919050565b7f455243313135353a206d696e7420746f20746865207a65726f206164647265735f8201527f7300000000000000000000000000000000000000000000000000000000000000602082015250565b5f613b7660218361291a565b9150613b8182613b1c565b604082019050919050565b5f6020820190508181035f830152613ba381613b6a565b9050919050565b5f613bb482612799565b9150613bbf83612799565b9250828201905080821115613bd757613bd6613866565b5b92915050565b5f604082019050613bf05f83018561280a565b613bfd602083018461280a565b9392505050565b7f455243313135353a2069647320616e6420616d6f756e7473206c656e677468205f8201527f6d69736d61746368000000000000000000000000000000000000000000000000602082015250565b5f613c5e60288361291a565b9150613c6982613c04565b604082019050919050565b5f6020820190508181035f830152613c8b81613c52565b9050919050565b7f455243313135353a207472616e7366657220746f20746865207a65726f2061645f8201527f6472657373000000000000000000000000000000000000000000000000000000602082015250565b5f613cec60258361291a565b9150613cf782613c92565b604082019050919050565b5f6020820190508181035f830152613d1981613ce0565b9050919050565b7f455243313135353a20696e73756666696369656e742062616c616e636520666f5f8201527f72207472616e7366657200000000000000000000000000000000000000000000602082015250565b5f613d7a602a8361291a565b9150613d8582613d20565b604082019050919050565b5f6020820190508181035f830152613da781613d6e565b9050919050565b5f6040820190508181035f830152613dc68185612f29565b90508181036020830152613dda8184612f29565b90509392505050565b7f455243313135353a2073657474696e6720617070726f76616c207374617475735f8201527f20666f722073656c660000000000000000000000000000000000000000000000602082015250565b5f613e3d60298361291a565b9150613e4882613de3565b604082019050919050565b5f6020820190508181035f830152613e6a81613e31565b9050919050565b5f81519050919050565b5f82825260208201905092915050565b5f613e9582613e71565b613e9f8185613e7b565b9350613eaf81856020860161292a565b613eb881612952565b840191505092915050565b5f60a082019050613ed65f830188612fa5565b613ee36020830187612fa5565b613ef0604083018661280a565b613efd606083018561280a565b8181036080830152613f0f8184613e8b565b90509695505050505050565b5f81519050613f298161285d565b92915050565b5f60208284031215613f4457613f43612737565b5b5f613f5184828501613f1b565b91505092915050565b5f8160e01c9050919050565b5f60033d1115613f825760045f803e613f7f5f51613f5a565b90505b90565b5f60443d1061401157613f9661272e565b60043d036004823e80513d602482011167ffffffffffffffff82111715613fbe575050614011565b808201805167ffffffffffffffff811115613fdc5750505050614011565b80602083010160043d038501811115613ff9575050505050614011565b61400882602001850186612a29565b82955050505050505b90565b7f455243313135353a207472616e7366657220746f206e6f6e2d455243313135355f8201527f526563656976657220696d706c656d656e746572000000000000000000000000602082015250565b5f61406e60348361291a565b915061407982614014565b604082019050919050565b5f6020820190508181035f83015261409b81614062565b9050919050565b7f455243313135353a204552433131353552656365697665722072656a656374655f8201527f6420746f6b656e73000000000000000000000000000000000000000000000000602082015250565b5f6140fc60288361291a565b9150614107826140a2565b604082019050919050565b5f6020820190508181035f830152614129816140f0565b9050919050565b5f60a0820190506141435f830188612fa5565b6141506020830187612fa5565b81810360408301526141628186612f29565b905081810360608301526141768185612f29565b9050818103608083015261418a8184613e8b565b9050969550505050505056fea26469706673582212207b919b447f339e635bcd1c4eb2ee77afeec59d280b551cb0cf0e5a1ee72c6ad064736f6c63430008140033",
			"opcodes": "PUSH1 0x80 PUSH1 0x40 MSTORE CALLVALUE DUP1 ISZERO PUSH3 0x10 JUMPI PUSH0 DUP1 REVERT JUMPDEST POP PUSH1 0x40 MLOAD DUP1 PUSH1 0x20 ADD PUSH1 0x40 MSTORE DUP1 PUSH0 DUP2 MSTORE POP PUSH3 0x31 DUP2 PUSH3 0x68 PUSH1 0x20 SHL PUSH1 0x20 SHR JUMP JUMPDEST POP PUSH3 0x52 PUSH3 0x46 PUSH3 0x7D PUSH1 0x20 SHL PUSH1 0x20 SHR JUMP JUMPDEST PUSH3 0x84 PUSH1 0x20 SHL PUSH1 0x20 SHR JUMP JUMPDEST PUSH3 0x62 PUSH3 0x147 PUSH1 0x20 SHL PUSH1 0x20 SHR JUMP JUMPDEST PUSH3 0x634 JUMP JUMPDEST DUP1 PUSH1 0x2 SWAP1 DUP2 PUSH3 0x79 SWAP2 SWAP1 PUSH3 0x474 JUMP JUMPDEST POP POP JUMP JUMPDEST PUSH0 CALLER SWAP1 POP SWAP1 JUMP JUMPDEST PUSH0 PUSH1 0x3 PUSH0 SWAP1 SLOAD SWAP1 PUSH2 0x100 EXP SWAP1 DIV PUSH20 0xFFFFFFFFFFFFFFFFFFFFFFFFFFFFFFFFFFFFFFFF AND SWAP1 POP DUP2 PUSH1 0x3 PUSH0 PUSH2 0x100 EXP DUP2 SLOAD DUP2 PUSH20 0xFFFFFFFFFFFFFFFFFFFFFFFFFFFFFFFFFFFFFFFF MUL NOT AND SWAP1 DUP4 PUSH20 0xFFFFFFFFFFFFFFFFFFFFFFFFFFFFFFFFFFFFFFFF AND MUL OR SWAP1 SSTORE POP DUP2 PUSH20 0xFFFFFFFFFFFFFFFFFFFFFFFFFFFFFFFFFFFFFFFF AND DUP2 PUSH20 0xFFFFFFFFFFFFFFFFFFFFFFFFFFFFFFFFFFFFFFFF AND PUSH32 0x8BE0079C531659141344CD1FD0A4F28419497F9722A3DAAFE3B4186F6B6457E0 PUSH1 0x40 MLOAD PUSH1 0x40 MLOAD DUP1 SWAP2 SUB SWAP1 LOG3 POP POP JUMP JUMPDEST PUSH1 0x3 PUSH1 0x15 SWAP1 SLOAD SWAP1 PUSH2 0x100 EXP SWAP1 DIV PUSH1 0xFF AND ISZERO PUSH3 0x19A JUMPI PUSH1 0x40 MLOAD PUSH32 0x8C379A000000000000000000000000000000000000000000000000000000000 DUP2 MSTORE PUSH1 0x4 ADD PUSH3 0x191 SWAP1 PUSH3 0x5DC JUMP JUMPDEST PUSH1 0x40 MLOAD DUP1 SWAP2 SUB SWAP1 REVERT JUMPDEST PUSH1 0xFF DUP1 AND PUSH1 0x3 PUSH1 0x14 SWAP1 SLOAD SWAP1 PUSH2 0x100 EXP SWAP1 DIV PUSH1 0xFF AND PUSH1 0xFF AND EQ PUSH3 0x20E JUMPI PUSH1 0xFF PUSH1 0x3 PUSH1 0x14 PUSH2 0x100 EXP DUP2 SLOAD DUP2 PUSH1 0xFF MUL NOT AND SWAP1 DUP4 PUSH1 0xFF AND MUL OR SWAP1 SSTORE POP PUSH32 0x7F26B83FF96E1F2B6A682F133852F6798A09C465DA95921460CEFB3847402498 PUSH1 0xFF PUSH1 0x40 MLOAD PUSH3 0x205 SWAP2 SWAP1 PUSH3 0x619 JUMP JUMPDEST PUSH1 0x40 MLOAD DUP1 SWAP2 SUB SWAP1 LOG1 JUMPDEST JUMP JUMPDEST PUSH0 DUP2 MLOAD SWAP1 POP SWAP2 SWAP1 POP JUMP JUMPDEST PUSH32 0x4E487B7100000000000000000000000000000000000000000000000000000000 PUSH0 MSTORE PUSH1 0x41 PUSH1 0x4 MSTORE PUSH1 0x24 PUSH0 REVERT JUMPDEST PUSH32 0x4E487B7100000000000000000000000000000000000000000000000000000000 PUSH0 MSTORE PUSH1 0x22 PUSH1 0x4 MSTORE PUSH1 0x24 PUSH0 REVERT JUMPDEST PUSH0 PUSH1 0x2 DUP3 DIV SWAP1 POP PUSH1 0x1 DUP3 AND DUP1 PUSH3 0x28C JUMPI PUSH1 0x7F DUP3 AND SWAP2 POP JUMPDEST PUSH1 0x20 DUP3 LT DUP2 SUB PUSH3 0x2A2 JUMPI PUSH3 0x2A1 PUSH3 0x247 JUMP JUMPDEST JUMPDEST POP SWAP2 SWAP1 POP JUMP JUMPDEST PUSH0 DUP2 SWAP1 POP DUP2 PUSH0 MSTORE PUSH1 0x20 PUSH0 KECCAK256 SWAP1 POP SWAP2 SWAP1 POP JUMP JUMPDEST PUSH0 PUSH1 0x20 PUSH1 0x1F DUP4 ADD DIV SWAP1 POP SWAP2 SWAP1 POP JUMP JUMPDEST PUSH0 DUP3 DUP3 SHL SWAP1 POP SWAP3 SWAP2 POP POP JUMP JUMPDEST PUSH0 PUSH1 0x8 DUP4 MUL PUSH3 0x306 PUSH32 0xFFFFFFFFFFFFFFFFFFFFFFFFFFFFFFFFFFFFFFFFFFFFFFFFFFFFFFFFFFFFFFFF DUP3 PUSH3 0x2C9 JUMP JUMPDEST PUSH3 0x312 DUP7 DUP4 PUSH3 0x2C9 JUMP JUMPDEST SWAP6 POP DUP1 NOT DUP5 AND SWAP4 POP DUP1 DUP7 AND DUP5 OR SWAP3 POP POP POP SWAP4 SWAP3 POP POP POP JUMP JUMPDEST PUSH0 DUP2 SWAP1 POP SWAP2 SWAP1 POP JUMP JUMPDEST PUSH0 DUP2 SWAP1 POP SWAP2 SWAP1 POP JUMP JUMPDEST PUSH0 PUSH3 0x35C PUSH3 0x356 PUSH3 0x350 DUP5 PUSH3 0x32A JUMP JUMPDEST PUSH3 0x333 JUMP JUMPDEST PUSH3 0x32A JUMP JUMPDEST SWAP1 POP SWAP2 SWAP1 POP JUMP JUMPDEST PUSH0 DUP2 SWAP1 POP SWAP2 SWAP1 POP JUMP JUMPDEST PUSH3 0x377 DUP4 PUSH3 0x33C JUMP JUMPDEST PUSH3 0x38F PUSH3 0x386 DUP3 PUSH3 0x363 JUMP JUMPDEST DUP5 DUP5 SLOAD PUSH3 0x2D5 JUMP JUMPDEST DUP3 SSTORE POP POP POP POP JUMP JUMPDEST PUSH0 SWAP1 JUMP JUMPDEST PUSH3 0x3A5 PUSH3 0x397 JUMP JUMPDEST PUSH3 0x3B2 DUP2 DUP5 DUP5 PUSH3 0x36C JUMP JUMPDEST POP POP POP JUMP JUMPDEST JUMPDEST DUP2 DUP2 LT ISZERO PUSH3 0x3D9 JUMPI PUSH3 0x3CD PUSH0 DUP3 PUSH3 0x39B JUMP JUMPDEST PUSH1 0x1 DUP2 ADD SWAP1 POP PUSH3 0x3B8 JUMP JUMPDEST POP POP JUMP JUMPDEST PUSH1 0x1F DUP3 GT ISZERO PUSH3 0x428 JUMPI PUSH3 0x3F2 DUP2 PUSH3 0x2A8 JUMP JUMPDEST PUSH3 0x3FD DUP5 PUSH3 0x2BA JUMP JUMPDEST DUP2 ADD PUSH1 0x20 DUP6 LT ISZERO PUSH3 0x40D JUMPI DUP2 SWAP1 POP JUMPDEST PUSH3 0x425 PUSH3 0x41C DUP6 PUSH3 0x2BA JUMP JUMPDEST DUP4 ADD DUP3 PUSH3 0x3B7 JUMP JUMPDEST POP POP JUMPDEST POP POP POP JUMP JUMPDEST PUSH0 DUP3 DUP3 SHR SWAP1 POP SWAP3 SWAP2 POP POP JUMP JUMPDEST PUSH0 PUSH3 0x44A PUSH0 NOT DUP5 PUSH1 0x8 MUL PUSH3 0x42D JUMP JUMPDEST NOT DUP1 DUP4 AND SWAP2 POP POP SWAP3 SWAP2 POP POP JUMP JUMPDEST PUSH0 PUSH3 0x464 DUP4 DUP4 PUSH3 0x439 JUMP JUMPDEST SWAP2 POP DUP3 PUSH1 0x2 MUL DUP3 OR SWAP1 POP SWAP3 SWAP2 POP POP JUMP JUMPDEST PUSH3 0x47F DUP3 PUSH3 0x210 JUMP JUMPDEST PUSH8 0xFFFFFFFFFFFFFFFF DUP2 GT ISZERO PUSH3 0x49B JUMPI PUSH3 0x49A PUSH3 0x21A JUMP JUMPDEST JUMPDEST PUSH3 0x4A7 DUP3 SLOAD PUSH3 0x274 JUMP JUMPDEST PUSH3 0x4B4 DUP3 DUP3 DUP6 PUSH3 0x3DD JUMP JUMPDEST PUSH0 PUSH1 0x20 SWAP1 POP PUSH1 0x1F DUP4 GT PUSH1 0x1 DUP2 EQ PUSH3 0x4EA JUMPI PUSH0 DUP5 ISZERO PUSH3 0x4D5 JUMPI DUP3 DUP8 ADD MLOAD SWAP1 POP JUMPDEST PUSH3 0x4E1 DUP6 DUP3 PUSH3 0x457 JUMP JUMPDEST DUP7 SSTORE POP PUSH3 0x550 JUMP JUMPDEST PUSH1 0x1F NOT DUP5 AND PUSH3 0x4FA DUP7 PUSH3 0x2A8 JUMP JUMPDEST PUSH0 JUMPDEST DUP3 DUP2 LT ISZERO PUSH3 0x523 JUMPI DUP5 DUP10 ADD MLOAD DUP3 SSTORE PUSH1 0x1 DUP3 ADD SWAP2 POP PUSH1 0x20 DUP6 ADD SWAP5 POP PUSH1 0x20 DUP2 ADD SWAP1 POP PUSH3 0x4FC JUMP JUMPDEST DUP7 DUP4 LT ISZERO PUSH3 0x543 JUMPI DUP5 DUP10 ADD MLOAD PUSH3 0x53F PUSH1 0x1F DUP10 AND DUP3 PUSH3 0x439 JUMP JUMPDEST DUP4 SSTORE POP JUMPDEST PUSH1 0x1 PUSH1 0x2 DUP9 MUL ADD DUP9 SSTORE POP POP POP JUMPDEST POP POP POP POP POP POP JUMP JUMPDEST PUSH0 DUP3 DUP3 MSTORE PUSH1 0x20 DUP3 ADD SWAP1 POP SWAP3 SWAP2 POP POP JUMP JUMPDEST PUSH32 0x496E697469616C697A61626C653A20636F6E747261637420697320696E697469 PUSH0 DUP3 ADD MSTORE PUSH32 0x616C697A696E6700000000000000000000000000000000000000000000000000 PUSH1 0x20 DUP3 ADD MSTORE POP JUMP JUMPDEST PUSH0 PUSH3 0x5C4 PUSH1 0x27 DUP4 PUSH3 0x558 JUMP JUMPDEST SWAP2 POP PUSH3 0x5D1 DUP3 PUSH3 0x568 JUMP JUMPDEST PUSH1 0x40 DUP3 ADD SWAP1 POP SWAP2 SWAP1 POP JUMP JUMPDEST PUSH0 PUSH1 0x20 DUP3 ADD SWAP1 POP DUP2 DUP2 SUB PUSH0 DUP4 ADD MSTORE PUSH3 0x5F5 DUP2 PUSH3 0x5B6 JUMP JUMPDEST SWAP1 POP SWAP2 SWAP1 POP JUMP JUMPDEST PUSH0 PUSH1 0xFF DUP3 AND SWAP1 POP SWAP2 SWAP1 POP JUMP JUMPDEST PUSH3 0x613 DUP2 PUSH3 0x5FC JUMP JUMPDEST DUP3 MSTORE POP POP JUMP JUMPDEST PUSH0 PUSH1 0x20 DUP3 ADD SWAP1 POP PUSH3 0x62E PUSH0 DUP4 ADD DUP5 PUSH3 0x608 JUMP JUMPDEST SWAP3 SWAP2 POP POP JUMP JUMPDEST PUSH2 0x41CC DUP1 PUSH3 0x642 PUSH0 CODECOPY PUSH0 RETURN INVALID PUSH1 0x80 PUSH1 0x40 MSTORE CALLVALUE DUP1 ISZERO PUSH2 0xF JUMPI PUSH0 DUP1 REVERT JUMPDEST POP PUSH1 0x4 CALLDATASIZE LT PUSH2 0x245 JUMPI PUSH0 CALLDATALOAD PUSH1 0xE0 SHR DUP1 PUSH4 0x87962DCC GT PUSH2 0x139 JUMPI DUP1 PUSH4 0xC0019692 GT PUSH2 0xB6 JUMPI DUP1 PUSH4 0xF242432A GT PUSH2 0x7A JUMPI DUP1 PUSH4 0xF242432A EQ PUSH2 0x6C1 JUMPI DUP1 PUSH4 0xF2F842CC EQ PUSH2 0x6DD JUMPI DUP1 PUSH4 0xF2FDE38B EQ PUSH2 0x6FB JUMPI DUP1 PUSH4 0xF62D1888 EQ PUSH2 0x717 JUMPI DUP1 PUSH4 0xF856CFE9 EQ PUSH2 0x733 JUMPI PUSH2 0x245 JUMP JUMPDEST DUP1 PUSH4 0xC0019692 EQ PUSH2 0x609 JUMPI DUP1 PUSH4 0xC70A2CF7 EQ PUSH2 0x625 JUMPI DUP1 PUSH4 0xCBEEEE3F EQ PUSH2 0x655 JUMPI DUP1 PUSH4 0xE985E9C5 EQ PUSH2 0x673 JUMPI DUP1 PUSH4 0xEA4DF068 EQ PUSH2 0x6A3 JUMPI PUSH2 0x245 JUMP JUMPDEST DUP1 PUSH4 0x8F754BCE GT PUSH2 0xFD JUMPI DUP1 PUSH4 0x8F754BCE EQ PUSH2 0x563 JUMPI DUP1 PUSH4 0x9732F1D5 EQ PUSH2 0x581 JUMPI DUP1 PUSH4 0xA22CB465 EQ PUSH2 0x5B1 JUMPI DUP1 PUSH4 0xAC33E90E EQ PUSH2 0x5CD JUMPI DUP1 PUSH4 0xAE19A59E EQ PUSH2 0x5EB JUMPI PUSH2 0x245 JUMP JUMPDEST DUP1 PUSH4 0x87962DCC EQ PUSH2 0x4BB JUMPI DUP1 PUSH4 0x89049A7F EQ PUSH2 0x4EB JUMPI DUP1 PUSH4 0x8A26CBFE EQ PUSH2 0x509 JUMPI DUP1 PUSH4 0x8D0F7D36 EQ PUSH2 0x527 JUMPI DUP1 PUSH4 0x8DA5CB5B EQ PUSH2 0x545 JUMPI PUSH2 0x245 JUMP JUMPDEST DUP1 PUSH4 0x3E007C1F GT PUSH2 0x1C7 JUMPI DUP1 PUSH4 0x4F4BCB99 GT PUSH2 0x18B JUMPI DUP1 PUSH4 0x4F4BCB99 EQ PUSH2 0x439 JUMPI DUP1 PUSH4 0x52CB7901 EQ PUSH2 0x457 JUMPI DUP1 PUSH4 0x6A5D48CA EQ PUSH2 0x475 JUMPI DUP1 PUSH4 0x706DF796 EQ PUSH2 0x493 JUMPI DUP1 PUSH4 0x715018A6 EQ PUSH2 0x4B1 JUMPI PUSH2 0x245 JUMP JUMPDEST DUP1 PUSH4 0x3E007C1F EQ PUSH2 0x3A5 JUMPI DUP1 PUSH4 0x3FB0D0CB EQ PUSH2 0x3C3 JUMPI DUP1 PUSH4 0x41620881 EQ PUSH2 0x3E1 JUMPI DUP1 PUSH4 0x4E1273F4 EQ PUSH2 0x3EB JUMPI DUP1 PUSH4 0x4E7286BF EQ PUSH2 0x41B JUMPI PUSH2 0x245 JUMP JUMPDEST DUP1 PUSH4 0x1B2EF1CA GT PUSH2 0x20E JUMPI DUP1 PUSH4 0x1B2EF1CA EQ PUSH2 0x315 JUMPI DUP1 PUSH4 0x20766729 EQ PUSH2 0x331 JUMPI DUP1 PUSH4 0x2EB2C2D6 EQ PUSH2 0x34F JUMPI DUP1 PUSH4 0x30176E13 EQ PUSH2 0x36B JUMPI DUP1 PUSH4 0x30ED51C8 EQ PUSH2 0x387 JUMPI PUSH2 0x245 JUMP JUMPDEST DUP1 PUSH3 0xFDD58E EQ PUSH2 0x249 JUMPI DUP1 PUSH4 0x1FFC9A7 EQ PUSH2 0x279 JUMPI DUP1 PUSH4 0x74186B0 EQ PUSH2 0x2A9 JUMPI DUP1 PUSH4 0xD454388 EQ PUSH2 0x2C7 JUMPI DUP1 PUSH4 0xE89341C EQ PUSH2 0x2E5 JUMPI JUMPDEST PUSH0 DUP1 REVERT JUMPDEST PUSH2 0x263 PUSH1 0x4 DUP1 CALLDATASIZE SUB DUP2 ADD SWAP1 PUSH2 0x25E SWAP2 SWAP1 PUSH2 0x27CC JUMP JUMPDEST PUSH2 0x751 JUMP JUMPDEST PUSH1 0x40 MLOAD PUSH2 0x270 SWAP2 SWAP1 PUSH2 0x2819 JUMP JUMPDEST PUSH1 0x40 MLOAD DUP1 SWAP2 SUB SWAP1 RETURN JUMPDEST PUSH2 0x293 PUSH1 0x4 DUP1 CALLDATASIZE SUB DUP2 ADD SWAP1 PUSH2 0x28E SWAP2 SWAP1 PUSH2 0x2887 JUMP JUMPDEST PUSH2 0x814 JUMP JUMPDEST PUSH1 0x40 MLOAD PUSH2 0x2A0 SWAP2 SWAP1 PUSH2 0x28CC JUMP JUMPDEST PUSH1 0x40 MLOAD DUP1 SWAP2 SUB SWAP1 RETURN JUMPDEST PUSH2 0x2B1 PUSH2 0x8F5 JUMP JUMPDEST PUSH1 0x40 MLOAD PUSH2 0x2BE SWAP2 SWAP1 PUSH2 0x2819 JUMP JUMPDEST PUSH1 0x40 MLOAD DUP1 SWAP2 SUB SWAP1 RETURN JUMPDEST PUSH2 0x2CF PUSH2 0x8FA JUMP JUMPDEST PUSH1 0x40 MLOAD PUSH2 0x2DC SWAP2 SWAP1 PUSH2 0x2819 JUMP JUMPDEST PUSH1 0x40 MLOAD DUP1 SWAP2 SUB SWAP1 RETURN JUMPDEST PUSH2 0x2FF PUSH1 0x4 DUP1 CALLDATASIZE SUB DUP2 ADD SWAP1 PUSH2 0x2FA SWAP2 SWAP1 PUSH2 0x28E5 JUMP JUMPDEST PUSH2 0x8FF JUMP JUMPDEST PUSH1 0x40 MLOAD PUSH2 0x30C SWAP2 SWAP1 PUSH2 0x299A JUMP JUMPDEST PUSH1 0x40 MLOAD DUP1 SWAP2 SUB SWAP1 RETURN JUMPDEST PUSH2 0x32F PUSH1 0x4 DUP1 CALLDATASIZE SUB DUP2 ADD SWAP1 PUSH2 0x32A SWAP2 SWAP1 PUSH2 0x29BA JUMP JUMPDEST PUSH2 0x95D JUMP JUMPDEST STOP JUMPDEST PUSH2 0x339 PUSH2 0xA66 JUMP JUMPDEST PUSH1 0x40 MLOAD PUSH2 0x346 SWAP2 SWAP1 PUSH2 0x2819 JUMP JUMPDEST PUSH1 0x40 MLOAD DUP1 SWAP2 SUB SWAP1 RETURN JUMPDEST PUSH2 0x369 PUSH1 0x4 DUP1 CALLDATASIZE SUB DUP2 ADD SWAP1 PUSH2 0x364 SWAP2 SWAP1 PUSH2 0x2BE8 JUMP JUMPDEST PUSH2 0xA6B JUMP JUMPDEST STOP JUMPDEST PUSH2 0x385 PUSH1 0x4 DUP1 CALLDATASIZE SUB DUP2 ADD SWAP1 PUSH2 0x380 SWAP2 SWAP1 PUSH2 0x2D51 JUMP JUMPDEST PUSH2 0xB0C JUMP JUMPDEST STOP JUMPDEST PUSH2 0x38F PUSH2 0xB27 JUMP JUMPDEST PUSH1 0x40 MLOAD PUSH2 0x39C SWAP2 SWAP1 PUSH2 0x2819 JUMP JUMPDEST PUSH1 0x40 MLOAD DUP1 SWAP2 SUB SWAP1 RETURN JUMPDEST PUSH2 0x3AD PUSH2 0xB2C JUMP JUMPDEST PUSH1 0x40 MLOAD PUSH2 0x3BA SWAP2 SWAP1 PUSH2 0x2819 JUMP JUMPDEST PUSH1 0x40 MLOAD DUP1 SWAP2 SUB SWAP1 RETURN JUMPDEST PUSH2 0x3CB PUSH2 0xB31 JUMP JUMPDEST PUSH1 0x40 MLOAD PUSH2 0x3D8 SWAP2 SWAP1 PUSH2 0x2819 JUMP JUMPDEST PUSH1 0x40 MLOAD DUP1 SWAP2 SUB SWAP1 RETURN JUMPDEST PUSH2 0x3E9 PUSH2 0xB36 JUMP JUMPDEST STOP JUMPDEST PUSH2 0x405 PUSH1 0x4 DUP1 CALLDATASIZE SUB DUP2 ADD SWAP1 PUSH2 0x400 SWAP2 SWAP1 PUSH2 0x2E58 JUMP JUMPDEST PUSH2 0xF70 JUMP JUMPDEST PUSH1 0x40 MLOAD PUSH2 0x412 SWAP2 SWAP1 PUSH2 0x2F85 JUMP JUMPDEST PUSH1 0x40 MLOAD DUP1 SWAP2 SUB SWAP1 RETURN JUMPDEST PUSH2 0x423 PUSH2 0x1087 JUMP JUMPDEST PUSH1 0x40 MLOAD PUSH2 0x430 SWAP2 SWAP1 PUSH2 0x2819 JUMP JUMPDEST PUSH1 0x40 MLOAD DUP1 SWAP2 SUB SWAP1 RETURN JUMPDEST PUSH2 0x441 PUSH2 0x108C JUMP JUMPDEST PUSH1 0x40 MLOAD PUSH2 0x44E SWAP2 SWAP1 PUSH2 0x2819 JUMP JUMPDEST PUSH1 0x40 MLOAD DUP1 SWAP2 SUB SWAP1 RETURN JUMPDEST PUSH2 0x45F PUSH2 0x1091 JUMP JUMPDEST PUSH1 0x40 MLOAD PUSH2 0x46C SWAP2 SWAP1 PUSH2 0x2819 JUMP JUMPDEST PUSH1 0x40 MLOAD DUP1 SWAP2 SUB SWAP1 RETURN JUMPDEST PUSH2 0x47D PUSH2 0x1096 JUMP JUMPDEST PUSH1 0x40 MLOAD PUSH2 0x48A SWAP2 SWAP1 PUSH2 0x2819 JUMP JUMPDEST PUSH1 0x40 MLOAD DUP1 SWAP2 SUB SWAP1 RETURN JUMPDEST PUSH2 0x49B PUSH2 0x109B JUMP JUMPDEST PUSH1 0x40 MLOAD PUSH2 0x4A8 SWAP2 SWAP1 PUSH2 0x2819 JUMP JUMPDEST PUSH1 0x40 MLOAD DUP1 SWAP2 SUB SWAP1 RETURN JUMPDEST PUSH2 0x4B9 PUSH2 0x10A0 JUMP JUMPDEST STOP JUMPDEST PUSH2 0x4D5 PUSH1 0x4 DUP1 CALLDATASIZE SUB DUP2 ADD SWAP1 PUSH2 0x4D0 SWAP2 SWAP1 PUSH2 0x28E5 JUMP JUMPDEST PUSH2 0x10B3 JUMP JUMPDEST PUSH1 0x40 MLOAD PUSH2 0x4E2 SWAP2 SWAP1 PUSH2 0x2819 JUMP JUMPDEST PUSH1 0x40 MLOAD DUP1 SWAP2 SUB SWAP1 RETURN JUMPDEST PUSH2 0x4F3 PUSH2 0x10C8 JUMP JUMPDEST PUSH1 0x40 MLOAD PUSH2 0x500 SWAP2 SWAP1 PUSH2 0x2819 JUMP JUMPDEST PUSH1 0x40 MLOAD DUP1 SWAP2 SUB SWAP1 RETURN JUMPDEST PUSH2 0x511 PUSH2 0x10CD JUMP JUMPDEST PUSH1 0x40 MLOAD PUSH2 0x51E SWAP2 SWAP1 PUSH2 0x2819 JUMP JUMPDEST PUSH1 0x40 MLOAD DUP1 SWAP2 SUB SWAP1 RETURN JUMPDEST PUSH2 0x52F PUSH2 0x10D2 JUMP JUMPDEST PUSH1 0x40 MLOAD PUSH2 0x53C SWAP2 SWAP1 PUSH2 0x2819 JUMP JUMPDEST PUSH1 0x40 MLOAD DUP1 SWAP2 SUB SWAP1 RETURN JUMPDEST PUSH2 0x54D PUSH2 0x10D7 JUMP JUMPDEST PUSH1 0x40 MLOAD PUSH2 0x55A SWAP2 SWAP1 PUSH2 0x2FB4 JUMP JUMPDEST PUSH1 0x40 MLOAD DUP1 SWAP2 SUB SWAP1 RETURN JUMPDEST PUSH2 0x56B PUSH2 0x10FF JUMP JUMPDEST PUSH1 0x40 MLOAD PUSH2 0x578 SWAP2 SWAP1 PUSH2 0x2819 JUMP JUMPDEST PUSH1 0x40 MLOAD DUP1 SWAP2 SUB SWAP1 RETURN JUMPDEST PUSH2 0x59B PUSH1 0x4 DUP1 CALLDATASIZE SUB DUP2 ADD SWAP1 PUSH2 0x596 SWAP2 SWAP1 PUSH2 0x28E5 JUMP JUMPDEST PUSH2 0x1104 JUMP JUMPDEST PUSH1 0x40 MLOAD PUSH2 0x5A8 SWAP2 SWAP1 PUSH2 0x299A JUMP JUMPDEST PUSH1 0x40 MLOAD DUP1 SWAP2 SUB SWAP1 RETURN JUMPDEST PUSH2 0x5CB PUSH1 0x4 DUP1 CALLDATASIZE SUB DUP2 ADD SWAP1 PUSH2 0x5C6 SWAP2 SWAP1 PUSH2 0x2FF7 JUMP JUMPDEST PUSH2 0x11AA JUMP JUMPDEST STOP JUMPDEST PUSH2 0x5D5 PUSH2 0x11C0 JUMP JUMPDEST PUSH1 0x40 MLOAD PUSH2 0x5E2 SWAP2 SWAP1 PUSH2 0x2819 JUMP JUMPDEST PUSH1 0x40 MLOAD DUP1 SWAP2 SUB SWAP1 RETURN JUMPDEST PUSH2 0x5F3 PUSH2 0x11C5 JUMP JUMPDEST PUSH1 0x40 MLOAD PUSH2 0x600 SWAP2 SWAP1 PUSH2 0x2819 JUMP JUMPDEST PUSH1 0x40 MLOAD DUP1 SWAP2 SUB SWAP1 RETURN JUMPDEST PUSH2 0x623 PUSH1 0x4 DUP1 CALLDATASIZE SUB DUP2 ADD SWAP1 PUSH2 0x61E SWAP2 SWAP1 PUSH2 0x3035 JUMP JUMPDEST PUSH2 0x11CA JUMP JUMPDEST STOP JUMPDEST PUSH2 0x63F PUSH1 0x4 DUP1 CALLDATASIZE SUB DUP2 ADD SWAP1 PUSH2 0x63A SWAP2 SWAP1 PUSH2 0x28E5 JUMP JUMPDEST PUSH2 0x1289 JUMP JUMPDEST PUSH1 0x40 MLOAD PUSH2 0x64C SWAP2 SWAP1 PUSH2 0x2819 JUMP JUMPDEST PUSH1 0x40 MLOAD DUP1 SWAP2 SUB SWAP1 RETURN JUMPDEST PUSH2 0x65D PUSH2 0x129E JUMP JUMPDEST PUSH1 0x40 MLOAD PUSH2 0x66A SWAP2 SWAP1 PUSH2 0x2819 JUMP JUMPDEST PUSH1 0x40 MLOAD DUP1 SWAP2 SUB SWAP1 RETURN JUMPDEST PUSH2 0x68D PUSH1 0x4 DUP1 CALLDATASIZE SUB DUP2 ADD SWAP1 PUSH2 0x688 SWAP2 SWAP1 PUSH2 0x30B5 JUMP JUMPDEST PUSH2 0x12A3 JUMP JUMPDEST PUSH1 0x40 MLOAD PUSH2 0x69A SWAP2 SWAP1 PUSH2 0x28CC JUMP JUMPDEST PUSH1 0x40 MLOAD DUP1 SWAP2 SUB SWAP1 RETURN JUMPDEST PUSH2 0x6AB PUSH2 0x1331 JUMP JUMPDEST PUSH1 0x40 MLOAD PUSH2 0x6B8 SWAP2 SWAP1 PUSH2 0x2819 JUMP JUMPDEST PUSH1 0x40 MLOAD DUP1 SWAP2 SUB SWAP1 RETURN JUMPDEST PUSH2 0x6DB PUSH1 0x4 DUP1 CALLDATASIZE SUB DUP2 ADD SWAP1 PUSH2 0x6D6 SWAP2 SWAP1 PUSH2 0x30F3 JUMP JUMPDEST PUSH2 0x1336 JUMP JUMPDEST STOP JUMPDEST PUSH2 0x6E5 PUSH2 0x13D7 JUMP JUMPDEST PUSH1 0x40 MLOAD PUSH2 0x6F2 SWAP2 SWAP1 PUSH2 0x2819 JUMP JUMPDEST PUSH1 0x40 MLOAD DUP1 SWAP2 SUB SWAP1 RETURN JUMPDEST PUSH2 0x715 PUSH1 0x4 DUP1 CALLDATASIZE SUB DUP2 ADD SWAP1 PUSH2 0x710 SWAP2 SWAP1 PUSH2 0x3186 JUMP JUMPDEST PUSH2 0x13DC JUMP JUMPDEST STOP JUMPDEST PUSH2 0x731 PUSH1 0x4 DUP1 CALLDATASIZE SUB DUP2 ADD SWAP1 PUSH2 0x72C SWAP2 SWAP1 PUSH2 0x2D51 JUMP JUMPDEST PUSH2 0x145E JUMP JUMPDEST STOP JUMPDEST PUSH2 0x73B PUSH2 0x15B2 JUMP JUMPDEST PUSH1 0x40 MLOAD PUSH2 0x748 SWAP2 SWAP1 PUSH2 0x2819 JUMP JUMPDEST PUSH1 0x40 MLOAD DUP1 SWAP2 SUB SWAP1 RETURN JUMPDEST PUSH0 DUP1 PUSH20 0xFFFFFFFFFFFFFFFFFFFFFFFFFFFFFFFFFFFFFFFF AND DUP4 PUSH20 0xFFFFFFFFFFFFFFFFFFFFFFFFFFFFFFFFFFFFFFFF AND SUB PUSH2 0x7C0 JUMPI PUSH1 0x40 MLOAD PUSH32 0x8C379A000000000000000000000000000000000000000000000000000000000 DUP2 MSTORE PUSH1 0x4 ADD PUSH2 0x7B7 SWAP1 PUSH2 0x3221 JUMP JUMPDEST PUSH1 0x40 MLOAD DUP1 SWAP2 SUB SWAP1 REVERT JUMPDEST PUSH0 DUP1 DUP4 DUP2 MSTORE PUSH1 0x20 ADD SWAP1 DUP2 MSTORE PUSH1 0x20 ADD PUSH0 KECCAK256 PUSH0 DUP5 PUSH20 0xFFFFFFFFFFFFFFFFFFFFFFFFFFFFFFFFFFFFFFFF AND PUSH20 0xFFFFFFFFFFFFFFFFFFFFFFFFFFFFFFFFFFFFFFFF AND DUP2 MSTORE PUSH1 0x20 ADD SWAP1 DUP2 MSTORE PUSH1 0x20 ADD PUSH0 KECCAK256 SLOAD SWAP1 POP SWAP3 SWAP2 POP POP JUMP JUMPDEST PUSH0 PUSH32 0xD9B67A2600000000000000000000000000000000000000000000000000000000 PUSH28 0xFFFFFFFFFFFFFFFFFFFFFFFFFFFFFFFFFFFFFFFFFFFFFFFFFFFFFFFF NOT AND DUP3 PUSH28 0xFFFFFFFFFFFFFFFFFFFFFFFFFFFFFFFFFFFFFFFFFFFFFFFFFFFFFFFF NOT AND EQ DUP1 PUSH2 0x8DE JUMPI POP PUSH32 0xE89341C00000000000000000000000000000000000000000000000000000000 PUSH28 0xFFFFFFFFFFFFFFFFFFFFFFFFFFFFFFFFFFFFFFFFFFFFFFFFFFFFFFFF NOT AND DUP3 PUSH28 0xFFFFFFFFFFFFFFFFFFFFFFFFFFFFFFFFFFFFFFFFFFFFFFFFFFFFFFFF NOT AND EQ JUMPDEST DUP1 PUSH2 0x8EE JUMPI POP PUSH2 0x8ED DUP3 PUSH2 0x15B7 JUMP JUMPDEST JUMPDEST SWAP1 POP SWAP2 SWAP1 POP JUMP JUMPDEST PUSH1 0x19 DUP2 JUMP JUMPDEST PUSH1 0x1 DUP2 JUMP JUMPDEST PUSH1 0x60 PUSH0 PUSH1 0x4 DUP1 SLOAD PUSH2 0x90F SWAP1 PUSH2 0x326C JUMP JUMPDEST SWAP1 POP GT PUSH2 0x92A JUMPI PUSH1 0x40 MLOAD DUP1 PUSH1 0x20 ADD PUSH1 0x40 MSTORE DUP1 PUSH0 DUP2 MSTORE POP PUSH2 0x956 JUMP JUMPDEST PUSH1 0x4 PUSH2 0x935 DUP4 PUSH2 0x1620 JUMP JUMPDEST PUSH1 0x40 MLOAD PUSH1 0x20 ADD PUSH2 0x946 SWAP3 SWAP2 SWAP1 PUSH2 0x3368 JUMP JUMPDEST PUSH1 0x40 MLOAD PUSH1 0x20 DUP2 DUP4 SUB SUB DUP2 MSTORE SWAP1 PUSH1 0x40 MSTORE JUMPDEST SWAP1 POP SWAP2 SWAP1 POP JUMP JUMPDEST PUSH2 0x965 PUSH2 0x16EA JUMP JUMPDEST PUSH1 0x1 DUP3 LT ISZERO DUP1 ISZERO PUSH2 0x977 JUMPI POP PUSH1 0x10 DUP3 GT ISZERO JUMPDEST PUSH2 0x9B6 JUMPI PUSH1 0x40 MLOAD PUSH32 0x8C379A000000000000000000000000000000000000000000000000000000000 DUP2 MSTORE PUSH1 0x4 ADD PUSH2 0x9AD SWAP1 PUSH2 0x33D5 JUMP JUMPDEST PUSH1 0x40 MLOAD DUP1 SWAP2 SUB SWAP1 REVERT JUMPDEST PUSH0 DUP2 GT PUSH2 0x9F8 JUMPI PUSH1 0x40 MLOAD PUSH32 0x8C379A000000000000000000000000000000000000000000000000000000000 DUP2 MSTORE PUSH1 0x4 ADD PUSH2 0x9EF SWAP1 PUSH2 0x343D JUMP JUMPDEST PUSH1 0x40 MLOAD DUP1 SWAP2 SUB SWAP1 REVERT JUMPDEST PUSH0 PUSH2 0xA02 DUP4 PUSH2 0x1768 JUMP JUMPDEST SWAP1 POP DUP1 DUP3 GT ISZERO PUSH2 0xA47 JUMPI PUSH1 0x40 MLOAD PUSH32 0x8C379A000000000000000000000000000000000000000000000000000000000 DUP2 MSTORE PUSH1 0x4 ADD PUSH2 0xA3E SWAP1 PUSH2 0x34A5 JUMP JUMPDEST PUSH1 0x40 MLOAD DUP1 SWAP2 SUB SWAP1 REVERT JUMPDEST PUSH2 0xA61 CALLER DUP5 DUP5 PUSH1 0x40 MLOAD DUP1 PUSH1 0x20 ADD PUSH1 0x40 MSTORE DUP1 PUSH0 DUP2 MSTORE POP PUSH2 0x17FA JUMP JUMPDEST POP POP POP JUMP JUMPDEST PUSH1 0xA DUP2 JUMP JUMPDEST PUSH2 0xA73 PUSH2 0x199D JUMP JUMPDEST PUSH20 0xFFFFFFFFFFFFFFFFFFFFFFFFFFFFFFFFFFFFFFFF AND DUP6 PUSH20 0xFFFFFFFFFFFFFFFFFFFFFFFFFFFFFFFFFFFFFFFF AND EQ DUP1 PUSH2 0xAB9 JUMPI POP PUSH2 0xAB8 DUP6 PUSH2 0xAB3 PUSH2 0x199D JUMP JUMPDEST PUSH2 0x12A3 JUMP JUMPDEST JUMPDEST PUSH2 0xAF8 JUMPI PUSH1 0x40 MLOAD PUSH32 0x8C379A000000000000000000000000000000000000000000000000000000000 DUP2 MSTORE PUSH1 0x4 ADD PUSH2 0xAEF SWAP1 PUSH2 0x3533 JUMP JUMPDEST PUSH1 0x40 MLOAD DUP1 SWAP2 SUB SWAP1 REVERT JUMPDEST PUSH2 0xB05 DUP6 DUP6 DUP6 DUP6 DUP6 PUSH2 0x19A4 JUMP JUMPDEST POP POP POP POP POP JUMP JUMPDEST PUSH2 0xB14 PUSH2 0x16EA JUMP JUMPDEST DUP1 PUSH1 0x4 SWAP1 DUP2 PUSH2 0xB23 SWAP2 SWAP1 PUSH2 0x36DC JUMP JUMPDEST POP POP JUMP JUMPDEST PUSH1 0xB DUP2 JUMP JUMPDEST PUSH1 0xE DUP2 JUMP JUMPDEST PUSH1 0xA DUP2 JUMP JUMPDEST PUSH2 0xB3E PUSH2 0x16EA JUMP JUMPDEST PUSH2 0xB81 PUSH1 0x1 PUSH1 0x40 MLOAD DUP1 PUSH1 0x40 ADD PUSH1 0x40 MSTORE DUP1 PUSH1 0x4 DUP2 MSTORE PUSH1 0x20 ADD PUSH32 0x436C616E00000000000000000000000000000000000000000000000000000000 DUP2 MSTORE POP PUSH0 PUSH1 0x32 PUSH2 0x11CA JUMP JUMPDEST PUSH2 0xBC4 PUSH1 0x2 PUSH1 0x40 MLOAD DUP1 PUSH1 0x40 ADD PUSH1 0x40 MSTORE DUP1 PUSH1 0x3 DUP2 MSTORE PUSH1 0x20 ADD PUSH32 0x5465640000000000000000000000000000000000000000000000000000000000 DUP2 MSTORE POP PUSH0 PUSH1 0x32 PUSH2 0x11CA JUMP JUMPDEST PUSH2 0xC07 PUSH1 0x3 PUSH1 0x40 MLOAD DUP1 PUSH1 0x40 ADD PUSH1 0x40 MSTORE DUP1 PUSH1 0x6 DUP2 MSTORE PUSH1 0x20 ADD PUSH32 0x526F6F7465640000000000000000000000000000000000000000000000000000 DUP2 MSTORE POP PUSH0 PUSH1 0x32 PUSH2 0x11CA JUMP JUMPDEST PUSH2 0xC4A PUSH1 0x4 PUSH1 0x40 MLOAD DUP1 PUSH1 0x40 ADD PUSH1 0x40 MSTORE DUP1 PUSH1 0x6 DUP2 MSTORE PUSH1 0x20 ADD PUSH32 0x4C65616465720000000000000000000000000000000000000000000000000000 DUP2 MSTORE POP PUSH0 PUSH1 0x32 PUSH2 0x11CA JUMP JUMPDEST PUSH2 0xC8D PUSH1 0x5 PUSH1 0x40 MLOAD DUP1 PUSH1 0x40 ADD PUSH1 0x40 MSTORE DUP1 PUSH1 0x6 DUP2 MSTORE PUSH1 0x20 ADD PUSH32 0x4272656174680000000000000000000000000000000000000000000000000000 DUP2 MSTORE POP PUSH0 PUSH1 0x32 PUSH2 0x11CA JUMP JUMPDEST PUSH2 0xCD0 PUSH1 0x6 PUSH1 0x40 MLOAD DUP1 PUSH1 0x40 ADD PUSH1 0x40 MSTORE DUP1 PUSH1 0x8 DUP2 MSTORE PUSH1 0x20 ADD PUSH32 0x47726F756E646564000000000000000000000000000000000000000000000000 DUP2 MSTORE POP PUSH0 PUSH1 0x1 PUSH2 0x11CA JUMP JUMPDEST PUSH2 0xD13 PUSH1 0x7 PUSH1 0x40 MLOAD DUP1 PUSH1 0x40 ADD PUSH1 0x40 MSTORE DUP1 PUSH1 0x5 DUP2 MSTORE PUSH1 0x20 ADD PUSH32 0x416C697665000000000000000000000000000000000000000000000000000000 DUP2 MSTORE POP PUSH0 PUSH1 0x32 PUSH2 0x11CA JUMP JUMPDEST PUSH2 0xD56 PUSH1 0x8 PUSH1 0x40 MLOAD DUP1 PUSH1 0x40 ADD PUSH1 0x40 MSTORE DUP1 PUSH1 0x7 DUP2 MSTORE PUSH1 0x20 ADD PUSH32 0x426520426F6C6400000000000000000000000000000000000000000000000000 DUP2 MSTORE POP PUSH0 PUSH1 0x19 PUSH2 0x11CA JUMP JUMPDEST PUSH2 0xD99 PUSH1 0x9 PUSH1 0x40 MLOAD DUP1 PUSH1 0x40 ADD PUSH1 0x40 MSTORE DUP1 PUSH1 0x7 DUP2 MSTORE PUSH1 0x20 ADD PUSH32 0x5468756E64657200000000000000000000000000000000000000000000000000 DUP2 MSTORE POP PUSH0 PUSH1 0x19 PUSH2 0x11CA JUMP JUMPDEST PUSH2 0xDDC PUSH1 0xA PUSH1 0x40 MLOAD DUP1 PUSH1 0x40 ADD PUSH1 0x40 MSTORE DUP1 PUSH1 0xA DUP2 MSTORE PUSH1 0x20 ADD PUSH32 0x526F79616C204C696F6E00000000000000000000000000000000000000000000 DUP2 MSTORE POP PUSH0 PUSH1 0x19 PUSH2 0x11CA JUMP JUMPDEST PUSH2 0xE1F PUSH1 0xB PUSH1 0x40 MLOAD DUP1 PUSH1 0x40 ADD PUSH1 0x40 MSTORE DUP1 PUSH1 0x5 DUP2 MSTORE PUSH1 0x20 ADD PUSH32 0x4669676874000000000000000000000000000000000000000000000000000000 DUP2 MSTORE POP PUSH0 PUSH1 0x19 PUSH2 0x11CA JUMP JUMPDEST PUSH2 0xE62 PUSH1 0xC PUSH1 0x40 MLOAD DUP1 PUSH1 0x40 ADD PUSH1 0x40 MSTORE DUP1 PUSH1 0x4 DUP2 MSTORE PUSH1 0x20 ADD PUSH32 0x48656C6C00000000000000000000000000000000000000000000000000000000 DUP2 MSTORE POP PUSH0 PUSH1 0x19 PUSH2 0x11CA JUMP JUMPDEST PUSH2 0xEA5 PUSH1 0xD PUSH1 0x40 MLOAD DUP1 PUSH1 0x40 ADD PUSH1 0x40 MSTORE DUP1 PUSH1 0x7 DUP2 MSTORE PUSH1 0x20 ADD PUSH32 0x53696C656E636500000000000000000000000000000000000000000000000000 DUP2 MSTORE POP PUSH0 PUSH1 0x1 PUSH2 0x11CA JUMP JUMPDEST PUSH2 0xEE8 PUSH1 0xE PUSH1 0x40 MLOAD DUP1 PUSH1 0x40 ADD PUSH1 0x40 MSTORE DUP1 PUSH1 0x5 DUP2 MSTORE PUSH1 0x20 ADD PUSH32 0x466C616D65000000000000000000000000000000000000000000000000000000 DUP2 MSTORE POP PUSH0 PUSH1 0x1 PUSH2 0x11CA JUMP JUMPDEST PUSH2 0xF2B PUSH1 0xF PUSH1 0x40 MLOAD DUP1 PUSH1 0x40 ADD PUSH1 0x40 MSTORE DUP1 PUSH1 0xF DUP2 MSTORE PUSH1 0x20 ADD PUSH32 0x57696E67206F662046726565646F6D0000000000000000000000000000000000 DUP2 MSTORE POP PUSH0 PUSH1 0x14 PUSH2 0x11CA JUMP JUMPDEST PUSH2 0xF6E PUSH1 0x10 PUSH1 0x40 MLOAD DUP1 PUSH1 0x40 ADD PUSH1 0x40 MSTORE DUP1 PUSH1 0x5 DUP2 MSTORE PUSH1 0x20 ADD PUSH32 0x5374696E67000000000000000000000000000000000000000000000000000000 DUP2 MSTORE POP PUSH0 PUSH1 0xA PUSH2 0x11CA JUMP JUMPDEST JUMP JUMPDEST PUSH1 0x60 DUP2 MLOAD DUP4 MLOAD EQ PUSH2 0xFB6 JUMPI PUSH1 0x40 MLOAD PUSH32 0x8C379A000000000000000000000000000000000000000000000000000000000 DUP2 MSTORE PUSH1 0x4 ADD PUSH2 0xFAD SWAP1 PUSH2 0x381B JUMP JUMPDEST PUSH1 0x40 MLOAD DUP1 SWAP2 SUB SWAP1 REVERT JUMPDEST PUSH0 DUP4 MLOAD PUSH8 0xFFFFFFFFFFFFFFFF DUP2 GT ISZERO PUSH2 0xFD2 JUMPI PUSH2 0xFD1 PUSH2 0x29FC JUMP JUMPDEST JUMPDEST PUSH1 0x40 MLOAD SWAP1 DUP1 DUP3 MSTORE DUP1 PUSH1 0x20 MUL PUSH1 0x20 ADD DUP3 ADD PUSH1 0x40 MSTORE DUP1 ISZERO PUSH2 0x1000 JUMPI DUP2 PUSH1 0x20 ADD PUSH1 0x20 DUP3 MUL DUP1 CALLDATASIZE DUP4 CALLDATACOPY DUP1 DUP3 ADD SWAP2 POP POP SWAP1 POP JUMPDEST POP SWAP1 POP PUSH0 JUMPDEST DUP5 MLOAD DUP2 LT ISZERO PUSH2 0x107C JUMPI PUSH2 0x104C DUP6 DUP3 DUP2 MLOAD DUP2 LT PUSH2 0x1024 JUMPI PUSH2 0x1023 PUSH2 0x3839 JUMP JUMPDEST JUMPDEST PUSH1 0x20 MUL PUSH1 0x20 ADD ADD MLOAD DUP6 DUP4 DUP2 MLOAD DUP2 LT PUSH2 0x103F JUMPI PUSH2 0x103E PUSH2 0x3839 JUMP JUMPDEST JUMPDEST PUSH1 0x20 MUL PUSH1 0x20 ADD ADD MLOAD PUSH2 0x751 JUMP JUMPDEST DUP3 DUP3 DUP2 MLOAD DUP2 LT PUSH2 0x105F JUMPI PUSH2 0x105E PUSH2 0x3839 JUMP JUMPDEST JUMPDEST PUSH1 0x20 MUL PUSH1 0x20 ADD ADD DUP2 DUP2 MSTORE POP POP DUP1 PUSH2 0x1075 SWAP1 PUSH2 0x3893 JUMP JUMPDEST SWAP1 POP PUSH2 0x1005 JUMP JUMPDEST POP DUP1 SWAP2 POP POP SWAP3 SWAP2 POP POP JUMP JUMPDEST PUSH1 0x8 DUP2 JUMP JUMPDEST PUSH1 0x5 DUP2 JUMP JUMPDEST PUSH1 0x1 DUP2 JUMP JUMPDEST PUSH1 0x32 DUP2 JUMP JUMPDEST PUSH1 0x10 DUP2 JUMP JUMPDEST PUSH2 0x10A8 PUSH2 0x16EA JUMP JUMPDEST PUSH2 0x10B1 PUSH0 PUSH2 0x1CB2 JUMP JUMPDEST JUMP JUMPDEST PUSH1 0x7 PUSH1 0x20 MSTORE DUP1 PUSH0 MSTORE PUSH1 0x40 PUSH0 KECCAK256 PUSH0 SWAP2 POP SWAP1 POP SLOAD DUP2 JUMP JUMPDEST PUSH1 0xF DUP2 JUMP JUMPDEST PUSH1 0x1 DUP2 JUMP JUMPDEST PUSH1 0x3 DUP2 JUMP JUMPDEST PUSH0 PUSH1 0x3 PUSH0 SWAP1 SLOAD SWAP1 PUSH2 0x100 EXP SWAP1 DIV PUSH20 0xFFFFFFFFFFFFFFFFFFFFFFFFFFFFFFFFFFFFFFFF AND SWAP1 POP SWAP1 JUMP JUMPDEST PUSH1 0x4 DUP2 JUMP JUMPDEST PUSH1 0x5 DUP2 DUP2 SLOAD DUP2 LT PUSH2 0x1113 JUMPI PUSH0 DUP1 REVERT JUMPDEST SWAP1 PUSH0 MSTORE PUSH1 0x20 PUSH0 KECCAK256 ADD PUSH0 SWAP2 POP SWAP1 POP DUP1 SLOAD PUSH2 0x112B SWAP1 PUSH2 0x326C JUMP JUMPDEST DUP1 PUSH1 0x1F ADD PUSH1 0x20 DUP1 SWAP2 DIV MUL PUSH1 0x20 ADD PUSH1 0x40 MLOAD SWAP1 DUP2 ADD PUSH1 0x40 MSTORE DUP1 SWAP3 SWAP2 SWAP1 DUP2 DUP2 MSTORE PUSH1 0x20 ADD DUP3 DUP1 SLOAD PUSH2 0x1157 SWAP1 PUSH2 0x326C JUMP JUMPDEST DUP1 ISZERO PUSH2 0x11A2 JUMPI DUP1 PUSH1 0x1F LT PUSH2 0x1179 JUMPI PUSH2 0x100 DUP1 DUP4 SLOAD DIV MUL DUP4 MSTORE SWAP2 PUSH1 0x20 ADD SWAP2 PUSH2 0x11A2 JUMP JUMPDEST DUP3 ADD SWAP2 SWAP1 PUSH0 MSTORE PUSH1 0x20 PUSH0 KECCAK256 SWAP1 JUMPDEST DUP2 SLOAD DUP2 MSTORE SWAP1 PUSH1 0x1 ADD SWAP1 PUSH1 0x20 ADD DUP1 DUP4 GT PUSH2 0x1185 JUMPI DUP3 SWAP1 SUB PUSH1 0x1F AND DUP3 ADD SWAP2 JUMPDEST POP POP POP POP POP DUP2 JUMP JUMPDEST PUSH2 0x11BC PUSH2 0x11B5 PUSH2 0x199D JUMP JUMPDEST DUP4 DUP4 PUSH2 0x1D75 JUMP JUMPDEST POP POP JUMP JUMPDEST PUSH1 0x2 DUP2 JUMP JUMPDEST PUSH1 0x9 DUP2 JUMP JUMPDEST PUSH2 0x11D2 PUSH2 0x16EA JUMP JUMPDEST PUSH0 DUP5 GT DUP1 ISZERO PUSH2 0x11E2 JUMPI POP PUSH1 0x10 DUP5 GT ISZERO JUMPDEST PUSH2 0x1221 JUMPI PUSH1 0x40 MLOAD PUSH32 0x8C379A000000000000000000000000000000000000000000000000000000000 DUP2 MSTORE PUSH1 0x4 ADD PUSH2 0x1218 SWAP1 PUSH2 0x33D5 JUMP JUMPDEST PUSH1 0x40 MLOAD DUP1 SWAP2 SUB SWAP1 REVERT JUMPDEST DUP3 PUSH1 0x5 PUSH1 0x1 DUP7 PUSH2 0x1231 SWAP2 SWAP1 PUSH2 0x38DA JUMP JUMPDEST DUP2 SLOAD DUP2 LT PUSH2 0x1242 JUMPI PUSH2 0x1241 PUSH2 0x3839 JUMP JUMPDEST JUMPDEST SWAP1 PUSH0 MSTORE PUSH1 0x20 PUSH0 KECCAK256 ADD SWAP1 DUP2 PUSH2 0x1256 SWAP2 SWAP1 PUSH2 0x36DC JUMP JUMPDEST POP DUP2 PUSH1 0x6 PUSH0 DUP7 DUP2 MSTORE PUSH1 0x20 ADD SWAP1 DUP2 MSTORE PUSH1 0x20 ADD PUSH0 KECCAK256 DUP2 SWAP1 SSTORE POP DUP1 PUSH1 0x7 PUSH0 DUP7 DUP2 MSTORE PUSH1 0x20 ADD SWAP1 DUP2 MSTORE PUSH1 0x20 ADD PUSH0 KECCAK256 DUP2 SWAP1 SSTORE POP POP POP POP POP JUMP JUMPDEST PUSH1 0x6 PUSH1 0x20 MSTORE DUP1 PUSH0 MSTORE PUSH1 0x40 PUSH0 KECCAK256 PUSH0 SWAP2 POP SWAP1 POP SLOAD DUP2 JUMP JUMPDEST PUSH1 0x7 DUP2 JUMP JUMPDEST PUSH0 PUSH1 0x1 PUSH0 DUP5 PUSH20 0xFFFFFFFFFFFFFFFFFFFFFFFFFFFFFFFFFFFFFFFF AND PUSH20 0xFFFFFFFFFFFFFFFFFFFFFFFFFFFFFFFFFFFFFFFF AND DUP2 MSTORE PUSH1 0x20 ADD SWAP1 DUP2 MSTORE PUSH1 0x20 ADD PUSH0 KECCAK256 PUSH0 DUP4 PUSH20 0xFFFFFFFFFFFFFFFFFFFFFFFFFFFFFFFFFFFFFFFF AND PUSH20 0xFFFFFFFFFFFFFFFFFFFFFFFFFFFFFFFFFFFFFFFF AND DUP2 MSTORE PUSH1 0x20 ADD SWAP1 DUP2 MSTORE PUSH1 0x20 ADD PUSH0 KECCAK256 PUSH0 SWAP1 SLOAD SWAP1 PUSH2 0x100 EXP SWAP1 DIV PUSH1 0xFF AND SWAP1 POP SWAP3 SWAP2 POP POP JUMP JUMPDEST PUSH1 0xC DUP2 JUMP JUMPDEST PUSH2 0x133E PUSH2 0x199D JUMP JUMPDEST PUSH20 0xFFFFFFFFFFFFFFFFFFFFFFFFFFFFFFFFFFFFFFFF AND DUP6 PUSH20 0xFFFFFFFFFFFFFFFFFFFFFFFFFFFFFFFFFFFFFFFF AND EQ DUP1 PUSH2 0x1384 JUMPI POP PUSH2 0x1383 DUP6 PUSH2 0x137E PUSH2 0x199D JUMP JUMPDEST PUSH2 0x12A3 JUMP JUMPDEST JUMPDEST PUSH2 0x13C3 JUMPI PUSH1 0x40 MLOAD PUSH32 0x8C379A000000000000000000000000000000000000000000000000000000000 DUP2 MSTORE PUSH1 0x4 ADD PUSH2 0x13BA SWAP1 PUSH2 0x3533 JUMP JUMPDEST PUSH1 0x40 MLOAD DUP1 SWAP2 SUB SWAP1 REVERT JUMPDEST PUSH2 0x13D0 DUP6 DUP6 DUP6 DUP6 DUP6 PUSH2 0x1EDC JUMP JUMPDEST POP POP POP POP POP JUMP JUMPDEST PUSH1 0x6 DUP2 JUMP JUMPDEST PUSH2 0x13E4 PUSH2 0x16EA JUMP JUMPDEST PUSH0 PUSH20 0xFFFFFFFFFFFFFFFFFFFFFFFFFFFFFFFFFFFFFFFF AND DUP2 PUSH20 0xFFFFFFFFFFFFFFFFFFFFFFFFFFFFFFFFFFFFFFFF AND SUB PUSH2 0x1452 JUMPI PUSH1 0x40 MLOAD PUSH32 0x8C379A000000000000000000000000000000000000000000000000000000000 DUP2 MSTORE PUSH1 0x4 ADD PUSH2 0x1449 SWAP1 PUSH2 0x397D JUMP JUMPDEST PUSH1 0x40 MLOAD DUP1 SWAP2 SUB SWAP1 REVERT JUMPDEST PUSH2 0x145B DUP2 PUSH2 0x1CB2 JUMP JUMPDEST POP JUMP JUMPDEST PUSH0 PUSH1 0x3 PUSH1 0x15 SWAP1 SLOAD SWAP1 PUSH2 0x100 EXP SWAP1 DIV PUSH1 0xFF AND ISZERO SWAP1 POP DUP1 DUP1 ISZERO PUSH2 0x1491 JUMPI POP PUSH1 0x1 PUSH1 0x3 PUSH1 0x14 SWAP1 SLOAD SWAP1 PUSH2 0x100 EXP SWAP1 DIV PUSH1 0xFF AND PUSH1 0xFF AND LT JUMPDEST DUP1 PUSH2 0x14C0 JUMPI POP PUSH2 0x14A0 ADDRESS PUSH2 0x2165 JUMP JUMPDEST ISZERO DUP1 ISZERO PUSH2 0x14BF JUMPI POP PUSH1 0x1 PUSH1 0x3 PUSH1 0x14 SWAP1 SLOAD SWAP1 PUSH2 0x100 EXP SWAP1 DIV PUSH1 0xFF AND PUSH1 0xFF AND EQ JUMPDEST JUMPDEST PUSH2 0x14FF JUMPI PUSH1 0x40 MLOAD PUSH32 0x8C379A000000000000000000000000000000000000000000000000000000000 DUP2 MSTORE PUSH1 0x4 ADD PUSH2 0x14F6 SWAP1 PUSH2 0x3A0B JUMP JUMPDEST PUSH1 0x40 MLOAD DUP1 SWAP2 SUB SWAP1 REVERT JUMPDEST PUSH1 0x1 PUSH1 0x3 PUSH1 0x14 PUSH2 0x100 EXP DUP2 SLOAD DUP2 PUSH1 0xFF MUL NOT AND SWAP1 DUP4 PUSH1 0xFF AND MUL OR SWAP1 SSTORE POP DUP1 ISZERO PUSH2 0x153D JUMPI PUSH1 0x1 PUSH1 0x3 PUSH1 0x15 PUSH2 0x100 EXP DUP2 SLOAD DUP2 PUSH1 0xFF MUL NOT AND SWAP1 DUP4 ISZERO ISZERO MUL OR SWAP1 SSTORE POP JUMPDEST DUP2 PUSH1 0x4 SWAP1 DUP2 PUSH2 0x154C SWAP2 SWAP1 PUSH2 0x36DC JUMP JUMPDEST POP PUSH2 0x1555 PUSH2 0xB36 JUMP JUMPDEST DUP1 ISZERO PUSH2 0x15AE JUMPI PUSH0 PUSH1 0x3 PUSH1 0x15 PUSH2 0x100 EXP DUP2 SLOAD DUP2 PUSH1 0xFF MUL NOT AND SWAP1 DUP4 ISZERO ISZERO MUL OR SWAP1 SSTORE POP PUSH32 0x7F26B83FF96E1F2B6A682F133852F6798A09C465DA95921460CEFB3847402498 PUSH1 0x1 PUSH1 0x40 MLOAD PUSH2 0x15A5 SWAP2 SWAP1 PUSH2 0x3A6E JUMP JUMPDEST PUSH1 0x40 MLOAD DUP1 SWAP2 SUB SWAP1 LOG1 JUMPDEST POP POP JUMP JUMPDEST PUSH1 0xD DUP2 JUMP JUMPDEST PUSH0 PUSH32 0x1FFC9A700000000000000000000000000000000000000000000000000000000 PUSH28 0xFFFFFFFFFFFFFFFFFFFFFFFFFFFFFFFFFFFFFFFFFFFFFFFFFFFFFFFF NOT AND DUP3 PUSH28 0xFFFFFFFFFFFFFFFFFFFFFFFFFFFFFFFFFFFFFFFFFFFFFFFFFFFFFFFF NOT AND EQ SWAP1 POP SWAP2 SWAP1 POP JUMP JUMPDEST PUSH1 0x60 PUSH0 PUSH1 0x1 PUSH2 0x162E DUP5 PUSH2 0x2187 JUMP JUMPDEST ADD SWAP1 POP PUSH0 DUP2 PUSH8 0xFFFFFFFFFFFFFFFF DUP2 GT ISZERO PUSH2 0x164C JUMPI PUSH2 0x164B PUSH2 0x29FC JUMP JUMPDEST JUMPDEST PUSH1 0x40 MLOAD SWAP1 DUP1 DUP3 MSTORE DUP1 PUSH1 0x1F ADD PUSH1 0x1F NOT AND PUSH1 0x20 ADD DUP3 ADD PUSH1 0x40 MSTORE DUP1 ISZERO PUSH2 0x167E JUMPI DUP2 PUSH1 0x20 ADD PUSH1 0x1 DUP3 MUL DUP1 CALLDATASIZE DUP4 CALLDATACOPY DUP1 DUP3 ADD SWAP2 POP POP SWAP1 POP JUMPDEST POP SWAP1 POP PUSH0 DUP3 PUSH1 0x20 ADD DUP3 ADD SWAP1 POP JUMPDEST PUSH1 0x1 ISZERO PUSH2 0x16DF JUMPI DUP1 DUP1 PUSH1 0x1 SWAP1 SUB SWAP2 POP POP PUSH32 0x3031323334353637383961626364656600000000000000000000000000000000 PUSH1 0xA DUP7 MOD BYTE DUP2 MSTORE8 PUSH1 0xA DUP6 DUP2 PUSH2 0x16D4 JUMPI PUSH2 0x16D3 PUSH2 0x3A87 JUMP JUMPDEST JUMPDEST DIV SWAP5 POP PUSH0 DUP6 SUB PUSH2 0x168B JUMPI JUMPDEST DUP2 SWAP4 POP POP POP POP SWAP2 SWAP1 POP JUMP JUMPDEST PUSH2 0x16F2 PUSH2 0x199D JUMP JUMPDEST PUSH20 0xFFFFFFFFFFFFFFFFFFFFFFFFFFFFFFFFFFFFFFFF AND PUSH2 0x1710 PUSH2 0x10D7 JUMP JUMPDEST PUSH20 0xFFFFFFFFFFFFFFFFFFFFFFFFFFFFFFFFFFFFFFFF AND EQ PUSH2 0x1766 JUMPI PUSH1 0x40 MLOAD PUSH32 0x8C379A000000000000000000000000000000000000000000000000000000000 DUP2 MSTORE PUSH1 0x4 ADD PUSH2 0x175D SWAP1 PUSH2 0x3AFE JUMP JUMPDEST PUSH1 0x40 MLOAD DUP1 SWAP2 SUB SWAP1 REVERT JUMPDEST JUMP JUMPDEST PUSH0 PUSH1 0x6 DUP3 EQ DUP1 PUSH2 0x1778 JUMPI POP PUSH1 0xE DUP3 EQ JUMPDEST ISZERO PUSH2 0x1796 JUMPI PUSH1 0x6 DUP3 EQ PUSH2 0x178C JUMPI PUSH1 0x1 PUSH2 0x178F JUMP JUMPDEST PUSH1 0x1 JUMPDEST SWAP1 POP PUSH2 0x17F5 JUMP JUMPDEST PUSH1 0x8 DUP3 EQ DUP1 PUSH2 0x17A5 JUMPI POP PUSH1 0x9 DUP3 EQ JUMPDEST DUP1 PUSH2 0x17B0 JUMPI POP PUSH1 0xA DUP3 EQ JUMPDEST DUP1 PUSH2 0x17BB JUMPI POP PUSH1 0xB DUP3 EQ JUMPDEST DUP1 PUSH2 0x17C6 JUMPI POP PUSH1 0xC DUP3 EQ JUMPDEST DUP1 PUSH2 0x17D1 JUMPI POP PUSH1 0xF DUP3 EQ JUMPDEST ISZERO PUSH2 0x17DF JUMPI PUSH1 0x19 SWAP1 POP PUSH2 0x17F5 JUMP JUMPDEST PUSH1 0x10 DUP3 SUB PUSH2 0x17F0 JUMPI PUSH1 0xA SWAP1 POP PUSH2 0x17F5 JUMP JUMPDEST PUSH1 0x32 SWAP1 POP JUMPDEST SWAP2 SWAP1 POP JUMP JUMPDEST PUSH0 PUSH20 0xFFFFFFFFFFFFFFFFFFFFFFFFFFFFFFFFFFFFFFFF AND DUP5 PUSH20 0xFFFFFFFFFFFFFFFFFFFFFFFFFFFFFFFFFFFFFFFF AND SUB PUSH2 0x1868 JUMPI PUSH1 0x40 MLOAD PUSH32 0x8C379A000000000000000000000000000000000000000000000000000000000 DUP2 MSTORE PUSH1 0x4 ADD PUSH2 0x185F SWAP1 PUSH2 0x3B8C JUMP JUMPDEST PUSH1 0x40 MLOAD DUP1 SWAP2 SUB SWAP1 REVERT JUMPDEST PUSH0 PUSH2 0x1871 PUSH2 0x199D JUMP JUMPDEST SWAP1 POP PUSH0 PUSH2 0x187D DUP6 PUSH2 0x22D8 JUMP JUMPDEST SWAP1 POP PUSH0 PUSH2 0x1889 DUP6 PUSH2 0x22D8 JUMP JUMPDEST SWAP1 POP PUSH2 0x1899 DUP4 PUSH0 DUP10 DUP6 DUP6 DUP10 PUSH2 0x2350 JUMP JUMPDEST DUP5 PUSH0 DUP1 DUP9 DUP2 MSTORE PUSH1 0x20 ADD SWAP1 DUP2 MSTORE PUSH1 0x20 ADD PUSH0 KECCAK256 PUSH0 DUP10 PUSH20 0xFFFFFFFFFFFFFFFFFFFFFFFFFFFFFFFFFFFFFFFF AND PUSH20 0xFFFFFFFFFFFFFFFFFFFFFFFFFFFFFFFFFFFFFFFF AND DUP2 MSTORE PUSH1 0x20 ADD SWAP1 DUP2 MSTORE PUSH1 0x20 ADD PUSH0 KECCAK256 PUSH0 DUP3 DUP3 SLOAD PUSH2 0x18F3 SWAP2 SWAP1 PUSH2 0x3BAA JUMP JUMPDEST SWAP3 POP POP DUP2 SWAP1 SSTORE POP DUP7 PUSH20 0xFFFFFFFFFFFFFFFFFFFFFFFFFFFFFFFFFFFFFFFF AND PUSH0 PUSH20 0xFFFFFFFFFFFFFFFFFFFFFFFFFFFFFFFFFFFFFFFF AND DUP5 PUSH20 0xFFFFFFFFFFFFFFFFFFFFFFFFFFFFFFFFFFFFFFFF AND PUSH32 0xC3D58168C5AE7397731D063D5BBF3D657854427343F4C083240F7AACAA2D0F62 DUP10 DUP10 PUSH1 0x40 MLOAD PUSH2 0x1970 SWAP3 SWAP2 SWAP1 PUSH2 0x3BDD JUMP JUMPDEST PUSH1 0x40 MLOAD DUP1 SWAP2 SUB SWAP1 LOG4 PUSH2 0x1986 DUP4 PUSH0 DUP10 DUP6 DUP6 DUP10 PUSH2 0x2358 JUMP JUMPDEST PUSH2 0x1994 DUP4 PUSH0 DUP10 DUP10 DUP10 DUP10 PUSH2 0x2360 JUMP JUMPDEST POP POP POP POP POP POP POP JUMP JUMPDEST PUSH0 CALLER SWAP1 POP SWAP1 JUMP JUMPDEST DUP2 MLOAD DUP4 MLOAD EQ PUSH2 0x19E8 JUMPI PUSH1 0x40 MLOAD PUSH32 0x8C379A000000000000000000000000000000000000000000000000000000000 DUP2 MSTORE PUSH1 0x4 ADD PUSH2 0x19DF SWAP1 PUSH2 0x3C74 JUMP JUMPDEST PUSH1 0x40 MLOAD DUP1 SWAP2 SUB SWAP1 REVERT JUMPDEST PUSH0 PUSH20 0xFFFFFFFFFFFFFFFFFFFFFFFFFFFFFFFFFFFFFFFF AND DUP5 PUSH20 0xFFFFFFFFFFFFFFFFFFFFFFFFFFFFFFFFFFFFFFFF AND SUB PUSH2 0x1A56 JUMPI PUSH1 0x40 MLOAD PUSH32 0x8C379A000000000000000000000000000000000000000000000000000000000 DUP2 MSTORE PUSH1 0x4 ADD PUSH2 0x1A4D SWAP1 PUSH2 0x3D02 JUMP JUMPDEST PUSH1 0x40 MLOAD DUP1 SWAP2 SUB SWAP1 REVERT JUMPDEST PUSH0 PUSH2 0x1A5F PUSH2 0x199D JUMP JUMPDEST SWAP1 POP PUSH2 0x1A6F DUP2 DUP8 DUP8 DUP8 DUP8 DUP8 PUSH2 0x2350 JUMP JUMPDEST PUSH0 JUMPDEST DUP5 MLOAD DUP2 LT ISZERO PUSH2 0x1C0F JUMPI PUSH0 DUP6 DUP3 DUP2 MLOAD DUP2 LT PUSH2 0x1A8E JUMPI PUSH2 0x1A8D PUSH2 0x3839 JUMP JUMPDEST JUMPDEST PUSH1 0x20 MUL PUSH1 0x20 ADD ADD MLOAD SWAP1 POP PUSH0 DUP6 DUP4 DUP2 MLOAD DUP2 LT PUSH2 0x1AAC JUMPI PUSH2 0x1AAB PUSH2 0x3839 JUMP JUMPDEST JUMPDEST PUSH1 0x20 MUL PUSH1 0x20 ADD ADD MLOAD SWAP1 POP PUSH0 DUP1 PUSH0 DUP5 DUP2 MSTORE PUSH1 0x20 ADD SWAP1 DUP2 MSTORE PUSH1 0x20 ADD PUSH0 KECCAK256 PUSH0 DUP12 PUSH20 0xFFFFFFFFFFFFFFFFFFFFFFFFFFFFFFFFFFFFFFFF AND PUSH20 0xFFFFFFFFFFFFFFFFFFFFFFFFFFFFFFFFFFFFFFFF AND DUP2 MSTORE PUSH1 0x20 ADD SWAP1 DUP2 MSTORE PUSH1 0x20 ADD PUSH0 KECCAK256 SLOAD SWAP1 POP DUP2 DUP2 LT ISZERO PUSH2 0x1B48 JUMPI PUSH1 0x40 MLOAD PUSH32 0x8C379A000000000000000000000000000000000000000000000000000000000 DUP2 MSTORE PUSH1 0x4 ADD PUSH2 0x1B3F SWAP1 PUSH2 0x3D90 JUMP JUMPDEST PUSH1 0x40 MLOAD DUP1 SWAP2 SUB SWAP1 REVERT JUMPDEST DUP2 DUP2 SUB PUSH0 DUP1 DUP6 DUP2 MSTORE PUSH1 0x20 ADD SWAP1 DUP2 MSTORE PUSH1 0x20 ADD PUSH0 KECCAK256 PUSH0 DUP13 PUSH20 0xFFFFFFFFFFFFFFFFFFFFFFFFFFFFFFFFFFFFFFFF AND PUSH20 0xFFFFFFFFFFFFFFFFFFFFFFFFFFFFFFFFFFFFFFFF AND DUP2 MSTORE PUSH1 0x20 ADD SWAP1 DUP2 MSTORE PUSH1 0x20 ADD PUSH0 KECCAK256 DUP2 SWAP1 SSTORE POP DUP2 PUSH0 DUP1 DUP6 DUP2 MSTORE PUSH1 0x20 ADD SWAP1 DUP2 MSTORE PUSH1 0x20 ADD PUSH0 KECCAK256 PUSH0 DUP12 PUSH20 0xFFFFFFFFFFFFFFFFFFFFFFFFFFFFFFFFFFFFFFFF AND PUSH20 0xFFFFFFFFFFFFFFFFFFFFFFFFFFFFFFFFFFFFFFFF AND DUP2 MSTORE PUSH1 0x20 ADD SWAP1 DUP2 MSTORE PUSH1 0x20 ADD PUSH0 KECCAK256 PUSH0 DUP3 DUP3 SLOAD PUSH2 0x1BF4 SWAP2 SWAP1 PUSH2 0x3BAA JUMP JUMPDEST SWAP3 POP POP DUP2 SWAP1 SSTORE POP POP POP POP DUP1 PUSH2 0x1C08 SWAP1 PUSH2 0x3893 JUMP JUMPDEST SWAP1 POP PUSH2 0x1A71 JUMP JUMPDEST POP DUP5 PUSH20 0xFFFFFFFFFFFFFFFFFFFFFFFFFFFFFFFFFFFFFFFF AND DUP7 PUSH20 0xFFFFFFFFFFFFFFFFFFFFFFFFFFFFFFFFFFFFFFFF AND DUP3 PUSH20 0xFFFFFFFFFFFFFFFFFFFFFFFFFFFFFFFFFFFFFFFF AND PUSH32 0x4A39DC06D4C0DBC64B70AF90FD698A233A518AA5D07E595D983B8C0526C8F7FB DUP8 DUP8 PUSH1 0x40 MLOAD PUSH2 0x1C86 SWAP3 SWAP2 SWAP1 PUSH2 0x3DAE JUMP JUMPDEST PUSH1 0x40 MLOAD DUP1 SWAP2 SUB SWAP1 LOG4 PUSH2 0x1C9C DUP2 DUP8 DUP8 DUP8 DUP8 DUP8 PUSH2 0x2358 JUMP JUMPDEST PUSH2 0x1CAA DUP2 DUP8 DUP8 DUP8 DUP8 DUP8 PUSH2 0x2536 JUMP JUMPDEST POP POP POP POP POP POP JUMP JUMPDEST PUSH0 PUSH1 0x3 PUSH0 SWAP1 SLOAD SWAP1 PUSH2 0x100 EXP SWAP1 DIV PUSH20 0xFFFFFFFFFFFFFFFFFFFFFFFFFFFFFFFFFFFFFFFF AND SWAP1 POP DUP2 PUSH1 0x3 PUSH0 PUSH2 0x100 EXP DUP2 SLOAD DUP2 PUSH20 0xFFFFFFFFFFFFFFFFFFFFFFFFFFFFFFFFFFFFFFFF MUL NOT AND SWAP1 DUP4 PUSH20 0xFFFFFFFFFFFFFFFFFFFFFFFFFFFFFFFFFFFFFFFF AND MUL OR SWAP1 SSTORE POP DUP2 PUSH20 0xFFFFFFFFFFFFFFFFFFFFFFFFFFFFFFFFFFFFFFFF AND DUP2 PUSH20 0xFFFFFFFFFFFFFFFFFFFFFFFFFFFFFFFFFFFFFFFF AND PUSH32 0x8BE0079C531659141344CD1FD0A4F28419497F9722A3DAAFE3B4186F6B6457E0 PUSH1 0x40 MLOAD PUSH1 0x40 MLOAD DUP1 SWAP2 SUB SWAP1 LOG3 POP POP JUMP JUMPDEST DUP2 PUSH20 0xFFFFFFFFFFFFFFFFFFFFFFFFFFFFFFFFFFFFFFFF AND DUP4 PUSH20 0xFFFFFFFFFFFFFFFFFFFFFFFFFFFFFFFFFFFFFFFF AND SUB PUSH2 0x1DE3 JUMPI PUSH1 0x40 MLOAD PUSH32 0x8C379A000000000000000000000000000000000000000000000000000000000 DUP2 MSTORE PUSH1 0x4 ADD PUSH2 0x1DDA SWAP1 PUSH2 0x3E53 JUMP JUMPDEST PUSH1 0x40 MLOAD DUP1 SWAP2 SUB SWAP1 REVERT JUMPDEST DUP1 PUSH1 0x1 PUSH0 DUP6 PUSH20 0xFFFFFFFFFFFFFFFFFFFFFFFFFFFFFFFFFFFFFFFF AND PUSH20 0xFFFFFFFFFFFFFFFFFFFFFFFFFFFFFFFFFFFFFFFF AND DUP2 MSTORE PUSH1 0x20 ADD SWAP1 DUP2 MSTORE PUSH1 0x20 ADD PUSH0 KECCAK256 PUSH0 DUP5 PUSH20 0xFFFFFFFFFFFFFFFFFFFFFFFFFFFFFFFFFFFFFFFF AND PUSH20 0xFFFFFFFFFFFFFFFFFFFFFFFFFFFFFFFFFFFFFFFF AND DUP2 MSTORE PUSH1 0x20 ADD SWAP1 DUP2 MSTORE PUSH1 0x20 ADD PUSH0 KECCAK256 PUSH0 PUSH2 0x100 EXP DUP2 SLOAD DUP2 PUSH1 0xFF MUL NOT AND SWAP1 DUP4 ISZERO ISZERO MUL OR SWAP1 SSTORE POP DUP2 PUSH20 0xFFFFFFFFFFFFFFFFFFFFFFFFFFFFFFFFFFFFFFFF AND DUP4 PUSH20 0xFFFFFFFFFFFFFFFFFFFFFFFFFFFFFFFFFFFFFFFF AND PUSH32 0x17307EAB39AB6107E8899845AD3D59BD9653F200F220920489CA2B5937696C31 DUP4 PUSH1 0x40 MLOAD PUSH2 0x1ECF SWAP2 SWAP1 PUSH2 0x28CC JUMP JUMPDEST PUSH1 0x40 MLOAD DUP1 SWAP2 SUB SWAP1 LOG3 POP POP POP JUMP JUMPDEST PUSH0 PUSH20 0xFFFFFFFFFFFFFFFFFFFFFFFFFFFFFFFFFFFFFFFF AND DUP5 PUSH20 0xFFFFFFFFFFFFFFFFFFFFFFFFFFFFFFFFFFFFFFFF AND SUB PUSH2 0x1F4A JUMPI PUSH1 0x40 MLOAD PUSH32 0x8C379A000000000000000000000000000000000000000000000000000000000 DUP2 MSTORE PUSH1 0x4 ADD PUSH2 0x1F41 SWAP1 PUSH2 0x3D02 JUMP JUMPDEST PUSH1 0x40 MLOAD DUP1 SWAP2 SUB SWAP1 REVERT JUMPDEST PUSH0 PUSH2 0x1F53 PUSH2 0x199D JUMP JUMPDEST SWAP1 POP PUSH0 PUSH2 0x1F5F DUP6 PUSH2 0x22D8 JUMP JUMPDEST SWAP1 POP PUSH0 PUSH2 0x1F6B DUP6 PUSH2 0x22D8 JUMP JUMPDEST SWAP1 POP PUSH2 0x1F7B DUP4 DUP10 DUP10 DUP6 DUP6 DUP10 PUSH2 0x2350 JUMP JUMPDEST PUSH0 DUP1 PUSH0 DUP9 DUP2 MSTORE PUSH1 0x20 ADD SWAP1 DUP2 MSTORE PUSH1 0x20 ADD PUSH0 KECCAK256 PUSH0 DUP11 PUSH20 0xFFFFFFFFFFFFFFFFFFFFFFFFFFFFFFFFFFFFFFFF AND PUSH20 0xFFFFFFFFFFFFFFFFFFFFFFFFFFFFFFFFFFFFFFFF AND DUP2 MSTORE PUSH1 0x20 ADD SWAP1 DUP2 MSTORE PUSH1 0x20 ADD PUSH0 KECCAK256 SLOAD SWAP1 POP DUP6 DUP2 LT ISZERO PUSH2 0x200D JUMPI PUSH1 0x40 MLOAD PUSH32 0x8C379A000000000000000000000000000000000000000000000000000000000 DUP2 MSTORE PUSH1 0x4 ADD PUSH2 0x2004 SWAP1 PUSH2 0x3D90 JUMP JUMPDEST PUSH1 0x40 MLOAD DUP1 SWAP2 SUB SWAP1 REVERT JUMPDEST DUP6 DUP2 SUB PUSH0 DUP1 DUP10 DUP2 MSTORE PUSH1 0x20 ADD SWAP1 DUP2 MSTORE PUSH1 0x20 ADD PUSH0 KECCAK256 PUSH0 DUP12 PUSH20 0xFFFFFFFFFFFFFFFFFFFFFFFFFFFFFFFFFFFFFFFF AND PUSH20 0xFFFFFFFFFFFFFFFFFFFFFFFFFFFFFFFFFFFFFFFF AND DUP2 MSTORE PUSH1 0x20 ADD SWAP1 DUP2 MSTORE PUSH1 0x20 ADD PUSH0 KECCAK256 DUP2 SWAP1 SSTORE POP DUP6 PUSH0 DUP1 DUP10 DUP2 MSTORE PUSH1 0x20 ADD SWAP1 DUP2 MSTORE PUSH1 0x20 ADD PUSH0 KECCAK256 PUSH0 DUP11 PUSH20 0xFFFFFFFFFFFFFFFFFFFFFFFFFFFFFFFFFFFFFFFF AND PUSH20 0xFFFFFFFFFFFFFFFFFFFFFFFFFFFFFFFFFFFFFFFF AND DUP2 MSTORE PUSH1 0x20 ADD SWAP1 DUP2 MSTORE PUSH1 0x20 ADD PUSH0 KECCAK256 PUSH0 DUP3 DUP3 SLOAD PUSH2 0x20B9 SWAP2 SWAP1 PUSH2 0x3BAA JUMP JUMPDEST SWAP3 POP POP DUP2 SWAP1 SSTORE POP DUP8 PUSH20 0xFFFFFFFFFFFFFFFFFFFFFFFFFFFFFFFFFFFFFFFF AND DUP10 PUSH20 0xFFFFFFFFFFFFFFFFFFFFFFFFFFFFFFFFFFFFFFFF AND DUP6 PUSH20 0xFFFFFFFFFFFFFFFFFFFFFFFFFFFFFFFFFFFFFFFF AND PUSH32 0xC3D58168C5AE7397731D063D5BBF3D657854427343F4C083240F7AACAA2D0F62 DUP11 DUP11 PUSH1 0x40 MLOAD PUSH2 0x2136 SWAP3 SWAP2 SWAP1 PUSH2 0x3BDD JUMP JUMPDEST PUSH1 0x40 MLOAD DUP1 SWAP2 SUB SWAP1 LOG4 PUSH2 0x214C DUP5 DUP11 DUP11 DUP7 DUP7 DUP11 PUSH2 0x2358 JUMP JUMPDEST PUSH2 0x215A DUP5 DUP11 DUP11 DUP11 DUP11 DUP11 PUSH2 0x2360 JUMP JUMPDEST POP POP POP POP POP POP POP POP POP JUMP JUMPDEST PUSH0 DUP1 DUP3 PUSH20 0xFFFFFFFFFFFFFFFFFFFFFFFFFFFFFFFFFFFFFFFF AND EXTCODESIZE GT SWAP1 POP SWAP2 SWAP1 POP JUMP JUMPDEST PUSH0 DUP1 PUSH0 SWAP1 POP PUSH27 0x184F03E93FF9F4DAA797ED6E38ED64BF6A1F010000000000000000 DUP4 LT PUSH2 0x21E3 JUMPI PUSH27 0x184F03E93FF9F4DAA797ED6E38ED64BF6A1F010000000000000000 DUP4 DUP2 PUSH2 0x21D9 JUMPI PUSH2 0x21D8 PUSH2 0x3A87 JUMP JUMPDEST JUMPDEST DIV SWAP3 POP PUSH1 0x40 DUP2 ADD SWAP1 POP JUMPDEST PUSH14 0x4EE2D6D415B85ACEF8100000000 DUP4 LT PUSH2 0x2220 JUMPI PUSH14 0x4EE2D6D415B85ACEF8100000000 DUP4 DUP2 PUSH2 0x2216 JUMPI PUSH2 0x2215 PUSH2 0x3A87 JUMP JUMPDEST JUMPDEST DIV SWAP3 POP PUSH1 0x20 DUP2 ADD SWAP1 POP JUMPDEST PUSH7 0x2386F26FC10000 DUP4 LT PUSH2 0x224F JUMPI PUSH7 0x2386F26FC10000 DUP4 DUP2 PUSH2 0x2245 JUMPI PUSH2 0x2244 PUSH2 0x3A87 JUMP JUMPDEST JUMPDEST DIV SWAP3 POP PUSH1 0x10 DUP2 ADD SWAP1 POP JUMPDEST PUSH4 0x5F5E100 DUP4 LT PUSH2 0x2278 JUMPI PUSH4 0x5F5E100 DUP4 DUP2 PUSH2 0x226E JUMPI PUSH2 0x226D PUSH2 0x3A87 JUMP JUMPDEST JUMPDEST DIV SWAP3 POP PUSH1 0x8 DUP2 ADD SWAP1 POP JUMPDEST PUSH2 0x2710 DUP4 LT PUSH2 0x229D JUMPI PUSH2 0x2710 DUP4 DUP2 PUSH2 0x2293 JUMPI PUSH2 0x2292 PUSH2 0x3A87 JUMP JUMPDEST JUMPDEST DIV SWAP3 POP PUSH1 0x4 DUP2 ADD SWAP1 POP JUMPDEST PUSH1 0x64 DUP4 LT PUSH2 0x22C0 JUMPI PUSH1 0x64 DUP4 DUP2 PUSH2 0x22B6 JUMPI PUSH2 0x22B5 PUSH2 0x3A87 JUMP JUMPDEST JUMPDEST DIV SWAP3 POP PUSH1 0x2 DUP2 ADD SWAP1 POP JUMPDEST PUSH1 0xA DUP4 LT PUSH2 0x22CF JUMPI PUSH1 0x1 DUP2 ADD SWAP1 POP JUMPDEST DUP1 SWAP2 POP POP SWAP2 SWAP1 POP JUMP JUMPDEST PUSH1 0x60 PUSH0 PUSH1 0x1 PUSH8 0xFFFFFFFFFFFFFFFF DUP2 GT ISZERO PUSH2 0x22F6 JUMPI PUSH2 0x22F5 PUSH2 0x29FC JUMP JUMPDEST JUMPDEST PUSH1 0x40 MLOAD SWAP1 DUP1 DUP3 MSTORE DUP1 PUSH1 0x20 MUL PUSH1 0x20 ADD DUP3 ADD PUSH1 0x40 MSTORE DUP1 ISZERO PUSH2 0x2324 JUMPI DUP2 PUSH1 0x20 ADD PUSH1 0x20 DUP3 MUL DUP1 CALLDATASIZE DUP4 CALLDATACOPY DUP1 DUP3 ADD SWAP2 POP POP SWAP1 POP JUMPDEST POP SWAP1 POP DUP3 DUP2 PUSH0 DUP2 MLOAD DUP2 LT PUSH2 0x233B JUMPI PUSH2 0x233A PUSH2 0x3839 JUMP JUMPDEST JUMPDEST PUSH1 0x20 MUL PUSH1 0x20 ADD ADD DUP2 DUP2 MSTORE POP POP DUP1 SWAP2 POP POP SWAP2 SWAP1 POP JUMP JUMPDEST POP POP POP POP POP POP JUMP JUMPDEST POP POP POP POP POP POP JUMP JUMPDEST PUSH2 0x237F DUP5 PUSH20 0xFFFFFFFFFFFFFFFFFFFFFFFFFFFFFFFFFFFFFFFF AND PUSH2 0x270C JUMP JUMPDEST ISZERO PUSH2 0x252E JUMPI DUP4 PUSH20 0xFFFFFFFFFFFFFFFFFFFFFFFFFFFFFFFFFFFFFFFF AND PUSH4 0xF23A6E61 DUP8 DUP8 DUP7 DUP7 DUP7 PUSH1 0x40 MLOAD DUP7 PUSH4 0xFFFFFFFF AND PUSH1 0xE0 SHL DUP2 MSTORE PUSH1 0x4 ADD PUSH2 0x23C5 SWAP6 SWAP5 SWAP4 SWAP3 SWAP2 SWAP1 PUSH2 0x3EC3 JUMP JUMPDEST PUSH1 0x20 PUSH1 0x40 MLOAD DUP1 DUP4 SUB DUP2 PUSH0 DUP8 GAS CALL SWAP3 POP POP POP DUP1 ISZERO PUSH2 0x2400 JUMPI POP PUSH1 0x40 MLOAD RETURNDATASIZE PUSH1 0x1F NOT PUSH1 0x1F DUP3 ADD AND DUP3 ADD DUP1 PUSH1 0x40 MSTORE POP DUP2 ADD SWAP1 PUSH2 0x23FD SWAP2 SWAP1 PUSH2 0x3F2F JUMP JUMPDEST PUSH1 0x1 JUMPDEST PUSH2 0x24A5 JUMPI PUSH2 0x240C PUSH2 0x3F66 JUMP JUMPDEST DUP1 PUSH4 0x8C379A0 SUB PUSH2 0x2468 JUMPI POP PUSH2 0x2420 PUSH2 0x3F85 JUMP JUMPDEST DUP1 PUSH2 0x242B JUMPI POP PUSH2 0x246A JUMP JUMPDEST DUP1 PUSH1 0x40 MLOAD PUSH32 0x8C379A000000000000000000000000000000000000000000000000000000000 DUP2 MSTORE PUSH1 0x4 ADD PUSH2 0x245F SWAP2 SWAP1 PUSH2 0x299A JUMP JUMPDEST PUSH1 0x40 MLOAD DUP1 SWAP2 SUB SWAP1 REVERT JUMPDEST POP JUMPDEST PUSH1 0x40 MLOAD PUSH32 0x8C379A000000000000000000000000000000000000000000000000000000000 DUP2 MSTORE PUSH1 0x4 ADD PUSH2 0x249C SWAP1 PUSH2 0x4084 JUMP JUMPDEST PUSH1 0x40 MLOAD DUP1 SWAP2 SUB SWAP1 REVERT JUMPDEST PUSH4 0xF23A6E61 PUSH1 0xE0 SHL PUSH28 0xFFFFFFFFFFFFFFFFFFFFFFFFFFFFFFFFFFFFFFFFFFFFFFFFFFFFFFFF NOT AND DUP2 PUSH28 0xFFFFFFFFFFFFFFFFFFFFFFFFFFFFFFFFFFFFFFFFFFFFFFFFFFFFFFFF NOT AND EQ PUSH2 0x252C JUMPI PUSH1 0x40 MLOAD PUSH32 0x8C379A000000000000000000000000000000000000000000000000000000000 DUP2 MSTORE PUSH1 0x4 ADD PUSH2 0x2523 SWAP1 PUSH2 0x4112 JUMP JUMPDEST PUSH1 0x40 MLOAD DUP1 SWAP2 SUB SWAP1 REVERT JUMPDEST POP JUMPDEST POP POP POP POP POP POP JUMP JUMPDEST PUSH2 0x2555 DUP5 PUSH20 0xFFFFFFFFFFFFFFFFFFFFFFFFFFFFFFFFFFFFFFFF AND PUSH2 0x270C JUMP JUMPDEST ISZERO PUSH2 0x2704 JUMPI DUP4 PUSH20 0xFFFFFFFFFFFFFFFFFFFFFFFFFFFFFFFFFFFFFFFF AND PUSH4 0xBC197C81 DUP8 DUP8 DUP7 DUP7 DUP7 PUSH1 0x40 MLOAD DUP7 PUSH4 0xFFFFFFFF AND PUSH1 0xE0 SHL DUP2 MSTORE PUSH1 0x4 ADD PUSH2 0x259B SWAP6 SWAP5 SWAP4 SWAP3 SWAP2 SWAP1 PUSH2 0x4130 JUMP JUMPDEST PUSH1 0x20 PUSH1 0x40 MLOAD DUP1 DUP4 SUB DUP2 PUSH0 DUP8 GAS CALL SWAP3 POP POP POP DUP1 ISZERO PUSH2 0x25D6 JUMPI POP PUSH1 0x40 MLOAD RETURNDATASIZE PUSH1 0x1F NOT PUSH1 0x1F DUP3 ADD AND DUP3 ADD DUP1 PUSH1 0x40 MSTORE POP DUP2 ADD SWAP1 PUSH2 0x25D3 SWAP2 SWAP1 PUSH2 0x3F2F JUMP JUMPDEST PUSH1 0x1 JUMPDEST PUSH2 0x267B JUMPI PUSH2 0x25E2 PUSH2 0x3F66 JUMP JUMPDEST DUP1 PUSH4 0x8C379A0 SUB PUSH2 0x263E JUMPI POP PUSH2 0x25F6 PUSH2 0x3F85 JUMP JUMPDEST DUP1 PUSH2 0x2601 JUMPI POP PUSH2 0x2640 JUMP JUMPDEST DUP1 PUSH1 0x40 MLOAD PUSH32 0x8C379A000000000000000000000000000000000000000000000000000000000 DUP2 MSTORE PUSH1 0x4 ADD PUSH2 0x2635 SWAP2 SWAP1 PUSH2 0x299A JUMP JUMPDEST PUSH1 0x40 MLOAD DUP1 SWAP2 SUB SWAP1 REVERT JUMPDEST POP JUMPDEST PUSH1 0x40 MLOAD PUSH32 0x8C379A000000000000000000000000000000000000000000000000000000000 DUP2 MSTORE PUSH1 0x4 ADD PUSH2 0x2672 SWAP1 PUSH2 0x4084 JUMP JUMPDEST PUSH1 0x40 MLOAD DUP1 SWAP2 SUB SWAP1 REVERT JUMPDEST PUSH4 0xBC197C81 PUSH1 0xE0 SHL PUSH28 0xFFFFFFFFFFFFFFFFFFFFFFFFFFFFFFFFFFFFFFFFFFFFFFFFFFFFFFFF NOT AND DUP2 PUSH28 0xFFFFFFFFFFFFFFFFFFFFFFFFFFFFFFFFFFFFFFFFFFFFFFFFFFFFFFFF NOT AND EQ PUSH2 0x2702 JUMPI PUSH1 0x40 MLOAD PUSH32 0x8C379A000000000000000000000000000000000000000000000000000000000 DUP2 MSTORE PUSH1 0x4 ADD PUSH2 0x26F9 SWAP1 PUSH2 0x4112 JUMP JUMPDEST PUSH1 0x40 MLOAD DUP1 SWAP2 SUB SWAP1 REVERT JUMPDEST POP JUMPDEST POP POP POP POP POP POP JUMP JUMPDEST PUSH0 DUP1 DUP3 PUSH20 0xFFFFFFFFFFFFFFFFFFFFFFFFFFFFFFFFFFFFFFFF AND EXTCODESIZE GT SWAP1 POP SWAP2 SWAP1 POP JUMP JUMPDEST PUSH0 PUSH1 0x40 MLOAD SWAP1 POP SWAP1 JUMP JUMPDEST PUSH0 DUP1 REVERT JUMPDEST PUSH0 DUP1 REVERT JUMPDEST PUSH0 PUSH20 0xFFFFFFFFFFFFFFFFFFFFFFFFFFFFFFFFFFFFFFFF DUP3 AND SWAP1 POP SWAP2 SWAP1 POP JUMP JUMPDEST PUSH0 PUSH2 0x2768 DUP3 PUSH2 0x273F JUMP JUMPDEST SWAP1 POP SWAP2 SWAP1 POP JUMP JUMPDEST PUSH2 0x2778 DUP2 PUSH2 0x275E JUMP JUMPDEST DUP2 EQ PUSH2 0x2782 JUMPI PUSH0 DUP1 REVERT JUMPDEST POP JUMP JUMPDEST PUSH0 DUP2 CALLDATALOAD SWAP1 POP PUSH2 0x2793 DUP2 PUSH2 0x276F JUMP JUMPDEST SWAP3 SWAP2 POP POP JUMP JUMPDEST PUSH0 DUP2 SWAP1 POP SWAP2 SWAP1 POP JUMP JUMPDEST PUSH2 0x27AB DUP2 PUSH2 0x2799 JUMP JUMPDEST DUP2 EQ PUSH2 0x27B5 JUMPI PUSH0 DUP1 REVERT JUMPDEST POP JUMP JUMPDEST PUSH0 DUP2 CALLDATALOAD SWAP1 POP PUSH2 0x27C6 DUP2 PUSH2 0x27A2 JUMP JUMPDEST SWAP3 SWAP2 POP POP JUMP JUMPDEST PUSH0 DUP1 PUSH1 0x40 DUP4 DUP6 SUB SLT ISZERO PUSH2 0x27E2 JUMPI PUSH2 0x27E1 PUSH2 0x2737 JUMP JUMPDEST JUMPDEST PUSH0 PUSH2 0x27EF DUP6 DUP3 DUP7 ADD PUSH2 0x2785 JUMP JUMPDEST SWAP3 POP POP PUSH1 0x20 PUSH2 0x2800 DUP6 DUP3 DUP7 ADD PUSH2 0x27B8 JUMP JUMPDEST SWAP2 POP POP SWAP3 POP SWAP3 SWAP1 POP JUMP JUMPDEST PUSH2 0x2813 DUP2 PUSH2 0x2799 JUMP JUMPDEST DUP3 MSTORE POP POP JUMP JUMPDEST PUSH0 PUSH1 0x20 DUP3 ADD SWAP1 POP PUSH2 0x282C PUSH0 DUP4 ADD DUP5 PUSH2 0x280A JUMP JUMPDEST SWAP3 SWAP2 POP POP JUMP JUMPDEST PUSH0 PUSH32 0xFFFFFFFF00000000000000000000000000000000000000000000000000000000 DUP3 AND SWAP1 POP SWAP2 SWAP1 POP JUMP JUMPDEST PUSH2 0x2866 DUP2 PUSH2 0x2832 JUMP JUMPDEST DUP2 EQ PUSH2 0x2870 JUMPI PUSH0 DUP1 REVERT JUMPDEST POP JUMP JUMPDEST PUSH0 DUP2 CALLDATALOAD SWAP1 POP PUSH2 0x2881 DUP2 PUSH2 0x285D JUMP JUMPDEST SWAP3 SWAP2 POP POP JUMP JUMPDEST PUSH0 PUSH1 0x20 DUP3 DUP5 SUB SLT ISZERO PUSH2 0x289C JUMPI PUSH2 0x289B PUSH2 0x2737 JUMP JUMPDEST JUMPDEST PUSH0 PUSH2 0x28A9 DUP5 DUP3 DUP6 ADD PUSH2 0x2873 JUMP JUMPDEST SWAP2 POP POP SWAP3 SWAP2 POP POP JUMP JUMPDEST PUSH0 DUP2 ISZERO ISZERO SWAP1 POP SWAP2 SWAP1 POP JUMP JUMPDEST PUSH2 0x28C6 DUP2 PUSH2 0x28B2 JUMP JUMPDEST DUP3 MSTORE POP POP JUMP JUMPDEST PUSH0 PUSH1 0x20 DUP3 ADD SWAP1 POP PUSH2 0x28DF PUSH0 DUP4 ADD DUP5 PUSH2 0x28BD JUMP JUMPDEST SWAP3 SWAP2 POP POP JUMP JUMPDEST PUSH0 PUSH1 0x20 DUP3 DUP5 SUB SLT ISZERO PUSH2 0x28FA JUMPI PUSH2 0x28F9 PUSH2 0x2737 JUMP JUMPDEST JUMPDEST PUSH0 PUSH2 0x2907 DUP5 DUP3 DUP6 ADD PUSH2 0x27B8 JUMP JUMPDEST SWAP2 POP POP SWAP3 SWAP2 POP POP JUMP JUMPDEST PUSH0 DUP2 MLOAD SWAP1 POP SWAP2 SWAP1 POP JUMP JUMPDEST PUSH0 DUP3 DUP3 MSTORE PUSH1 0x20 DUP3 ADD SWAP1 POP SWAP3 SWAP2 POP POP JUMP JUMPDEST PUSH0 JUMPDEST DUP4 DUP2 LT ISZERO PUSH2 0x2947 JUMPI DUP1 DUP3 ADD MLOAD DUP2 DUP5 ADD MSTORE PUSH1 0x20 DUP2 ADD SWAP1 POP PUSH2 0x292C JUMP JUMPDEST PUSH0 DUP5 DUP5 ADD MSTORE POP POP POP POP JUMP JUMPDEST PUSH0 PUSH1 0x1F NOT PUSH1 0x1F DUP4 ADD AND SWAP1 POP SWAP2 SWAP1 POP JUMP JUMPDEST PUSH0 PUSH2 0x296C DUP3 PUSH2 0x2910 JUMP JUMPDEST PUSH2 0x2976 DUP2 DUP6 PUSH2 0x291A JUMP JUMPDEST SWAP4 POP PUSH2 0x2986 DUP2 DUP6 PUSH1 0x20 DUP7 ADD PUSH2 0x292A JUMP JUMPDEST PUSH2 0x298F DUP2 PUSH2 0x2952 JUMP JUMPDEST DUP5 ADD SWAP2 POP POP SWAP3 SWAP2 POP POP JUMP JUMPDEST PUSH0 PUSH1 0x20 DUP3 ADD SWAP1 POP DUP2 DUP2 SUB PUSH0 DUP4 ADD MSTORE PUSH2 0x29B2 DUP2 DUP5 PUSH2 0x2962 JUMP JUMPDEST SWAP1 POP SWAP3 SWAP2 POP POP JUMP JUMPDEST PUSH0 DUP1 PUSH1 0x40 DUP4 DUP6 SUB SLT ISZERO PUSH2 0x29D0 JUMPI PUSH2 0x29CF PUSH2 0x2737 JUMP JUMPDEST JUMPDEST PUSH0 PUSH2 0x29DD DUP6 DUP3 DUP7 ADD PUSH2 0x27B8 JUMP JUMPDEST SWAP3 POP POP PUSH1 0x20 PUSH2 0x29EE DUP6 DUP3 DUP7 ADD PUSH2 0x27B8 JUMP JUMPDEST SWAP2 POP POP SWAP3 POP SWAP3 SWAP1 POP JUMP JUMPDEST PUSH0 DUP1 REVERT JUMPDEST PUSH32 0x4E487B7100000000000000000000000000000000000000000000000000000000 PUSH0 MSTORE PUSH1 0x41 PUSH1 0x4 MSTORE PUSH1 0x24 PUSH0 REVERT JUMPDEST PUSH2 0x2A32 DUP3 PUSH2 0x2952 JUMP JUMPDEST DUP2 ADD DUP2 DUP2 LT PUSH8 0xFFFFFFFFFFFFFFFF DUP3 GT OR ISZERO PUSH2 0x2A51 JUMPI PUSH2 0x2A50 PUSH2 0x29FC JUMP JUMPDEST JUMPDEST DUP1 PUSH1 0x40 MSTORE POP POP POP JUMP JUMPDEST PUSH0 PUSH2 0x2A63 PUSH2 0x272E JUMP JUMPDEST SWAP1 POP PUSH2 0x2A6F DUP3 DUP3 PUSH2 0x2A29 JUMP JUMPDEST SWAP2 SWAP1 POP JUMP JUMPDEST PUSH0 PUSH8 0xFFFFFFFFFFFFFFFF DUP3 GT ISZERO PUSH2 0x2A8E JUMPI PUSH2 0x2A8D PUSH2 0x29FC JUMP JUMPDEST JUMPDEST PUSH1 0x20 DUP3 MUL SWAP1 POP PUSH1 0x20 DUP2 ADD SWAP1 POP SWAP2 SWAP1 POP JUMP JUMPDEST PUSH0 DUP1 REVERT JUMPDEST PUSH0 PUSH2 0x2AB5 PUSH2 0x2AB0 DUP5 PUSH2 0x2A74 JUMP JUMPDEST PUSH2 0x2A5A JUMP JUMPDEST SWAP1 POP DUP1 DUP4 DUP3 MSTORE PUSH1 0x20 DUP3 ADD SWAP1 POP PUSH1 0x20 DUP5 MUL DUP4 ADD DUP6 DUP2 GT ISZERO PUSH2 0x2AD8 JUMPI PUSH2 0x2AD7 PUSH2 0x2A9F JUMP JUMPDEST JUMPDEST DUP4 JUMPDEST DUP2 DUP2 LT ISZERO PUSH2 0x2B01 JUMPI DUP1 PUSH2 0x2AED DUP9 DUP3 PUSH2 0x27B8 JUMP JUMPDEST DUP5 MSTORE PUSH1 0x20 DUP5 ADD SWAP4 POP POP PUSH1 0x20 DUP2 ADD SWAP1 POP PUSH2 0x2ADA JUMP JUMPDEST POP POP POP SWAP4 SWAP3 POP POP POP JUMP JUMPDEST PUSH0 DUP3 PUSH1 0x1F DUP4 ADD SLT PUSH2 0x2B1F JUMPI PUSH2 0x2B1E PUSH2 0x29F8 JUMP JUMPDEST JUMPDEST DUP2 CALLDATALOAD PUSH2 0x2B2F DUP5 DUP3 PUSH1 0x20 DUP7 ADD PUSH2 0x2AA3 JUMP JUMPDEST SWAP2 POP POP SWAP3 SWAP2 POP POP JUMP JUMPDEST PUSH0 DUP1 REVERT JUMPDEST PUSH0 PUSH8 0xFFFFFFFFFFFFFFFF DUP3 GT ISZERO PUSH2 0x2B56 JUMPI PUSH2 0x2B55 PUSH2 0x29FC JUMP JUMPDEST JUMPDEST PUSH2 0x2B5F DUP3 PUSH2 0x2952 JUMP JUMPDEST SWAP1 POP PUSH1 0x20 DUP2 ADD SWAP1 POP SWAP2 SWAP1 POP JUMP JUMPDEST DUP3 DUP2 DUP4 CALLDATACOPY PUSH0 DUP4 DUP4 ADD MSTORE POP POP POP JUMP JUMPDEST PUSH0 PUSH2 0x2B8C PUSH2 0x2B87 DUP5 PUSH2 0x2B3C JUMP JUMPDEST PUSH2 0x2A5A JUMP JUMPDEST SWAP1 POP DUP3 DUP2 MSTORE PUSH1 0x20 DUP2 ADD DUP5 DUP5 DUP5 ADD GT ISZERO PUSH2 0x2BA8 JUMPI PUSH2 0x2BA7 PUSH2 0x2B38 JUMP JUMPDEST JUMPDEST PUSH2 0x2BB3 DUP5 DUP3 DUP6 PUSH2 0x2B6C JUMP JUMPDEST POP SWAP4 SWAP3 POP POP POP JUMP JUMPDEST PUSH0 DUP3 PUSH1 0x1F DUP4 ADD SLT PUSH2 0x2BCF JUMPI PUSH2 0x2BCE PUSH2 0x29F8 JUMP JUMPDEST JUMPDEST DUP2 CALLDATALOAD PUSH2 0x2BDF DUP5 DUP3 PUSH1 0x20 DUP7 ADD PUSH2 0x2B7A JUMP JUMPDEST SWAP2 POP POP SWAP3 SWAP2 POP POP JUMP JUMPDEST PUSH0 DUP1 PUSH0 DUP1 PUSH0 PUSH1 0xA0 DUP7 DUP9 SUB SLT ISZERO PUSH2 0x2C01 JUMPI PUSH2 0x2C00 PUSH2 0x2737 JUMP JUMPDEST JUMPDEST PUSH0 PUSH2 0x2C0E DUP9 DUP3 DUP10 ADD PUSH2 0x2785 JUMP JUMPDEST SWAP6 POP POP PUSH1 0x20 PUSH2 0x2C1F DUP9 DUP3 DUP10 ADD PUSH2 0x2785 JUMP JUMPDEST SWAP5 POP POP PUSH1 0x40 DUP7 ADD CALLDATALOAD PUSH8 0xFFFFFFFFFFFFFFFF DUP2 GT ISZERO PUSH2 0x2C40 JUMPI PUSH2 0x2C3F PUSH2 0x273B JUMP JUMPDEST JUMPDEST PUSH2 0x2C4C DUP9 DUP3 DUP10 ADD PUSH2 0x2B0B JUMP JUMPDEST SWAP4 POP POP PUSH1 0x60 DUP7 ADD CALLDATALOAD PUSH8 0xFFFFFFFFFFFFFFFF DUP2 GT ISZERO PUSH2 0x2C6D JUMPI PUSH2 0x2C6C PUSH2 0x273B JUMP JUMPDEST JUMPDEST PUSH2 0x2C79 DUP9 DUP3 DUP10 ADD PUSH2 0x2B0B JUMP JUMPDEST SWAP3 POP POP PUSH1 0x80 DUP7 ADD CALLDATALOAD PUSH8 0xFFFFFFFFFFFFFFFF DUP2 GT ISZERO PUSH2 0x2C9A JUMPI PUSH2 0x2C99 PUSH2 0x273B JUMP JUMPDEST JUMPDEST PUSH2 0x2CA6 DUP9 DUP3 DUP10 ADD PUSH2 0x2BBB JUMP JUMPDEST SWAP2 POP POP SWAP3 SWAP6 POP SWAP3 SWAP6 SWAP1 SWAP4 POP JUMP JUMPDEST PUSH0 PUSH8 0xFFFFFFFFFFFFFFFF DUP3 GT ISZERO PUSH2 0x2CCD JUMPI PUSH2 0x2CCC PUSH2 0x29FC JUMP JUMPDEST JUMPDEST PUSH2 0x2CD6 DUP3 PUSH2 0x2952 JUMP JUMPDEST SWAP1 POP PUSH1 0x20 DUP2 ADD SWAP1 POP SWAP2 SWAP1 POP JUMP JUMPDEST PUSH0 PUSH2 0x2CF5 PUSH2 0x2CF0 DUP5 PUSH2 0x2CB3 JUMP JUMPDEST PUSH2 0x2A5A JUMP JUMPDEST SWAP1 POP DUP3 DUP2 MSTORE PUSH1 0x20 DUP2 ADD DUP5 DUP5 DUP5 ADD GT ISZERO PUSH2 0x2D11 JUMPI PUSH2 0x2D10 PUSH2 0x2B38 JUMP JUMPDEST JUMPDEST PUSH2 0x2D1C DUP5 DUP3 DUP6 PUSH2 0x2B6C JUMP JUMPDEST POP SWAP4 SWAP3 POP POP POP JUMP JUMPDEST PUSH0 DUP3 PUSH1 0x1F DUP4 ADD SLT PUSH2 0x2D38 JUMPI PUSH2 0x2D37 PUSH2 0x29F8 JUMP JUMPDEST JUMPDEST DUP2 CALLDATALOAD PUSH2 0x2D48 DUP5 DUP3 PUSH1 0x20 DUP7 ADD PUSH2 0x2CE3 JUMP JUMPDEST SWAP2 POP POP SWAP3 SWAP2 POP POP JUMP JUMPDEST PUSH0 PUSH1 0x20 DUP3 DUP5 SUB SLT ISZERO PUSH2 0x2D66 JUMPI PUSH2 0x2D65 PUSH2 0x2737 JUMP JUMPDEST JUMPDEST PUSH0 DUP3 ADD CALLDATALOAD PUSH8 0xFFFFFFFFFFFFFFFF DUP2 GT ISZERO PUSH2 0x2D83 JUMPI PUSH2 0x2D82 PUSH2 0x273B JUMP JUMPDEST JUMPDEST PUSH2 0x2D8F DUP5 DUP3 DUP6 ADD PUSH2 0x2D24 JUMP JUMPDEST SWAP2 POP POP SWAP3 SWAP2 POP POP JUMP JUMPDEST PUSH0 PUSH8 0xFFFFFFFFFFFFFFFF DUP3 GT ISZERO PUSH2 0x2DB2 JUMPI PUSH2 0x2DB1 PUSH2 0x29FC JUMP JUMPDEST JUMPDEST PUSH1 0x20 DUP3 MUL SWAP1 POP PUSH1 0x20 DUP2 ADD SWAP1 POP SWAP2 SWAP1 POP JUMP JUMPDEST PUSH0 PUSH2 0x2DD5 PUSH2 0x2DD0 DUP5 PUSH2 0x2D98 JUMP JUMPDEST PUSH2 0x2A5A JUMP JUMPDEST SWAP1 POP DUP1 DUP4 DUP3 MSTORE PUSH1 0x20 DUP3 ADD SWAP1 POP PUSH1 0x20 DUP5 MUL DUP4 ADD DUP6 DUP2 GT ISZERO PUSH2 0x2DF8 JUMPI PUSH2 0x2DF7 PUSH2 0x2A9F JUMP JUMPDEST JUMPDEST DUP4 JUMPDEST DUP2 DUP2 LT ISZERO PUSH2 0x2E21 JUMPI DUP1 PUSH2 0x2E0D DUP9 DUP3 PUSH2 0x2785 JUMP JUMPDEST DUP5 MSTORE PUSH1 0x20 DUP5 ADD SWAP4 POP POP PUSH1 0x20 DUP2 ADD SWAP1 POP PUSH2 0x2DFA JUMP JUMPDEST POP POP POP SWAP4 SWAP3 POP POP POP JUMP JUMPDEST PUSH0 DUP3 PUSH1 0x1F DUP4 ADD SLT PUSH2 0x2E3F JUMPI PUSH2 0x2E3E PUSH2 0x29F8 JUMP JUMPDEST JUMPDEST DUP2 CALLDATALOAD PUSH2 0x2E4F DUP5 DUP3 PUSH1 0x20 DUP7 ADD PUSH2 0x2DC3 JUMP JUMPDEST SWAP2 POP POP SWAP3 SWAP2 POP POP JUMP JUMPDEST PUSH0 DUP1 PUSH1 0x40 DUP4 DUP6 SUB SLT ISZERO PUSH2 0x2E6E JUMPI PUSH2 0x2E6D PUSH2 0x2737 JUMP JUMPDEST JUMPDEST PUSH0 DUP4 ADD CALLDATALOAD PUSH8 0xFFFFFFFFFFFFFFFF DUP2 GT ISZERO PUSH2 0x2E8B JUMPI PUSH2 0x2E8A PUSH2 0x273B JUMP JUMPDEST JUMPDEST PUSH2 0x2E97 DUP6 DUP3 DUP7 ADD PUSH2 0x2E2B JUMP JUMPDEST SWAP3 POP POP PUSH1 0x20 DUP4 ADD CALLDATALOAD PUSH8 0xFFFFFFFFFFFFFFFF DUP2 GT ISZERO PUSH2 0x2EB8 JUMPI PUSH2 0x2EB7 PUSH2 0x273B JUMP JUMPDEST JUMPDEST PUSH2 0x2EC4 DUP6 DUP3 DUP7 ADD PUSH2 0x2B0B JUMP JUMPDEST SWAP2 POP POP SWAP3 POP SWAP3 SWAP1 POP JUMP JUMPDEST PUSH0 DUP2 MLOAD SWAP1 POP SWAP2 SWAP1 POP JUMP JUMPDEST PUSH0 DUP3 DUP3 MSTORE PUSH1 0x20 DUP3 ADD SWAP1 POP SWAP3 SWAP2 POP POP JUMP JUMPDEST PUSH0 DUP2 SWAP1 POP PUSH1 0x20 DUP3 ADD SWAP1 POP SWAP2 SWAP1 POP JUMP JUMPDEST PUSH2 0x2F00 DUP2 PUSH2 0x2799 JUMP JUMPDEST DUP3 MSTORE POP POP JUMP JUMPDEST PUSH0 PUSH2 0x2F11 DUP4 DUP4 PUSH2 0x2EF7 JUMP JUMPDEST PUSH1 0x20 DUP4 ADD SWAP1 POP SWAP3 SWAP2 POP POP JUMP JUMPDEST PUSH0 PUSH1 0x20 DUP3 ADD SWAP1 POP SWAP2 SWAP1 POP JUMP JUMPDEST PUSH0 PUSH2 0x2F33 DUP3 PUSH2 0x2ECE JUMP JUMPDEST PUSH2 0x2F3D DUP2 DUP6 PUSH2 0x2ED8 JUMP JUMPDEST SWAP4 POP PUSH2 0x2F48 DUP4 PUSH2 0x2EE8 JUMP JUMPDEST DUP1 PUSH0 JUMPDEST DUP4 DUP2 LT ISZERO PUSH2 0x2F78 JUMPI DUP2 MLOAD PUSH2 0x2F5F DUP9 DUP3 PUSH2 0x2F06 JUMP JUMPDEST SWAP8 POP PUSH2 0x2F6A DUP4 PUSH2 0x2F1D JUMP JUMPDEST SWAP3 POP POP PUSH1 0x1 DUP2 ADD SWAP1 POP PUSH2 0x2F4B JUMP JUMPDEST POP DUP6 SWAP4 POP POP POP POP SWAP3 SWAP2 POP POP JUMP JUMPDEST PUSH0 PUSH1 0x20 DUP3 ADD SWAP1 POP DUP2 DUP2 SUB PUSH0 DUP4 ADD MSTORE PUSH2 0x2F9D DUP2 DUP5 PUSH2 0x2F29 JUMP JUMPDEST SWAP1 POP SWAP3 SWAP2 POP POP JUMP JUMPDEST PUSH2 0x2FAE DUP2 PUSH2 0x275E JUMP JUMPDEST DUP3 MSTORE POP POP JUMP JUMPDEST PUSH0 PUSH1 0x20 DUP3 ADD SWAP1 POP PUSH2 0x2FC7 PUSH0 DUP4 ADD DUP5 PUSH2 0x2FA5 JUMP JUMPDEST SWAP3 SWAP2 POP POP JUMP JUMPDEST PUSH2 0x2FD6 DUP2 PUSH2 0x28B2 JUMP JUMPDEST DUP2 EQ PUSH2 0x2FE0 JUMPI PUSH0 DUP1 REVERT JUMPDEST POP JUMP JUMPDEST PUSH0 DUP2 CALLDATALOAD SWAP1 POP PUSH2 0x2FF1 DUP2 PUSH2 0x2FCD JUMP JUMPDEST SWAP3 SWAP2 POP POP JUMP JUMPDEST PUSH0 DUP1 PUSH1 0x40 DUP4 DUP6 SUB SLT ISZERO PUSH2 0x300D JUMPI PUSH2 0x300C PUSH2 0x2737 JUMP JUMPDEST JUMPDEST PUSH0 PUSH2 0x301A DUP6 DUP3 DUP7 ADD PUSH2 0x2785 JUMP JUMPDEST SWAP3 POP POP PUSH1 0x20 PUSH2 0x302B DUP6 DUP3 DUP7 ADD PUSH2 0x2FE3 JUMP JUMPDEST SWAP2 POP POP SWAP3 POP SWAP3 SWAP1 POP JUMP JUMPDEST PUSH0 DUP1 PUSH0 DUP1 PUSH1 0x80 DUP6 DUP8 SUB SLT ISZERO PUSH2 0x304D JUMPI PUSH2 0x304C PUSH2 0x2737 JUMP JUMPDEST JUMPDEST PUSH0 PUSH2 0x305A DUP8 DUP3 DUP9 ADD PUSH2 0x27B8 JUMP JUMPDEST SWAP5 POP POP PUSH1 0x20 DUP6 ADD CALLDATALOAD PUSH8 0xFFFFFFFFFFFFFFFF DUP2 GT ISZERO PUSH2 0x307B JUMPI PUSH2 0x307A PUSH2 0x273B JUMP JUMPDEST JUMPDEST PUSH2 0x3087 DUP8 DUP3 DUP9 ADD PUSH2 0x2D24 JUMP JUMPDEST SWAP4 POP POP PUSH1 0x40 PUSH2 0x3098 DUP8 DUP3 DUP9 ADD PUSH2 0x27B8 JUMP JUMPDEST SWAP3 POP POP PUSH1 0x60 PUSH2 0x30A9 DUP8 DUP3 DUP9 ADD PUSH2 0x27B8 JUMP JUMPDEST SWAP2 POP POP SWAP3 SWAP6 SWAP2 SWAP5 POP SWAP3 POP JUMP JUMPDEST PUSH0 DUP1 PUSH1 0x40 DUP4 DUP6 SUB SLT ISZERO PUSH2 0x30CB JUMPI PUSH2 0x30CA PUSH2 0x2737 JUMP JUMPDEST JUMPDEST PUSH0 PUSH2 0x30D8 DUP6 DUP3 DUP7 ADD PUSH2 0x2785 JUMP JUMPDEST SWAP3 POP POP PUSH1 0x20 PUSH2 0x30E9 DUP6 DUP3 DUP7 ADD PUSH2 0x2785 JUMP JUMPDEST SWAP2 POP POP SWAP3 POP SWAP3 SWAP1 POP JUMP JUMPDEST PUSH0 DUP1 PUSH0 DUP1 PUSH0 PUSH1 0xA0 DUP7 DUP9 SUB SLT ISZERO PUSH2 0x310C JUMPI PUSH2 0x310B PUSH2 0x2737 JUMP JUMPDEST JUMPDEST PUSH0 PUSH2 0x3119 DUP9 DUP3 DUP10 ADD PUSH2 0x2785 JUMP JUMPDEST SWAP6 POP POP PUSH1 0x20 PUSH2 0x312A DUP9 DUP3 DUP10 ADD PUSH2 0x2785 JUMP JUMPDEST SWAP5 POP POP PUSH1 0x40 PUSH2 0x313B DUP9 DUP3 DUP10 ADD PUSH2 0x27B8 JUMP JUMPDEST SWAP4 POP POP PUSH1 0x60 PUSH2 0x314C DUP9 DUP3 DUP10 ADD PUSH2 0x27B8 JUMP JUMPDEST SWAP3 POP POP PUSH1 0x80 DUP7 ADD CALLDATALOAD PUSH8 0xFFFFFFFFFFFFFFFF DUP2 GT ISZERO PUSH2 0x316D JUMPI PUSH2 0x316C PUSH2 0x273B JUMP JUMPDEST JUMPDEST PUSH2 0x3179 DUP9 DUP3 DUP10 ADD PUSH2 0x2BBB JUMP JUMPDEST SWAP2 POP POP SWAP3 SWAP6 POP SWAP3 SWAP6 SWAP1 SWAP4 POP JUMP JUMPDEST PUSH0 PUSH1 0x20 DUP3 DUP5 SUB SLT ISZERO PUSH2 0x319B JUMPI PUSH2 0x319A PUSH2 0x2737 JUMP JUMPDEST JUMPDEST PUSH0 PUSH2 0x31A8 DUP5 DUP3 DUP6 ADD PUSH2 0x2785 JUMP JUMPDEST SWAP2 POP POP SWAP3 SWAP2 POP POP JUMP JUMPDEST PUSH32 0x455243313135353A2061646472657373207A65726F206973206E6F7420612076 PUSH0 DUP3 ADD MSTORE PUSH32 0x616C6964206F776E657200000000000000000000000000000000000000000000 PUSH1 0x20 DUP3 ADD MSTORE POP JUMP JUMPDEST PUSH0 PUSH2 0x320B PUSH1 0x2A DUP4 PUSH2 0x291A JUMP JUMPDEST SWAP2 POP PUSH2 0x3216 DUP3 PUSH2 0x31B1 JUMP JUMPDEST PUSH1 0x40 DUP3 ADD SWAP1 POP SWAP2 SWAP1 POP JUMP JUMPDEST PUSH0 PUSH1 0x20 DUP3 ADD SWAP1 POP DUP2 DUP2 SUB PUSH0 DUP4 ADD MSTORE PUSH2 0x3238 DUP2 PUSH2 0x31FF JUMP JUMPDEST SWAP1 POP SWAP2 SWAP1 POP JUMP JUMPDEST PUSH32 0x4E487B7100000000000000000000000000000000000000000000000000000000 PUSH0 MSTORE PUSH1 0x22 PUSH1 0x4 MSTORE PUSH1 0x24 PUSH0 REVERT JUMPDEST PUSH0 PUSH1 0x2 DUP3 DIV SWAP1 POP PUSH1 0x1 DUP3 AND DUP1 PUSH2 0x3283 JUMPI PUSH1 0x7F DUP3 AND SWAP2 POP JUMPDEST PUSH1 0x20 DUP3 LT DUP2 SUB PUSH2 0x3296 JUMPI PUSH2 0x3295 PUSH2 0x323F JUMP JUMPDEST JUMPDEST POP SWAP2 SWAP1 POP JUMP JUMPDEST PUSH0 DUP2 SWAP1 POP SWAP3 SWAP2 POP POP JUMP JUMPDEST PUSH0 DUP2 SWAP1 POP DUP2 PUSH0 MSTORE PUSH1 0x20 PUSH0 KECCAK256 SWAP1 POP SWAP2 SWAP1 POP JUMP JUMPDEST PUSH0 DUP2 SLOAD PUSH2 0x32C4 DUP2 PUSH2 0x326C JUMP JUMPDEST PUSH2 0x32CE DUP2 DUP7 PUSH2 0x329C JUMP JUMPDEST SWAP5 POP PUSH1 0x1 DUP3 AND PUSH0 DUP2 EQ PUSH2 0x32E8 JUMPI PUSH1 0x1 DUP2 EQ PUSH2 0x32FD JUMPI PUSH2 0x332F JUMP JUMPDEST PUSH1 0xFF NOT DUP4 AND DUP7 MSTORE DUP2 ISZERO ISZERO DUP3 MUL DUP7 ADD SWAP4 POP PUSH2 0x332F JUMP JUMPDEST PUSH2 0x3306 DUP6 PUSH2 0x32A6 JUMP JUMPDEST PUSH0 JUMPDEST DUP4 DUP2 LT ISZERO PUSH2 0x3327 JUMPI DUP2 SLOAD DUP2 DUP10 ADD MSTORE PUSH1 0x1 DUP3 ADD SWAP2 POP PUSH1 0x20 DUP2 ADD SWAP1 POP PUSH2 0x3308 JUMP JUMPDEST DUP4 DUP9 ADD SWAP6 POP POP POP JUMPDEST POP POP POP SWAP3 SWAP2 POP POP JUMP JUMPDEST PUSH0 PUSH2 0x3342 DUP3 PUSH2 0x2910 JUMP JUMPDEST PUSH2 0x334C DUP2 DUP6 PUSH2 0x329C JUMP JUMPDEST SWAP4 POP PUSH2 0x335C DUP2 DUP6 PUSH1 0x20 DUP7 ADD PUSH2 0x292A JUMP JUMPDEST DUP1 DUP5 ADD SWAP2 POP POP SWAP3 SWAP2 POP POP JUMP JUMPDEST PUSH0 PUSH2 0x3373 DUP3 DUP6 PUSH2 0x32B8 JUMP JUMPDEST SWAP2 POP PUSH2 0x337F DUP3 DUP5 PUSH2 0x3338 JUMP JUMPDEST SWAP2 POP DUP2 SWAP1 POP SWAP4 SWAP3 POP POP POP JUMP JUMPDEST PUSH32 0x496E76616C6964204E4654207479706500000000000000000000000000000000 PUSH0 DUP3 ADD MSTORE POP JUMP JUMPDEST PUSH0 PUSH2 0x33BF PUSH1 0x10 DUP4 PUSH2 0x291A JUMP JUMPDEST SWAP2 POP PUSH2 0x33CA DUP3 PUSH2 0x338B JUMP JUMPDEST PUSH1 0x20 DUP3 ADD SWAP1 POP SWAP2 SWAP1 POP JUMP JUMPDEST PUSH0 PUSH1 0x20 DUP3 ADD SWAP1 POP DUP2 DUP2 SUB PUSH0 DUP4 ADD MSTORE PUSH2 0x33EC DUP2 PUSH2 0x33B3 JUMP JUMPDEST SWAP1 POP SWAP2 SWAP1 POP JUMP JUMPDEST PUSH32 0x416D6F756E74206D7573742062652067726561746572207468616E207A65726F PUSH0 DUP3 ADD MSTORE POP JUMP JUMPDEST PUSH0 PUSH2 0x3427 PUSH1 0x20 DUP4 PUSH2 0x291A JUMP JUMPDEST SWAP2 POP PUSH2 0x3432 DUP3 PUSH2 0x33F3 JUMP JUMPDEST PUSH1 0x20 DUP3 ADD SWAP1 POP SWAP2 SWAP1 POP JUMP JUMPDEST PUSH0 PUSH1 0x20 DUP3 ADD SWAP1 POP DUP2 DUP2 SUB PUSH0 DUP4 ADD MSTORE PUSH2 0x3454 DUP2 PUSH2 0x341B JUMP JUMPDEST SWAP1 POP SWAP2 SWAP1 POP JUMP JUMPDEST PUSH32 0x4D617820737570706C7920726561636865640000000000000000000000000000 PUSH0 DUP3 ADD MSTORE POP JUMP JUMPDEST PUSH0 PUSH2 0x348F PUSH1 0x12 DUP4 PUSH2 0x291A JUMP JUMPDEST SWAP2 POP PUSH2 0x349A DUP3 PUSH2 0x345B JUMP JUMPDEST PUSH1 0x20 DUP3 ADD SWAP1 POP SWAP2 SWAP1 POP JUMP JUMPDEST PUSH0 PUSH1 0x20 DUP3 ADD SWAP1 POP DUP2 DUP2 SUB PUSH0 DUP4 ADD MSTORE PUSH2 0x34BC DUP2 PUSH2 0x3483 JUMP JUMPDEST SWAP1 POP SWAP2 SWAP1 POP JUMP JUMPDEST PUSH32 0x455243313135353A2063616C6C6572206973206E6F7420746F6B656E206F776E PUSH0 DUP3 ADD MSTORE PUSH32 0x6572206F7220617070726F766564000000000000000000000000000000000000 PUSH1 0x20 DUP3 ADD MSTORE POP JUMP JUMPDEST PUSH0 PUSH2 0x351D PUSH1 0x2E DUP4 PUSH2 0x291A JUMP JUMPDEST SWAP2 POP PUSH2 0x3528 DUP3 PUSH2 0x34C3 JUMP JUMPDEST PUSH1 0x40 DUP3 ADD SWAP1 POP SWAP2 SWAP1 POP JUMP JUMPDEST PUSH0 PUSH1 0x20 DUP3 ADD SWAP1 POP DUP2 DUP2 SUB PUSH0 DUP4 ADD MSTORE PUSH2 0x354A DUP2 PUSH2 0x3511 JUMP JUMPDEST SWAP1 POP SWAP2 SWAP1 POP JUMP JUMPDEST PUSH0 PUSH1 0x20 PUSH1 0x1F DUP4 ADD DIV SWAP1 POP SWAP2 SWAP1 POP JUMP JUMPDEST PUSH0 DUP3 DUP3 SHL SWAP1 POP SWAP3 SWAP2 POP POP JUMP JUMPDEST PUSH0 PUSH1 0x8 DUP4 MUL PUSH2 0x359B PUSH32 0xFFFFFFFFFFFFFFFFFFFFFFFFFFFFFFFFFFFFFFFFFFFFFFFFFFFFFFFFFFFFFFFF DUP3 PUSH2 0x3560 JUMP JUMPDEST PUSH2 0x35A5 DUP7 DUP4 PUSH2 0x3560 JUMP JUMPDEST SWAP6 POP DUP1 NOT DUP5 AND SWAP4 POP DUP1 DUP7 AND DUP5 OR SWAP3 POP POP POP SWAP4 SWAP3 POP POP POP JUMP JUMPDEST PUSH0 DUP2 SWAP1 POP SWAP2 SWAP1 POP JUMP JUMPDEST PUSH0 PUSH2 0x35E0 PUSH2 0x35DB PUSH2 0x35D6 DUP5 PUSH2 0x2799 JUMP JUMPDEST PUSH2 0x35BD JUMP JUMPDEST PUSH2 0x2799 JUMP JUMPDEST SWAP1 POP SWAP2 SWAP1 POP JUMP JUMPDEST PUSH0 DUP2 SWAP1 POP SWAP2 SWAP1 POP JUMP JUMPDEST PUSH2 0x35F9 DUP4 PUSH2 0x35C6 JUMP JUMPDEST PUSH2 0x360D PUSH2 0x3605 DUP3 PUSH2 0x35E7 JUMP JUMPDEST DUP5 DUP5 SLOAD PUSH2 0x356C JUMP JUMPDEST DUP3 SSTORE POP POP POP POP JUMP JUMPDEST PUSH0 SWAP1 JUMP JUMPDEST PUSH2 0x3621 PUSH2 0x3615 JUMP JUMPDEST PUSH2 0x362C DUP2 DUP5 DUP5 PUSH2 0x35F0 JUMP JUMPDEST POP POP POP JUMP JUMPDEST JUMPDEST DUP2 DUP2 LT ISZERO PUSH2 0x364F JUMPI PUSH2 0x3644 PUSH0 DUP3 PUSH2 0x3619 JUMP JUMPDEST PUSH1 0x1 DUP2 ADD SWAP1 POP PUSH2 0x3632 JUMP JUMPDEST POP POP JUMP JUMPDEST PUSH1 0x1F DUP3 GT ISZERO PUSH2 0x3694 JUMPI PUSH2 0x3665 DUP2 PUSH2 0x32A6 JUMP JUMPDEST PUSH2 0x366E DUP5 PUSH2 0x3551 JUMP JUMPDEST DUP2 ADD PUSH1 0x20 DUP6 LT ISZERO PUSH2 0x367D JUMPI DUP2 SWAP1 POP JUMPDEST PUSH2 0x3691 PUSH2 0x3689 DUP6 PUSH2 0x3551 JUMP JUMPDEST DUP4 ADD DUP3 PUSH2 0x3631 JUMP JUMPDEST POP POP JUMPDEST POP POP POP JUMP JUMPDEST PUSH0 DUP3 DUP3 SHR SWAP1 POP SWAP3 SWAP2 POP POP JUMP JUMPDEST PUSH0 PUSH2 0x36B4 PUSH0 NOT DUP5 PUSH1 0x8 MUL PUSH2 0x3699 JUMP JUMPDEST NOT DUP1 DUP4 AND SWAP2 POP POP SWAP3 SWAP2 POP POP JUMP JUMPDEST PUSH0 PUSH2 0x36CC DUP4 DUP4 PUSH2 0x36A5 JUMP JUMPDEST SWAP2 POP DUP3 PUSH1 0x2 MUL DUP3 OR SWAP1 POP SWAP3 SWAP2 POP POP JUMP JUMPDEST PUSH2 0x36E5 DUP3 PUSH2 0x2910 JUMP JUMPDEST PUSH8 0xFFFFFFFFFFFFFFFF DUP2 GT ISZERO PUSH2 0x36FE JUMPI PUSH2 0x36FD PUSH2 0x29FC JUMP JUMPDEST JUMPDEST PUSH2 0x3708 DUP3 SLOAD PUSH2 0x326C JUMP JUMPDEST PUSH2 0x3713 DUP3 DUP3 DUP6 PUSH2 0x3653 JUMP JUMPDEST PUSH0 PUSH1 0x20 SWAP1 POP PUSH1 0x1F DUP4 GT PUSH1 0x1 DUP2 EQ PUSH2 0x3744 JUMPI PUSH0 DUP5 ISZERO PUSH2 0x3732 JUMPI DUP3 DUP8 ADD MLOAD SWAP1 POP JUMPDEST PUSH2 0x373C DUP6 DUP3 PUSH2 0x36C1 JUMP JUMPDEST DUP7 SSTORE POP PUSH2 0x37A3 JUMP JUMPDEST PUSH1 0x1F NOT DUP5 AND PUSH2 0x3752 DUP7 PUSH2 0x32A6 JUMP JUMPDEST PUSH0 JUMPDEST DUP3 DUP2 LT ISZERO PUSH2 0x3779 JUMPI DUP5 DUP10 ADD MLOAD DUP3 SSTORE PUSH1 0x1 DUP3 ADD SWAP2 POP PUSH1 0x20 DUP6 ADD SWAP5 POP PUSH1 0x20 DUP2 ADD SWAP1 POP PUSH2 0x3754 JUMP JUMPDEST DUP7 DUP4 LT ISZERO PUSH2 0x3796 JUMPI DUP5 DUP10 ADD MLOAD PUSH2 0x3792 PUSH1 0x1F DUP10 AND DUP3 PUSH2 0x36A5 JUMP JUMPDEST DUP4 SSTORE POP JUMPDEST PUSH1 0x1 PUSH1 0x2 DUP9 MUL ADD DUP9 SSTORE POP POP POP JUMPDEST POP POP POP POP POP POP JUMP JUMPDEST PUSH32 0x455243313135353A206163636F756E747320616E6420696473206C656E677468 PUSH0 DUP3 ADD MSTORE PUSH32 0x206D69736D617463680000000000000000000000000000000000000000000000 PUSH1 0x20 DUP3 ADD MSTORE POP JUMP JUMPDEST PUSH0 PUSH2 0x3805 PUSH1 0x29 DUP4 PUSH2 0x291A JUMP JUMPDEST SWAP2 POP PUSH2 0x3810 DUP3 PUSH2 0x37AB JUMP JUMPDEST PUSH1 0x40 DUP3 ADD SWAP1 POP SWAP2 SWAP1 POP JUMP JUMPDEST PUSH0 PUSH1 0x20 DUP3 ADD SWAP1 POP DUP2 DUP2 SUB PUSH0 DUP4 ADD MSTORE PUSH2 0x3832 DUP2 PUSH2 0x37F9 JUMP JUMPDEST SWAP1 POP SWAP2 SWAP1 POP JUMP JUMPDEST PUSH32 0x4E487B7100000000000000000000000000000000000000000000000000000000 PUSH0 MSTORE PUSH1 0x32 PUSH1 0x4 MSTORE PUSH1 0x24 PUSH0 REVERT JUMPDEST PUSH32 0x4E487B7100000000000000000000000000000000000000000000000000000000 PUSH0 MSTORE PUSH1 0x11 PUSH1 0x4 MSTORE PUSH1 0x24 PUSH0 REVERT JUMPDEST PUSH0 PUSH2 0x389D DUP3 PUSH2 0x2799 JUMP JUMPDEST SWAP2 POP PUSH32 0xFFFFFFFFFFFFFFFFFFFFFFFFFFFFFFFFFFFFFFFFFFFFFFFFFFFFFFFFFFFFFFFF DUP3 SUB PUSH2 0x38CF JUMPI PUSH2 0x38CE PUSH2 0x3866 JUMP JUMPDEST JUMPDEST PUSH1 0x1 DUP3 ADD SWAP1 POP SWAP2 SWAP1 POP JUMP JUMPDEST PUSH0 PUSH2 0x38E4 DUP3 PUSH2 0x2799 JUMP JUMPDEST SWAP2 POP PUSH2 0x38EF DUP4 PUSH2 0x2799 JUMP JUMPDEST SWAP3 POP DUP3 DUP3 SUB SWAP1 POP DUP2 DUP2 GT ISZERO PUSH2 0x3907 JUMPI PUSH2 0x3906 PUSH2 0x3866 JUMP JUMPDEST JUMPDEST SWAP3 SWAP2 POP POP JUMP JUMPDEST PUSH32 0x4F776E61626C653A206E6577206F776E657220697320746865207A65726F2061 PUSH0 DUP3 ADD MSTORE PUSH32 0x6464726573730000000000000000000000000000000000000000000000000000 PUSH1 0x20 DUP3 ADD MSTORE POP JUMP JUMPDEST PUSH0 PUSH2 0x3967 PUSH1 0x26 DUP4 PUSH2 0x291A JUMP JUMPDEST SWAP2 POP PUSH2 0x3972 DUP3 PUSH2 0x390D JUMP JUMPDEST PUSH1 0x40 DUP3 ADD SWAP1 POP SWAP2 SWAP1 POP JUMP JUMPDEST PUSH0 PUSH1 0x20 DUP3 ADD SWAP1 POP DUP2 DUP2 SUB PUSH0 DUP4 ADD MSTORE PUSH2 0x3994 DUP2 PUSH2 0x395B JUMP JUMPDEST SWAP1 POP SWAP2 SWAP1 POP JUMP JUMPDEST PUSH32 0x496E697469616C697A61626C653A20636F6E747261637420697320616C726561 PUSH0 DUP3 ADD MSTORE PUSH32 0x647920696E697469616C697A6564000000000000000000000000000000000000 PUSH1 0x20 DUP3 ADD MSTORE POP JUMP JUMPDEST PUSH0 PUSH2 0x39F5 PUSH1 0x2E DUP4 PUSH2 0x291A JUMP JUMPDEST SWAP2 POP PUSH2 0x3A00 DUP3 PUSH2 0x399B JUMP JUMPDEST PUSH1 0x40 DUP3 ADD SWAP1 POP SWAP2 SWAP1 POP JUMP JUMPDEST PUSH0 PUSH1 0x20 DUP3 ADD SWAP1 POP DUP2 DUP2 SUB PUSH0 DUP4 ADD MSTORE PUSH2 0x3A22 DUP2 PUSH2 0x39E9 JUMP JUMPDEST SWAP1 POP SWAP2 SWAP1 POP JUMP JUMPDEST PUSH0 DUP2 SWAP1 POP SWAP2 SWAP1 POP JUMP JUMPDEST PUSH0 PUSH1 0xFF DUP3 AND SWAP1 POP SWAP2 SWAP1 POP JUMP JUMPDEST PUSH0 PUSH2 0x3A58 PUSH2 0x3A53 PUSH2 0x3A4E DUP5 PUSH2 0x3A29 JUMP JUMPDEST PUSH2 0x35BD JUMP JUMPDEST PUSH2 0x3A32 JUMP JUMPDEST SWAP1 POP SWAP2 SWAP1 POP JUMP JUMPDEST PUSH2 0x3A68 DUP2 PUSH2 0x3A3E JUMP JUMPDEST DUP3 MSTORE POP POP JUMP JUMPDEST PUSH0 PUSH1 0x20 DUP3 ADD SWAP1 POP PUSH2 0x3A81 PUSH0 DUP4 ADD DUP5 PUSH2 0x3A5F JUMP JUMPDEST SWAP3 SWAP2 POP POP JUMP JUMPDEST PUSH32 0x4E487B7100000000000000000000000000000000000000000000000000000000 PUSH0 MSTORE PUSH1 0x12 PUSH1 0x4 MSTORE PUSH1 0x24 PUSH0 REVERT JUMPDEST PUSH32 0x4F776E61626C653A2063616C6C6572206973206E6F7420746865206F776E6572 PUSH0 DUP3 ADD MSTORE POP JUMP JUMPDEST PUSH0 PUSH2 0x3AE8 PUSH1 0x20 DUP4 PUSH2 0x291A JUMP JUMPDEST SWAP2 POP PUSH2 0x3AF3 DUP3 PUSH2 0x3AB4 JUMP JUMPDEST PUSH1 0x20 DUP3 ADD SWAP1 POP SWAP2 SWAP1 POP JUMP JUMPDEST PUSH0 PUSH1 0x20 DUP3 ADD SWAP1 POP DUP2 DUP2 SUB PUSH0 DUP4 ADD MSTORE PUSH2 0x3B15 DUP2 PUSH2 0x3ADC JUMP JUMPDEST SWAP1 POP SWAP2 SWAP1 POP JUMP JUMPDEST PUSH32 0x455243313135353A206D696E7420746F20746865207A65726F20616464726573 PUSH0 DUP3 ADD MSTORE PUSH32 0x7300000000000000000000000000000000000000000000000000000000000000 PUSH1 0x20 DUP3 ADD MSTORE POP JUMP JUMPDEST PUSH0 PUSH2 0x3B76 PUSH1 0x21 DUP4 PUSH2 0x291A JUMP JUMPDEST SWAP2 POP PUSH2 0x3B81 DUP3 PUSH2 0x3B1C JUMP JUMPDEST PUSH1 0x40 DUP3 ADD SWAP1 POP SWAP2 SWAP1 POP JUMP JUMPDEST PUSH0 PUSH1 0x20 DUP3 ADD SWAP1 POP DUP2 DUP2 SUB PUSH0 DUP4 ADD MSTORE PUSH2 0x3BA3 DUP2 PUSH2 0x3B6A JUMP JUMPDEST SWAP1 POP SWAP2 SWAP1 POP JUMP JUMPDEST PUSH0 PUSH2 0x3BB4 DUP3 PUSH2 0x2799 JUMP JUMPDEST SWAP2 POP PUSH2 0x3BBF DUP4 PUSH2 0x2799 JUMP JUMPDEST SWAP3 POP DUP3 DUP3 ADD SWAP1 POP DUP1 DUP3 GT ISZERO PUSH2 0x3BD7 JUMPI PUSH2 0x3BD6 PUSH2 0x3866 JUMP JUMPDEST JUMPDEST SWAP3 SWAP2 POP POP JUMP JUMPDEST PUSH0 PUSH1 0x40 DUP3 ADD SWAP1 POP PUSH2 0x3BF0 PUSH0 DUP4 ADD DUP6 PUSH2 0x280A JUMP JUMPDEST PUSH2 0x3BFD PUSH1 0x20 DUP4 ADD DUP5 PUSH2 0x280A JUMP JUMPDEST SWAP4 SWAP3 POP POP POP JUMP JUMPDEST PUSH32 0x455243313135353A2069647320616E6420616D6F756E7473206C656E67746820 PUSH0 DUP3 ADD MSTORE PUSH32 0x6D69736D61746368000000000000000000000000000000000000000000000000 PUSH1 0x20 DUP3 ADD MSTORE POP JUMP JUMPDEST PUSH0 PUSH2 0x3C5E PUSH1 0x28 DUP4 PUSH2 0x291A JUMP JUMPDEST SWAP2 POP PUSH2 0x3C69 DUP3 PUSH2 0x3C04 JUMP JUMPDEST PUSH1 0x40 DUP3 ADD SWAP1 POP SWAP2 SWAP1 POP JUMP JUMPDEST PUSH0 PUSH1 0x20 DUP3 ADD SWAP1 POP DUP2 DUP2 SUB PUSH0 DUP4 ADD MSTORE PUSH2 0x3C8B DUP2 PUSH2 0x3C52 JUMP JUMPDEST SWAP1 POP SWAP2 SWAP1 POP JUMP JUMPDEST PUSH32 0x455243313135353A207472616E7366657220746F20746865207A65726F206164 PUSH0 DUP3 ADD MSTORE PUSH32 0x6472657373000000000000000000000000000000000000000000000000000000 PUSH1 0x20 DUP3 ADD MSTORE POP JUMP JUMPDEST PUSH0 PUSH2 0x3CEC PUSH1 0x25 DUP4 PUSH2 0x291A JUMP JUMPDEST SWAP2 POP PUSH2 0x3CF7 DUP3 PUSH2 0x3C92 JUMP JUMPDEST PUSH1 0x40 DUP3 ADD SWAP1 POP SWAP2 SWAP1 POP JUMP JUMPDEST PUSH0 PUSH1 0x20 DUP3 ADD SWAP1 POP DUP2 DUP2 SUB PUSH0 DUP4 ADD MSTORE PUSH2 0x3D19 DUP2 PUSH2 0x3CE0 JUMP JUMPDEST SWAP1 POP SWAP2 SWAP1 POP JUMP JUMPDEST PUSH32 0x455243313135353A20696E73756666696369656E742062616C616E636520666F PUSH0 DUP3 ADD MSTORE PUSH32 0x72207472616E7366657200000000000000000000000000000000000000000000 PUSH1 0x20 DUP3 ADD MSTORE POP JUMP JUMPDEST PUSH0 PUSH2 0x3D7A PUSH1 0x2A DUP4 PUSH2 0x291A JUMP JUMPDEST SWAP2 POP PUSH2 0x3D85 DUP3 PUSH2 0x3D20 JUMP JUMPDEST PUSH1 0x40 DUP3 ADD SWAP1 POP SWAP2 SWAP1 POP JUMP JUMPDEST PUSH0 PUSH1 0x20 DUP3 ADD SWAP1 POP DUP2 DUP2 SUB PUSH0 DUP4 ADD MSTORE PUSH2 0x3DA7 DUP2 PUSH2 0x3D6E JUMP JUMPDEST SWAP1 POP SWAP2 SWAP1 POP JUMP JUMPDEST PUSH0 PUSH1 0x40 DUP3 ADD SWAP1 POP DUP2 DUP2 SUB PUSH0 DUP4 ADD MSTORE PUSH2 0x3DC6 DUP2 DUP6 PUSH2 0x2F29 JUMP JUMPDEST SWAP1 POP DUP2 DUP2 SUB PUSH1 0x20 DUP4 ADD MSTORE PUSH2 0x3DDA DUP2 DUP5 PUSH2 0x2F29 JUMP JUMPDEST SWAP1 POP SWAP4 SWAP3 POP POP POP JUMP JUMPDEST PUSH32 0x455243313135353A2073657474696E6720617070726F76616C20737461747573 PUSH0 DUP3 ADD MSTORE PUSH32 0x20666F722073656C660000000000000000000000000000000000000000000000 PUSH1 0x20 DUP3 ADD MSTORE POP JUMP JUMPDEST PUSH0 PUSH2 0x3E3D PUSH1 0x29 DUP4 PUSH2 0x291A JUMP JUMPDEST SWAP2 POP PUSH2 0x3E48 DUP3 PUSH2 0x3DE3 JUMP JUMPDEST PUSH1 0x40 DUP3 ADD SWAP1 POP SWAP2 SWAP1 POP JUMP JUMPDEST PUSH0 PUSH1 0x20 DUP3 ADD SWAP1 POP DUP2 DUP2 SUB PUSH0 DUP4 ADD MSTORE PUSH2 0x3E6A DUP2 PUSH2 0x3E31 JUMP JUMPDEST SWAP1 POP SWAP2 SWAP1 POP JUMP JUMPDEST PUSH0 DUP2 MLOAD SWAP1 POP SWAP2 SWAP1 POP JUMP JUMPDEST PUSH0 DUP3 DUP3 MSTORE PUSH1 0x20 DUP3 ADD SWAP1 POP SWAP3 SWAP2 POP POP JUMP JUMPDEST PUSH0 PUSH2 0x3E95 DUP3 PUSH2 0x3E71 JUMP JUMPDEST PUSH2 0x3E9F DUP2 DUP6 PUSH2 0x3E7B JUMP JUMPDEST SWAP4 POP PUSH2 0x3EAF DUP2 DUP6 PUSH1 0x20 DUP7 ADD PUSH2 0x292A JUMP JUMPDEST PUSH2 0x3EB8 DUP2 PUSH2 0x2952 JUMP JUMPDEST DUP5 ADD SWAP2 POP POP SWAP3 SWAP2 POP POP JUMP JUMPDEST PUSH0 PUSH1 0xA0 DUP3 ADD SWAP1 POP PUSH2 0x3ED6 PUSH0 DUP4 ADD DUP9 PUSH2 0x2FA5 JUMP JUMPDEST PUSH2 0x3EE3 PUSH1 0x20 DUP4 ADD DUP8 PUSH2 0x2FA5 JUMP JUMPDEST PUSH2 0x3EF0 PUSH1 0x40 DUP4 ADD DUP7 PUSH2 0x280A JUMP JUMPDEST PUSH2 0x3EFD PUSH1 0x60 DUP4 ADD DUP6 PUSH2 0x280A JUMP JUMPDEST DUP2 DUP2 SUB PUSH1 0x80 DUP4 ADD MSTORE PUSH2 0x3F0F DUP2 DUP5 PUSH2 0x3E8B JUMP JUMPDEST SWAP1 POP SWAP7 SWAP6 POP POP POP POP POP POP JUMP JUMPDEST PUSH0 DUP2 MLOAD SWAP1 POP PUSH2 0x3F29 DUP2 PUSH2 0x285D JUMP JUMPDEST SWAP3 SWAP2 POP POP JUMP JUMPDEST PUSH0 PUSH1 0x20 DUP3 DUP5 SUB SLT ISZERO PUSH2 0x3F44 JUMPI PUSH2 0x3F43 PUSH2 0x2737 JUMP JUMPDEST JUMPDEST PUSH0 PUSH2 0x3F51 DUP5 DUP3 DUP6 ADD PUSH2 0x3F1B JUMP JUMPDEST SWAP2 POP POP SWAP3 SWAP2 POP POP JUMP JUMPDEST PUSH0 DUP2 PUSH1 0xE0 SHR SWAP1 POP SWAP2 SWAP1 POP JUMP JUMPDEST PUSH0 PUSH1 0x3 RETURNDATASIZE GT ISZERO PUSH2 0x3F82 JUMPI PUSH1 0x4 PUSH0 DUP1 RETURNDATACOPY PUSH2 0x3F7F PUSH0 MLOAD PUSH2 0x3F5A JUMP JUMPDEST SWAP1 POP JUMPDEST SWAP1 JUMP JUMPDEST PUSH0 PUSH1 0x44 RETURNDATASIZE LT PUSH2 0x4011 JUMPI PUSH2 0x3F96 PUSH2 0x272E JUMP JUMPDEST PUSH1 0x4 RETURNDATASIZE SUB PUSH1 0x4 DUP3 RETURNDATACOPY DUP1 MLOAD RETURNDATASIZE PUSH1 0x24 DUP3 ADD GT PUSH8 0xFFFFFFFFFFFFFFFF DUP3 GT OR ISZERO PUSH2 0x3FBE JUMPI POP POP PUSH2 0x4011 JUMP JUMPDEST DUP1 DUP3 ADD DUP1 MLOAD PUSH8 0xFFFFFFFFFFFFFFFF DUP2 GT ISZERO PUSH2 0x3FDC JUMPI POP POP POP POP PUSH2 0x4011 JUMP JUMPDEST DUP1 PUSH1 0x20 DUP4 ADD ADD PUSH1 0x4 RETURNDATASIZE SUB DUP6 ADD DUP2 GT ISZERO PUSH2 0x3FF9 JUMPI POP POP POP POP POP PUSH2 0x4011 JUMP JUMPDEST PUSH2 0x4008 DUP3 PUSH1 0x20 ADD DUP6 ADD DUP7 PUSH2 0x2A29 JUMP JUMPDEST DUP3 SWAP6 POP POP POP POP POP POP JUMPDEST SWAP1 JUMP JUMPDEST PUSH32 0x455243313135353A207472616E7366657220746F206E6F6E2D45524331313535 PUSH0 DUP3 ADD MSTORE PUSH32 0x526563656976657220696D706C656D656E746572000000000000000000000000 PUSH1 0x20 DUP3 ADD MSTORE POP JUMP JUMPDEST PUSH0 PUSH2 0x406E PUSH1 0x34 DUP4 PUSH2 0x291A JUMP JUMPDEST SWAP2 POP PUSH2 0x4079 DUP3 PUSH2 0x4014 JUMP JUMPDEST PUSH1 0x40 DUP3 ADD SWAP1 POP SWAP2 SWAP1 POP JUMP JUMPDEST PUSH0 PUSH1 0x20 DUP3 ADD SWAP1 POP DUP2 DUP2 SUB PUSH0 DUP4 ADD MSTORE PUSH2 0x409B DUP2 PUSH2 0x4062 JUMP JUMPDEST SWAP1 POP SWAP2 SWAP1 POP JUMP JUMPDEST PUSH32 0x455243313135353A204552433131353552656365697665722072656A65637465 PUSH0 DUP3 ADD MSTORE PUSH32 0x6420746F6B656E73000000000000000000000000000000000000000000000000 PUSH1 0x20 DUP3 ADD MSTORE POP JUMP JUMPDEST PUSH0 PUSH2 0x40FC PUSH1 0x28 DUP4 PUSH2 0x291A JUMP JUMPDEST SWAP2 POP PUSH2 0x4107 DUP3 PUSH2 0x40A2 JUMP JUMPDEST PUSH1 0x40 DUP3 ADD SWAP1 POP SWAP2 SWAP1 POP JUMP JUMPDEST PUSH0 PUSH1 0x20 DUP3 ADD SWAP1 POP DUP2 DUP2 SUB PUSH0 DUP4 ADD MSTORE PUSH2 0x4129 DUP2 PUSH2 0x40F0 JUMP JUMPDEST SWAP1 POP SWAP2 SWAP1 POP JUMP JUMPDEST PUSH0 PUSH1 0xA0 DUP3 ADD SWAP1 POP PUSH2 0x4143 PUSH0 DUP4 ADD DUP9 PUSH2 0x2FA5 JUMP JUMPDEST PUSH2 0x4150 PUSH1 0x20 DUP4 ADD DUP8 PUSH2 0x2FA5 JUMP JUMPDEST DUP2 DUP2 SUB PUSH1 0x40 DUP4 ADD MSTORE PUSH2 0x4162 DUP2 DUP7 PUSH2 0x2F29 JUMP JUMPDEST SWAP1 POP DUP2 DUP2 SUB PUSH1 0x60 DUP4 ADD MSTORE PUSH2 0x4176 DUP2 DUP6 PUSH2 0x2F29 JUMP JUMPDEST SWAP1 POP DUP2 DUP2 SUB PUSH1 0x80 DUP4 ADD MSTORE PUSH2 0x418A DUP2 DUP5 PUSH2 0x3E8B JUMP JUMPDEST SWAP1 POP SWAP7 SWAP6 POP POP POP POP POP POP JUMP INVALID LOG2 PUSH5 0x6970667358 0x22 SLT KECCAK256 PUSH28 0x919B447F339E635BCD1C4EB2EE77AFEEC59D280B551CB0CF0E5A1EE7 0x2C PUSH11 0xD064736F6C634300081400 CALLER "
		},
		"gasEstimates": {
			"creation": {
				"codeDepositCost": "3368800",
				"executionCost": "infinite",
				"totalCost": "infinite"
			},
			"external": {
				"MAX_SUPPLY_DEFAULT()": "414",
				"MAX_SUPPLY_FLAME()": "415",
				"MAX_SUPPLY_GROUNDED()": "392",
				"MAX_SUPPLY_LOW()": "416",
				"MAX_SUPPLY_LOWER()": "393",
				"TYPE_ALIVE()": "414",
				"TYPE_BE_BOLD()": "459",
				"TYPE_BREATH()": "370",
				"TYPE_CLAN()": "438",
				"TYPE_FIGHT()": "459",
				"TYPE_FLAME()": "371",
				"TYPE_GROUNDED()": "391",
				"TYPE_HELL()": "458",
				"TYPE_LEADER()": "370",
				"TYPE_ROOTED()": "437",
				"TYPE_ROYAL_LION()": "393",
				"TYPE_SILENCE()": "457",
				"TYPE_STING()": "436",
				"TYPE_TED()": "436",
				"TYPE_THUNDER()": "458",
				"TYPE_WING_OF_FREEDOM()": "393",
				"balanceOf(address,uint256)": "infinite",
				"balanceOfBatch(address[],uint256[])": "infinite",
				"defineTypeNames()": "infinite",
				"initialize(string)": "infinite",
				"isApprovedForAll(address,address)": "infinite",
				"maxSupplies(uint256)": "infinite",
				"mint(uint256,uint256)": "infinite",
				"mintCosts(uint256)": "infinite",
				"owner()": "2649",
				"renounceOwnership()": "30523",
				"safeBatchTransferFrom(address,address,uint256[],uint256[],bytes)": "infinite",
				"safeTransferFrom(address,address,uint256,uint256,bytes)": "infinite",
				"setApprovalForAll(address,bool)": "infinite",
				"setBaseTokenURI(string)": "infinite",
				"setNFTType(uint256,string,uint256,uint256)": "infinite",
				"supportsInterface(bytes4)": "832",
				"transferOwnership(address)": "30819",
				"typeNames(uint256)": "infinite",
				"uri(uint256)": "infinite"
			},
			"internal": {
				"getMaxSupply(uint256)": "281"
			}
		},
		"methodIdentifiers": {
			"MAX_SUPPLY_DEFAULT()": "6a5d48ca",
			"MAX_SUPPLY_FLAME()": "8a26cbfe",
			"MAX_SUPPLY_GROUNDED()": "52cb7901",
			"MAX_SUPPLY_LOW()": "074186b0",
			"MAX_SUPPLY_LOWER()": "20766729",
			"TYPE_ALIVE()": "cbeeee3f",
			"TYPE_BE_BOLD()": "4e7286bf",
			"TYPE_BREATH()": "4f4bcb99",
			"TYPE_CLAN()": "0d454388",
			"TYPE_FIGHT()": "30ed51c8",
			"TYPE_FLAME()": "3e007c1f",
			"TYPE_GROUNDED()": "f2f842cc",
			"TYPE_HELL()": "ea4df068",
			"TYPE_LEADER()": "8f754bce",
			"TYPE_ROOTED()": "8d0f7d36",
			"TYPE_ROYAL_LION()": "3fb0d0cb",
			"TYPE_SILENCE()": "f856cfe9",
			"TYPE_STING()": "706df796",
			"TYPE_TED()": "ac33e90e",
			"TYPE_THUNDER()": "ae19a59e",
			"TYPE_WING_OF_FREEDOM()": "89049a7f",
			"balanceOf(address,uint256)": "00fdd58e",
			"balanceOfBatch(address[],uint256[])": "4e1273f4",
			"defineTypeNames()": "41620881",
			"initialize(string)": "f62d1888",
			"isApprovedForAll(address,address)": "e985e9c5",
			"maxSupplies(uint256)": "87962dcc",
			"mint(uint256,uint256)": "1b2ef1ca",
			"mintCosts(uint256)": "c70a2cf7",
			"owner()": "8da5cb5b",
			"renounceOwnership()": "715018a6",
			"safeBatchTransferFrom(address,address,uint256[],uint256[],bytes)": "2eb2c2d6",
			"safeTransferFrom(address,address,uint256,uint256,bytes)": "f242432a",
			"setApprovalForAll(address,bool)": "a22cb465",
			"setBaseTokenURI(string)": "30176e13",
			"setNFTType(uint256,string,uint256,uint256)": "c0019692",
			"supportsInterface(bytes4)": "01ffc9a7",
			"transferOwnership(address)": "f2fde38b",
			"typeNames(uint256)": "9732f1d5",
			"uri(uint256)": "0e89341c"
		}
	},
	"abi": [
		{
			"inputs": [],
			"stateMutability": "nonpayable",
			"type": "constructor"
		},
		{
			"anonymous": false,
			"inputs": [
				{
					"indexed": true,
					"internalType": "address",
					"name": "account",
					"type": "address"
				},
				{
					"indexed": true,
					"internalType": "address",
					"name": "operator",
					"type": "address"
				},
				{
					"indexed": false,
					"internalType": "bool",
					"name": "approved",
					"type": "bool"
				}
			],
			"name": "ApprovalForAll",
			"type": "event"
		},
		{
			"anonymous": false,
			"inputs": [
				{
					"indexed": false,
					"internalType": "uint8",
					"name": "version",
					"type": "uint8"
				}
			],
			"name": "Initialized",
			"type": "event"
		},
		{
			"anonymous": false,
			"inputs": [
				{
					"indexed": true,
					"internalType": "address",
					"name": "previousOwner",
					"type": "address"
				},
				{
					"indexed": true,
					"internalType": "address",
					"name": "newOwner",
					"type": "address"
				}
			],
			"name": "OwnershipTransferred",
			"type": "event"
		},
		{
			"anonymous": false,
			"inputs": [
				{
					"indexed": true,
					"internalType": "address",
					"name": "operator",
					"type": "address"
				},
				{
					"indexed": true,
					"internalType": "address",
					"name": "from",
					"type": "address"
				},
				{
					"indexed": true,
					"internalType": "address",
					"name": "to",
					"type": "address"
				},
				{
					"indexed": false,
					"internalType": "uint256[]",
					"name": "ids",
					"type": "uint256[]"
				},
				{
					"indexed": false,
					"internalType": "uint256[]",
					"name": "values",
					"type": "uint256[]"
				}
			],
			"name": "TransferBatch",
			"type": "event"
		},
		{
			"anonymous": false,
			"inputs": [
				{
					"indexed": true,
					"internalType": "address",
					"name": "operator",
					"type": "address"
				},
				{
					"indexed": true,
					"internalType": "address",
					"name": "from",
					"type": "address"
				},
				{
					"indexed": true,
					"internalType": "address",
					"name": "to",
					"type": "address"
				},
				{
					"indexed": false,
					"internalType": "uint256",
					"name": "id",
					"type": "uint256"
				},
				{
					"indexed": false,
					"internalType": "uint256",
					"name": "value",
					"type": "uint256"
				}
			],
			"name": "TransferSingle",
			"type": "event"
		},
		{
			"anonymous": false,
			"inputs": [
				{
					"indexed": false,
					"internalType": "string",
					"name": "value",
					"type": "string"
				},
				{
					"indexed": true,
					"internalType": "uint256",
					"name": "id",
					"type": "uint256"
				}
			],
			"name": "URI",
			"type": "event"
		},
		{
			"inputs": [],
			"name": "MAX_SUPPLY_DEFAULT",
			"outputs": [
				{
					"internalType": "uint256",
					"name": "",
					"type": "uint256"
				}
			],
			"stateMutability": "view",
			"type": "function"
		},
		{
			"inputs": [],
			"name": "MAX_SUPPLY_FLAME",
			"outputs": [
				{
					"internalType": "uint256",
					"name": "",
					"type": "uint256"
				}
			],
			"stateMutability": "view",
			"type": "function"
		},
		{
			"inputs": [],
			"name": "MAX_SUPPLY_GROUNDED",
			"outputs": [
				{
					"internalType": "uint256",
					"name": "",
					"type": "uint256"
				}
			],
			"stateMutability": "view",
			"type": "function"
		},
		{
			"inputs": [],
			"name": "MAX_SUPPLY_LOW",
			"outputs": [
				{
					"internalType": "uint256",
					"name": "",
					"type": "uint256"
				}
			],
			"stateMutability": "view",
			"type": "function"
		},
		{
			"inputs": [],
			"name": "MAX_SUPPLY_LOWER",
			"outputs": [
				{
					"internalType": "uint256",
					"name": "",
					"type": "uint256"
				}
			],
			"stateMutability": "view",
			"type": "function"
		},
		{
			"inputs": [],
			"name": "TYPE_ALIVE",
			"outputs": [
				{
					"internalType": "uint256",
					"name": "",
					"type": "uint256"
				}
			],
			"stateMutability": "view",
			"type": "function"
		},
		{
			"inputs": [],
			"name": "TYPE_BE_BOLD",
			"outputs": [
				{
					"internalType": "uint256",
					"name": "",
					"type": "uint256"
				}
			],
			"stateMutability": "view",
			"type": "function"
		},
		{
			"inputs": [],
			"name": "TYPE_BREATH",
			"outputs": [
				{
					"internalType": "uint256",
					"name": "",
					"type": "uint256"
				}
			],
			"stateMutability": "view",
			"type": "function"
		},
		{
			"inputs": [],
			"name": "TYPE_CLAN",
			"outputs": [
				{
					"internalType": "uint256",
					"name": "",
					"type": "uint256"
				}
			],
			"stateMutability": "view",
			"type": "function"
		},
		{
			"inputs": [],
			"name": "TYPE_FIGHT",
			"outputs": [
				{
					"internalType": "uint256",
					"name": "",
					"type": "uint256"
				}
			],
			"stateMutability": "view",
			"type": "function"
		},
		{
			"inputs": [],
			"name": "TYPE_FLAME",
			"outputs": [
				{
					"internalType": "uint256",
					"name": "",
					"type": "uint256"
				}
			],
			"stateMutability": "view",
			"type": "function"
		},
		{
			"inputs": [],
			"name": "TYPE_GROUNDED",
			"outputs": [
				{
					"internalType": "uint256",
					"name": "",
					"type": "uint256"
				}
			],
			"stateMutability": "view",
			"type": "function"
		},
		{
			"inputs": [],
			"name": "TYPE_HELL",
			"outputs": [
				{
					"internalType": "uint256",
					"name": "",
					"type": "uint256"
				}
			],
			"stateMutability": "view",
			"type": "function"
		},
		{
			"inputs": [],
			"name": "TYPE_LEADER",
			"outputs": [
				{
					"internalType": "uint256",
					"name": "",
					"type": "uint256"
				}
			],
			"stateMutability": "view",
			"type": "function"
		},
		{
			"inputs": [],
			"name": "TYPE_ROOTED",
			"outputs": [
				{
					"internalType": "uint256",
					"name": "",
					"type": "uint256"
				}
			],
			"stateMutability": "view",
			"type": "function"
		},
		{
			"inputs": [],
			"name": "TYPE_ROYAL_LION",
			"outputs": [
				{
					"internalType": "uint256",
					"name": "",
					"type": "uint256"
				}
			],
			"stateMutability": "view",
			"type": "function"
		},
		{
			"inputs": [],
			"name": "TYPE_SILENCE",
			"outputs": [
				{
					"internalType": "uint256",
					"name": "",
					"type": "uint256"
				}
			],
			"stateMutability": "view",
			"type": "function"
		},
		{
			"inputs": [],
			"name": "TYPE_STING",
			"outputs": [
				{
					"internalType": "uint256",
					"name": "",
					"type": "uint256"
				}
			],
			"stateMutability": "view",
			"type": "function"
		},
		{
			"inputs": [],
			"name": "TYPE_TED",
			"outputs": [
				{
					"internalType": "uint256",
					"name": "",
					"type": "uint256"
				}
			],
			"stateMutability": "view",
			"type": "function"
		},
		{
			"inputs": [],
			"name": "TYPE_THUNDER",
			"outputs": [
				{
					"internalType": "uint256",
					"name": "",
					"type": "uint256"
				}
			],
			"stateMutability": "view",
			"type": "function"
		},
		{
			"inputs": [],
			"name": "TYPE_WING_OF_FREEDOM",
			"outputs": [
				{
					"internalType": "uint256",
					"name": "",
					"type": "uint256"
				}
			],
			"stateMutability": "view",
			"type": "function"
		},
		{
			"inputs": [
				{
					"internalType": "address",
					"name": "account",
					"type": "address"
				},
				{
					"internalType": "uint256",
					"name": "id",
					"type": "uint256"
				}
			],
			"name": "balanceOf",
			"outputs": [
				{
					"internalType": "uint256",
					"name": "",
					"type": "uint256"
				}
			],
			"stateMutability": "view",
			"type": "function"
		},
		{
			"inputs": [
				{
					"internalType": "address[]",
					"name": "accounts",
					"type": "address[]"
				},
				{
					"internalType": "uint256[]",
					"name": "ids",
					"type": "uint256[]"
				}
			],
			"name": "balanceOfBatch",
			"outputs": [
				{
					"internalType": "uint256[]",
					"name": "",
					"type": "uint256[]"
				}
			],
			"stateMutability": "view",
			"type": "function"
		},
		{
			"inputs": [],
			"name": "defineTypeNames",
			"outputs": [],
			"stateMutability": "nonpayable",
			"type": "function"
		},
		{
			"inputs": [
				{
					"internalType": "string",
					"name": "baseTokenURI",
					"type": "string"
				}
			],
			"name": "initialize",
			"outputs": [],
			"stateMutability": "nonpayable",
			"type": "function"
		},
		{
			"inputs": [
				{
					"internalType": "address",
					"name": "account",
					"type": "address"
				},
				{
					"internalType": "address",
					"name": "operator",
					"type": "address"
				}
			],
			"name": "isApprovedForAll",
			"outputs": [
				{
					"internalType": "bool",
					"name": "",
					"type": "bool"
				}
			],
			"stateMutability": "view",
			"type": "function"
		},
		{
			"inputs": [
				{
					"internalType": "uint256",
					"name": "",
					"type": "uint256"
				}
			],
			"name": "maxSupplies",
			"outputs": [
				{
					"internalType": "uint256",
					"name": "",
					"type": "uint256"
				}
			],
			"stateMutability": "view",
			"type": "function"
		},
		{
			"inputs": [
				{
					"internalType": "uint256",
					"name": "id",
					"type": "uint256"
				},
				{
					"internalType": "uint256",
					"name": "amount",
					"type": "uint256"
				}
			],
			"name": "mint",
			"outputs": [],
			"stateMutability": "nonpayable",
			"type": "function"
		},
		{
			"inputs": [
				{
					"internalType": "uint256",
					"name": "",
					"type": "uint256"
				}
			],
			"name": "mintCosts",
			"outputs": [
				{
					"internalType": "uint256",
					"name": "",
					"type": "uint256"
				}
			],
			"stateMutability": "view",
			"type": "function"
		},
		{
			"inputs": [],
			"name": "owner",
			"outputs": [
				{
					"internalType": "address",
					"name": "",
					"type": "address"
				}
			],
			"stateMutability": "view",
			"type": "function"
		},
		{
			"inputs": [],
			"name": "renounceOwnership",
			"outputs": [],
			"stateMutability": "nonpayable",
			"type": "function"
		},
		{
			"inputs": [
				{
					"internalType": "address",
					"name": "from",
					"type": "address"
				},
				{
					"internalType": "address",
					"name": "to",
					"type": "address"
				},
				{
					"internalType": "uint256[]",
					"name": "ids",
					"type": "uint256[]"
				},
				{
					"internalType": "uint256[]",
					"name": "amounts",
					"type": "uint256[]"
				},
				{
					"internalType": "bytes",
					"name": "data",
					"type": "bytes"
				}
			],
			"name": "safeBatchTransferFrom",
			"outputs": [],
			"stateMutability": "nonpayable",
			"type": "function"
		},
		{
			"inputs": [
				{
					"internalType": "address",
					"name": "from",
					"type": "address"
				},
				{
					"internalType": "address",
					"name": "to",
					"type": "address"
				},
				{
					"internalType": "uint256",
					"name": "id",
					"type": "uint256"
				},
				{
					"internalType": "uint256",
					"name": "amount",
					"type": "uint256"
				},
				{
					"internalType": "bytes",
					"name": "data",
					"type": "bytes"
				}
			],
			"name": "safeTransferFrom",
			"outputs": [],
			"stateMutability": "nonpayable",
			"type": "function"
		},
		{
			"inputs": [
				{
					"internalType": "address",
					"name": "operator",
					"type": "address"
				},
				{
					"internalType": "bool",
					"name": "approved",
					"type": "bool"
				}
			],
			"name": "setApprovalForAll",
			"outputs": [],
			"stateMutability": "nonpayable",
			"type": "function"
		},
		{
			"inputs": [
				{
					"internalType": "string",
					"name": "newBaseURI",
					"type": "string"
				}
			],
			"name": "setBaseTokenURI",
			"outputs": [],
			"stateMutability": "nonpayable",
			"type": "function"
		},
		{
			"inputs": [
				{
					"internalType": "uint256",
					"name": "typeId",
					"type": "uint256"
				},
				{
					"internalType": "string",
					"name": "name",
					"type": "string"
				},
				{
					"internalType": "uint256",
					"name": "cost",
					"type": "uint256"
				},
				{
					"internalType": "uint256",
					"name": "supply",
					"type": "uint256"
				}
			],
			"name": "setNFTType",
			"outputs": [],
			"stateMutability": "nonpayable",
			"type": "function"
		},
		{
			"inputs": [
				{
					"internalType": "bytes4",
					"name": "interfaceId",
					"type": "bytes4"
				}
			],
			"name": "supportsInterface",
			"outputs": [
				{
					"internalType": "bool",
					"name": "",
					"type": "bool"
				}
			],
			"stateMutability": "view",
			"type": "function"
		},
		{
			"inputs": [
				{
					"internalType": "address",
					"name": "newOwner",
					"type": "address"
				}
			],
			"name": "transferOwnership",
			"outputs": [],
			"stateMutability": "nonpayable",
			"type": "function"
		},
		{
			"inputs": [
				{
					"internalType": "uint256",
					"name": "",
					"type": "uint256"
				}
			],
			"name": "typeNames",
			"outputs": [
				{
					"internalType": "string",
					"name": "",
					"type": "string"
				}
			],
			"stateMutability": "view",
			"type": "function"
		},
		{
			"inputs": [
				{
					"internalType": "uint256",
					"name": "tokenId",
					"type": "uint256"
				}
			],
			"name": "uri",
			"outputs": [
				{
					"internalType": "string",
					"name": "",
					"type": "string"
				}
			],
			"stateMutability": "view",
			"type": "function"
		}
	]
}