{
	"data": {
		"bytecode": {
			"linkReferences": {},
			"object": "608060405234801562000010575f80fd5b50620000216200002760201b60201c565b620001c6565b5f60019054906101000a900460ff161562000079576040517f08c379a000000000000000000000000000000000000000000000000000000000815260040162000070906200016e565b60405180910390fd5b60ff80165f8054906101000a900460ff1660ff1614620000e85760ff5f806101000a81548160ff021916908360ff1602179055507f7f26b83ff96e1f2b6a682f133852f6798a09c465da95921460cefb384740249860ff604051620000df9190620001ab565b60405180910390a15b565b5f82825260208201905092915050565b7f496e697469616c697a61626c653a20636f6e747261637420697320696e6974695f8201527f616c697a696e6700000000000000000000000000000000000000000000000000602082015250565b5f62000156602783620000ea565b91506200016382620000fa565b604082019050919050565b5f6020820190508181035f830152620001878162000148565b9050919050565b5f60ff82169050919050565b620001a5816200018e565b82525050565b5f602082019050620001c05f8301846200019a565b92915050565b614dab80620001d45f395ff3fe608060405234801561000f575f80fd5b5060043610610266575f3560e01c8063715018a61161014f578063c0019692116100c1578063f242432a11610085578063f242432a1461071c578063f2f842cc14610738578063f2fde38b14610756578063f5298aca14610772578063f62d18881461078e578063f856cfe9146107aa57610266565b8063c001969214610664578063c70a2cf714610680578063cbeeee3f146106b0578063e985e9c5146106ce578063ea4df068146106fe57610266565b80638da5cb5b116101135780638da5cb5b146105a05780638f754bce146105be5780639732f1d5146105dc578063a22cb4651461060c578063ac33e90e14610628578063ae19a59e1461064657610266565b8063715018a61461050c57806387962dcc1461051657806389049a7f146105465780638a26cbfe146105645780638d0f7d361461058257610266565b80633e007c1f116101e85780634f4bcb99116101ac5780634f4bcb991461045a57806352cb7901146104785780635c975abb146104965780636a5d48ca146104b45780636b20c454146104d2578063706df796146104ee57610266565b80633e007c1f146103c65780633fb0d0cb146103e457806341620881146104025780634e1273f41461040c5780634e7286bf1461043c57610266565b80631b2ef1ca1161022f5780631b2ef1ca1461033657806320766729146103525780632eb2c2d61461037057806330176e131461038c57806330ed51c8146103a857610266565b8062fdd58e1461026a57806301ffc9a71461029a578063074186b0146102ca5780630d454388146102e85780630e89341c14610306575b5f80fd5b610284600480360381019061027f9190613129565b6107c8565b6040516102919190613176565b60405180910390f35b6102b460048036038101906102af91906131e4565b61088c565b6040516102c19190613229565b60405180910390f35b6102d261096d565b6040516102df9190613176565b60405180910390f35b6102f0610972565b6040516102fd9190613176565b60405180910390f35b610320600480360381019061031b9190613242565b610977565b60405161032d91906132f7565b60405180910390f35b610350600480360381019061034b9190613317565b6109d7565b005b61035a610ae0565b6040516103679190613176565b60405180910390f35b61038a60048036038101906103859190613545565b610ae5565b005b6103a660048036038101906103a191906136ae565b610b86565b005b6103b0610ba2565b6040516103bd9190613176565b60405180910390f35b6103ce610ba7565b6040516103db9190613176565b60405180910390f35b6103ec610bac565b6040516103f99190613176565b60405180910390f35b61040a610bb1565b005b610426600480360381019061042191906137b5565b610feb565b60405161043391906138e2565b60405180910390f35b610444611102565b6040516104519190613176565b60405180910390f35b610462611107565b60405161046f9190613176565b60405180910390f35b61048061110c565b60405161048d9190613176565b60405180910390f35b61049e611111565b6040516104ab9190613229565b60405180910390f35b6104bc611126565b6040516104c99190613176565b60405180910390f35b6104ec60048036038101906104e79190613902565b61112b565b005b6104f66111c8565b6040516105039190613176565b60405180910390f35b6105146111cd565b005b610530600480360381019061052b9190613242565b6111e0565b60405161053d9190613176565b60405180910390f35b61054e6111f6565b60405161055b9190613176565b60405180910390f35b61056c6111fb565b6040516105799190613176565b60405180910390f35b61058a611200565b6040516105979190613176565b60405180910390f35b6105a8611205565b6040516105b59190613999565b60405180910390f35b6105c661122d565b6040516105d39190613176565b60405180910390f35b6105f660048036038101906105f19190613242565b611232565b60405161060391906132f7565b60405180910390f35b610626600480360381019061062191906139dc565b6112d9565b005b6106306112ef565b60405161063d9190613176565b60405180910390f35b61064e6112f4565b60405161065b9190613176565b60405180910390f35b61067e60048036038101906106799190613a1a565b6112f9565b005b61069a60048036038101906106959190613242565b6113bb565b6040516106a79190613176565b60405180910390f35b6106b86113d1565b6040516106c59190613176565b60405180910390f35b6106e860048036038101906106e39190613a9a565b6113d6565b6040516106f59190613229565b60405180910390f35b610706611464565b6040516107139190613176565b60405180910390f35b61073660048036038101906107319190613ad8565b611469565b005b61074061150a565b60405161074d9190613176565b60405180910390f35b610770600480360381019061076b9190613b6b565b61150f565b005b61078c60048036038101906107879190613b96565b611591565b005b6107a860048036038101906107a391906136ae565b61162e565b005b6107b26117a7565b6040516107bf9190613176565b60405180910390f35b5f8073ffffffffffffffffffffffffffffffffffffffff168373ffffffffffffffffffffffffffffffffffffffff1603610837576040517f08c379a000000000000000000000000000000000000000000000000000000000815260040161082e90613c56565b60405180910390fd5b60655f8381526020019081526020015f205f8473ffffffffffffffffffffffffffffffffffffffff1673ffffffffffffffffffffffffffffffffffffffff1681526020019081526020015f2054905092915050565b5f7fd9b67a26000000000000000000000000000000000000000000000000000000007bffffffffffffffffffffffffffffffffffffffffffffffffffffffff1916827bffffffffffffffffffffffffffffffffffffffffffffffffffffffff1916148061095657507f0e89341c000000000000000000000000000000000000000000000000000000007bffffffffffffffffffffffffffffffffffffffffffffffffffffffff1916827bffffffffffffffffffffffffffffffffffffffffffffffffffffffff1916145b806109665750610965826117ac565b5b9050919050565b601981565b600181565b60605f61012d805461098890613ca1565b9050116109a35760405180602001604052805f8152506109d0565b61012d6109af83611815565b6040516020016109c0929190613d9d565b6040516020818303038152906040525b9050919050565b6109df6118df565b600182101580156109f1575060108211155b610a30576040517f08c379a0000000000000000000000000000000000000000000000000000000008152600401610a2790613e0a565b60405180910390fd5b5f8111610a72576040517f08c379a0000000000000000000000000000000000000000000000000000000008152600401610a6990613e72565b60405180910390fd5b5f610a7c8361195d565b905080821115610ac1576040517f08c379a0000000000000000000000000000000000000000000000000000000008152600401610ab890613eda565b60405180910390fd5b610adb33848460405180602001604052805f8152506119ef565b505050565b600a81565b610aed611b93565b73ffffffffffffffffffffffffffffffffffffffff168573ffffffffffffffffffffffffffffffffffffffff161480610b335750610b3285610b2d611b93565b6113d6565b5b610b72576040517f08c379a0000000000000000000000000000000000000000000000000000000008152600401610b6990613f68565b60405180910390fd5b610b7f8585858585611b9a565b5050505050565b610b8e6118df565b8061012d9081610b9e9190614111565b5050565b600b81565b600e81565b600a81565b610bb96118df565b610bfc60016040518060400160405280600481526020017f436c616e000000000000000000000000000000000000000000000000000000008152505f60326112f9565b610c3f60026040518060400160405280600381526020017f54656400000000000000000000000000000000000000000000000000000000008152505f60326112f9565b610c8260036040518060400160405280600681526020017f526f6f74656400000000000000000000000000000000000000000000000000008152505f60326112f9565b610cc560046040518060400160405280600681526020017f4c656164657200000000000000000000000000000000000000000000000000008152505f60326112f9565b610d0860056040518060400160405280600681526020017f42726561746800000000000000000000000000000000000000000000000000008152505f60326112f9565b610d4b60066040518060400160405280600881526020017f47726f756e6465640000000000000000000000000000000000000000000000008152505f60016112f9565b610d8e60076040518060400160405280600581526020017f416c6976650000000000000000000000000000000000000000000000000000008152505f60326112f9565b610dd160086040518060400160405280600781526020017f426520426f6c64000000000000000000000000000000000000000000000000008152505f60196112f9565b610e1460096040518060400160405280600781526020017f5468756e646572000000000000000000000000000000000000000000000000008152505f60196112f9565b610e57600a6040518060400160405280600a81526020017f526f79616c204c696f6e000000000000000000000000000000000000000000008152505f60196112f9565b610e9a600b6040518060400160405280600581526020017f46696768740000000000000000000000000000000000000000000000000000008152505f60196112f9565b610edd600c6040518060400160405280600481526020017f48656c6c000000000000000000000000000000000000000000000000000000008152505f60196112f9565b610f20600d6040518060400160405280600781526020017f53696c656e6365000000000000000000000000000000000000000000000000008152505f60016112f9565b610f63600e6040518060400160405280600581526020017f466c616d650000000000000000000000000000000000000000000000000000008152505f60016112f9565b610fa6600f6040518060400160405280600f81526020017f57696e67206f662046726565646f6d00000000000000000000000000000000008152505f60146112f9565b610fe960106040518060400160405280600581526020017f5374696e670000000000000000000000000000000000000000000000000000008152505f600a6112f9565b565b60608151835114611031576040517f08c379a000000000000000000000000000000000000000000000000000000000815260040161102890614250565b60405180910390fd5b5f835167ffffffffffffffff81111561104d5761104c613359565b5b60405190808252806020026020018201604052801561107b5781602001602082028036833780820191505090505b5090505f5b84518110156110f7576110c785828151811061109f5761109e61426e565b5b60200260200101518583815181106110ba576110b961426e565b5b60200260200101516107c8565b8282815181106110da576110d961426e565b5b602002602001018181525050806110f0906142c8565b9050611080565b508091505092915050565b600881565b600581565b600181565b5f60c95f9054906101000a900460ff16905090565b603281565b611133611b93565b73ffffffffffffffffffffffffffffffffffffffff168373ffffffffffffffffffffffffffffffffffffffff161480611179575061117883611173611b93565b6113d6565b5b6111b8576040517f08c379a00000000000000000000000000000000000000000000000000000000081526004016111af90613f68565b60405180910390fd5b6111c3838383611eab565b505050565b601081565b6111d56118df565b6111de5f612168565b565b610130602052805f5260405f205f915090505481565b600f81565b600181565b600381565b5f60975f9054906101000a900473ffffffffffffffffffffffffffffffffffffffff16905090565b600481565b61012e8181548110611242575f80fd5b905f5260205f20015f91509050805461125a90613ca1565b80601f016020809104026020016040519081016040528092919081815260200182805461128690613ca1565b80156112d15780601f106112a8576101008083540402835291602001916112d1565b820191905f5260205f20905b8154815290600101906020018083116112b457829003601f168201915b505050505081565b6112eb6112e4611b93565b838361222b565b5050565b600281565b600981565b6113016118df565b5f84118015611311575060108411155b611350576040517f08c379a000000000000000000000000000000000000000000000000000000000815260040161134790613e0a565b60405180910390fd5b8261012e600186611361919061430f565b815481106113725761137161426e565b5b905f5260205f200190816113869190614111565b508161012f5f8681526020019081526020015f2081905550806101305f8681526020019081526020015f208190555050505050565b61012f602052805f5260405f205f915090505481565b600781565b5f60665f8473ffffffffffffffffffffffffffffffffffffffff1673ffffffffffffffffffffffffffffffffffffffff1681526020019081526020015f205f8373ffffffffffffffffffffffffffffffffffffffff1673ffffffffffffffffffffffffffffffffffffffff1681526020019081526020015f205f9054906101000a900460ff16905092915050565b600c81565b611471611b93565b73ffffffffffffffffffffffffffffffffffffffff168573ffffffffffffffffffffffffffffffffffffffff1614806114b757506114b6856114b1611b93565b6113d6565b5b6114f6576040517f08c379a00000000000000000000000000000000000000000000000000000000081526004016114ed90613f68565b60405180910390fd5b6115038585858585612392565b5050505050565b600681565b6115176118df565b5f73ffffffffffffffffffffffffffffffffffffffff168173ffffffffffffffffffffffffffffffffffffffff1603611585576040517f08c379a000000000000000000000000000000000000000000000000000000000815260040161157c906143b2565b60405180910390fd5b61158e81612168565b50565b611599611b93565b73ffffffffffffffffffffffffffffffffffffffff168373ffffffffffffffffffffffffffffffffffffffff1614806115df57506115de836115d9611b93565b6113d6565b5b61161e576040517f08c379a000000000000000000000000000000000000000000000000000000000815260040161161590613f68565b60405180910390fd5b61162983838361261e565b505050565b5f8060019054906101000a900460ff1615905080801561165d575060015f8054906101000a900460ff1660ff16105b80611689575061166c30612854565b158015611688575060015f8054906101000a900460ff1660ff16145b5b6116c8576040517f08c379a00000000000000000000000000000000000000000000000000000000081526004016116bf90614440565b60405180910390fd5b60015f806101000a81548160ff021916908360ff16021790555080156117035760015f60016101000a81548160ff0219169083151502179055505b61171a60405180602001604052805f815250612876565b6117226128d0565b61172a612928565b611732612980565b8161012d90816117429190614111565b5061174b610bb1565b80156117a3575f8060016101000a81548160ff0219169083151502179055507f7f26b83ff96e1f2b6a682f133852f6798a09c465da95921460cefb3847402498600160405161179a91906144a3565b60405180910390a15b5050565b600d81565b5f7f01ffc9a7000000000000000000000000000000000000000000000000000000007bffffffffffffffffffffffffffffffffffffffffffffffffffffffff1916827bffffffffffffffffffffffffffffffffffffffffffffffffffffffff1916149050919050565b60605f6001611823846129d0565b0190505f8167ffffffffffffffff81111561184157611840613359565b5b6040519080825280601f01601f1916602001820160405280156118735781602001600182028036833780820191505090505b5090505f82602001820190505b6001156118d4578080600190039150507f3031323334353637383961626364656600000000000000000000000000000000600a86061a8153600a85816118c9576118c86144bc565b5b0494505f8503611880575b819350505050919050565b6118e7611b93565b73ffffffffffffffffffffffffffffffffffffffff16611905611205565b73ffffffffffffffffffffffffffffffffffffffff161461195b576040517f08c379a000000000000000000000000000000000000000000000000000000000815260040161195290614533565b60405180910390fd5b565b5f600682148061196d5750600e82145b1561198b5760068214611981576001611984565b60015b90506119ea565b600882148061199a5750600982145b806119a55750600a82145b806119b05750600b82145b806119bb5750600c82145b806119c65750600f82145b156119d457601990506119ea565b601082036119e557600a90506119ea565b603290505b919050565b5f73ffffffffffffffffffffffffffffffffffffffff168473ffffffffffffffffffffffffffffffffffffffff1603611a5d576040517f08c379a0000000000000000000000000000000000000000000000000000000008152600401611a54906145c1565b60405180910390fd5b5f611a66611b93565b90505f611a7285612b21565b90505f611a7e85612b21565b9050611a8e835f89858589612b99565b8460655f8881526020019081526020015f205f8973ffffffffffffffffffffffffffffffffffffffff1673ffffffffffffffffffffffffffffffffffffffff1681526020019081526020015f205f828254611ae991906145df565b925050819055508673ffffffffffffffffffffffffffffffffffffffff165f73ffffffffffffffffffffffffffffffffffffffff168473ffffffffffffffffffffffffffffffffffffffff167fc3d58168c5ae7397731d063d5bbf3d657854427343f4c083240f7aacaa2d0f628989604051611b66929190614612565b60405180910390a4611b7c835f89858589612ba1565b611b8a835f89898989612ba9565b50505050505050565b5f33905090565b8151835114611bde576040517f08c379a0000000000000000000000000000000000000000000000000000000008152600401611bd5906146a9565b60405180910390fd5b5f73ffffffffffffffffffffffffffffffffffffffff168473ffffffffffffffffffffffffffffffffffffffff1603611c4c576040517f08c379a0000000000000000000000000000000000000000000000000000000008152600401611c4390614737565b60405180910390fd5b5f611c55611b93565b9050611c65818787878787612b99565b5f5b8451811015611e08575f858281518110611c8457611c8361426e565b5b602002602001015190505f858381518110611ca257611ca161426e565b5b602002602001015190505f60655f8481526020019081526020015f205f8b73ffffffffffffffffffffffffffffffffffffffff1673ffffffffffffffffffffffffffffffffffffffff1681526020019081526020015f2054905081811015611d3f576040517f08c379a0000000000000000000000000000000000000000000000000000000008152600401611d36906147c5565b60405180910390fd5b81810360655f8581526020019081526020015f205f8c73ffffffffffffffffffffffffffffffffffffffff1673ffffffffffffffffffffffffffffffffffffffff1681526020019081526020015f20819055508160655f8581526020019081526020015f205f8b73ffffffffffffffffffffffffffffffffffffffff1673ffffffffffffffffffffffffffffffffffffffff1681526020019081526020015f205f828254611ded91906145df565b9250508190555050505080611e01906142c8565b9050611c67565b508473ffffffffffffffffffffffffffffffffffffffff168673ffffffffffffffffffffffffffffffffffffffff168273ffffffffffffffffffffffffffffffffffffffff167f4a39dc06d4c0dbc64b70af90fd698a233a518aa5d07e595d983b8c0526c8f7fb8787604051611e7f9291906147e3565b60405180910390a4611e95818787878787612ba1565b611ea3818787878787612d7f565b505050505050565b5f73ffffffffffffffffffffffffffffffffffffffff168373ffffffffffffffffffffffffffffffffffffffff1603611f19576040517f08c379a0000000000000000000000000000000000000000000000000000000008152600401611f1090614888565b60405180910390fd5b8051825114611f5d576040517f08c379a0000000000000000000000000000000000000000000000000000000008152600401611f54906146a9565b60405180910390fd5b5f611f66611b93565b9050611f8481855f868660405180602001604052805f815250612b99565b5f5b83518110156120c7575f848281518110611fa357611fa261426e565b5b602002602001015190505f848381518110611fc157611fc061426e565b5b602002602001015190505f60655f8481526020019081526020015f205f8973ffffffffffffffffffffffffffffffffffffffff1673ffffffffffffffffffffffffffffffffffffffff1681526020019081526020015f205490508181101561205e576040517f08c379a000000000000000000000000000000000000000000000000000000000815260040161205590614916565b60405180910390fd5b81810360655f8581526020019081526020015f205f8a73ffffffffffffffffffffffffffffffffffffffff1673ffffffffffffffffffffffffffffffffffffffff1681526020019081526020015f208190555050505080806120bf906142c8565b915050611f86565b505f73ffffffffffffffffffffffffffffffffffffffff168473ffffffffffffffffffffffffffffffffffffffff168273ffffffffffffffffffffffffffffffffffffffff167f4a39dc06d4c0dbc64b70af90fd698a233a518aa5d07e595d983b8c0526c8f7fb868660405161213e9291906147e3565b60405180910390a461216281855f868660405180602001604052805f815250612ba1565b50505050565b5f60975f9054906101000a900473ffffffffffffffffffffffffffffffffffffffff1690508160975f6101000a81548173ffffffffffffffffffffffffffffffffffffffff021916908373ffffffffffffffffffffffffffffffffffffffff1602179055508173ffffffffffffffffffffffffffffffffffffffff168173ffffffffffffffffffffffffffffffffffffffff167f8be0079c531659141344cd1fd0a4f28419497f9722a3daafe3b4186f6b6457e060405160405180910390a35050565b8173ffffffffffffffffffffffffffffffffffffffff168373ffffffffffffffffffffffffffffffffffffffff1603612299576040517f08c379a0000000000000000000000000000000000000000000000000000000008152600401612290906149a4565b60405180910390fd5b8060665f8573ffffffffffffffffffffffffffffffffffffffff1673ffffffffffffffffffffffffffffffffffffffff1681526020019081526020015f205f8473ffffffffffffffffffffffffffffffffffffffff1673ffffffffffffffffffffffffffffffffffffffff1681526020019081526020015f205f6101000a81548160ff0219169083151502179055508173ffffffffffffffffffffffffffffffffffffffff168373ffffffffffffffffffffffffffffffffffffffff167f17307eab39ab6107e8899845ad3d59bd9653f200f220920489ca2b5937696c31836040516123859190613229565b60405180910390a3505050565b5f73ffffffffffffffffffffffffffffffffffffffff168473ffffffffffffffffffffffffffffffffffffffff1603612400576040517f08c379a00000000000000000000000000000000000000000000000000000000081526004016123f790614737565b60405180910390fd5b5f612409611b93565b90505f61241585612b21565b90505f61242185612b21565b9050612431838989858589612b99565b5f60655f8881526020019081526020015f205f8a73ffffffffffffffffffffffffffffffffffffffff1673ffffffffffffffffffffffffffffffffffffffff1681526020019081526020015f20549050858110156124c4576040517f08c379a00000000000000000000000000000000000000000000000000000000081526004016124bb906147c5565b60405180910390fd5b85810360655f8981526020019081526020015f205f8b73ffffffffffffffffffffffffffffffffffffffff1673ffffffffffffffffffffffffffffffffffffffff1681526020019081526020015f20819055508560655f8981526020019081526020015f205f8a73ffffffffffffffffffffffffffffffffffffffff1673ffffffffffffffffffffffffffffffffffffffff1681526020019081526020015f205f82825461257291906145df565b925050819055508773ffffffffffffffffffffffffffffffffffffffff168973ffffffffffffffffffffffffffffffffffffffff168573ffffffffffffffffffffffffffffffffffffffff167fc3d58168c5ae7397731d063d5bbf3d657854427343f4c083240f7aacaa2d0f628a8a6040516125ef929190614612565b60405180910390a4612605848a8a86868a612ba1565b612613848a8a8a8a8a612ba9565b505050505050505050565b5f73ffffffffffffffffffffffffffffffffffffffff168373ffffffffffffffffffffffffffffffffffffffff160361268c576040517f08c379a000000000000000000000000000000000000000000000000000000000815260040161268390614888565b60405180910390fd5b5f612695611b93565b90505f6126a184612b21565b90505f6126ad84612b21565b90506126cb83875f858560405180602001604052805f815250612b99565b5f60655f8781526020019081526020015f205f8873ffffffffffffffffffffffffffffffffffffffff1673ffffffffffffffffffffffffffffffffffffffff1681526020019081526020015f205490508481101561275e576040517f08c379a000000000000000000000000000000000000000000000000000000000815260040161275590614916565b60405180910390fd5b84810360655f8881526020019081526020015f205f8973ffffffffffffffffffffffffffffffffffffffff1673ffffffffffffffffffffffffffffffffffffffff1681526020019081526020015f20819055505f73ffffffffffffffffffffffffffffffffffffffff168773ffffffffffffffffffffffffffffffffffffffff168573ffffffffffffffffffffffffffffffffffffffff167fc3d58168c5ae7397731d063d5bbf3d657854427343f4c083240f7aacaa2d0f628989604051612827929190614612565b60405180910390a461284b84885f868660405180602001604052805f815250612ba1565b50505050505050565b5f808273ffffffffffffffffffffffffffffffffffffffff163b119050919050565b5f60019054906101000a900460ff166128c4576040517f08c379a00000000000000000000000000000000000000000000000000000000081526004016128bb90614a32565b60405180910390fd5b6128cd81612f55565b50565b5f60019054906101000a900460ff1661291e576040517f08c379a000000000000000000000000000000000000000000000000000000000815260040161291590614a32565b60405180910390fd5b612926612faf565b565b5f60019054906101000a900460ff16612976576040517f08c379a000000000000000000000000000000000000000000000000000000000815260040161296d90614a32565b60405180910390fd5b61297e61300f565b565b5f60019054906101000a900460ff166129ce576040517f08c379a00000000000000000000000000000000000000000000000000000000081526004016129c590614a32565b60405180910390fd5b565b5f805f90507a184f03e93ff9f4daa797ed6e38ed64bf6a1f0100000000000000008310612a2c577a184f03e93ff9f4daa797ed6e38ed64bf6a1f0100000000000000008381612a2257612a216144bc565b5b0492506040810190505b6d04ee2d6d415b85acef81000000008310612a69576d04ee2d6d415b85acef81000000008381612a5f57612a5e6144bc565b5b0492506020810190505b662386f26fc100008310612a9857662386f26fc100008381612a8e57612a8d6144bc565b5b0492506010810190505b6305f5e1008310612ac1576305f5e1008381612ab757612ab66144bc565b5b0492506008810190505b6127108310612ae6576127108381612adc57612adb6144bc565b5b0492506004810190505b60648310612b095760648381612aff57612afe6144bc565b5b0492506002810190505b600a8310612b18576001810190505b80915050919050565b60605f600167ffffffffffffffff811115612b3f57612b3e613359565b5b604051908082528060200260200182016040528015612b6d5781602001602082028036833780820191505090505b50905082815f81518110612b8457612b8361426e565b5b60200260200101818152505080915050919050565b505050505050565b505050505050565b612bc88473ffffffffffffffffffffffffffffffffffffffff16612854565b15612d77578373ffffffffffffffffffffffffffffffffffffffff1663f23a6e6187878686866040518663ffffffff1660e01b8152600401612c0e959493929190614aa2565b6020604051808303815f875af1925050508015612c4957506040513d601f19601f82011682018060405250810190612c469190614b0e565b60015b612cee57612c55614b45565b806308c379a003612cb15750612c69614b64565b80612c745750612cb3565b806040517f08c379a0000000000000000000000000000000000000000000000000000000008152600401612ca891906132f7565b60405180910390fd5b505b6040517f08c379a0000000000000000000000000000000000000000000000000000000008152600401612ce590614c63565b60405180910390fd5b63f23a6e6160e01b7bffffffffffffffffffffffffffffffffffffffffffffffffffffffff1916817bffffffffffffffffffffffffffffffffffffffffffffffffffffffff191614612d75576040517f08c379a0000000000000000000000000000000000000000000000000000000008152600401612d6c90614cf1565b60405180910390fd5b505b505050505050565b612d9e8473ffffffffffffffffffffffffffffffffffffffff16612854565b15612f4d578373ffffffffffffffffffffffffffffffffffffffff1663bc197c8187878686866040518663ffffffff1660e01b8152600401612de4959493929190614d0f565b6020604051808303815f875af1925050508015612e1f57506040513d601f19601f82011682018060405250810190612e1c9190614b0e565b60015b612ec457612e2b614b45565b806308c379a003612e875750612e3f614b64565b80612e4a5750612e89565b806040517f08c379a0000000000000000000000000000000000000000000000000000000008152600401612e7e91906132f7565b60405180910390fd5b505b6040517f08c379a0000000000000000000000000000000000000000000000000000000008152600401612ebb90614c63565b60405180910390fd5b63bc197c8160e01b7bffffffffffffffffffffffffffffffffffffffffffffffffffffffff1916817bffffffffffffffffffffffffffffffffffffffffffffffffffffffff191614612f4b576040517f08c379a0000000000000000000000000000000000000000000000000000000008152600401612f4290614cf1565b60405180910390fd5b505b505050505050565b5f60019054906101000a900460ff16612fa3576040517f08c379a0000000000000000000000000000000000000000000000000000000008152600401612f9a90614a32565b60405180910390fd5b612fac81613078565b50565b5f60019054906101000a900460ff16612ffd576040517f08c379a0000000000000000000000000000000000000000000000000000000008152600401612ff490614a32565b60405180910390fd5b61300d613008611b93565b612168565b565b5f60019054906101000a900460ff1661305d576040517f08c379a000000000000000000000000000000000000000000000000000000000815260040161305490614a32565b60405180910390fd5b5f60c95f6101000a81548160ff021916908315150217905550565b80606790816130879190614111565b5050565b5f604051905090565b5f80fd5b5f80fd5b5f73ffffffffffffffffffffffffffffffffffffffff82169050919050565b5f6130c58261309c565b9050919050565b6130d5816130bb565b81146130df575f80fd5b50565b5f813590506130f0816130cc565b92915050565b5f819050919050565b613108816130f6565b8114613112575f80fd5b50565b5f81359050613123816130ff565b92915050565b5f806040838503121561313f5761313e613094565b5b5f61314c858286016130e2565b925050602061315d85828601613115565b9150509250929050565b613170816130f6565b82525050565b5f6020820190506131895f830184613167565b92915050565b5f7fffffffff0000000000000000000000000000000000000000000000000000000082169050919050565b6131c38161318f565b81146131cd575f80fd5b50565b5f813590506131de816131ba565b92915050565b5f602082840312156131f9576131f8613094565b5b5f613206848285016131d0565b91505092915050565b5f8115159050919050565b6132238161320f565b82525050565b5f60208201905061323c5f83018461321a565b92915050565b5f6020828403121561325757613256613094565b5b5f61326484828501613115565b91505092915050565b5f81519050919050565b5f82825260208201905092915050565b5f5b838110156132a4578082015181840152602081019050613289565b5f8484015250505050565b5f601f19601f8301169050919050565b5f6132c98261326d565b6132d38185613277565b93506132e3818560208601613287565b6132ec816132af565b840191505092915050565b5f6020820190508181035f83015261330f81846132bf565b905092915050565b5f806040838503121561332d5761332c613094565b5b5f61333a85828601613115565b925050602061334b85828601613115565b9150509250929050565b5f80fd5b7f4e487b71000000000000000000000000000000000000000000000000000000005f52604160045260245ffd5b61338f826132af565b810181811067ffffffffffffffff821117156133ae576133ad613359565b5b80604052505050565b5f6133c061308b565b90506133cc8282613386565b919050565b5f67ffffffffffffffff8211156133eb576133ea613359565b5b602082029050602081019050919050565b5f80fd5b5f61341261340d846133d1565b6133b7565b90508083825260208201905060208402830185811115613435576134346133fc565b5b835b8181101561345e578061344a8882613115565b845260208401935050602081019050613437565b5050509392505050565b5f82601f83011261347c5761347b613355565b5b813561348c848260208601613400565b91505092915050565b5f80fd5b5f67ffffffffffffffff8211156134b3576134b2613359565b5b6134bc826132af565b9050602081019050919050565b828183375f83830152505050565b5f6134e96134e484613499565b6133b7565b90508281526020810184848401111561350557613504613495565b5b6135108482856134c9565b509392505050565b5f82601f83011261352c5761352b613355565b5b813561353c8482602086016134d7565b91505092915050565b5f805f805f60a0868803121561355e5761355d613094565b5b5f61356b888289016130e2565b955050602061357c888289016130e2565b945050604086013567ffffffffffffffff81111561359d5761359c613098565b5b6135a988828901613468565b935050606086013567ffffffffffffffff8111156135ca576135c9613098565b5b6135d688828901613468565b925050608086013567ffffffffffffffff8111156135f7576135f6613098565b5b61360388828901613518565b9150509295509295909350565b5f67ffffffffffffffff82111561362a57613629613359565b5b613633826132af565b9050602081019050919050565b5f61365261364d84613610565b6133b7565b90508281526020810184848401111561366e5761366d613495565b5b6136798482856134c9565b509392505050565b5f82601f83011261369557613694613355565b5b81356136a5848260208601613640565b91505092915050565b5f602082840312156136c3576136c2613094565b5b5f82013567ffffffffffffffff8111156136e0576136df613098565b5b6136ec84828501613681565b91505092915050565b5f67ffffffffffffffff82111561370f5761370e613359565b5b602082029050602081019050919050565b5f61373261372d846136f5565b6133b7565b90508083825260208201905060208402830185811115613755576137546133fc565b5b835b8181101561377e578061376a88826130e2565b845260208401935050602081019050613757565b5050509392505050565b5f82601f83011261379c5761379b613355565b5b81356137ac848260208601613720565b91505092915050565b5f80604083850312156137cb576137ca613094565b5b5f83013567ffffffffffffffff8111156137e8576137e7613098565b5b6137f485828601613788565b925050602083013567ffffffffffffffff81111561381557613814613098565b5b61382185828601613468565b9150509250929050565b5f81519050919050565b5f82825260208201905092915050565b5f819050602082019050919050565b61385d816130f6565b82525050565b5f61386e8383613854565b60208301905092915050565b5f602082019050919050565b5f6138908261382b565b61389a8185613835565b93506138a583613845565b805f5b838110156138d55781516138bc8882613863565b97506138c78361387a565b9250506001810190506138a8565b5085935050505092915050565b5f6020820190508181035f8301526138fa8184613886565b905092915050565b5f805f6060848603121561391957613918613094565b5b5f613926868287016130e2565b935050602084013567ffffffffffffffff81111561394757613946613098565b5b61395386828701613468565b925050604084013567ffffffffffffffff81111561397457613973613098565b5b61398086828701613468565b9150509250925092565b613993816130bb565b82525050565b5f6020820190506139ac5f83018461398a565b92915050565b6139bb8161320f565b81146139c5575f80fd5b50565b5f813590506139d6816139b2565b92915050565b5f80604083850312156139f2576139f1613094565b5b5f6139ff858286016130e2565b9250506020613a10858286016139c8565b9150509250929050565b5f805f8060808587031215613a3257613a31613094565b5b5f613a3f87828801613115565b945050602085013567ffffffffffffffff811115613a6057613a5f613098565b5b613a6c87828801613681565b9350506040613a7d87828801613115565b9250506060613a8e87828801613115565b91505092959194509250565b5f8060408385031215613ab057613aaf613094565b5b5f613abd858286016130e2565b9250506020613ace858286016130e2565b9150509250929050565b5f805f805f60a08688031215613af157613af0613094565b5b5f613afe888289016130e2565b9550506020613b0f888289016130e2565b9450506040613b2088828901613115565b9350506060613b3188828901613115565b925050608086013567ffffffffffffffff811115613b5257613b51613098565b5b613b5e88828901613518565b9150509295509295909350565b5f60208284031215613b8057613b7f613094565b5b5f613b8d848285016130e2565b91505092915050565b5f805f60608486031215613bad57613bac613094565b5b5f613bba868287016130e2565b9350506020613bcb86828701613115565b9250506040613bdc86828701613115565b9150509250925092565b7f455243313135353a2061646472657373207a65726f206973206e6f74206120765f8201527f616c6964206f776e657200000000000000000000000000000000000000000000602082015250565b5f613c40602a83613277565b9150613c4b82613be6565b604082019050919050565b5f6020820190508181035f830152613c6d81613c34565b9050919050565b7f4e487b71000000000000000000000000000000000000000000000000000000005f52602260045260245ffd5b5f6002820490506001821680613cb857607f821691505b602082108103613ccb57613cca613c74565b5b50919050565b5f81905092915050565b5f819050815f5260205f209050919050565b5f8154613cf981613ca1565b613d038186613cd1565b9450600182165f8114613d1d5760018114613d3257613d64565b60ff1983168652811515820286019350613d64565b613d3b85613cdb565b5f5b83811015613d5c57815481890152600182019150602081019050613d3d565b838801955050505b50505092915050565b5f613d778261326d565b613d818185613cd1565b9350613d91818560208601613287565b80840191505092915050565b5f613da88285613ced565b9150613db48284613d6d565b91508190509392505050565b7f496e76616c6964204e46542074797065000000000000000000000000000000005f82015250565b5f613df4601083613277565b9150613dff82613dc0565b602082019050919050565b5f6020820190508181035f830152613e2181613de8565b9050919050565b7f416d6f756e74206d7573742062652067726561746572207468616e207a65726f5f82015250565b5f613e5c602083613277565b9150613e6782613e28565b602082019050919050565b5f6020820190508181035f830152613e8981613e50565b9050919050565b7f4d617820737570706c79207265616368656400000000000000000000000000005f82015250565b5f613ec4601283613277565b9150613ecf82613e90565b602082019050919050565b5f6020820190508181035f830152613ef181613eb8565b9050919050565b7f455243313135353a2063616c6c6572206973206e6f7420746f6b656e206f776e5f8201527f6572206f7220617070726f766564000000000000000000000000000000000000602082015250565b5f613f52602e83613277565b9150613f5d82613ef8565b604082019050919050565b5f6020820190508181035f830152613f7f81613f46565b9050919050565b5f6020601f8301049050919050565b5f82821b905092915050565b5f60088302613fd07fffffffffffffffffffffffffffffffffffffffffffffffffffffffffffffffff82613f95565b613fda8683613f95565b95508019841693508086168417925050509392505050565b5f819050919050565b5f61401561401061400b846130f6565b613ff2565b6130f6565b9050919050565b5f819050919050565b61402e83613ffb565b61404261403a8261401c565b848454613fa1565b825550505050565b5f90565b61405661404a565b614061818484614025565b505050565b5b81811015614084576140795f8261404e565b600181019050614067565b5050565b601f8211156140c95761409a81613cdb565b6140a384613f86565b810160208510156140b2578190505b6140c66140be85613f86565b830182614066565b50505b505050565b5f82821c905092915050565b5f6140e95f19846008026140ce565b1980831691505092915050565b5f61410183836140da565b9150826002028217905092915050565b61411a8261326d565b67ffffffffffffffff81111561413357614132613359565b5b61413d8254613ca1565b614148828285614088565b5f60209050601f831160018114614179575f8415614167578287015190505b61417185826140f6565b8655506141d8565b601f19841661418786613cdb565b5f5b828110156141ae57848901518255600182019150602085019450602081019050614189565b868310156141cb57848901516141c7601f8916826140da565b8355505b6001600288020188555050505b505050505050565b7f455243313135353a206163636f756e747320616e6420696473206c656e6774685f8201527f206d69736d617463680000000000000000000000000000000000000000000000602082015250565b5f61423a602983613277565b9150614245826141e0565b604082019050919050565b5f6020820190508181035f8301526142678161422e565b9050919050565b7f4e487b71000000000000000000000000000000000000000000000000000000005f52603260045260245ffd5b7f4e487b71000000000000000000000000000000000000000000000000000000005f52601160045260245ffd5b5f6142d2826130f6565b91507fffffffffffffffffffffffffffffffffffffffffffffffffffffffffffffffff82036143045761430361429b565b5b600182019050919050565b5f614319826130f6565b9150614324836130f6565b925082820390508181111561433c5761433b61429b565b5b92915050565b7f4f776e61626c653a206e6577206f776e657220697320746865207a65726f20615f8201527f6464726573730000000000000000000000000000000000000000000000000000602082015250565b5f61439c602683613277565b91506143a782614342565b604082019050919050565b5f6020820190508181035f8301526143c981614390565b9050919050565b7f496e697469616c697a61626c653a20636f6e747261637420697320616c7265615f8201527f647920696e697469616c697a6564000000000000000000000000000000000000602082015250565b5f61442a602e83613277565b9150614435826143d0565b604082019050919050565b5f6020820190508181035f8301526144578161441e565b9050919050565b5f819050919050565b5f60ff82169050919050565b5f61448d6144886144838461445e565b613ff2565b614467565b9050919050565b61449d81614473565b82525050565b5f6020820190506144b65f830184614494565b92915050565b7f4e487b71000000000000000000000000000000000000000000000000000000005f52601260045260245ffd5b7f4f776e61626c653a2063616c6c6572206973206e6f7420746865206f776e65725f82015250565b5f61451d602083613277565b9150614528826144e9565b602082019050919050565b5f6020820190508181035f83015261454a81614511565b9050919050565b7f455243313135353a206d696e7420746f20746865207a65726f206164647265735f8201527f7300000000000000000000000000000000000000000000000000000000000000602082015250565b5f6145ab602183613277565b91506145b682614551565b604082019050919050565b5f6020820190508181035f8301526145d88161459f565b9050919050565b5f6145e9826130f6565b91506145f4836130f6565b925082820190508082111561460c5761460b61429b565b5b92915050565b5f6040820190506146255f830185613167565b6146326020830184613167565b9392505050565b7f455243313135353a2069647320616e6420616d6f756e7473206c656e677468205f8201527f6d69736d61746368000000000000000000000000000000000000000000000000602082015250565b5f614693602883613277565b915061469e82614639565b604082019050919050565b5f6020820190508181035f8301526146c081614687565b9050919050565b7f455243313135353a207472616e7366657220746f20746865207a65726f2061645f8201527f6472657373000000000000000000000000000000000000000000000000000000602082015250565b5f614721602583613277565b915061472c826146c7565b604082019050919050565b5f6020820190508181035f83015261474e81614715565b9050919050565b7f455243313135353a20696e73756666696369656e742062616c616e636520666f5f8201527f72207472616e7366657200000000000000000000000000000000000000000000602082015250565b5f6147af602a83613277565b91506147ba82614755565b604082019050919050565b5f6020820190508181035f8301526147dc816147a3565b9050919050565b5f6040820190508181035f8301526147fb8185613886565b9050818103602083015261480f8184613886565b90509392505050565b7f455243313135353a206275726e2066726f6d20746865207a65726f20616464725f8201527f6573730000000000000000000000000000000000000000000000000000000000602082015250565b5f614872602383613277565b915061487d82614818565b604082019050919050565b5f6020820190508181035f83015261489f81614866565b9050919050565b7f455243313135353a206275726e20616d6f756e7420657863656564732062616c5f8201527f616e636500000000000000000000000000000000000000000000000000000000602082015250565b5f614900602483613277565b915061490b826148a6565b604082019050919050565b5f6020820190508181035f83015261492d816148f4565b9050919050565b7f455243313135353a2073657474696e6720617070726f76616c207374617475735f8201527f20666f722073656c660000000000000000000000000000000000000000000000602082015250565b5f61498e602983613277565b915061499982614934565b604082019050919050565b5f6020820190508181035f8301526149bb81614982565b9050919050565b7f496e697469616c697a61626c653a20636f6e7472616374206973206e6f7420695f8201527f6e697469616c697a696e67000000000000000000000000000000000000000000602082015250565b5f614a1c602b83613277565b9150614a27826149c2565b604082019050919050565b5f6020820190508181035f830152614a4981614a10565b9050919050565b5f81519050919050565b5f82825260208201905092915050565b5f614a7482614a50565b614a7e8185614a5a565b9350614a8e818560208601613287565b614a97816132af565b840191505092915050565b5f60a082019050614ab55f83018861398a565b614ac2602083018761398a565b614acf6040830186613167565b614adc6060830185613167565b8181036080830152614aee8184614a6a565b90509695505050505050565b5f81519050614b08816131ba565b92915050565b5f60208284031215614b2357614b22613094565b5b5f614b3084828501614afa565b91505092915050565b5f8160e01c9050919050565b5f60033d1115614b615760045f803e614b5e5f51614b39565b90505b90565b5f60443d10614bf057614b7561308b565b60043d036004823e80513d602482011167ffffffffffffffff82111715614b9d575050614bf0565b808201805167ffffffffffffffff811115614bbb5750505050614bf0565b80602083010160043d038501811115614bd8575050505050614bf0565b614be782602001850186613386565b82955050505050505b90565b7f455243313135353a207472616e7366657220746f206e6f6e2d455243313135355f8201527f526563656976657220696d706c656d656e746572000000000000000000000000602082015250565b5f614c4d603483613277565b9150614c5882614bf3565b604082019050919050565b5f6020820190508181035f830152614c7a81614c41565b9050919050565b7f455243313135353a204552433131353552656365697665722072656a656374655f8201527f6420746f6b656e73000000000000000000000000000000000000000000000000602082015250565b5f614cdb602883613277565b9150614ce682614c81565b604082019050919050565b5f6020820190508181035f830152614d0881614ccf565b9050919050565b5f60a082019050614d225f83018861398a565b614d2f602083018761398a565b8181036040830152614d418186613886565b90508181036060830152614d558185613886565b90508181036080830152614d698184614a6a565b9050969550505050505056fea2646970667358221220c2e87db73f222ff9ad0eeae3728dad857007692da9d857ded6d85439050e063264736f6c63430008140033",
			"opcodes": "PUSH1 0x80 PUSH1 0x40 MSTORE CALLVALUE DUP1 ISZERO PUSH3 0x10 JUMPI PUSH0 DUP1 REVERT JUMPDEST POP PUSH3 0x21 PUSH3 0x27 PUSH1 0x20 SHL PUSH1 0x20 SHR JUMP JUMPDEST PUSH3 0x1C6 JUMP JUMPDEST PUSH0 PUSH1 0x1 SWAP1 SLOAD SWAP1 PUSH2 0x100 EXP SWAP1 DIV PUSH1 0xFF AND ISZERO PUSH3 0x79 JUMPI PUSH1 0x40 MLOAD PUSH32 0x8C379A000000000000000000000000000000000000000000000000000000000 DUP2 MSTORE PUSH1 0x4 ADD PUSH3 0x70 SWAP1 PUSH3 0x16E JUMP JUMPDEST PUSH1 0x40 MLOAD DUP1 SWAP2 SUB SWAP1 REVERT JUMPDEST PUSH1 0xFF DUP1 AND PUSH0 DUP1 SLOAD SWAP1 PUSH2 0x100 EXP SWAP1 DIV PUSH1 0xFF AND PUSH1 0xFF AND EQ PUSH3 0xE8 JUMPI PUSH1 0xFF PUSH0 DUP1 PUSH2 0x100 EXP DUP2 SLOAD DUP2 PUSH1 0xFF MUL NOT AND SWAP1 DUP4 PUSH1 0xFF AND MUL OR SWAP1 SSTORE POP PUSH32 0x7F26B83FF96E1F2B6A682F133852F6798A09C465DA95921460CEFB3847402498 PUSH1 0xFF PUSH1 0x40 MLOAD PUSH3 0xDF SWAP2 SWAP1 PUSH3 0x1AB JUMP JUMPDEST PUSH1 0x40 MLOAD DUP1 SWAP2 SUB SWAP1 LOG1 JUMPDEST JUMP JUMPDEST PUSH0 DUP3 DUP3 MSTORE PUSH1 0x20 DUP3 ADD SWAP1 POP SWAP3 SWAP2 POP POP JUMP JUMPDEST PUSH32 0x496E697469616C697A61626C653A20636F6E747261637420697320696E697469 PUSH0 DUP3 ADD MSTORE PUSH32 0x616C697A696E6700000000000000000000000000000000000000000000000000 PUSH1 0x20 DUP3 ADD MSTORE POP JUMP JUMPDEST PUSH0 PUSH3 0x156 PUSH1 0x27 DUP4 PUSH3 0xEA JUMP JUMPDEST SWAP2 POP PUSH3 0x163 DUP3 PUSH3 0xFA JUMP JUMPDEST PUSH1 0x40 DUP3 ADD SWAP1 POP SWAP2 SWAP1 POP JUMP JUMPDEST PUSH0 PUSH1 0x20 DUP3 ADD SWAP1 POP DUP2 DUP2 SUB PUSH0 DUP4 ADD MSTORE PUSH3 0x187 DUP2 PUSH3 0x148 JUMP JUMPDEST SWAP1 POP SWAP2 SWAP1 POP JUMP JUMPDEST PUSH0 PUSH1 0xFF DUP3 AND SWAP1 POP SWAP2 SWAP1 POP JUMP JUMPDEST PUSH3 0x1A5 DUP2 PUSH3 0x18E JUMP JUMPDEST DUP3 MSTORE POP POP JUMP JUMPDEST PUSH0 PUSH1 0x20 DUP3 ADD SWAP1 POP PUSH3 0x1C0 PUSH0 DUP4 ADD DUP5 PUSH3 0x19A JUMP JUMPDEST SWAP3 SWAP2 POP POP JUMP JUMPDEST PUSH2 0x4DAB DUP1 PUSH3 0x1D4 PUSH0 CODECOPY PUSH0 RETURN INVALID PUSH1 0x80 PUSH1 0x40 MSTORE CALLVALUE DUP1 ISZERO PUSH2 0xF JUMPI PUSH0 DUP1 REVERT JUMPDEST POP PUSH1 0x4 CALLDATASIZE LT PUSH2 0x266 JUMPI PUSH0 CALLDATALOAD PUSH1 0xE0 SHR DUP1 PUSH4 0x715018A6 GT PUSH2 0x14F JUMPI DUP1 PUSH4 0xC0019692 GT PUSH2 0xC1 JUMPI DUP1 PUSH4 0xF242432A GT PUSH2 0x85 JUMPI DUP1 PUSH4 0xF242432A EQ PUSH2 0x71C JUMPI DUP1 PUSH4 0xF2F842CC EQ PUSH2 0x738 JUMPI DUP1 PUSH4 0xF2FDE38B EQ PUSH2 0x756 JUMPI DUP1 PUSH4 0xF5298ACA EQ PUSH2 0x772 JUMPI DUP1 PUSH4 0xF62D1888 EQ PUSH2 0x78E JUMPI DUP1 PUSH4 0xF856CFE9 EQ PUSH2 0x7AA JUMPI PUSH2 0x266 JUMP JUMPDEST DUP1 PUSH4 0xC0019692 EQ PUSH2 0x664 JUMPI DUP1 PUSH4 0xC70A2CF7 EQ PUSH2 0x680 JUMPI DUP1 PUSH4 0xCBEEEE3F EQ PUSH2 0x6B0 JUMPI DUP1 PUSH4 0xE985E9C5 EQ PUSH2 0x6CE JUMPI DUP1 PUSH4 0xEA4DF068 EQ PUSH2 0x6FE JUMPI PUSH2 0x266 JUMP JUMPDEST DUP1 PUSH4 0x8DA5CB5B GT PUSH2 0x113 JUMPI DUP1 PUSH4 0x8DA5CB5B EQ PUSH2 0x5A0 JUMPI DUP1 PUSH4 0x8F754BCE EQ PUSH2 0x5BE JUMPI DUP1 PUSH4 0x9732F1D5 EQ PUSH2 0x5DC JUMPI DUP1 PUSH4 0xA22CB465 EQ PUSH2 0x60C JUMPI DUP1 PUSH4 0xAC33E90E EQ PUSH2 0x628 JUMPI DUP1 PUSH4 0xAE19A59E EQ PUSH2 0x646 JUMPI PUSH2 0x266 JUMP JUMPDEST DUP1 PUSH4 0x715018A6 EQ PUSH2 0x50C JUMPI DUP1 PUSH4 0x87962DCC EQ PUSH2 0x516 JUMPI DUP1 PUSH4 0x89049A7F EQ PUSH2 0x546 JUMPI DUP1 PUSH4 0x8A26CBFE EQ PUSH2 0x564 JUMPI DUP1 PUSH4 0x8D0F7D36 EQ PUSH2 0x582 JUMPI PUSH2 0x266 JUMP JUMPDEST DUP1 PUSH4 0x3E007C1F GT PUSH2 0x1E8 JUMPI DUP1 PUSH4 0x4F4BCB99 GT PUSH2 0x1AC JUMPI DUP1 PUSH4 0x4F4BCB99 EQ PUSH2 0x45A JUMPI DUP1 PUSH4 0x52CB7901 EQ PUSH2 0x478 JUMPI DUP1 PUSH4 0x5C975ABB EQ PUSH2 0x496 JUMPI DUP1 PUSH4 0x6A5D48CA EQ PUSH2 0x4B4 JUMPI DUP1 PUSH4 0x6B20C454 EQ PUSH2 0x4D2 JUMPI DUP1 PUSH4 0x706DF796 EQ PUSH2 0x4EE JUMPI PUSH2 0x266 JUMP JUMPDEST DUP1 PUSH4 0x3E007C1F EQ PUSH2 0x3C6 JUMPI DUP1 PUSH4 0x3FB0D0CB EQ PUSH2 0x3E4 JUMPI DUP1 PUSH4 0x41620881 EQ PUSH2 0x402 JUMPI DUP1 PUSH4 0x4E1273F4 EQ PUSH2 0x40C JUMPI DUP1 PUSH4 0x4E7286BF EQ PUSH2 0x43C JUMPI PUSH2 0x266 JUMP JUMPDEST DUP1 PUSH4 0x1B2EF1CA GT PUSH2 0x22F JUMPI DUP1 PUSH4 0x1B2EF1CA EQ PUSH2 0x336 JUMPI DUP1 PUSH4 0x20766729 EQ PUSH2 0x352 JUMPI DUP1 PUSH4 0x2EB2C2D6 EQ PUSH2 0x370 JUMPI DUP1 PUSH4 0x30176E13 EQ PUSH2 0x38C JUMPI DUP1 PUSH4 0x30ED51C8 EQ PUSH2 0x3A8 JUMPI PUSH2 0x266 JUMP JUMPDEST DUP1 PUSH3 0xFDD58E EQ PUSH2 0x26A JUMPI DUP1 PUSH4 0x1FFC9A7 EQ PUSH2 0x29A JUMPI DUP1 PUSH4 0x74186B0 EQ PUSH2 0x2CA JUMPI DUP1 PUSH4 0xD454388 EQ PUSH2 0x2E8 JUMPI DUP1 PUSH4 0xE89341C EQ PUSH2 0x306 JUMPI JUMPDEST PUSH0 DUP1 REVERT JUMPDEST PUSH2 0x284 PUSH1 0x4 DUP1 CALLDATASIZE SUB DUP2 ADD SWAP1 PUSH2 0x27F SWAP2 SWAP1 PUSH2 0x3129 JUMP JUMPDEST PUSH2 0x7C8 JUMP JUMPDEST PUSH1 0x40 MLOAD PUSH2 0x291 SWAP2 SWAP1 PUSH2 0x3176 JUMP JUMPDEST PUSH1 0x40 MLOAD DUP1 SWAP2 SUB SWAP1 RETURN JUMPDEST PUSH2 0x2B4 PUSH1 0x4 DUP1 CALLDATASIZE SUB DUP2 ADD SWAP1 PUSH2 0x2AF SWAP2 SWAP1 PUSH2 0x31E4 JUMP JUMPDEST PUSH2 0x88C JUMP JUMPDEST PUSH1 0x40 MLOAD PUSH2 0x2C1 SWAP2 SWAP1 PUSH2 0x3229 JUMP JUMPDEST PUSH1 0x40 MLOAD DUP1 SWAP2 SUB SWAP1 RETURN JUMPDEST PUSH2 0x2D2 PUSH2 0x96D JUMP JUMPDEST PUSH1 0x40 MLOAD PUSH2 0x2DF SWAP2 SWAP1 PUSH2 0x3176 JUMP JUMPDEST PUSH1 0x40 MLOAD DUP1 SWAP2 SUB SWAP1 RETURN JUMPDEST PUSH2 0x2F0 PUSH2 0x972 JUMP JUMPDEST PUSH1 0x40 MLOAD PUSH2 0x2FD SWAP2 SWAP1 PUSH2 0x3176 JUMP JUMPDEST PUSH1 0x40 MLOAD DUP1 SWAP2 SUB SWAP1 RETURN JUMPDEST PUSH2 0x320 PUSH1 0x4 DUP1 CALLDATASIZE SUB DUP2 ADD SWAP1 PUSH2 0x31B SWAP2 SWAP1 PUSH2 0x3242 JUMP JUMPDEST PUSH2 0x977 JUMP JUMPDEST PUSH1 0x40 MLOAD PUSH2 0x32D SWAP2 SWAP1 PUSH2 0x32F7 JUMP JUMPDEST PUSH1 0x40 MLOAD DUP1 SWAP2 SUB SWAP1 RETURN JUMPDEST PUSH2 0x350 PUSH1 0x4 DUP1 CALLDATASIZE SUB DUP2 ADD SWAP1 PUSH2 0x34B SWAP2 SWAP1 PUSH2 0x3317 JUMP JUMPDEST PUSH2 0x9D7 JUMP JUMPDEST STOP JUMPDEST PUSH2 0x35A PUSH2 0xAE0 JUMP JUMPDEST PUSH1 0x40 MLOAD PUSH2 0x367 SWAP2 SWAP1 PUSH2 0x3176 JUMP JUMPDEST PUSH1 0x40 MLOAD DUP1 SWAP2 SUB SWAP1 RETURN JUMPDEST PUSH2 0x38A PUSH1 0x4 DUP1 CALLDATASIZE SUB DUP2 ADD SWAP1 PUSH2 0x385 SWAP2 SWAP1 PUSH2 0x3545 JUMP JUMPDEST PUSH2 0xAE5 JUMP JUMPDEST STOP JUMPDEST PUSH2 0x3A6 PUSH1 0x4 DUP1 CALLDATASIZE SUB DUP2 ADD SWAP1 PUSH2 0x3A1 SWAP2 SWAP1 PUSH2 0x36AE JUMP JUMPDEST PUSH2 0xB86 JUMP JUMPDEST STOP JUMPDEST PUSH2 0x3B0 PUSH2 0xBA2 JUMP JUMPDEST PUSH1 0x40 MLOAD PUSH2 0x3BD SWAP2 SWAP1 PUSH2 0x3176 JUMP JUMPDEST PUSH1 0x40 MLOAD DUP1 SWAP2 SUB SWAP1 RETURN JUMPDEST PUSH2 0x3CE PUSH2 0xBA7 JUMP JUMPDEST PUSH1 0x40 MLOAD PUSH2 0x3DB SWAP2 SWAP1 PUSH2 0x3176 JUMP JUMPDEST PUSH1 0x40 MLOAD DUP1 SWAP2 SUB SWAP1 RETURN JUMPDEST PUSH2 0x3EC PUSH2 0xBAC JUMP JUMPDEST PUSH1 0x40 MLOAD PUSH2 0x3F9 SWAP2 SWAP1 PUSH2 0x3176 JUMP JUMPDEST PUSH1 0x40 MLOAD DUP1 SWAP2 SUB SWAP1 RETURN JUMPDEST PUSH2 0x40A PUSH2 0xBB1 JUMP JUMPDEST STOP JUMPDEST PUSH2 0x426 PUSH1 0x4 DUP1 CALLDATASIZE SUB DUP2 ADD SWAP1 PUSH2 0x421 SWAP2 SWAP1 PUSH2 0x37B5 JUMP JUMPDEST PUSH2 0xFEB JUMP JUMPDEST PUSH1 0x40 MLOAD PUSH2 0x433 SWAP2 SWAP1 PUSH2 0x38E2 JUMP JUMPDEST PUSH1 0x40 MLOAD DUP1 SWAP2 SUB SWAP1 RETURN JUMPDEST PUSH2 0x444 PUSH2 0x1102 JUMP JUMPDEST PUSH1 0x40 MLOAD PUSH2 0x451 SWAP2 SWAP1 PUSH2 0x3176 JUMP JUMPDEST PUSH1 0x40 MLOAD DUP1 SWAP2 SUB SWAP1 RETURN JUMPDEST PUSH2 0x462 PUSH2 0x1107 JUMP JUMPDEST PUSH1 0x40 MLOAD PUSH2 0x46F SWAP2 SWAP1 PUSH2 0x3176 JUMP JUMPDEST PUSH1 0x40 MLOAD DUP1 SWAP2 SUB SWAP1 RETURN JUMPDEST PUSH2 0x480 PUSH2 0x110C JUMP JUMPDEST PUSH1 0x40 MLOAD PUSH2 0x48D SWAP2 SWAP1 PUSH2 0x3176 JUMP JUMPDEST PUSH1 0x40 MLOAD DUP1 SWAP2 SUB SWAP1 RETURN JUMPDEST PUSH2 0x49E PUSH2 0x1111 JUMP JUMPDEST PUSH1 0x40 MLOAD PUSH2 0x4AB SWAP2 SWAP1 PUSH2 0x3229 JUMP JUMPDEST PUSH1 0x40 MLOAD DUP1 SWAP2 SUB SWAP1 RETURN JUMPDEST PUSH2 0x4BC PUSH2 0x1126 JUMP JUMPDEST PUSH1 0x40 MLOAD PUSH2 0x4C9 SWAP2 SWAP1 PUSH2 0x3176 JUMP JUMPDEST PUSH1 0x40 MLOAD DUP1 SWAP2 SUB SWAP1 RETURN JUMPDEST PUSH2 0x4EC PUSH1 0x4 DUP1 CALLDATASIZE SUB DUP2 ADD SWAP1 PUSH2 0x4E7 SWAP2 SWAP1 PUSH2 0x3902 JUMP JUMPDEST PUSH2 0x112B JUMP JUMPDEST STOP JUMPDEST PUSH2 0x4F6 PUSH2 0x11C8 JUMP JUMPDEST PUSH1 0x40 MLOAD PUSH2 0x503 SWAP2 SWAP1 PUSH2 0x3176 JUMP JUMPDEST PUSH1 0x40 MLOAD DUP1 SWAP2 SUB SWAP1 RETURN JUMPDEST PUSH2 0x514 PUSH2 0x11CD JUMP JUMPDEST STOP JUMPDEST PUSH2 0x530 PUSH1 0x4 DUP1 CALLDATASIZE SUB DUP2 ADD SWAP1 PUSH2 0x52B SWAP2 SWAP1 PUSH2 0x3242 JUMP JUMPDEST PUSH2 0x11E0 JUMP JUMPDEST PUSH1 0x40 MLOAD PUSH2 0x53D SWAP2 SWAP1 PUSH2 0x3176 JUMP JUMPDEST PUSH1 0x40 MLOAD DUP1 SWAP2 SUB SWAP1 RETURN JUMPDEST PUSH2 0x54E PUSH2 0x11F6 JUMP JUMPDEST PUSH1 0x40 MLOAD PUSH2 0x55B SWAP2 SWAP1 PUSH2 0x3176 JUMP JUMPDEST PUSH1 0x40 MLOAD DUP1 SWAP2 SUB SWAP1 RETURN JUMPDEST PUSH2 0x56C PUSH2 0x11FB JUMP JUMPDEST PUSH1 0x40 MLOAD PUSH2 0x579 SWAP2 SWAP1 PUSH2 0x3176 JUMP JUMPDEST PUSH1 0x40 MLOAD DUP1 SWAP2 SUB SWAP1 RETURN JUMPDEST PUSH2 0x58A PUSH2 0x1200 JUMP JUMPDEST PUSH1 0x40 MLOAD PUSH2 0x597 SWAP2 SWAP1 PUSH2 0x3176 JUMP JUMPDEST PUSH1 0x40 MLOAD DUP1 SWAP2 SUB SWAP1 RETURN JUMPDEST PUSH2 0x5A8 PUSH2 0x1205 JUMP JUMPDEST PUSH1 0x40 MLOAD PUSH2 0x5B5 SWAP2 SWAP1 PUSH2 0x3999 JUMP JUMPDEST PUSH1 0x40 MLOAD DUP1 SWAP2 SUB SWAP1 RETURN JUMPDEST PUSH2 0x5C6 PUSH2 0x122D JUMP JUMPDEST PUSH1 0x40 MLOAD PUSH2 0x5D3 SWAP2 SWAP1 PUSH2 0x3176 JUMP JUMPDEST PUSH1 0x40 MLOAD DUP1 SWAP2 SUB SWAP1 RETURN JUMPDEST PUSH2 0x5F6 PUSH1 0x4 DUP1 CALLDATASIZE SUB DUP2 ADD SWAP1 PUSH2 0x5F1 SWAP2 SWAP1 PUSH2 0x3242 JUMP JUMPDEST PUSH2 0x1232 JUMP JUMPDEST PUSH1 0x40 MLOAD PUSH2 0x603 SWAP2 SWAP1 PUSH2 0x32F7 JUMP JUMPDEST PUSH1 0x40 MLOAD DUP1 SWAP2 SUB SWAP1 RETURN JUMPDEST PUSH2 0x626 PUSH1 0x4 DUP1 CALLDATASIZE SUB DUP2 ADD SWAP1 PUSH2 0x621 SWAP2 SWAP1 PUSH2 0x39DC JUMP JUMPDEST PUSH2 0x12D9 JUMP JUMPDEST STOP JUMPDEST PUSH2 0x630 PUSH2 0x12EF JUMP JUMPDEST PUSH1 0x40 MLOAD PUSH2 0x63D SWAP2 SWAP1 PUSH2 0x3176 JUMP JUMPDEST PUSH1 0x40 MLOAD DUP1 SWAP2 SUB SWAP1 RETURN JUMPDEST PUSH2 0x64E PUSH2 0x12F4 JUMP JUMPDEST PUSH1 0x40 MLOAD PUSH2 0x65B SWAP2 SWAP1 PUSH2 0x3176 JUMP JUMPDEST PUSH1 0x40 MLOAD DUP1 SWAP2 SUB SWAP1 RETURN JUMPDEST PUSH2 0x67E PUSH1 0x4 DUP1 CALLDATASIZE SUB DUP2 ADD SWAP1 PUSH2 0x679 SWAP2 SWAP1 PUSH2 0x3A1A JUMP JUMPDEST PUSH2 0x12F9 JUMP JUMPDEST STOP JUMPDEST PUSH2 0x69A PUSH1 0x4 DUP1 CALLDATASIZE SUB DUP2 ADD SWAP1 PUSH2 0x695 SWAP2 SWAP1 PUSH2 0x3242 JUMP JUMPDEST PUSH2 0x13BB JUMP JUMPDEST PUSH1 0x40 MLOAD PUSH2 0x6A7 SWAP2 SWAP1 PUSH2 0x3176 JUMP JUMPDEST PUSH1 0x40 MLOAD DUP1 SWAP2 SUB SWAP1 RETURN JUMPDEST PUSH2 0x6B8 PUSH2 0x13D1 JUMP JUMPDEST PUSH1 0x40 MLOAD PUSH2 0x6C5 SWAP2 SWAP1 PUSH2 0x3176 JUMP JUMPDEST PUSH1 0x40 MLOAD DUP1 SWAP2 SUB SWAP1 RETURN JUMPDEST PUSH2 0x6E8 PUSH1 0x4 DUP1 CALLDATASIZE SUB DUP2 ADD SWAP1 PUSH2 0x6E3 SWAP2 SWAP1 PUSH2 0x3A9A JUMP JUMPDEST PUSH2 0x13D6 JUMP JUMPDEST PUSH1 0x40 MLOAD PUSH2 0x6F5 SWAP2 SWAP1 PUSH2 0x3229 JUMP JUMPDEST PUSH1 0x40 MLOAD DUP1 SWAP2 SUB SWAP1 RETURN JUMPDEST PUSH2 0x706 PUSH2 0x1464 JUMP JUMPDEST PUSH1 0x40 MLOAD PUSH2 0x713 SWAP2 SWAP1 PUSH2 0x3176 JUMP JUMPDEST PUSH1 0x40 MLOAD DUP1 SWAP2 SUB SWAP1 RETURN JUMPDEST PUSH2 0x736 PUSH1 0x4 DUP1 CALLDATASIZE SUB DUP2 ADD SWAP1 PUSH2 0x731 SWAP2 SWAP1 PUSH2 0x3AD8 JUMP JUMPDEST PUSH2 0x1469 JUMP JUMPDEST STOP JUMPDEST PUSH2 0x740 PUSH2 0x150A JUMP JUMPDEST PUSH1 0x40 MLOAD PUSH2 0x74D SWAP2 SWAP1 PUSH2 0x3176 JUMP JUMPDEST PUSH1 0x40 MLOAD DUP1 SWAP2 SUB SWAP1 RETURN JUMPDEST PUSH2 0x770 PUSH1 0x4 DUP1 CALLDATASIZE SUB DUP2 ADD SWAP1 PUSH2 0x76B SWAP2 SWAP1 PUSH2 0x3B6B JUMP JUMPDEST PUSH2 0x150F JUMP JUMPDEST STOP JUMPDEST PUSH2 0x78C PUSH1 0x4 DUP1 CALLDATASIZE SUB DUP2 ADD SWAP1 PUSH2 0x787 SWAP2 SWAP1 PUSH2 0x3B96 JUMP JUMPDEST PUSH2 0x1591 JUMP JUMPDEST STOP JUMPDEST PUSH2 0x7A8 PUSH1 0x4 DUP1 CALLDATASIZE SUB DUP2 ADD SWAP1 PUSH2 0x7A3 SWAP2 SWAP1 PUSH2 0x36AE JUMP JUMPDEST PUSH2 0x162E JUMP JUMPDEST STOP JUMPDEST PUSH2 0x7B2 PUSH2 0x17A7 JUMP JUMPDEST PUSH1 0x40 MLOAD PUSH2 0x7BF SWAP2 SWAP1 PUSH2 0x3176 JUMP JUMPDEST PUSH1 0x40 MLOAD DUP1 SWAP2 SUB SWAP1 RETURN JUMPDEST PUSH0 DUP1 PUSH20 0xFFFFFFFFFFFFFFFFFFFFFFFFFFFFFFFFFFFFFFFF AND DUP4 PUSH20 0xFFFFFFFFFFFFFFFFFFFFFFFFFFFFFFFFFFFFFFFF AND SUB PUSH2 0x837 JUMPI PUSH1 0x40 MLOAD PUSH32 0x8C379A000000000000000000000000000000000000000000000000000000000 DUP2 MSTORE PUSH1 0x4 ADD PUSH2 0x82E SWAP1 PUSH2 0x3C56 JUMP JUMPDEST PUSH1 0x40 MLOAD DUP1 SWAP2 SUB SWAP1 REVERT JUMPDEST PUSH1 0x65 PUSH0 DUP4 DUP2 MSTORE PUSH1 0x20 ADD SWAP1 DUP2 MSTORE PUSH1 0x20 ADD PUSH0 KECCAK256 PUSH0 DUP5 PUSH20 0xFFFFFFFFFFFFFFFFFFFFFFFFFFFFFFFFFFFFFFFF AND PUSH20 0xFFFFFFFFFFFFFFFFFFFFFFFFFFFFFFFFFFFFFFFF AND DUP2 MSTORE PUSH1 0x20 ADD SWAP1 DUP2 MSTORE PUSH1 0x20 ADD PUSH0 KECCAK256 SLOAD SWAP1 POP SWAP3 SWAP2 POP POP JUMP JUMPDEST PUSH0 PUSH32 0xD9B67A2600000000000000000000000000000000000000000000000000000000 PUSH28 0xFFFFFFFFFFFFFFFFFFFFFFFFFFFFFFFFFFFFFFFFFFFFFFFFFFFFFFFF NOT AND DUP3 PUSH28 0xFFFFFFFFFFFFFFFFFFFFFFFFFFFFFFFFFFFFFFFFFFFFFFFFFFFFFFFF NOT AND EQ DUP1 PUSH2 0x956 JUMPI POP PUSH32 0xE89341C00000000000000000000000000000000000000000000000000000000 PUSH28 0xFFFFFFFFFFFFFFFFFFFFFFFFFFFFFFFFFFFFFFFFFFFFFFFFFFFFFFFF NOT AND DUP3 PUSH28 0xFFFFFFFFFFFFFFFFFFFFFFFFFFFFFFFFFFFFFFFFFFFFFFFFFFFFFFFF NOT AND EQ JUMPDEST DUP1 PUSH2 0x966 JUMPI POP PUSH2 0x965 DUP3 PUSH2 0x17AC JUMP JUMPDEST JUMPDEST SWAP1 POP SWAP2 SWAP1 POP JUMP JUMPDEST PUSH1 0x19 DUP2 JUMP JUMPDEST PUSH1 0x1 DUP2 JUMP JUMPDEST PUSH1 0x60 PUSH0 PUSH2 0x12D DUP1 SLOAD PUSH2 0x988 SWAP1 PUSH2 0x3CA1 JUMP JUMPDEST SWAP1 POP GT PUSH2 0x9A3 JUMPI PUSH1 0x40 MLOAD DUP1 PUSH1 0x20 ADD PUSH1 0x40 MSTORE DUP1 PUSH0 DUP2 MSTORE POP PUSH2 0x9D0 JUMP JUMPDEST PUSH2 0x12D PUSH2 0x9AF DUP4 PUSH2 0x1815 JUMP JUMPDEST PUSH1 0x40 MLOAD PUSH1 0x20 ADD PUSH2 0x9C0 SWAP3 SWAP2 SWAP1 PUSH2 0x3D9D JUMP JUMPDEST PUSH1 0x40 MLOAD PUSH1 0x20 DUP2 DUP4 SUB SUB DUP2 MSTORE SWAP1 PUSH1 0x40 MSTORE JUMPDEST SWAP1 POP SWAP2 SWAP1 POP JUMP JUMPDEST PUSH2 0x9DF PUSH2 0x18DF JUMP JUMPDEST PUSH1 0x1 DUP3 LT ISZERO DUP1 ISZERO PUSH2 0x9F1 JUMPI POP PUSH1 0x10 DUP3 GT ISZERO JUMPDEST PUSH2 0xA30 JUMPI PUSH1 0x40 MLOAD PUSH32 0x8C379A000000000000000000000000000000000000000000000000000000000 DUP2 MSTORE PUSH1 0x4 ADD PUSH2 0xA27 SWAP1 PUSH2 0x3E0A JUMP JUMPDEST PUSH1 0x40 MLOAD DUP1 SWAP2 SUB SWAP1 REVERT JUMPDEST PUSH0 DUP2 GT PUSH2 0xA72 JUMPI PUSH1 0x40 MLOAD PUSH32 0x8C379A000000000000000000000000000000000000000000000000000000000 DUP2 MSTORE PUSH1 0x4 ADD PUSH2 0xA69 SWAP1 PUSH2 0x3E72 JUMP JUMPDEST PUSH1 0x40 MLOAD DUP1 SWAP2 SUB SWAP1 REVERT JUMPDEST PUSH0 PUSH2 0xA7C DUP4 PUSH2 0x195D JUMP JUMPDEST SWAP1 POP DUP1 DUP3 GT ISZERO PUSH2 0xAC1 JUMPI PUSH1 0x40 MLOAD PUSH32 0x8C379A000000000000000000000000000000000000000000000000000000000 DUP2 MSTORE PUSH1 0x4 ADD PUSH2 0xAB8 SWAP1 PUSH2 0x3EDA JUMP JUMPDEST PUSH1 0x40 MLOAD DUP1 SWAP2 SUB SWAP1 REVERT JUMPDEST PUSH2 0xADB CALLER DUP5 DUP5 PUSH1 0x40 MLOAD DUP1 PUSH1 0x20 ADD PUSH1 0x40 MSTORE DUP1 PUSH0 DUP2 MSTORE POP PUSH2 0x19EF JUMP JUMPDEST POP POP POP JUMP JUMPDEST PUSH1 0xA DUP2 JUMP JUMPDEST PUSH2 0xAED PUSH2 0x1B93 JUMP JUMPDEST PUSH20 0xFFFFFFFFFFFFFFFFFFFFFFFFFFFFFFFFFFFFFFFF AND DUP6 PUSH20 0xFFFFFFFFFFFFFFFFFFFFFFFFFFFFFFFFFFFFFFFF AND EQ DUP1 PUSH2 0xB33 JUMPI POP PUSH2 0xB32 DUP6 PUSH2 0xB2D PUSH2 0x1B93 JUMP JUMPDEST PUSH2 0x13D6 JUMP JUMPDEST JUMPDEST PUSH2 0xB72 JUMPI PUSH1 0x40 MLOAD PUSH32 0x8C379A000000000000000000000000000000000000000000000000000000000 DUP2 MSTORE PUSH1 0x4 ADD PUSH2 0xB69 SWAP1 PUSH2 0x3F68 JUMP JUMPDEST PUSH1 0x40 MLOAD DUP1 SWAP2 SUB SWAP1 REVERT JUMPDEST PUSH2 0xB7F DUP6 DUP6 DUP6 DUP6 DUP6 PUSH2 0x1B9A JUMP JUMPDEST POP POP POP POP POP JUMP JUMPDEST PUSH2 0xB8E PUSH2 0x18DF JUMP JUMPDEST DUP1 PUSH2 0x12D SWAP1 DUP2 PUSH2 0xB9E SWAP2 SWAP1 PUSH2 0x4111 JUMP JUMPDEST POP POP JUMP JUMPDEST PUSH1 0xB DUP2 JUMP JUMPDEST PUSH1 0xE DUP2 JUMP JUMPDEST PUSH1 0xA DUP2 JUMP JUMPDEST PUSH2 0xBB9 PUSH2 0x18DF JUMP JUMPDEST PUSH2 0xBFC PUSH1 0x1 PUSH1 0x40 MLOAD DUP1 PUSH1 0x40 ADD PUSH1 0x40 MSTORE DUP1 PUSH1 0x4 DUP2 MSTORE PUSH1 0x20 ADD PUSH32 0x436C616E00000000000000000000000000000000000000000000000000000000 DUP2 MSTORE POP PUSH0 PUSH1 0x32 PUSH2 0x12F9 JUMP JUMPDEST PUSH2 0xC3F PUSH1 0x2 PUSH1 0x40 MLOAD DUP1 PUSH1 0x40 ADD PUSH1 0x40 MSTORE DUP1 PUSH1 0x3 DUP2 MSTORE PUSH1 0x20 ADD PUSH32 0x5465640000000000000000000000000000000000000000000000000000000000 DUP2 MSTORE POP PUSH0 PUSH1 0x32 PUSH2 0x12F9 JUMP JUMPDEST PUSH2 0xC82 PUSH1 0x3 PUSH1 0x40 MLOAD DUP1 PUSH1 0x40 ADD PUSH1 0x40 MSTORE DUP1 PUSH1 0x6 DUP2 MSTORE PUSH1 0x20 ADD PUSH32 0x526F6F7465640000000000000000000000000000000000000000000000000000 DUP2 MSTORE POP PUSH0 PUSH1 0x32 PUSH2 0x12F9 JUMP JUMPDEST PUSH2 0xCC5 PUSH1 0x4 PUSH1 0x40 MLOAD DUP1 PUSH1 0x40 ADD PUSH1 0x40 MSTORE DUP1 PUSH1 0x6 DUP2 MSTORE PUSH1 0x20 ADD PUSH32 0x4C65616465720000000000000000000000000000000000000000000000000000 DUP2 MSTORE POP PUSH0 PUSH1 0x32 PUSH2 0x12F9 JUMP JUMPDEST PUSH2 0xD08 PUSH1 0x5 PUSH1 0x40 MLOAD DUP1 PUSH1 0x40 ADD PUSH1 0x40 MSTORE DUP1 PUSH1 0x6 DUP2 MSTORE PUSH1 0x20 ADD PUSH32 0x4272656174680000000000000000000000000000000000000000000000000000 DUP2 MSTORE POP PUSH0 PUSH1 0x32 PUSH2 0x12F9 JUMP JUMPDEST PUSH2 0xD4B PUSH1 0x6 PUSH1 0x40 MLOAD DUP1 PUSH1 0x40 ADD PUSH1 0x40 MSTORE DUP1 PUSH1 0x8 DUP2 MSTORE PUSH1 0x20 ADD PUSH32 0x47726F756E646564000000000000000000000000000000000000000000000000 DUP2 MSTORE POP PUSH0 PUSH1 0x1 PUSH2 0x12F9 JUMP JUMPDEST PUSH2 0xD8E PUSH1 0x7 PUSH1 0x40 MLOAD DUP1 PUSH1 0x40 ADD PUSH1 0x40 MSTORE DUP1 PUSH1 0x5 DUP2 MSTORE PUSH1 0x20 ADD PUSH32 0x416C697665000000000000000000000000000000000000000000000000000000 DUP2 MSTORE POP PUSH0 PUSH1 0x32 PUSH2 0x12F9 JUMP JUMPDEST PUSH2 0xDD1 PUSH1 0x8 PUSH1 0x40 MLOAD DUP1 PUSH1 0x40 ADD PUSH1 0x40 MSTORE DUP1 PUSH1 0x7 DUP2 MSTORE PUSH1 0x20 ADD PUSH32 0x426520426F6C6400000000000000000000000000000000000000000000000000 DUP2 MSTORE POP PUSH0 PUSH1 0x19 PUSH2 0x12F9 JUMP JUMPDEST PUSH2 0xE14 PUSH1 0x9 PUSH1 0x40 MLOAD DUP1 PUSH1 0x40 ADD PUSH1 0x40 MSTORE DUP1 PUSH1 0x7 DUP2 MSTORE PUSH1 0x20 ADD PUSH32 0x5468756E64657200000000000000000000000000000000000000000000000000 DUP2 MSTORE POP PUSH0 PUSH1 0x19 PUSH2 0x12F9 JUMP JUMPDEST PUSH2 0xE57 PUSH1 0xA PUSH1 0x40 MLOAD DUP1 PUSH1 0x40 ADD PUSH1 0x40 MSTORE DUP1 PUSH1 0xA DUP2 MSTORE PUSH1 0x20 ADD PUSH32 0x526F79616C204C696F6E00000000000000000000000000000000000000000000 DUP2 MSTORE POP PUSH0 PUSH1 0x19 PUSH2 0x12F9 JUMP JUMPDEST PUSH2 0xE9A PUSH1 0xB PUSH1 0x40 MLOAD DUP1 PUSH1 0x40 ADD PUSH1 0x40 MSTORE DUP1 PUSH1 0x5 DUP2 MSTORE PUSH1 0x20 ADD PUSH32 0x4669676874000000000000000000000000000000000000000000000000000000 DUP2 MSTORE POP PUSH0 PUSH1 0x19 PUSH2 0x12F9 JUMP JUMPDEST PUSH2 0xEDD PUSH1 0xC PUSH1 0x40 MLOAD DUP1 PUSH1 0x40 ADD PUSH1 0x40 MSTORE DUP1 PUSH1 0x4 DUP2 MSTORE PUSH1 0x20 ADD PUSH32 0x48656C6C00000000000000000000000000000000000000000000000000000000 DUP2 MSTORE POP PUSH0 PUSH1 0x19 PUSH2 0x12F9 JUMP JUMPDEST PUSH2 0xF20 PUSH1 0xD PUSH1 0x40 MLOAD DUP1 PUSH1 0x40 ADD PUSH1 0x40 MSTORE DUP1 PUSH1 0x7 DUP2 MSTORE PUSH1 0x20 ADD PUSH32 0x53696C656E636500000000000000000000000000000000000000000000000000 DUP2 MSTORE POP PUSH0 PUSH1 0x1 PUSH2 0x12F9 JUMP JUMPDEST PUSH2 0xF63 PUSH1 0xE PUSH1 0x40 MLOAD DUP1 PUSH1 0x40 ADD PUSH1 0x40 MSTORE DUP1 PUSH1 0x5 DUP2 MSTORE PUSH1 0x20 ADD PUSH32 0x466C616D65000000000000000000000000000000000000000000000000000000 DUP2 MSTORE POP PUSH0 PUSH1 0x1 PUSH2 0x12F9 JUMP JUMPDEST PUSH2 0xFA6 PUSH1 0xF PUSH1 0x40 MLOAD DUP1 PUSH1 0x40 ADD PUSH1 0x40 MSTORE DUP1 PUSH1 0xF DUP2 MSTORE PUSH1 0x20 ADD PUSH32 0x57696E67206F662046726565646F6D0000000000000000000000000000000000 DUP2 MSTORE POP PUSH0 PUSH1 0x14 PUSH2 0x12F9 JUMP JUMPDEST PUSH2 0xFE9 PUSH1 0x10 PUSH1 0x40 MLOAD DUP1 PUSH1 0x40 ADD PUSH1 0x40 MSTORE DUP1 PUSH1 0x5 DUP2 MSTORE PUSH1 0x20 ADD PUSH32 0x5374696E67000000000000000000000000000000000000000000000000000000 DUP2 MSTORE POP PUSH0 PUSH1 0xA PUSH2 0x12F9 JUMP JUMPDEST JUMP JUMPDEST PUSH1 0x60 DUP2 MLOAD DUP4 MLOAD EQ PUSH2 0x1031 JUMPI PUSH1 0x40 MLOAD PUSH32 0x8C379A000000000000000000000000000000000000000000000000000000000 DUP2 MSTORE PUSH1 0x4 ADD PUSH2 0x1028 SWAP1 PUSH2 0x4250 JUMP JUMPDEST PUSH1 0x40 MLOAD DUP1 SWAP2 SUB SWAP1 REVERT JUMPDEST PUSH0 DUP4 MLOAD PUSH8 0xFFFFFFFFFFFFFFFF DUP2 GT ISZERO PUSH2 0x104D JUMPI PUSH2 0x104C PUSH2 0x3359 JUMP JUMPDEST JUMPDEST PUSH1 0x40 MLOAD SWAP1 DUP1 DUP3 MSTORE DUP1 PUSH1 0x20 MUL PUSH1 0x20 ADD DUP3 ADD PUSH1 0x40 MSTORE DUP1 ISZERO PUSH2 0x107B JUMPI DUP2 PUSH1 0x20 ADD PUSH1 0x20 DUP3 MUL DUP1 CALLDATASIZE DUP4 CALLDATACOPY DUP1 DUP3 ADD SWAP2 POP POP SWAP1 POP JUMPDEST POP SWAP1 POP PUSH0 JUMPDEST DUP5 MLOAD DUP2 LT ISZERO PUSH2 0x10F7 JUMPI PUSH2 0x10C7 DUP6 DUP3 DUP2 MLOAD DUP2 LT PUSH2 0x109F JUMPI PUSH2 0x109E PUSH2 0x426E JUMP JUMPDEST JUMPDEST PUSH1 0x20 MUL PUSH1 0x20 ADD ADD MLOAD DUP6 DUP4 DUP2 MLOAD DUP2 LT PUSH2 0x10BA JUMPI PUSH2 0x10B9 PUSH2 0x426E JUMP JUMPDEST JUMPDEST PUSH1 0x20 MUL PUSH1 0x20 ADD ADD MLOAD PUSH2 0x7C8 JUMP JUMPDEST DUP3 DUP3 DUP2 MLOAD DUP2 LT PUSH2 0x10DA JUMPI PUSH2 0x10D9 PUSH2 0x426E JUMP JUMPDEST JUMPDEST PUSH1 0x20 MUL PUSH1 0x20 ADD ADD DUP2 DUP2 MSTORE POP POP DUP1 PUSH2 0x10F0 SWAP1 PUSH2 0x42C8 JUMP JUMPDEST SWAP1 POP PUSH2 0x1080 JUMP JUMPDEST POP DUP1 SWAP2 POP POP SWAP3 SWAP2 POP POP JUMP JUMPDEST PUSH1 0x8 DUP2 JUMP JUMPDEST PUSH1 0x5 DUP2 JUMP JUMPDEST PUSH1 0x1 DUP2 JUMP JUMPDEST PUSH0 PUSH1 0xC9 PUSH0 SWAP1 SLOAD SWAP1 PUSH2 0x100 EXP SWAP1 DIV PUSH1 0xFF AND SWAP1 POP SWAP1 JUMP JUMPDEST PUSH1 0x32 DUP2 JUMP JUMPDEST PUSH2 0x1133 PUSH2 0x1B93 JUMP JUMPDEST PUSH20 0xFFFFFFFFFFFFFFFFFFFFFFFFFFFFFFFFFFFFFFFF AND DUP4 PUSH20 0xFFFFFFFFFFFFFFFFFFFFFFFFFFFFFFFFFFFFFFFF AND EQ DUP1 PUSH2 0x1179 JUMPI POP PUSH2 0x1178 DUP4 PUSH2 0x1173 PUSH2 0x1B93 JUMP JUMPDEST PUSH2 0x13D6 JUMP JUMPDEST JUMPDEST PUSH2 0x11B8 JUMPI PUSH1 0x40 MLOAD PUSH32 0x8C379A000000000000000000000000000000000000000000000000000000000 DUP2 MSTORE PUSH1 0x4 ADD PUSH2 0x11AF SWAP1 PUSH2 0x3F68 JUMP JUMPDEST PUSH1 0x40 MLOAD DUP1 SWAP2 SUB SWAP1 REVERT JUMPDEST PUSH2 0x11C3 DUP4 DUP4 DUP4 PUSH2 0x1EAB JUMP JUMPDEST POP POP POP JUMP JUMPDEST PUSH1 0x10 DUP2 JUMP JUMPDEST PUSH2 0x11D5 PUSH2 0x18DF JUMP JUMPDEST PUSH2 0x11DE PUSH0 PUSH2 0x2168 JUMP JUMPDEST JUMP JUMPDEST PUSH2 0x130 PUSH1 0x20 MSTORE DUP1 PUSH0 MSTORE PUSH1 0x40 PUSH0 KECCAK256 PUSH0 SWAP2 POP SWAP1 POP SLOAD DUP2 JUMP JUMPDEST PUSH1 0xF DUP2 JUMP JUMPDEST PUSH1 0x1 DUP2 JUMP JUMPDEST PUSH1 0x3 DUP2 JUMP JUMPDEST PUSH0 PUSH1 0x97 PUSH0 SWAP1 SLOAD SWAP1 PUSH2 0x100 EXP SWAP1 DIV PUSH20 0xFFFFFFFFFFFFFFFFFFFFFFFFFFFFFFFFFFFFFFFF AND SWAP1 POP SWAP1 JUMP JUMPDEST PUSH1 0x4 DUP2 JUMP JUMPDEST PUSH2 0x12E DUP2 DUP2 SLOAD DUP2 LT PUSH2 0x1242 JUMPI PUSH0 DUP1 REVERT JUMPDEST SWAP1 PUSH0 MSTORE PUSH1 0x20 PUSH0 KECCAK256 ADD PUSH0 SWAP2 POP SWAP1 POP DUP1 SLOAD PUSH2 0x125A SWAP1 PUSH2 0x3CA1 JUMP JUMPDEST DUP1 PUSH1 0x1F ADD PUSH1 0x20 DUP1 SWAP2 DIV MUL PUSH1 0x20 ADD PUSH1 0x40 MLOAD SWAP1 DUP2 ADD PUSH1 0x40 MSTORE DUP1 SWAP3 SWAP2 SWAP1 DUP2 DUP2 MSTORE PUSH1 0x20 ADD DUP3 DUP1 SLOAD PUSH2 0x1286 SWAP1 PUSH2 0x3CA1 JUMP JUMPDEST DUP1 ISZERO PUSH2 0x12D1 JUMPI DUP1 PUSH1 0x1F LT PUSH2 0x12A8 JUMPI PUSH2 0x100 DUP1 DUP4 SLOAD DIV MUL DUP4 MSTORE SWAP2 PUSH1 0x20 ADD SWAP2 PUSH2 0x12D1 JUMP JUMPDEST DUP3 ADD SWAP2 SWAP1 PUSH0 MSTORE PUSH1 0x20 PUSH0 KECCAK256 SWAP1 JUMPDEST DUP2 SLOAD DUP2 MSTORE SWAP1 PUSH1 0x1 ADD SWAP1 PUSH1 0x20 ADD DUP1 DUP4 GT PUSH2 0x12B4 JUMPI DUP3 SWAP1 SUB PUSH1 0x1F AND DUP3 ADD SWAP2 JUMPDEST POP POP POP POP POP DUP2 JUMP JUMPDEST PUSH2 0x12EB PUSH2 0x12E4 PUSH2 0x1B93 JUMP JUMPDEST DUP4 DUP4 PUSH2 0x222B JUMP JUMPDEST POP POP JUMP JUMPDEST PUSH1 0x2 DUP2 JUMP JUMPDEST PUSH1 0x9 DUP2 JUMP JUMPDEST PUSH2 0x1301 PUSH2 0x18DF JUMP JUMPDEST PUSH0 DUP5 GT DUP1 ISZERO PUSH2 0x1311 JUMPI POP PUSH1 0x10 DUP5 GT ISZERO JUMPDEST PUSH2 0x1350 JUMPI PUSH1 0x40 MLOAD PUSH32 0x8C379A000000000000000000000000000000000000000000000000000000000 DUP2 MSTORE PUSH1 0x4 ADD PUSH2 0x1347 SWAP1 PUSH2 0x3E0A JUMP JUMPDEST PUSH1 0x40 MLOAD DUP1 SWAP2 SUB SWAP1 REVERT JUMPDEST DUP3 PUSH2 0x12E PUSH1 0x1 DUP7 PUSH2 0x1361 SWAP2 SWAP1 PUSH2 0x430F JUMP JUMPDEST DUP2 SLOAD DUP2 LT PUSH2 0x1372 JUMPI PUSH2 0x1371 PUSH2 0x426E JUMP JUMPDEST JUMPDEST SWAP1 PUSH0 MSTORE PUSH1 0x20 PUSH0 KECCAK256 ADD SWAP1 DUP2 PUSH2 0x1386 SWAP2 SWAP1 PUSH2 0x4111 JUMP JUMPDEST POP DUP2 PUSH2 0x12F PUSH0 DUP7 DUP2 MSTORE PUSH1 0x20 ADD SWAP1 DUP2 MSTORE PUSH1 0x20 ADD PUSH0 KECCAK256 DUP2 SWAP1 SSTORE POP DUP1 PUSH2 0x130 PUSH0 DUP7 DUP2 MSTORE PUSH1 0x20 ADD SWAP1 DUP2 MSTORE PUSH1 0x20 ADD PUSH0 KECCAK256 DUP2 SWAP1 SSTORE POP POP POP POP POP JUMP JUMPDEST PUSH2 0x12F PUSH1 0x20 MSTORE DUP1 PUSH0 MSTORE PUSH1 0x40 PUSH0 KECCAK256 PUSH0 SWAP2 POP SWAP1 POP SLOAD DUP2 JUMP JUMPDEST PUSH1 0x7 DUP2 JUMP JUMPDEST PUSH0 PUSH1 0x66 PUSH0 DUP5 PUSH20 0xFFFFFFFFFFFFFFFFFFFFFFFFFFFFFFFFFFFFFFFF AND PUSH20 0xFFFFFFFFFFFFFFFFFFFFFFFFFFFFFFFFFFFFFFFF AND DUP2 MSTORE PUSH1 0x20 ADD SWAP1 DUP2 MSTORE PUSH1 0x20 ADD PUSH0 KECCAK256 PUSH0 DUP4 PUSH20 0xFFFFFFFFFFFFFFFFFFFFFFFFFFFFFFFFFFFFFFFF AND PUSH20 0xFFFFFFFFFFFFFFFFFFFFFFFFFFFFFFFFFFFFFFFF AND DUP2 MSTORE PUSH1 0x20 ADD SWAP1 DUP2 MSTORE PUSH1 0x20 ADD PUSH0 KECCAK256 PUSH0 SWAP1 SLOAD SWAP1 PUSH2 0x100 EXP SWAP1 DIV PUSH1 0xFF AND SWAP1 POP SWAP3 SWAP2 POP POP JUMP JUMPDEST PUSH1 0xC DUP2 JUMP JUMPDEST PUSH2 0x1471 PUSH2 0x1B93 JUMP JUMPDEST PUSH20 0xFFFFFFFFFFFFFFFFFFFFFFFFFFFFFFFFFFFFFFFF AND DUP6 PUSH20 0xFFFFFFFFFFFFFFFFFFFFFFFFFFFFFFFFFFFFFFFF AND EQ DUP1 PUSH2 0x14B7 JUMPI POP PUSH2 0x14B6 DUP6 PUSH2 0x14B1 PUSH2 0x1B93 JUMP JUMPDEST PUSH2 0x13D6 JUMP JUMPDEST JUMPDEST PUSH2 0x14F6 JUMPI PUSH1 0x40 MLOAD PUSH32 0x8C379A000000000000000000000000000000000000000000000000000000000 DUP2 MSTORE PUSH1 0x4 ADD PUSH2 0x14ED SWAP1 PUSH2 0x3F68 JUMP JUMPDEST PUSH1 0x40 MLOAD DUP1 SWAP2 SUB SWAP1 REVERT JUMPDEST PUSH2 0x1503 DUP6 DUP6 DUP6 DUP6 DUP6 PUSH2 0x2392 JUMP JUMPDEST POP POP POP POP POP JUMP JUMPDEST PUSH1 0x6 DUP2 JUMP JUMPDEST PUSH2 0x1517 PUSH2 0x18DF JUMP JUMPDEST PUSH0 PUSH20 0xFFFFFFFFFFFFFFFFFFFFFFFFFFFFFFFFFFFFFFFF AND DUP2 PUSH20 0xFFFFFFFFFFFFFFFFFFFFFFFFFFFFFFFFFFFFFFFF AND SUB PUSH2 0x1585 JUMPI PUSH1 0x40 MLOAD PUSH32 0x8C379A000000000000000000000000000000000000000000000000000000000 DUP2 MSTORE PUSH1 0x4 ADD PUSH2 0x157C SWAP1 PUSH2 0x43B2 JUMP JUMPDEST PUSH1 0x40 MLOAD DUP1 SWAP2 SUB SWAP1 REVERT JUMPDEST PUSH2 0x158E DUP2 PUSH2 0x2168 JUMP JUMPDEST POP JUMP JUMPDEST PUSH2 0x1599 PUSH2 0x1B93 JUMP JUMPDEST PUSH20 0xFFFFFFFFFFFFFFFFFFFFFFFFFFFFFFFFFFFFFFFF AND DUP4 PUSH20 0xFFFFFFFFFFFFFFFFFFFFFFFFFFFFFFFFFFFFFFFF AND EQ DUP1 PUSH2 0x15DF JUMPI POP PUSH2 0x15DE DUP4 PUSH2 0x15D9 PUSH2 0x1B93 JUMP JUMPDEST PUSH2 0x13D6 JUMP JUMPDEST JUMPDEST PUSH2 0x161E JUMPI PUSH1 0x40 MLOAD PUSH32 0x8C379A000000000000000000000000000000000000000000000000000000000 DUP2 MSTORE PUSH1 0x4 ADD PUSH2 0x1615 SWAP1 PUSH2 0x3F68 JUMP JUMPDEST PUSH1 0x40 MLOAD DUP1 SWAP2 SUB SWAP1 REVERT JUMPDEST PUSH2 0x1629 DUP4 DUP4 DUP4 PUSH2 0x261E JUMP JUMPDEST POP POP POP JUMP JUMPDEST PUSH0 DUP1 PUSH1 0x1 SWAP1 SLOAD SWAP1 PUSH2 0x100 EXP SWAP1 DIV PUSH1 0xFF AND ISZERO SWAP1 POP DUP1 DUP1 ISZERO PUSH2 0x165D JUMPI POP PUSH1 0x1 PUSH0 DUP1 SLOAD SWAP1 PUSH2 0x100 EXP SWAP1 DIV PUSH1 0xFF AND PUSH1 0xFF AND LT JUMPDEST DUP1 PUSH2 0x1689 JUMPI POP PUSH2 0x166C ADDRESS PUSH2 0x2854 JUMP JUMPDEST ISZERO DUP1 ISZERO PUSH2 0x1688 JUMPI POP PUSH1 0x1 PUSH0 DUP1 SLOAD SWAP1 PUSH2 0x100 EXP SWAP1 DIV PUSH1 0xFF AND PUSH1 0xFF AND EQ JUMPDEST JUMPDEST PUSH2 0x16C8 JUMPI PUSH1 0x40 MLOAD PUSH32 0x8C379A000000000000000000000000000000000000000000000000000000000 DUP2 MSTORE PUSH1 0x4 ADD PUSH2 0x16BF SWAP1 PUSH2 0x4440 JUMP JUMPDEST PUSH1 0x40 MLOAD DUP1 SWAP2 SUB SWAP1 REVERT JUMPDEST PUSH1 0x1 PUSH0 DUP1 PUSH2 0x100 EXP DUP2 SLOAD DUP2 PUSH1 0xFF MUL NOT AND SWAP1 DUP4 PUSH1 0xFF AND MUL OR SWAP1 SSTORE POP DUP1 ISZERO PUSH2 0x1703 JUMPI PUSH1 0x1 PUSH0 PUSH1 0x1 PUSH2 0x100 EXP DUP2 SLOAD DUP2 PUSH1 0xFF MUL NOT AND SWAP1 DUP4 ISZERO ISZERO MUL OR SWAP1 SSTORE POP JUMPDEST PUSH2 0x171A PUSH1 0x40 MLOAD DUP1 PUSH1 0x20 ADD PUSH1 0x40 MSTORE DUP1 PUSH0 DUP2 MSTORE POP PUSH2 0x2876 JUMP JUMPDEST PUSH2 0x1722 PUSH2 0x28D0 JUMP JUMPDEST PUSH2 0x172A PUSH2 0x2928 JUMP JUMPDEST PUSH2 0x1732 PUSH2 0x2980 JUMP JUMPDEST DUP2 PUSH2 0x12D SWAP1 DUP2 PUSH2 0x1742 SWAP2 SWAP1 PUSH2 0x4111 JUMP JUMPDEST POP PUSH2 0x174B PUSH2 0xBB1 JUMP JUMPDEST DUP1 ISZERO PUSH2 0x17A3 JUMPI PUSH0 DUP1 PUSH1 0x1 PUSH2 0x100 EXP DUP2 SLOAD DUP2 PUSH1 0xFF MUL NOT AND SWAP1 DUP4 ISZERO ISZERO MUL OR SWAP1 SSTORE POP PUSH32 0x7F26B83FF96E1F2B6A682F133852F6798A09C465DA95921460CEFB3847402498 PUSH1 0x1 PUSH1 0x40 MLOAD PUSH2 0x179A SWAP2 SWAP1 PUSH2 0x44A3 JUMP JUMPDEST PUSH1 0x40 MLOAD DUP1 SWAP2 SUB SWAP1 LOG1 JUMPDEST POP POP JUMP JUMPDEST PUSH1 0xD DUP2 JUMP JUMPDEST PUSH0 PUSH32 0x1FFC9A700000000000000000000000000000000000000000000000000000000 PUSH28 0xFFFFFFFFFFFFFFFFFFFFFFFFFFFFFFFFFFFFFFFFFFFFFFFFFFFFFFFF NOT AND DUP3 PUSH28 0xFFFFFFFFFFFFFFFFFFFFFFFFFFFFFFFFFFFFFFFFFFFFFFFFFFFFFFFF NOT AND EQ SWAP1 POP SWAP2 SWAP1 POP JUMP JUMPDEST PUSH1 0x60 PUSH0 PUSH1 0x1 PUSH2 0x1823 DUP5 PUSH2 0x29D0 JUMP JUMPDEST ADD SWAP1 POP PUSH0 DUP2 PUSH8 0xFFFFFFFFFFFFFFFF DUP2 GT ISZERO PUSH2 0x1841 JUMPI PUSH2 0x1840 PUSH2 0x3359 JUMP JUMPDEST JUMPDEST PUSH1 0x40 MLOAD SWAP1 DUP1 DUP3 MSTORE DUP1 PUSH1 0x1F ADD PUSH1 0x1F NOT AND PUSH1 0x20 ADD DUP3 ADD PUSH1 0x40 MSTORE DUP1 ISZERO PUSH2 0x1873 JUMPI DUP2 PUSH1 0x20 ADD PUSH1 0x1 DUP3 MUL DUP1 CALLDATASIZE DUP4 CALLDATACOPY DUP1 DUP3 ADD SWAP2 POP POP SWAP1 POP JUMPDEST POP SWAP1 POP PUSH0 DUP3 PUSH1 0x20 ADD DUP3 ADD SWAP1 POP JUMPDEST PUSH1 0x1 ISZERO PUSH2 0x18D4 JUMPI DUP1 DUP1 PUSH1 0x1 SWAP1 SUB SWAP2 POP POP PUSH32 0x3031323334353637383961626364656600000000000000000000000000000000 PUSH1 0xA DUP7 MOD BYTE DUP2 MSTORE8 PUSH1 0xA DUP6 DUP2 PUSH2 0x18C9 JUMPI PUSH2 0x18C8 PUSH2 0x44BC JUMP JUMPDEST JUMPDEST DIV SWAP5 POP PUSH0 DUP6 SUB PUSH2 0x1880 JUMPI JUMPDEST DUP2 SWAP4 POP POP POP POP SWAP2 SWAP1 POP JUMP JUMPDEST PUSH2 0x18E7 PUSH2 0x1B93 JUMP JUMPDEST PUSH20 0xFFFFFFFFFFFFFFFFFFFFFFFFFFFFFFFFFFFFFFFF AND PUSH2 0x1905 PUSH2 0x1205 JUMP JUMPDEST PUSH20 0xFFFFFFFFFFFFFFFFFFFFFFFFFFFFFFFFFFFFFFFF AND EQ PUSH2 0x195B JUMPI PUSH1 0x40 MLOAD PUSH32 0x8C379A000000000000000000000000000000000000000000000000000000000 DUP2 MSTORE PUSH1 0x4 ADD PUSH2 0x1952 SWAP1 PUSH2 0x4533 JUMP JUMPDEST PUSH1 0x40 MLOAD DUP1 SWAP2 SUB SWAP1 REVERT JUMPDEST JUMP JUMPDEST PUSH0 PUSH1 0x6 DUP3 EQ DUP1 PUSH2 0x196D JUMPI POP PUSH1 0xE DUP3 EQ JUMPDEST ISZERO PUSH2 0x198B JUMPI PUSH1 0x6 DUP3 EQ PUSH2 0x1981 JUMPI PUSH1 0x1 PUSH2 0x1984 JUMP JUMPDEST PUSH1 0x1 JUMPDEST SWAP1 POP PUSH2 0x19EA JUMP JUMPDEST PUSH1 0x8 DUP3 EQ DUP1 PUSH2 0x199A JUMPI POP PUSH1 0x9 DUP3 EQ JUMPDEST DUP1 PUSH2 0x19A5 JUMPI POP PUSH1 0xA DUP3 EQ JUMPDEST DUP1 PUSH2 0x19B0 JUMPI POP PUSH1 0xB DUP3 EQ JUMPDEST DUP1 PUSH2 0x19BB JUMPI POP PUSH1 0xC DUP3 EQ JUMPDEST DUP1 PUSH2 0x19C6 JUMPI POP PUSH1 0xF DUP3 EQ JUMPDEST ISZERO PUSH2 0x19D4 JUMPI PUSH1 0x19 SWAP1 POP PUSH2 0x19EA JUMP JUMPDEST PUSH1 0x10 DUP3 SUB PUSH2 0x19E5 JUMPI PUSH1 0xA SWAP1 POP PUSH2 0x19EA JUMP JUMPDEST PUSH1 0x32 SWAP1 POP JUMPDEST SWAP2 SWAP1 POP JUMP JUMPDEST PUSH0 PUSH20 0xFFFFFFFFFFFFFFFFFFFFFFFFFFFFFFFFFFFFFFFF AND DUP5 PUSH20 0xFFFFFFFFFFFFFFFFFFFFFFFFFFFFFFFFFFFFFFFF AND SUB PUSH2 0x1A5D JUMPI PUSH1 0x40 MLOAD PUSH32 0x8C379A000000000000000000000000000000000000000000000000000000000 DUP2 MSTORE PUSH1 0x4 ADD PUSH2 0x1A54 SWAP1 PUSH2 0x45C1 JUMP JUMPDEST PUSH1 0x40 MLOAD DUP1 SWAP2 SUB SWAP1 REVERT JUMPDEST PUSH0 PUSH2 0x1A66 PUSH2 0x1B93 JUMP JUMPDEST SWAP1 POP PUSH0 PUSH2 0x1A72 DUP6 PUSH2 0x2B21 JUMP JUMPDEST SWAP1 POP PUSH0 PUSH2 0x1A7E DUP6 PUSH2 0x2B21 JUMP JUMPDEST SWAP1 POP PUSH2 0x1A8E DUP4 PUSH0 DUP10 DUP6 DUP6 DUP10 PUSH2 0x2B99 JUMP JUMPDEST DUP5 PUSH1 0x65 PUSH0 DUP9 DUP2 MSTORE PUSH1 0x20 ADD SWAP1 DUP2 MSTORE PUSH1 0x20 ADD PUSH0 KECCAK256 PUSH0 DUP10 PUSH20 0xFFFFFFFFFFFFFFFFFFFFFFFFFFFFFFFFFFFFFFFF AND PUSH20 0xFFFFFFFFFFFFFFFFFFFFFFFFFFFFFFFFFFFFFFFF AND DUP2 MSTORE PUSH1 0x20 ADD SWAP1 DUP2 MSTORE PUSH1 0x20 ADD PUSH0 KECCAK256 PUSH0 DUP3 DUP3 SLOAD PUSH2 0x1AE9 SWAP2 SWAP1 PUSH2 0x45DF JUMP JUMPDEST SWAP3 POP POP DUP2 SWAP1 SSTORE POP DUP7 PUSH20 0xFFFFFFFFFFFFFFFFFFFFFFFFFFFFFFFFFFFFFFFF AND PUSH0 PUSH20 0xFFFFFFFFFFFFFFFFFFFFFFFFFFFFFFFFFFFFFFFF AND DUP5 PUSH20 0xFFFFFFFFFFFFFFFFFFFFFFFFFFFFFFFFFFFFFFFF AND PUSH32 0xC3D58168C5AE7397731D063D5BBF3D657854427343F4C083240F7AACAA2D0F62 DUP10 DUP10 PUSH1 0x40 MLOAD PUSH2 0x1B66 SWAP3 SWAP2 SWAP1 PUSH2 0x4612 JUMP JUMPDEST PUSH1 0x40 MLOAD DUP1 SWAP2 SUB SWAP1 LOG4 PUSH2 0x1B7C DUP4 PUSH0 DUP10 DUP6 DUP6 DUP10 PUSH2 0x2BA1 JUMP JUMPDEST PUSH2 0x1B8A DUP4 PUSH0 DUP10 DUP10 DUP10 DUP10 PUSH2 0x2BA9 JUMP JUMPDEST POP POP POP POP POP POP POP JUMP JUMPDEST PUSH0 CALLER SWAP1 POP SWAP1 JUMP JUMPDEST DUP2 MLOAD DUP4 MLOAD EQ PUSH2 0x1BDE JUMPI PUSH1 0x40 MLOAD PUSH32 0x8C379A000000000000000000000000000000000000000000000000000000000 DUP2 MSTORE PUSH1 0x4 ADD PUSH2 0x1BD5 SWAP1 PUSH2 0x46A9 JUMP JUMPDEST PUSH1 0x40 MLOAD DUP1 SWAP2 SUB SWAP1 REVERT JUMPDEST PUSH0 PUSH20 0xFFFFFFFFFFFFFFFFFFFFFFFFFFFFFFFFFFFFFFFF AND DUP5 PUSH20 0xFFFFFFFFFFFFFFFFFFFFFFFFFFFFFFFFFFFFFFFF AND SUB PUSH2 0x1C4C JUMPI PUSH1 0x40 MLOAD PUSH32 0x8C379A000000000000000000000000000000000000000000000000000000000 DUP2 MSTORE PUSH1 0x4 ADD PUSH2 0x1C43 SWAP1 PUSH2 0x4737 JUMP JUMPDEST PUSH1 0x40 MLOAD DUP1 SWAP2 SUB SWAP1 REVERT JUMPDEST PUSH0 PUSH2 0x1C55 PUSH2 0x1B93 JUMP JUMPDEST SWAP1 POP PUSH2 0x1C65 DUP2 DUP8 DUP8 DUP8 DUP8 DUP8 PUSH2 0x2B99 JUMP JUMPDEST PUSH0 JUMPDEST DUP5 MLOAD DUP2 LT ISZERO PUSH2 0x1E08 JUMPI PUSH0 DUP6 DUP3 DUP2 MLOAD DUP2 LT PUSH2 0x1C84 JUMPI PUSH2 0x1C83 PUSH2 0x426E JUMP JUMPDEST JUMPDEST PUSH1 0x20 MUL PUSH1 0x20 ADD ADD MLOAD SWAP1 POP PUSH0 DUP6 DUP4 DUP2 MLOAD DUP2 LT PUSH2 0x1CA2 JUMPI PUSH2 0x1CA1 PUSH2 0x426E JUMP JUMPDEST JUMPDEST PUSH1 0x20 MUL PUSH1 0x20 ADD ADD MLOAD SWAP1 POP PUSH0 PUSH1 0x65 PUSH0 DUP5 DUP2 MSTORE PUSH1 0x20 ADD SWAP1 DUP2 MSTORE PUSH1 0x20 ADD PUSH0 KECCAK256 PUSH0 DUP12 PUSH20 0xFFFFFFFFFFFFFFFFFFFFFFFFFFFFFFFFFFFFFFFF AND PUSH20 0xFFFFFFFFFFFFFFFFFFFFFFFFFFFFFFFFFFFFFFFF AND DUP2 MSTORE PUSH1 0x20 ADD SWAP1 DUP2 MSTORE PUSH1 0x20 ADD PUSH0 KECCAK256 SLOAD SWAP1 POP DUP2 DUP2 LT ISZERO PUSH2 0x1D3F JUMPI PUSH1 0x40 MLOAD PUSH32 0x8C379A000000000000000000000000000000000000000000000000000000000 DUP2 MSTORE PUSH1 0x4 ADD PUSH2 0x1D36 SWAP1 PUSH2 0x47C5 JUMP JUMPDEST PUSH1 0x40 MLOAD DUP1 SWAP2 SUB SWAP1 REVERT JUMPDEST DUP2 DUP2 SUB PUSH1 0x65 PUSH0 DUP6 DUP2 MSTORE PUSH1 0x20 ADD SWAP1 DUP2 MSTORE PUSH1 0x20 ADD PUSH0 KECCAK256 PUSH0 DUP13 PUSH20 0xFFFFFFFFFFFFFFFFFFFFFFFFFFFFFFFFFFFFFFFF AND PUSH20 0xFFFFFFFFFFFFFFFFFFFFFFFFFFFFFFFFFFFFFFFF AND DUP2 MSTORE PUSH1 0x20 ADD SWAP1 DUP2 MSTORE PUSH1 0x20 ADD PUSH0 KECCAK256 DUP2 SWAP1 SSTORE POP DUP2 PUSH1 0x65 PUSH0 DUP6 DUP2 MSTORE PUSH1 0x20 ADD SWAP1 DUP2 MSTORE PUSH1 0x20 ADD PUSH0 KECCAK256 PUSH0 DUP12 PUSH20 0xFFFFFFFFFFFFFFFFFFFFFFFFFFFFFFFFFFFFFFFF AND PUSH20 0xFFFFFFFFFFFFFFFFFFFFFFFFFFFFFFFFFFFFFFFF AND DUP2 MSTORE PUSH1 0x20 ADD SWAP1 DUP2 MSTORE PUSH1 0x20 ADD PUSH0 KECCAK256 PUSH0 DUP3 DUP3 SLOAD PUSH2 0x1DED SWAP2 SWAP1 PUSH2 0x45DF JUMP JUMPDEST SWAP3 POP POP DUP2 SWAP1 SSTORE POP POP POP POP DUP1 PUSH2 0x1E01 SWAP1 PUSH2 0x42C8 JUMP JUMPDEST SWAP1 POP PUSH2 0x1C67 JUMP JUMPDEST POP DUP5 PUSH20 0xFFFFFFFFFFFFFFFFFFFFFFFFFFFFFFFFFFFFFFFF AND DUP7 PUSH20 0xFFFFFFFFFFFFFFFFFFFFFFFFFFFFFFFFFFFFFFFF AND DUP3 PUSH20 0xFFFFFFFFFFFFFFFFFFFFFFFFFFFFFFFFFFFFFFFF AND PUSH32 0x4A39DC06D4C0DBC64B70AF90FD698A233A518AA5D07E595D983B8C0526C8F7FB DUP8 DUP8 PUSH1 0x40 MLOAD PUSH2 0x1E7F SWAP3 SWAP2 SWAP1 PUSH2 0x47E3 JUMP JUMPDEST PUSH1 0x40 MLOAD DUP1 SWAP2 SUB SWAP1 LOG4 PUSH2 0x1E95 DUP2 DUP8 DUP8 DUP8 DUP8 DUP8 PUSH2 0x2BA1 JUMP JUMPDEST PUSH2 0x1EA3 DUP2 DUP8 DUP8 DUP8 DUP8 DUP8 PUSH2 0x2D7F JUMP JUMPDEST POP POP POP POP POP POP JUMP JUMPDEST PUSH0 PUSH20 0xFFFFFFFFFFFFFFFFFFFFFFFFFFFFFFFFFFFFFFFF AND DUP4 PUSH20 0xFFFFFFFFFFFFFFFFFFFFFFFFFFFFFFFFFFFFFFFF AND SUB PUSH2 0x1F19 JUMPI PUSH1 0x40 MLOAD PUSH32 0x8C379A000000000000000000000000000000000000000000000000000000000 DUP2 MSTORE PUSH1 0x4 ADD PUSH2 0x1F10 SWAP1 PUSH2 0x4888 JUMP JUMPDEST PUSH1 0x40 MLOAD DUP1 SWAP2 SUB SWAP1 REVERT JUMPDEST DUP1 MLOAD DUP3 MLOAD EQ PUSH2 0x1F5D JUMPI PUSH1 0x40 MLOAD PUSH32 0x8C379A000000000000000000000000000000000000000000000000000000000 DUP2 MSTORE PUSH1 0x4 ADD PUSH2 0x1F54 SWAP1 PUSH2 0x46A9 JUMP JUMPDEST PUSH1 0x40 MLOAD DUP1 SWAP2 SUB SWAP1 REVERT JUMPDEST PUSH0 PUSH2 0x1F66 PUSH2 0x1B93 JUMP JUMPDEST SWAP1 POP PUSH2 0x1F84 DUP2 DUP6 PUSH0 DUP7 DUP7 PUSH1 0x40 MLOAD DUP1 PUSH1 0x20 ADD PUSH1 0x40 MSTORE DUP1 PUSH0 DUP2 MSTORE POP PUSH2 0x2B99 JUMP JUMPDEST PUSH0 JUMPDEST DUP4 MLOAD DUP2 LT ISZERO PUSH2 0x20C7 JUMPI PUSH0 DUP5 DUP3 DUP2 MLOAD DUP2 LT PUSH2 0x1FA3 JUMPI PUSH2 0x1FA2 PUSH2 0x426E JUMP JUMPDEST JUMPDEST PUSH1 0x20 MUL PUSH1 0x20 ADD ADD MLOAD SWAP1 POP PUSH0 DUP5 DUP4 DUP2 MLOAD DUP2 LT PUSH2 0x1FC1 JUMPI PUSH2 0x1FC0 PUSH2 0x426E JUMP JUMPDEST JUMPDEST PUSH1 0x20 MUL PUSH1 0x20 ADD ADD MLOAD SWAP1 POP PUSH0 PUSH1 0x65 PUSH0 DUP5 DUP2 MSTORE PUSH1 0x20 ADD SWAP1 DUP2 MSTORE PUSH1 0x20 ADD PUSH0 KECCAK256 PUSH0 DUP10 PUSH20 0xFFFFFFFFFFFFFFFFFFFFFFFFFFFFFFFFFFFFFFFF AND PUSH20 0xFFFFFFFFFFFFFFFFFFFFFFFFFFFFFFFFFFFFFFFF AND DUP2 MSTORE PUSH1 0x20 ADD SWAP1 DUP2 MSTORE PUSH1 0x20 ADD PUSH0 KECCAK256 SLOAD SWAP1 POP DUP2 DUP2 LT ISZERO PUSH2 0x205E JUMPI PUSH1 0x40 MLOAD PUSH32 0x8C379A000000000000000000000000000000000000000000000000000000000 DUP2 MSTORE PUSH1 0x4 ADD PUSH2 0x2055 SWAP1 PUSH2 0x4916 JUMP JUMPDEST PUSH1 0x40 MLOAD DUP1 SWAP2 SUB SWAP1 REVERT JUMPDEST DUP2 DUP2 SUB PUSH1 0x65 PUSH0 DUP6 DUP2 MSTORE PUSH1 0x20 ADD SWAP1 DUP2 MSTORE PUSH1 0x20 ADD PUSH0 KECCAK256 PUSH0 DUP11 PUSH20 0xFFFFFFFFFFFFFFFFFFFFFFFFFFFFFFFFFFFFFFFF AND PUSH20 0xFFFFFFFFFFFFFFFFFFFFFFFFFFFFFFFFFFFFFFFF AND DUP2 MSTORE PUSH1 0x20 ADD SWAP1 DUP2 MSTORE PUSH1 0x20 ADD PUSH0 KECCAK256 DUP2 SWAP1 SSTORE POP POP POP POP DUP1 DUP1 PUSH2 0x20BF SWAP1 PUSH2 0x42C8 JUMP JUMPDEST SWAP2 POP POP PUSH2 0x1F86 JUMP JUMPDEST POP PUSH0 PUSH20 0xFFFFFFFFFFFFFFFFFFFFFFFFFFFFFFFFFFFFFFFF AND DUP5 PUSH20 0xFFFFFFFFFFFFFFFFFFFFFFFFFFFFFFFFFFFFFFFF AND DUP3 PUSH20 0xFFFFFFFFFFFFFFFFFFFFFFFFFFFFFFFFFFFFFFFF AND PUSH32 0x4A39DC06D4C0DBC64B70AF90FD698A233A518AA5D07E595D983B8C0526C8F7FB DUP7 DUP7 PUSH1 0x40 MLOAD PUSH2 0x213E SWAP3 SWAP2 SWAP1 PUSH2 0x47E3 JUMP JUMPDEST PUSH1 0x40 MLOAD DUP1 SWAP2 SUB SWAP1 LOG4 PUSH2 0x2162 DUP2 DUP6 PUSH0 DUP7 DUP7 PUSH1 0x40 MLOAD DUP1 PUSH1 0x20 ADD PUSH1 0x40 MSTORE DUP1 PUSH0 DUP2 MSTORE POP PUSH2 0x2BA1 JUMP JUMPDEST POP POP POP POP JUMP JUMPDEST PUSH0 PUSH1 0x97 PUSH0 SWAP1 SLOAD SWAP1 PUSH2 0x100 EXP SWAP1 DIV PUSH20 0xFFFFFFFFFFFFFFFFFFFFFFFFFFFFFFFFFFFFFFFF AND SWAP1 POP DUP2 PUSH1 0x97 PUSH0 PUSH2 0x100 EXP DUP2 SLOAD DUP2 PUSH20 0xFFFFFFFFFFFFFFFFFFFFFFFFFFFFFFFFFFFFFFFF MUL NOT AND SWAP1 DUP4 PUSH20 0xFFFFFFFFFFFFFFFFFFFFFFFFFFFFFFFFFFFFFFFF AND MUL OR SWAP1 SSTORE POP DUP2 PUSH20 0xFFFFFFFFFFFFFFFFFFFFFFFFFFFFFFFFFFFFFFFF AND DUP2 PUSH20 0xFFFFFFFFFFFFFFFFFFFFFFFFFFFFFFFFFFFFFFFF AND PUSH32 0x8BE0079C531659141344CD1FD0A4F28419497F9722A3DAAFE3B4186F6B6457E0 PUSH1 0x40 MLOAD PUSH1 0x40 MLOAD DUP1 SWAP2 SUB SWAP1 LOG3 POP POP JUMP JUMPDEST DUP2 PUSH20 0xFFFFFFFFFFFFFFFFFFFFFFFFFFFFFFFFFFFFFFFF AND DUP4 PUSH20 0xFFFFFFFFFFFFFFFFFFFFFFFFFFFFFFFFFFFFFFFF AND SUB PUSH2 0x2299 JUMPI PUSH1 0x40 MLOAD PUSH32 0x8C379A000000000000000000000000000000000000000000000000000000000 DUP2 MSTORE PUSH1 0x4 ADD PUSH2 0x2290 SWAP1 PUSH2 0x49A4 JUMP JUMPDEST PUSH1 0x40 MLOAD DUP1 SWAP2 SUB SWAP1 REVERT JUMPDEST DUP1 PUSH1 0x66 PUSH0 DUP6 PUSH20 0xFFFFFFFFFFFFFFFFFFFFFFFFFFFFFFFFFFFFFFFF AND PUSH20 0xFFFFFFFFFFFFFFFFFFFFFFFFFFFFFFFFFFFFFFFF AND DUP2 MSTORE PUSH1 0x20 ADD SWAP1 DUP2 MSTORE PUSH1 0x20 ADD PUSH0 KECCAK256 PUSH0 DUP5 PUSH20 0xFFFFFFFFFFFFFFFFFFFFFFFFFFFFFFFFFFFFFFFF AND PUSH20 0xFFFFFFFFFFFFFFFFFFFFFFFFFFFFFFFFFFFFFFFF AND DUP2 MSTORE PUSH1 0x20 ADD SWAP1 DUP2 MSTORE PUSH1 0x20 ADD PUSH0 KECCAK256 PUSH0 PUSH2 0x100 EXP DUP2 SLOAD DUP2 PUSH1 0xFF MUL NOT AND SWAP1 DUP4 ISZERO ISZERO MUL OR SWAP1 SSTORE POP DUP2 PUSH20 0xFFFFFFFFFFFFFFFFFFFFFFFFFFFFFFFFFFFFFFFF AND DUP4 PUSH20 0xFFFFFFFFFFFFFFFFFFFFFFFFFFFFFFFFFFFFFFFF AND PUSH32 0x17307EAB39AB6107E8899845AD3D59BD9653F200F220920489CA2B5937696C31 DUP4 PUSH1 0x40 MLOAD PUSH2 0x2385 SWAP2 SWAP1 PUSH2 0x3229 JUMP JUMPDEST PUSH1 0x40 MLOAD DUP1 SWAP2 SUB SWAP1 LOG3 POP POP POP JUMP JUMPDEST PUSH0 PUSH20 0xFFFFFFFFFFFFFFFFFFFFFFFFFFFFFFFFFFFFFFFF AND DUP5 PUSH20 0xFFFFFFFFFFFFFFFFFFFFFFFFFFFFFFFFFFFFFFFF AND SUB PUSH2 0x2400 JUMPI PUSH1 0x40 MLOAD PUSH32 0x8C379A000000000000000000000000000000000000000000000000000000000 DUP2 MSTORE PUSH1 0x4 ADD PUSH2 0x23F7 SWAP1 PUSH2 0x4737 JUMP JUMPDEST PUSH1 0x40 MLOAD DUP1 SWAP2 SUB SWAP1 REVERT JUMPDEST PUSH0 PUSH2 0x2409 PUSH2 0x1B93 JUMP JUMPDEST SWAP1 POP PUSH0 PUSH2 0x2415 DUP6 PUSH2 0x2B21 JUMP JUMPDEST SWAP1 POP PUSH0 PUSH2 0x2421 DUP6 PUSH2 0x2B21 JUMP JUMPDEST SWAP1 POP PUSH2 0x2431 DUP4 DUP10 DUP10 DUP6 DUP6 DUP10 PUSH2 0x2B99 JUMP JUMPDEST PUSH0 PUSH1 0x65 PUSH0 DUP9 DUP2 MSTORE PUSH1 0x20 ADD SWAP1 DUP2 MSTORE PUSH1 0x20 ADD PUSH0 KECCAK256 PUSH0 DUP11 PUSH20 0xFFFFFFFFFFFFFFFFFFFFFFFFFFFFFFFFFFFFFFFF AND PUSH20 0xFFFFFFFFFFFFFFFFFFFFFFFFFFFFFFFFFFFFFFFF AND DUP2 MSTORE PUSH1 0x20 ADD SWAP1 DUP2 MSTORE PUSH1 0x20 ADD PUSH0 KECCAK256 SLOAD SWAP1 POP DUP6 DUP2 LT ISZERO PUSH2 0x24C4 JUMPI PUSH1 0x40 MLOAD PUSH32 0x8C379A000000000000000000000000000000000000000000000000000000000 DUP2 MSTORE PUSH1 0x4 ADD PUSH2 0x24BB SWAP1 PUSH2 0x47C5 JUMP JUMPDEST PUSH1 0x40 MLOAD DUP1 SWAP2 SUB SWAP1 REVERT JUMPDEST DUP6 DUP2 SUB PUSH1 0x65 PUSH0 DUP10 DUP2 MSTORE PUSH1 0x20 ADD SWAP1 DUP2 MSTORE PUSH1 0x20 ADD PUSH0 KECCAK256 PUSH0 DUP12 PUSH20 0xFFFFFFFFFFFFFFFFFFFFFFFFFFFFFFFFFFFFFFFF AND PUSH20 0xFFFFFFFFFFFFFFFFFFFFFFFFFFFFFFFFFFFFFFFF AND DUP2 MSTORE PUSH1 0x20 ADD SWAP1 DUP2 MSTORE PUSH1 0x20 ADD PUSH0 KECCAK256 DUP2 SWAP1 SSTORE POP DUP6 PUSH1 0x65 PUSH0 DUP10 DUP2 MSTORE PUSH1 0x20 ADD SWAP1 DUP2 MSTORE PUSH1 0x20 ADD PUSH0 KECCAK256 PUSH0 DUP11 PUSH20 0xFFFFFFFFFFFFFFFFFFFFFFFFFFFFFFFFFFFFFFFF AND PUSH20 0xFFFFFFFFFFFFFFFFFFFFFFFFFFFFFFFFFFFFFFFF AND DUP2 MSTORE PUSH1 0x20 ADD SWAP1 DUP2 MSTORE PUSH1 0x20 ADD PUSH0 KECCAK256 PUSH0 DUP3 DUP3 SLOAD PUSH2 0x2572 SWAP2 SWAP1 PUSH2 0x45DF JUMP JUMPDEST SWAP3 POP POP DUP2 SWAP1 SSTORE POP DUP8 PUSH20 0xFFFFFFFFFFFFFFFFFFFFFFFFFFFFFFFFFFFFFFFF AND DUP10 PUSH20 0xFFFFFFFFFFFFFFFFFFFFFFFFFFFFFFFFFFFFFFFF AND DUP6 PUSH20 0xFFFFFFFFFFFFFFFFFFFFFFFFFFFFFFFFFFFFFFFF AND PUSH32 0xC3D58168C5AE7397731D063D5BBF3D657854427343F4C083240F7AACAA2D0F62 DUP11 DUP11 PUSH1 0x40 MLOAD PUSH2 0x25EF SWAP3 SWAP2 SWAP1 PUSH2 0x4612 JUMP JUMPDEST PUSH1 0x40 MLOAD DUP1 SWAP2 SUB SWAP1 LOG4 PUSH2 0x2605 DUP5 DUP11 DUP11 DUP7 DUP7 DUP11 PUSH2 0x2BA1 JUMP JUMPDEST PUSH2 0x2613 DUP5 DUP11 DUP11 DUP11 DUP11 DUP11 PUSH2 0x2BA9 JUMP JUMPDEST POP POP POP POP POP POP POP POP POP JUMP JUMPDEST PUSH0 PUSH20 0xFFFFFFFFFFFFFFFFFFFFFFFFFFFFFFFFFFFFFFFF AND DUP4 PUSH20 0xFFFFFFFFFFFFFFFFFFFFFFFFFFFFFFFFFFFFFFFF AND SUB PUSH2 0x268C JUMPI PUSH1 0x40 MLOAD PUSH32 0x8C379A000000000000000000000000000000000000000000000000000000000 DUP2 MSTORE PUSH1 0x4 ADD PUSH2 0x2683 SWAP1 PUSH2 0x4888 JUMP JUMPDEST PUSH1 0x40 MLOAD DUP1 SWAP2 SUB SWAP1 REVERT JUMPDEST PUSH0 PUSH2 0x2695 PUSH2 0x1B93 JUMP JUMPDEST SWAP1 POP PUSH0 PUSH2 0x26A1 DUP5 PUSH2 0x2B21 JUMP JUMPDEST SWAP1 POP PUSH0 PUSH2 0x26AD DUP5 PUSH2 0x2B21 JUMP JUMPDEST SWAP1 POP PUSH2 0x26CB DUP4 DUP8 PUSH0 DUP6 DUP6 PUSH1 0x40 MLOAD DUP1 PUSH1 0x20 ADD PUSH1 0x40 MSTORE DUP1 PUSH0 DUP2 MSTORE POP PUSH2 0x2B99 JUMP JUMPDEST PUSH0 PUSH1 0x65 PUSH0 DUP8 DUP2 MSTORE PUSH1 0x20 ADD SWAP1 DUP2 MSTORE PUSH1 0x20 ADD PUSH0 KECCAK256 PUSH0 DUP9 PUSH20 0xFFFFFFFFFFFFFFFFFFFFFFFFFFFFFFFFFFFFFFFF AND PUSH20 0xFFFFFFFFFFFFFFFFFFFFFFFFFFFFFFFFFFFFFFFF AND DUP2 MSTORE PUSH1 0x20 ADD SWAP1 DUP2 MSTORE PUSH1 0x20 ADD PUSH0 KECCAK256 SLOAD SWAP1 POP DUP5 DUP2 LT ISZERO PUSH2 0x275E JUMPI PUSH1 0x40 MLOAD PUSH32 0x8C379A000000000000000000000000000000000000000000000000000000000 DUP2 MSTORE PUSH1 0x4 ADD PUSH2 0x2755 SWAP1 PUSH2 0x4916 JUMP JUMPDEST PUSH1 0x40 MLOAD DUP1 SWAP2 SUB SWAP1 REVERT JUMPDEST DUP5 DUP2 SUB PUSH1 0x65 PUSH0 DUP9 DUP2 MSTORE PUSH1 0x20 ADD SWAP1 DUP2 MSTORE PUSH1 0x20 ADD PUSH0 KECCAK256 PUSH0 DUP10 PUSH20 0xFFFFFFFFFFFFFFFFFFFFFFFFFFFFFFFFFFFFFFFF AND PUSH20 0xFFFFFFFFFFFFFFFFFFFFFFFFFFFFFFFFFFFFFFFF AND DUP2 MSTORE PUSH1 0x20 ADD SWAP1 DUP2 MSTORE PUSH1 0x20 ADD PUSH0 KECCAK256 DUP2 SWAP1 SSTORE POP PUSH0 PUSH20 0xFFFFFFFFFFFFFFFFFFFFFFFFFFFFFFFFFFFFFFFF AND DUP8 PUSH20 0xFFFFFFFFFFFFFFFFFFFFFFFFFFFFFFFFFFFFFFFF AND DUP6 PUSH20 0xFFFFFFFFFFFFFFFFFFFFFFFFFFFFFFFFFFFFFFFF AND PUSH32 0xC3D58168C5AE7397731D063D5BBF3D657854427343F4C083240F7AACAA2D0F62 DUP10 DUP10 PUSH1 0x40 MLOAD PUSH2 0x2827 SWAP3 SWAP2 SWAP1 PUSH2 0x4612 JUMP JUMPDEST PUSH1 0x40 MLOAD DUP1 SWAP2 SUB SWAP1 LOG4 PUSH2 0x284B DUP5 DUP9 PUSH0 DUP7 DUP7 PUSH1 0x40 MLOAD DUP1 PUSH1 0x20 ADD PUSH1 0x40 MSTORE DUP1 PUSH0 DUP2 MSTORE POP PUSH2 0x2BA1 JUMP JUMPDEST POP POP POP POP POP POP POP JUMP JUMPDEST PUSH0 DUP1 DUP3 PUSH20 0xFFFFFFFFFFFFFFFFFFFFFFFFFFFFFFFFFFFFFFFF AND EXTCODESIZE GT SWAP1 POP SWAP2 SWAP1 POP JUMP JUMPDEST PUSH0 PUSH1 0x1 SWAP1 SLOAD SWAP1 PUSH2 0x100 EXP SWAP1 DIV PUSH1 0xFF AND PUSH2 0x28C4 JUMPI PUSH1 0x40 MLOAD PUSH32 0x8C379A000000000000000000000000000000000000000000000000000000000 DUP2 MSTORE PUSH1 0x4 ADD PUSH2 0x28BB SWAP1 PUSH2 0x4A32 JUMP JUMPDEST PUSH1 0x40 MLOAD DUP1 SWAP2 SUB SWAP1 REVERT JUMPDEST PUSH2 0x28CD DUP2 PUSH2 0x2F55 JUMP JUMPDEST POP JUMP JUMPDEST PUSH0 PUSH1 0x1 SWAP1 SLOAD SWAP1 PUSH2 0x100 EXP SWAP1 DIV PUSH1 0xFF AND PUSH2 0x291E JUMPI PUSH1 0x40 MLOAD PUSH32 0x8C379A000000000000000000000000000000000000000000000000000000000 DUP2 MSTORE PUSH1 0x4 ADD PUSH2 0x2915 SWAP1 PUSH2 0x4A32 JUMP JUMPDEST PUSH1 0x40 MLOAD DUP1 SWAP2 SUB SWAP1 REVERT JUMPDEST PUSH2 0x2926 PUSH2 0x2FAF JUMP JUMPDEST JUMP JUMPDEST PUSH0 PUSH1 0x1 SWAP1 SLOAD SWAP1 PUSH2 0x100 EXP SWAP1 DIV PUSH1 0xFF AND PUSH2 0x2976 JUMPI PUSH1 0x40 MLOAD PUSH32 0x8C379A000000000000000000000000000000000000000000000000000000000 DUP2 MSTORE PUSH1 0x4 ADD PUSH2 0x296D SWAP1 PUSH2 0x4A32 JUMP JUMPDEST PUSH1 0x40 MLOAD DUP1 SWAP2 SUB SWAP1 REVERT JUMPDEST PUSH2 0x297E PUSH2 0x300F JUMP JUMPDEST JUMP JUMPDEST PUSH0 PUSH1 0x1 SWAP1 SLOAD SWAP1 PUSH2 0x100 EXP SWAP1 DIV PUSH1 0xFF AND PUSH2 0x29CE JUMPI PUSH1 0x40 MLOAD PUSH32 0x8C379A000000000000000000000000000000000000000000000000000000000 DUP2 MSTORE PUSH1 0x4 ADD PUSH2 0x29C5 SWAP1 PUSH2 0x4A32 JUMP JUMPDEST PUSH1 0x40 MLOAD DUP1 SWAP2 SUB SWAP1 REVERT JUMPDEST JUMP JUMPDEST PUSH0 DUP1 PUSH0 SWAP1 POP PUSH27 0x184F03E93FF9F4DAA797ED6E38ED64BF6A1F010000000000000000 DUP4 LT PUSH2 0x2A2C JUMPI PUSH27 0x184F03E93FF9F4DAA797ED6E38ED64BF6A1F010000000000000000 DUP4 DUP2 PUSH2 0x2A22 JUMPI PUSH2 0x2A21 PUSH2 0x44BC JUMP JUMPDEST JUMPDEST DIV SWAP3 POP PUSH1 0x40 DUP2 ADD SWAP1 POP JUMPDEST PUSH14 0x4EE2D6D415B85ACEF8100000000 DUP4 LT PUSH2 0x2A69 JUMPI PUSH14 0x4EE2D6D415B85ACEF8100000000 DUP4 DUP2 PUSH2 0x2A5F JUMPI PUSH2 0x2A5E PUSH2 0x44BC JUMP JUMPDEST JUMPDEST DIV SWAP3 POP PUSH1 0x20 DUP2 ADD SWAP1 POP JUMPDEST PUSH7 0x2386F26FC10000 DUP4 LT PUSH2 0x2A98 JUMPI PUSH7 0x2386F26FC10000 DUP4 DUP2 PUSH2 0x2A8E JUMPI PUSH2 0x2A8D PUSH2 0x44BC JUMP JUMPDEST JUMPDEST DIV SWAP3 POP PUSH1 0x10 DUP2 ADD SWAP1 POP JUMPDEST PUSH4 0x5F5E100 DUP4 LT PUSH2 0x2AC1 JUMPI PUSH4 0x5F5E100 DUP4 DUP2 PUSH2 0x2AB7 JUMPI PUSH2 0x2AB6 PUSH2 0x44BC JUMP JUMPDEST JUMPDEST DIV SWAP3 POP PUSH1 0x8 DUP2 ADD SWAP1 POP JUMPDEST PUSH2 0x2710 DUP4 LT PUSH2 0x2AE6 JUMPI PUSH2 0x2710 DUP4 DUP2 PUSH2 0x2ADC JUMPI PUSH2 0x2ADB PUSH2 0x44BC JUMP JUMPDEST JUMPDEST DIV SWAP3 POP PUSH1 0x4 DUP2 ADD SWAP1 POP JUMPDEST PUSH1 0x64 DUP4 LT PUSH2 0x2B09 JUMPI PUSH1 0x64 DUP4 DUP2 PUSH2 0x2AFF JUMPI PUSH2 0x2AFE PUSH2 0x44BC JUMP JUMPDEST JUMPDEST DIV SWAP3 POP PUSH1 0x2 DUP2 ADD SWAP1 POP JUMPDEST PUSH1 0xA DUP4 LT PUSH2 0x2B18 JUMPI PUSH1 0x1 DUP2 ADD SWAP1 POP JUMPDEST DUP1 SWAP2 POP POP SWAP2 SWAP1 POP JUMP JUMPDEST PUSH1 0x60 PUSH0 PUSH1 0x1 PUSH8 0xFFFFFFFFFFFFFFFF DUP2 GT ISZERO PUSH2 0x2B3F JUMPI PUSH2 0x2B3E PUSH2 0x3359 JUMP JUMPDEST JUMPDEST PUSH1 0x40 MLOAD SWAP1 DUP1 DUP3 MSTORE DUP1 PUSH1 0x20 MUL PUSH1 0x20 ADD DUP3 ADD PUSH1 0x40 MSTORE DUP1 ISZERO PUSH2 0x2B6D JUMPI DUP2 PUSH1 0x20 ADD PUSH1 0x20 DUP3 MUL DUP1 CALLDATASIZE DUP4 CALLDATACOPY DUP1 DUP3 ADD SWAP2 POP POP SWAP1 POP JUMPDEST POP SWAP1 POP DUP3 DUP2 PUSH0 DUP2 MLOAD DUP2 LT PUSH2 0x2B84 JUMPI PUSH2 0x2B83 PUSH2 0x426E JUMP JUMPDEST JUMPDEST PUSH1 0x20 MUL PUSH1 0x20 ADD ADD DUP2 DUP2 MSTORE POP POP DUP1 SWAP2 POP POP SWAP2 SWAP1 POP JUMP JUMPDEST POP POP POP POP POP POP JUMP JUMPDEST POP POP POP POP POP POP JUMP JUMPDEST PUSH2 0x2BC8 DUP5 PUSH20 0xFFFFFFFFFFFFFFFFFFFFFFFFFFFFFFFFFFFFFFFF AND PUSH2 0x2854 JUMP JUMPDEST ISZERO PUSH2 0x2D77 JUMPI DUP4 PUSH20 0xFFFFFFFFFFFFFFFFFFFFFFFFFFFFFFFFFFFFFFFF AND PUSH4 0xF23A6E61 DUP8 DUP8 DUP7 DUP7 DUP7 PUSH1 0x40 MLOAD DUP7 PUSH4 0xFFFFFFFF AND PUSH1 0xE0 SHL DUP2 MSTORE PUSH1 0x4 ADD PUSH2 0x2C0E SWAP6 SWAP5 SWAP4 SWAP3 SWAP2 SWAP1 PUSH2 0x4AA2 JUMP JUMPDEST PUSH1 0x20 PUSH1 0x40 MLOAD DUP1 DUP4 SUB DUP2 PUSH0 DUP8 GAS CALL SWAP3 POP POP POP DUP1 ISZERO PUSH2 0x2C49 JUMPI POP PUSH1 0x40 MLOAD RETURNDATASIZE PUSH1 0x1F NOT PUSH1 0x1F DUP3 ADD AND DUP3 ADD DUP1 PUSH1 0x40 MSTORE POP DUP2 ADD SWAP1 PUSH2 0x2C46 SWAP2 SWAP1 PUSH2 0x4B0E JUMP JUMPDEST PUSH1 0x1 JUMPDEST PUSH2 0x2CEE JUMPI PUSH2 0x2C55 PUSH2 0x4B45 JUMP JUMPDEST DUP1 PUSH4 0x8C379A0 SUB PUSH2 0x2CB1 JUMPI POP PUSH2 0x2C69 PUSH2 0x4B64 JUMP JUMPDEST DUP1 PUSH2 0x2C74 JUMPI POP PUSH2 0x2CB3 JUMP JUMPDEST DUP1 PUSH1 0x40 MLOAD PUSH32 0x8C379A000000000000000000000000000000000000000000000000000000000 DUP2 MSTORE PUSH1 0x4 ADD PUSH2 0x2CA8 SWAP2 SWAP1 PUSH2 0x32F7 JUMP JUMPDEST PUSH1 0x40 MLOAD DUP1 SWAP2 SUB SWAP1 REVERT JUMPDEST POP JUMPDEST PUSH1 0x40 MLOAD PUSH32 0x8C379A000000000000000000000000000000000000000000000000000000000 DUP2 MSTORE PUSH1 0x4 ADD PUSH2 0x2CE5 SWAP1 PUSH2 0x4C63 JUMP JUMPDEST PUSH1 0x40 MLOAD DUP1 SWAP2 SUB SWAP1 REVERT JUMPDEST PUSH4 0xF23A6E61 PUSH1 0xE0 SHL PUSH28 0xFFFFFFFFFFFFFFFFFFFFFFFFFFFFFFFFFFFFFFFFFFFFFFFFFFFFFFFF NOT AND DUP2 PUSH28 0xFFFFFFFFFFFFFFFFFFFFFFFFFFFFFFFFFFFFFFFFFFFFFFFFFFFFFFFF NOT AND EQ PUSH2 0x2D75 JUMPI PUSH1 0x40 MLOAD PUSH32 0x8C379A000000000000000000000000000000000000000000000000000000000 DUP2 MSTORE PUSH1 0x4 ADD PUSH2 0x2D6C SWAP1 PUSH2 0x4CF1 JUMP JUMPDEST PUSH1 0x40 MLOAD DUP1 SWAP2 SUB SWAP1 REVERT JUMPDEST POP JUMPDEST POP POP POP POP POP POP JUMP JUMPDEST PUSH2 0x2D9E DUP5 PUSH20 0xFFFFFFFFFFFFFFFFFFFFFFFFFFFFFFFFFFFFFFFF AND PUSH2 0x2854 JUMP JUMPDEST ISZERO PUSH2 0x2F4D JUMPI DUP4 PUSH20 0xFFFFFFFFFFFFFFFFFFFFFFFFFFFFFFFFFFFFFFFF AND PUSH4 0xBC197C81 DUP8 DUP8 DUP7 DUP7 DUP7 PUSH1 0x40 MLOAD DUP7 PUSH4 0xFFFFFFFF AND PUSH1 0xE0 SHL DUP2 MSTORE PUSH1 0x4 ADD PUSH2 0x2DE4 SWAP6 SWAP5 SWAP4 SWAP3 SWAP2 SWAP1 PUSH2 0x4D0F JUMP JUMPDEST PUSH1 0x20 PUSH1 0x40 MLOAD DUP1 DUP4 SUB DUP2 PUSH0 DUP8 GAS CALL SWAP3 POP POP POP DUP1 ISZERO PUSH2 0x2E1F JUMPI POP PUSH1 0x40 MLOAD RETURNDATASIZE PUSH1 0x1F NOT PUSH1 0x1F DUP3 ADD AND DUP3 ADD DUP1 PUSH1 0x40 MSTORE POP DUP2 ADD SWAP1 PUSH2 0x2E1C SWAP2 SWAP1 PUSH2 0x4B0E JUMP JUMPDEST PUSH1 0x1 JUMPDEST PUSH2 0x2EC4 JUMPI PUSH2 0x2E2B PUSH2 0x4B45 JUMP JUMPDEST DUP1 PUSH4 0x8C379A0 SUB PUSH2 0x2E87 JUMPI POP PUSH2 0x2E3F PUSH2 0x4B64 JUMP JUMPDEST DUP1 PUSH2 0x2E4A JUMPI POP PUSH2 0x2E89 JUMP JUMPDEST DUP1 PUSH1 0x40 MLOAD PUSH32 0x8C379A000000000000000000000000000000000000000000000000000000000 DUP2 MSTORE PUSH1 0x4 ADD PUSH2 0x2E7E SWAP2 SWAP1 PUSH2 0x32F7 JUMP JUMPDEST PUSH1 0x40 MLOAD DUP1 SWAP2 SUB SWAP1 REVERT JUMPDEST POP JUMPDEST PUSH1 0x40 MLOAD PUSH32 0x8C379A000000000000000000000000000000000000000000000000000000000 DUP2 MSTORE PUSH1 0x4 ADD PUSH2 0x2EBB SWAP1 PUSH2 0x4C63 JUMP JUMPDEST PUSH1 0x40 MLOAD DUP1 SWAP2 SUB SWAP1 REVERT JUMPDEST PUSH4 0xBC197C81 PUSH1 0xE0 SHL PUSH28 0xFFFFFFFFFFFFFFFFFFFFFFFFFFFFFFFFFFFFFFFFFFFFFFFFFFFFFFFF NOT AND DUP2 PUSH28 0xFFFFFFFFFFFFFFFFFFFFFFFFFFFFFFFFFFFFFFFFFFFFFFFFFFFFFFFF NOT AND EQ PUSH2 0x2F4B JUMPI PUSH1 0x40 MLOAD PUSH32 0x8C379A000000000000000000000000000000000000000000000000000000000 DUP2 MSTORE PUSH1 0x4 ADD PUSH2 0x2F42 SWAP1 PUSH2 0x4CF1 JUMP JUMPDEST PUSH1 0x40 MLOAD DUP1 SWAP2 SUB SWAP1 REVERT JUMPDEST POP JUMPDEST POP POP POP POP POP POP JUMP JUMPDEST PUSH0 PUSH1 0x1 SWAP1 SLOAD SWAP1 PUSH2 0x100 EXP SWAP1 DIV PUSH1 0xFF AND PUSH2 0x2FA3 JUMPI PUSH1 0x40 MLOAD PUSH32 0x8C379A000000000000000000000000000000000000000000000000000000000 DUP2 MSTORE PUSH1 0x4 ADD PUSH2 0x2F9A SWAP1 PUSH2 0x4A32 JUMP JUMPDEST PUSH1 0x40 MLOAD DUP1 SWAP2 SUB SWAP1 REVERT JUMPDEST PUSH2 0x2FAC DUP2 PUSH2 0x3078 JUMP JUMPDEST POP JUMP JUMPDEST PUSH0 PUSH1 0x1 SWAP1 SLOAD SWAP1 PUSH2 0x100 EXP SWAP1 DIV PUSH1 0xFF AND PUSH2 0x2FFD JUMPI PUSH1 0x40 MLOAD PUSH32 0x8C379A000000000000000000000000000000000000000000000000000000000 DUP2 MSTORE PUSH1 0x4 ADD PUSH2 0x2FF4 SWAP1 PUSH2 0x4A32 JUMP JUMPDEST PUSH1 0x40 MLOAD DUP1 SWAP2 SUB SWAP1 REVERT JUMPDEST PUSH2 0x300D PUSH2 0x3008 PUSH2 0x1B93 JUMP JUMPDEST PUSH2 0x2168 JUMP JUMPDEST JUMP JUMPDEST PUSH0 PUSH1 0x1 SWAP1 SLOAD SWAP1 PUSH2 0x100 EXP SWAP1 DIV PUSH1 0xFF AND PUSH2 0x305D JUMPI PUSH1 0x40 MLOAD PUSH32 0x8C379A000000000000000000000000000000000000000000000000000000000 DUP2 MSTORE PUSH1 0x4 ADD PUSH2 0x3054 SWAP1 PUSH2 0x4A32 JUMP JUMPDEST PUSH1 0x40 MLOAD DUP1 SWAP2 SUB SWAP1 REVERT JUMPDEST PUSH0 PUSH1 0xC9 PUSH0 PUSH2 0x100 EXP DUP2 SLOAD DUP2 PUSH1 0xFF MUL NOT AND SWAP1 DUP4 ISZERO ISZERO MUL OR SWAP1 SSTORE POP JUMP JUMPDEST DUP1 PUSH1 0x67 SWAP1 DUP2 PUSH2 0x3087 SWAP2 SWAP1 PUSH2 0x4111 JUMP JUMPDEST POP POP JUMP JUMPDEST PUSH0 PUSH1 0x40 MLOAD SWAP1 POP SWAP1 JUMP JUMPDEST PUSH0 DUP1 REVERT JUMPDEST PUSH0 DUP1 REVERT JUMPDEST PUSH0 PUSH20 0xFFFFFFFFFFFFFFFFFFFFFFFFFFFFFFFFFFFFFFFF DUP3 AND SWAP1 POP SWAP2 SWAP1 POP JUMP JUMPDEST PUSH0 PUSH2 0x30C5 DUP3 PUSH2 0x309C JUMP JUMPDEST SWAP1 POP SWAP2 SWAP1 POP JUMP JUMPDEST PUSH2 0x30D5 DUP2 PUSH2 0x30BB JUMP JUMPDEST DUP2 EQ PUSH2 0x30DF JUMPI PUSH0 DUP1 REVERT JUMPDEST POP JUMP JUMPDEST PUSH0 DUP2 CALLDATALOAD SWAP1 POP PUSH2 0x30F0 DUP2 PUSH2 0x30CC JUMP JUMPDEST SWAP3 SWAP2 POP POP JUMP JUMPDEST PUSH0 DUP2 SWAP1 POP SWAP2 SWAP1 POP JUMP JUMPDEST PUSH2 0x3108 DUP2 PUSH2 0x30F6 JUMP JUMPDEST DUP2 EQ PUSH2 0x3112 JUMPI PUSH0 DUP1 REVERT JUMPDEST POP JUMP JUMPDEST PUSH0 DUP2 CALLDATALOAD SWAP1 POP PUSH2 0x3123 DUP2 PUSH2 0x30FF JUMP JUMPDEST SWAP3 SWAP2 POP POP JUMP JUMPDEST PUSH0 DUP1 PUSH1 0x40 DUP4 DUP6 SUB SLT ISZERO PUSH2 0x313F JUMPI PUSH2 0x313E PUSH2 0x3094 JUMP JUMPDEST JUMPDEST PUSH0 PUSH2 0x314C DUP6 DUP3 DUP7 ADD PUSH2 0x30E2 JUMP JUMPDEST SWAP3 POP POP PUSH1 0x20 PUSH2 0x315D DUP6 DUP3 DUP7 ADD PUSH2 0x3115 JUMP JUMPDEST SWAP2 POP POP SWAP3 POP SWAP3 SWAP1 POP JUMP JUMPDEST PUSH2 0x3170 DUP2 PUSH2 0x30F6 JUMP JUMPDEST DUP3 MSTORE POP POP JUMP JUMPDEST PUSH0 PUSH1 0x20 DUP3 ADD SWAP1 POP PUSH2 0x3189 PUSH0 DUP4 ADD DUP5 PUSH2 0x3167 JUMP JUMPDEST SWAP3 SWAP2 POP POP JUMP JUMPDEST PUSH0 PUSH32 0xFFFFFFFF00000000000000000000000000000000000000000000000000000000 DUP3 AND SWAP1 POP SWAP2 SWAP1 POP JUMP JUMPDEST PUSH2 0x31C3 DUP2 PUSH2 0x318F JUMP JUMPDEST DUP2 EQ PUSH2 0x31CD JUMPI PUSH0 DUP1 REVERT JUMPDEST POP JUMP JUMPDEST PUSH0 DUP2 CALLDATALOAD SWAP1 POP PUSH2 0x31DE DUP2 PUSH2 0x31BA JUMP JUMPDEST SWAP3 SWAP2 POP POP JUMP JUMPDEST PUSH0 PUSH1 0x20 DUP3 DUP5 SUB SLT ISZERO PUSH2 0x31F9 JUMPI PUSH2 0x31F8 PUSH2 0x3094 JUMP JUMPDEST JUMPDEST PUSH0 PUSH2 0x3206 DUP5 DUP3 DUP6 ADD PUSH2 0x31D0 JUMP JUMPDEST SWAP2 POP POP SWAP3 SWAP2 POP POP JUMP JUMPDEST PUSH0 DUP2 ISZERO ISZERO SWAP1 POP SWAP2 SWAP1 POP JUMP JUMPDEST PUSH2 0x3223 DUP2 PUSH2 0x320F JUMP JUMPDEST DUP3 MSTORE POP POP JUMP JUMPDEST PUSH0 PUSH1 0x20 DUP3 ADD SWAP1 POP PUSH2 0x323C PUSH0 DUP4 ADD DUP5 PUSH2 0x321A JUMP JUMPDEST SWAP3 SWAP2 POP POP JUMP JUMPDEST PUSH0 PUSH1 0x20 DUP3 DUP5 SUB SLT ISZERO PUSH2 0x3257 JUMPI PUSH2 0x3256 PUSH2 0x3094 JUMP JUMPDEST JUMPDEST PUSH0 PUSH2 0x3264 DUP5 DUP3 DUP6 ADD PUSH2 0x3115 JUMP JUMPDEST SWAP2 POP POP SWAP3 SWAP2 POP POP JUMP JUMPDEST PUSH0 DUP2 MLOAD SWAP1 POP SWAP2 SWAP1 POP JUMP JUMPDEST PUSH0 DUP3 DUP3 MSTORE PUSH1 0x20 DUP3 ADD SWAP1 POP SWAP3 SWAP2 POP POP JUMP JUMPDEST PUSH0 JUMPDEST DUP4 DUP2 LT ISZERO PUSH2 0x32A4 JUMPI DUP1 DUP3 ADD MLOAD DUP2 DUP5 ADD MSTORE PUSH1 0x20 DUP2 ADD SWAP1 POP PUSH2 0x3289 JUMP JUMPDEST PUSH0 DUP5 DUP5 ADD MSTORE POP POP POP POP JUMP JUMPDEST PUSH0 PUSH1 0x1F NOT PUSH1 0x1F DUP4 ADD AND SWAP1 POP SWAP2 SWAP1 POP JUMP JUMPDEST PUSH0 PUSH2 0x32C9 DUP3 PUSH2 0x326D JUMP JUMPDEST PUSH2 0x32D3 DUP2 DUP6 PUSH2 0x3277 JUMP JUMPDEST SWAP4 POP PUSH2 0x32E3 DUP2 DUP6 PUSH1 0x20 DUP7 ADD PUSH2 0x3287 JUMP JUMPDEST PUSH2 0x32EC DUP2 PUSH2 0x32AF JUMP JUMPDEST DUP5 ADD SWAP2 POP POP SWAP3 SWAP2 POP POP JUMP JUMPDEST PUSH0 PUSH1 0x20 DUP3 ADD SWAP1 POP DUP2 DUP2 SUB PUSH0 DUP4 ADD MSTORE PUSH2 0x330F DUP2 DUP5 PUSH2 0x32BF JUMP JUMPDEST SWAP1 POP SWAP3 SWAP2 POP POP JUMP JUMPDEST PUSH0 DUP1 PUSH1 0x40 DUP4 DUP6 SUB SLT ISZERO PUSH2 0x332D JUMPI PUSH2 0x332C PUSH2 0x3094 JUMP JUMPDEST JUMPDEST PUSH0 PUSH2 0x333A DUP6 DUP3 DUP7 ADD PUSH2 0x3115 JUMP JUMPDEST SWAP3 POP POP PUSH1 0x20 PUSH2 0x334B DUP6 DUP3 DUP7 ADD PUSH2 0x3115 JUMP JUMPDEST SWAP2 POP POP SWAP3 POP SWAP3 SWAP1 POP JUMP JUMPDEST PUSH0 DUP1 REVERT JUMPDEST PUSH32 0x4E487B7100000000000000000000000000000000000000000000000000000000 PUSH0 MSTORE PUSH1 0x41 PUSH1 0x4 MSTORE PUSH1 0x24 PUSH0 REVERT JUMPDEST PUSH2 0x338F DUP3 PUSH2 0x32AF JUMP JUMPDEST DUP2 ADD DUP2 DUP2 LT PUSH8 0xFFFFFFFFFFFFFFFF DUP3 GT OR ISZERO PUSH2 0x33AE JUMPI PUSH2 0x33AD PUSH2 0x3359 JUMP JUMPDEST JUMPDEST DUP1 PUSH1 0x40 MSTORE POP POP POP JUMP JUMPDEST PUSH0 PUSH2 0x33C0 PUSH2 0x308B JUMP JUMPDEST SWAP1 POP PUSH2 0x33CC DUP3 DUP3 PUSH2 0x3386 JUMP JUMPDEST SWAP2 SWAP1 POP JUMP JUMPDEST PUSH0 PUSH8 0xFFFFFFFFFFFFFFFF DUP3 GT ISZERO PUSH2 0x33EB JUMPI PUSH2 0x33EA PUSH2 0x3359 JUMP JUMPDEST JUMPDEST PUSH1 0x20 DUP3 MUL SWAP1 POP PUSH1 0x20 DUP2 ADD SWAP1 POP SWAP2 SWAP1 POP JUMP JUMPDEST PUSH0 DUP1 REVERT JUMPDEST PUSH0 PUSH2 0x3412 PUSH2 0x340D DUP5 PUSH2 0x33D1 JUMP JUMPDEST PUSH2 0x33B7 JUMP JUMPDEST SWAP1 POP DUP1 DUP4 DUP3 MSTORE PUSH1 0x20 DUP3 ADD SWAP1 POP PUSH1 0x20 DUP5 MUL DUP4 ADD DUP6 DUP2 GT ISZERO PUSH2 0x3435 JUMPI PUSH2 0x3434 PUSH2 0x33FC JUMP JUMPDEST JUMPDEST DUP4 JUMPDEST DUP2 DUP2 LT ISZERO PUSH2 0x345E JUMPI DUP1 PUSH2 0x344A DUP9 DUP3 PUSH2 0x3115 JUMP JUMPDEST DUP5 MSTORE PUSH1 0x20 DUP5 ADD SWAP4 POP POP PUSH1 0x20 DUP2 ADD SWAP1 POP PUSH2 0x3437 JUMP JUMPDEST POP POP POP SWAP4 SWAP3 POP POP POP JUMP JUMPDEST PUSH0 DUP3 PUSH1 0x1F DUP4 ADD SLT PUSH2 0x347C JUMPI PUSH2 0x347B PUSH2 0x3355 JUMP JUMPDEST JUMPDEST DUP2 CALLDATALOAD PUSH2 0x348C DUP5 DUP3 PUSH1 0x20 DUP7 ADD PUSH2 0x3400 JUMP JUMPDEST SWAP2 POP POP SWAP3 SWAP2 POP POP JUMP JUMPDEST PUSH0 DUP1 REVERT JUMPDEST PUSH0 PUSH8 0xFFFFFFFFFFFFFFFF DUP3 GT ISZERO PUSH2 0x34B3 JUMPI PUSH2 0x34B2 PUSH2 0x3359 JUMP JUMPDEST JUMPDEST PUSH2 0x34BC DUP3 PUSH2 0x32AF JUMP JUMPDEST SWAP1 POP PUSH1 0x20 DUP2 ADD SWAP1 POP SWAP2 SWAP1 POP JUMP JUMPDEST DUP3 DUP2 DUP4 CALLDATACOPY PUSH0 DUP4 DUP4 ADD MSTORE POP POP POP JUMP JUMPDEST PUSH0 PUSH2 0x34E9 PUSH2 0x34E4 DUP5 PUSH2 0x3499 JUMP JUMPDEST PUSH2 0x33B7 JUMP JUMPDEST SWAP1 POP DUP3 DUP2 MSTORE PUSH1 0x20 DUP2 ADD DUP5 DUP5 DUP5 ADD GT ISZERO PUSH2 0x3505 JUMPI PUSH2 0x3504 PUSH2 0x3495 JUMP JUMPDEST JUMPDEST PUSH2 0x3510 DUP5 DUP3 DUP6 PUSH2 0x34C9 JUMP JUMPDEST POP SWAP4 SWAP3 POP POP POP JUMP JUMPDEST PUSH0 DUP3 PUSH1 0x1F DUP4 ADD SLT PUSH2 0x352C JUMPI PUSH2 0x352B PUSH2 0x3355 JUMP JUMPDEST JUMPDEST DUP2 CALLDATALOAD PUSH2 0x353C DUP5 DUP3 PUSH1 0x20 DUP7 ADD PUSH2 0x34D7 JUMP JUMPDEST SWAP2 POP POP SWAP3 SWAP2 POP POP JUMP JUMPDEST PUSH0 DUP1 PUSH0 DUP1 PUSH0 PUSH1 0xA0 DUP7 DUP9 SUB SLT ISZERO PUSH2 0x355E JUMPI PUSH2 0x355D PUSH2 0x3094 JUMP JUMPDEST JUMPDEST PUSH0 PUSH2 0x356B DUP9 DUP3 DUP10 ADD PUSH2 0x30E2 JUMP JUMPDEST SWAP6 POP POP PUSH1 0x20 PUSH2 0x357C DUP9 DUP3 DUP10 ADD PUSH2 0x30E2 JUMP JUMPDEST SWAP5 POP POP PUSH1 0x40 DUP7 ADD CALLDATALOAD PUSH8 0xFFFFFFFFFFFFFFFF DUP2 GT ISZERO PUSH2 0x359D JUMPI PUSH2 0x359C PUSH2 0x3098 JUMP JUMPDEST JUMPDEST PUSH2 0x35A9 DUP9 DUP3 DUP10 ADD PUSH2 0x3468 JUMP JUMPDEST SWAP4 POP POP PUSH1 0x60 DUP7 ADD CALLDATALOAD PUSH8 0xFFFFFFFFFFFFFFFF DUP2 GT ISZERO PUSH2 0x35CA JUMPI PUSH2 0x35C9 PUSH2 0x3098 JUMP JUMPDEST JUMPDEST PUSH2 0x35D6 DUP9 DUP3 DUP10 ADD PUSH2 0x3468 JUMP JUMPDEST SWAP3 POP POP PUSH1 0x80 DUP7 ADD CALLDATALOAD PUSH8 0xFFFFFFFFFFFFFFFF DUP2 GT ISZERO PUSH2 0x35F7 JUMPI PUSH2 0x35F6 PUSH2 0x3098 JUMP JUMPDEST JUMPDEST PUSH2 0x3603 DUP9 DUP3 DUP10 ADD PUSH2 0x3518 JUMP JUMPDEST SWAP2 POP POP SWAP3 SWAP6 POP SWAP3 SWAP6 SWAP1 SWAP4 POP JUMP JUMPDEST PUSH0 PUSH8 0xFFFFFFFFFFFFFFFF DUP3 GT ISZERO PUSH2 0x362A JUMPI PUSH2 0x3629 PUSH2 0x3359 JUMP JUMPDEST JUMPDEST PUSH2 0x3633 DUP3 PUSH2 0x32AF JUMP JUMPDEST SWAP1 POP PUSH1 0x20 DUP2 ADD SWAP1 POP SWAP2 SWAP1 POP JUMP JUMPDEST PUSH0 PUSH2 0x3652 PUSH2 0x364D DUP5 PUSH2 0x3610 JUMP JUMPDEST PUSH2 0x33B7 JUMP JUMPDEST SWAP1 POP DUP3 DUP2 MSTORE PUSH1 0x20 DUP2 ADD DUP5 DUP5 DUP5 ADD GT ISZERO PUSH2 0x366E JUMPI PUSH2 0x366D PUSH2 0x3495 JUMP JUMPDEST JUMPDEST PUSH2 0x3679 DUP5 DUP3 DUP6 PUSH2 0x34C9 JUMP JUMPDEST POP SWAP4 SWAP3 POP POP POP JUMP JUMPDEST PUSH0 DUP3 PUSH1 0x1F DUP4 ADD SLT PUSH2 0x3695 JUMPI PUSH2 0x3694 PUSH2 0x3355 JUMP JUMPDEST JUMPDEST DUP2 CALLDATALOAD PUSH2 0x36A5 DUP5 DUP3 PUSH1 0x20 DUP7 ADD PUSH2 0x3640 JUMP JUMPDEST SWAP2 POP POP SWAP3 SWAP2 POP POP JUMP JUMPDEST PUSH0 PUSH1 0x20 DUP3 DUP5 SUB SLT ISZERO PUSH2 0x36C3 JUMPI PUSH2 0x36C2 PUSH2 0x3094 JUMP JUMPDEST JUMPDEST PUSH0 DUP3 ADD CALLDATALOAD PUSH8 0xFFFFFFFFFFFFFFFF DUP2 GT ISZERO PUSH2 0x36E0 JUMPI PUSH2 0x36DF PUSH2 0x3098 JUMP JUMPDEST JUMPDEST PUSH2 0x36EC DUP5 DUP3 DUP6 ADD PUSH2 0x3681 JUMP JUMPDEST SWAP2 POP POP SWAP3 SWAP2 POP POP JUMP JUMPDEST PUSH0 PUSH8 0xFFFFFFFFFFFFFFFF DUP3 GT ISZERO PUSH2 0x370F JUMPI PUSH2 0x370E PUSH2 0x3359 JUMP JUMPDEST JUMPDEST PUSH1 0x20 DUP3 MUL SWAP1 POP PUSH1 0x20 DUP2 ADD SWAP1 POP SWAP2 SWAP1 POP JUMP JUMPDEST PUSH0 PUSH2 0x3732 PUSH2 0x372D DUP5 PUSH2 0x36F5 JUMP JUMPDEST PUSH2 0x33B7 JUMP JUMPDEST SWAP1 POP DUP1 DUP4 DUP3 MSTORE PUSH1 0x20 DUP3 ADD SWAP1 POP PUSH1 0x20 DUP5 MUL DUP4 ADD DUP6 DUP2 GT ISZERO PUSH2 0x3755 JUMPI PUSH2 0x3754 PUSH2 0x33FC JUMP JUMPDEST JUMPDEST DUP4 JUMPDEST DUP2 DUP2 LT ISZERO PUSH2 0x377E JUMPI DUP1 PUSH2 0x376A DUP9 DUP3 PUSH2 0x30E2 JUMP JUMPDEST DUP5 MSTORE PUSH1 0x20 DUP5 ADD SWAP4 POP POP PUSH1 0x20 DUP2 ADD SWAP1 POP PUSH2 0x3757 JUMP JUMPDEST POP POP POP SWAP4 SWAP3 POP POP POP JUMP JUMPDEST PUSH0 DUP3 PUSH1 0x1F DUP4 ADD SLT PUSH2 0x379C JUMPI PUSH2 0x379B PUSH2 0x3355 JUMP JUMPDEST JUMPDEST DUP2 CALLDATALOAD PUSH2 0x37AC DUP5 DUP3 PUSH1 0x20 DUP7 ADD PUSH2 0x3720 JUMP JUMPDEST SWAP2 POP POP SWAP3 SWAP2 POP POP JUMP JUMPDEST PUSH0 DUP1 PUSH1 0x40 DUP4 DUP6 SUB SLT ISZERO PUSH2 0x37CB JUMPI PUSH2 0x37CA PUSH2 0x3094 JUMP JUMPDEST JUMPDEST PUSH0 DUP4 ADD CALLDATALOAD PUSH8 0xFFFFFFFFFFFFFFFF DUP2 GT ISZERO PUSH2 0x37E8 JUMPI PUSH2 0x37E7 PUSH2 0x3098 JUMP JUMPDEST JUMPDEST PUSH2 0x37F4 DUP6 DUP3 DUP7 ADD PUSH2 0x3788 JUMP JUMPDEST SWAP3 POP POP PUSH1 0x20 DUP4 ADD CALLDATALOAD PUSH8 0xFFFFFFFFFFFFFFFF DUP2 GT ISZERO PUSH2 0x3815 JUMPI PUSH2 0x3814 PUSH2 0x3098 JUMP JUMPDEST JUMPDEST PUSH2 0x3821 DUP6 DUP3 DUP7 ADD PUSH2 0x3468 JUMP JUMPDEST SWAP2 POP POP SWAP3 POP SWAP3 SWAP1 POP JUMP JUMPDEST PUSH0 DUP2 MLOAD SWAP1 POP SWAP2 SWAP1 POP JUMP JUMPDEST PUSH0 DUP3 DUP3 MSTORE PUSH1 0x20 DUP3 ADD SWAP1 POP SWAP3 SWAP2 POP POP JUMP JUMPDEST PUSH0 DUP2 SWAP1 POP PUSH1 0x20 DUP3 ADD SWAP1 POP SWAP2 SWAP1 POP JUMP JUMPDEST PUSH2 0x385D DUP2 PUSH2 0x30F6 JUMP JUMPDEST DUP3 MSTORE POP POP JUMP JUMPDEST PUSH0 PUSH2 0x386E DUP4 DUP4 PUSH2 0x3854 JUMP JUMPDEST PUSH1 0x20 DUP4 ADD SWAP1 POP SWAP3 SWAP2 POP POP JUMP JUMPDEST PUSH0 PUSH1 0x20 DUP3 ADD SWAP1 POP SWAP2 SWAP1 POP JUMP JUMPDEST PUSH0 PUSH2 0x3890 DUP3 PUSH2 0x382B JUMP JUMPDEST PUSH2 0x389A DUP2 DUP6 PUSH2 0x3835 JUMP JUMPDEST SWAP4 POP PUSH2 0x38A5 DUP4 PUSH2 0x3845 JUMP JUMPDEST DUP1 PUSH0 JUMPDEST DUP4 DUP2 LT ISZERO PUSH2 0x38D5 JUMPI DUP2 MLOAD PUSH2 0x38BC DUP9 DUP3 PUSH2 0x3863 JUMP JUMPDEST SWAP8 POP PUSH2 0x38C7 DUP4 PUSH2 0x387A JUMP JUMPDEST SWAP3 POP POP PUSH1 0x1 DUP2 ADD SWAP1 POP PUSH2 0x38A8 JUMP JUMPDEST POP DUP6 SWAP4 POP POP POP POP SWAP3 SWAP2 POP POP JUMP JUMPDEST PUSH0 PUSH1 0x20 DUP3 ADD SWAP1 POP DUP2 DUP2 SUB PUSH0 DUP4 ADD MSTORE PUSH2 0x38FA DUP2 DUP5 PUSH2 0x3886 JUMP JUMPDEST SWAP1 POP SWAP3 SWAP2 POP POP JUMP JUMPDEST PUSH0 DUP1 PUSH0 PUSH1 0x60 DUP5 DUP7 SUB SLT ISZERO PUSH2 0x3919 JUMPI PUSH2 0x3918 PUSH2 0x3094 JUMP JUMPDEST JUMPDEST PUSH0 PUSH2 0x3926 DUP7 DUP3 DUP8 ADD PUSH2 0x30E2 JUMP JUMPDEST SWAP4 POP POP PUSH1 0x20 DUP5 ADD CALLDATALOAD PUSH8 0xFFFFFFFFFFFFFFFF DUP2 GT ISZERO PUSH2 0x3947 JUMPI PUSH2 0x3946 PUSH2 0x3098 JUMP JUMPDEST JUMPDEST PUSH2 0x3953 DUP7 DUP3 DUP8 ADD PUSH2 0x3468 JUMP JUMPDEST SWAP3 POP POP PUSH1 0x40 DUP5 ADD CALLDATALOAD PUSH8 0xFFFFFFFFFFFFFFFF DUP2 GT ISZERO PUSH2 0x3974 JUMPI PUSH2 0x3973 PUSH2 0x3098 JUMP JUMPDEST JUMPDEST PUSH2 0x3980 DUP7 DUP3 DUP8 ADD PUSH2 0x3468 JUMP JUMPDEST SWAP2 POP POP SWAP3 POP SWAP3 POP SWAP3 JUMP JUMPDEST PUSH2 0x3993 DUP2 PUSH2 0x30BB JUMP JUMPDEST DUP3 MSTORE POP POP JUMP JUMPDEST PUSH0 PUSH1 0x20 DUP3 ADD SWAP1 POP PUSH2 0x39AC PUSH0 DUP4 ADD DUP5 PUSH2 0x398A JUMP JUMPDEST SWAP3 SWAP2 POP POP JUMP JUMPDEST PUSH2 0x39BB DUP2 PUSH2 0x320F JUMP JUMPDEST DUP2 EQ PUSH2 0x39C5 JUMPI PUSH0 DUP1 REVERT JUMPDEST POP JUMP JUMPDEST PUSH0 DUP2 CALLDATALOAD SWAP1 POP PUSH2 0x39D6 DUP2 PUSH2 0x39B2 JUMP JUMPDEST SWAP3 SWAP2 POP POP JUMP JUMPDEST PUSH0 DUP1 PUSH1 0x40 DUP4 DUP6 SUB SLT ISZERO PUSH2 0x39F2 JUMPI PUSH2 0x39F1 PUSH2 0x3094 JUMP JUMPDEST JUMPDEST PUSH0 PUSH2 0x39FF DUP6 DUP3 DUP7 ADD PUSH2 0x30E2 JUMP JUMPDEST SWAP3 POP POP PUSH1 0x20 PUSH2 0x3A10 DUP6 DUP3 DUP7 ADD PUSH2 0x39C8 JUMP JUMPDEST SWAP2 POP POP SWAP3 POP SWAP3 SWAP1 POP JUMP JUMPDEST PUSH0 DUP1 PUSH0 DUP1 PUSH1 0x80 DUP6 DUP8 SUB SLT ISZERO PUSH2 0x3A32 JUMPI PUSH2 0x3A31 PUSH2 0x3094 JUMP JUMPDEST JUMPDEST PUSH0 PUSH2 0x3A3F DUP8 DUP3 DUP9 ADD PUSH2 0x3115 JUMP JUMPDEST SWAP5 POP POP PUSH1 0x20 DUP6 ADD CALLDATALOAD PUSH8 0xFFFFFFFFFFFFFFFF DUP2 GT ISZERO PUSH2 0x3A60 JUMPI PUSH2 0x3A5F PUSH2 0x3098 JUMP JUMPDEST JUMPDEST PUSH2 0x3A6C DUP8 DUP3 DUP9 ADD PUSH2 0x3681 JUMP JUMPDEST SWAP4 POP POP PUSH1 0x40 PUSH2 0x3A7D DUP8 DUP3 DUP9 ADD PUSH2 0x3115 JUMP JUMPDEST SWAP3 POP POP PUSH1 0x60 PUSH2 0x3A8E DUP8 DUP3 DUP9 ADD PUSH2 0x3115 JUMP JUMPDEST SWAP2 POP POP SWAP3 SWAP6 SWAP2 SWAP5 POP SWAP3 POP JUMP JUMPDEST PUSH0 DUP1 PUSH1 0x40 DUP4 DUP6 SUB SLT ISZERO PUSH2 0x3AB0 JUMPI PUSH2 0x3AAF PUSH2 0x3094 JUMP JUMPDEST JUMPDEST PUSH0 PUSH2 0x3ABD DUP6 DUP3 DUP7 ADD PUSH2 0x30E2 JUMP JUMPDEST SWAP3 POP POP PUSH1 0x20 PUSH2 0x3ACE DUP6 DUP3 DUP7 ADD PUSH2 0x30E2 JUMP JUMPDEST SWAP2 POP POP SWAP3 POP SWAP3 SWAP1 POP JUMP JUMPDEST PUSH0 DUP1 PUSH0 DUP1 PUSH0 PUSH1 0xA0 DUP7 DUP9 SUB SLT ISZERO PUSH2 0x3AF1 JUMPI PUSH2 0x3AF0 PUSH2 0x3094 JUMP JUMPDEST JUMPDEST PUSH0 PUSH2 0x3AFE DUP9 DUP3 DUP10 ADD PUSH2 0x30E2 JUMP JUMPDEST SWAP6 POP POP PUSH1 0x20 PUSH2 0x3B0F DUP9 DUP3 DUP10 ADD PUSH2 0x30E2 JUMP JUMPDEST SWAP5 POP POP PUSH1 0x40 PUSH2 0x3B20 DUP9 DUP3 DUP10 ADD PUSH2 0x3115 JUMP JUMPDEST SWAP4 POP POP PUSH1 0x60 PUSH2 0x3B31 DUP9 DUP3 DUP10 ADD PUSH2 0x3115 JUMP JUMPDEST SWAP3 POP POP PUSH1 0x80 DUP7 ADD CALLDATALOAD PUSH8 0xFFFFFFFFFFFFFFFF DUP2 GT ISZERO PUSH2 0x3B52 JUMPI PUSH2 0x3B51 PUSH2 0x3098 JUMP JUMPDEST JUMPDEST PUSH2 0x3B5E DUP9 DUP3 DUP10 ADD PUSH2 0x3518 JUMP JUMPDEST SWAP2 POP POP SWAP3 SWAP6 POP SWAP3 SWAP6 SWAP1 SWAP4 POP JUMP JUMPDEST PUSH0 PUSH1 0x20 DUP3 DUP5 SUB SLT ISZERO PUSH2 0x3B80 JUMPI PUSH2 0x3B7F PUSH2 0x3094 JUMP JUMPDEST JUMPDEST PUSH0 PUSH2 0x3B8D DUP5 DUP3 DUP6 ADD PUSH2 0x30E2 JUMP JUMPDEST SWAP2 POP POP SWAP3 SWAP2 POP POP JUMP JUMPDEST PUSH0 DUP1 PUSH0 PUSH1 0x60 DUP5 DUP7 SUB SLT ISZERO PUSH2 0x3BAD JUMPI PUSH2 0x3BAC PUSH2 0x3094 JUMP JUMPDEST JUMPDEST PUSH0 PUSH2 0x3BBA DUP7 DUP3 DUP8 ADD PUSH2 0x30E2 JUMP JUMPDEST SWAP4 POP POP PUSH1 0x20 PUSH2 0x3BCB DUP7 DUP3 DUP8 ADD PUSH2 0x3115 JUMP JUMPDEST SWAP3 POP POP PUSH1 0x40 PUSH2 0x3BDC DUP7 DUP3 DUP8 ADD PUSH2 0x3115 JUMP JUMPDEST SWAP2 POP POP SWAP3 POP SWAP3 POP SWAP3 JUMP JUMPDEST PUSH32 0x455243313135353A2061646472657373207A65726F206973206E6F7420612076 PUSH0 DUP3 ADD MSTORE PUSH32 0x616C6964206F776E657200000000000000000000000000000000000000000000 PUSH1 0x20 DUP3 ADD MSTORE POP JUMP JUMPDEST PUSH0 PUSH2 0x3C40 PUSH1 0x2A DUP4 PUSH2 0x3277 JUMP JUMPDEST SWAP2 POP PUSH2 0x3C4B DUP3 PUSH2 0x3BE6 JUMP JUMPDEST PUSH1 0x40 DUP3 ADD SWAP1 POP SWAP2 SWAP1 POP JUMP JUMPDEST PUSH0 PUSH1 0x20 DUP3 ADD SWAP1 POP DUP2 DUP2 SUB PUSH0 DUP4 ADD MSTORE PUSH2 0x3C6D DUP2 PUSH2 0x3C34 JUMP JUMPDEST SWAP1 POP SWAP2 SWAP1 POP JUMP JUMPDEST PUSH32 0x4E487B7100000000000000000000000000000000000000000000000000000000 PUSH0 MSTORE PUSH1 0x22 PUSH1 0x4 MSTORE PUSH1 0x24 PUSH0 REVERT JUMPDEST PUSH0 PUSH1 0x2 DUP3 DIV SWAP1 POP PUSH1 0x1 DUP3 AND DUP1 PUSH2 0x3CB8 JUMPI PUSH1 0x7F DUP3 AND SWAP2 POP JUMPDEST PUSH1 0x20 DUP3 LT DUP2 SUB PUSH2 0x3CCB JUMPI PUSH2 0x3CCA PUSH2 0x3C74 JUMP JUMPDEST JUMPDEST POP SWAP2 SWAP1 POP JUMP JUMPDEST PUSH0 DUP2 SWAP1 POP SWAP3 SWAP2 POP POP JUMP JUMPDEST PUSH0 DUP2 SWAP1 POP DUP2 PUSH0 MSTORE PUSH1 0x20 PUSH0 KECCAK256 SWAP1 POP SWAP2 SWAP1 POP JUMP JUMPDEST PUSH0 DUP2 SLOAD PUSH2 0x3CF9 DUP2 PUSH2 0x3CA1 JUMP JUMPDEST PUSH2 0x3D03 DUP2 DUP7 PUSH2 0x3CD1 JUMP JUMPDEST SWAP5 POP PUSH1 0x1 DUP3 AND PUSH0 DUP2 EQ PUSH2 0x3D1D JUMPI PUSH1 0x1 DUP2 EQ PUSH2 0x3D32 JUMPI PUSH2 0x3D64 JUMP JUMPDEST PUSH1 0xFF NOT DUP4 AND DUP7 MSTORE DUP2 ISZERO ISZERO DUP3 MUL DUP7 ADD SWAP4 POP PUSH2 0x3D64 JUMP JUMPDEST PUSH2 0x3D3B DUP6 PUSH2 0x3CDB JUMP JUMPDEST PUSH0 JUMPDEST DUP4 DUP2 LT ISZERO PUSH2 0x3D5C JUMPI DUP2 SLOAD DUP2 DUP10 ADD MSTORE PUSH1 0x1 DUP3 ADD SWAP2 POP PUSH1 0x20 DUP2 ADD SWAP1 POP PUSH2 0x3D3D JUMP JUMPDEST DUP4 DUP9 ADD SWAP6 POP POP POP JUMPDEST POP POP POP SWAP3 SWAP2 POP POP JUMP JUMPDEST PUSH0 PUSH2 0x3D77 DUP3 PUSH2 0x326D JUMP JUMPDEST PUSH2 0x3D81 DUP2 DUP6 PUSH2 0x3CD1 JUMP JUMPDEST SWAP4 POP PUSH2 0x3D91 DUP2 DUP6 PUSH1 0x20 DUP7 ADD PUSH2 0x3287 JUMP JUMPDEST DUP1 DUP5 ADD SWAP2 POP POP SWAP3 SWAP2 POP POP JUMP JUMPDEST PUSH0 PUSH2 0x3DA8 DUP3 DUP6 PUSH2 0x3CED JUMP JUMPDEST SWAP2 POP PUSH2 0x3DB4 DUP3 DUP5 PUSH2 0x3D6D JUMP JUMPDEST SWAP2 POP DUP2 SWAP1 POP SWAP4 SWAP3 POP POP POP JUMP JUMPDEST PUSH32 0x496E76616C6964204E4654207479706500000000000000000000000000000000 PUSH0 DUP3 ADD MSTORE POP JUMP JUMPDEST PUSH0 PUSH2 0x3DF4 PUSH1 0x10 DUP4 PUSH2 0x3277 JUMP JUMPDEST SWAP2 POP PUSH2 0x3DFF DUP3 PUSH2 0x3DC0 JUMP JUMPDEST PUSH1 0x20 DUP3 ADD SWAP1 POP SWAP2 SWAP1 POP JUMP JUMPDEST PUSH0 PUSH1 0x20 DUP3 ADD SWAP1 POP DUP2 DUP2 SUB PUSH0 DUP4 ADD MSTORE PUSH2 0x3E21 DUP2 PUSH2 0x3DE8 JUMP JUMPDEST SWAP1 POP SWAP2 SWAP1 POP JUMP JUMPDEST PUSH32 0x416D6F756E74206D7573742062652067726561746572207468616E207A65726F PUSH0 DUP3 ADD MSTORE POP JUMP JUMPDEST PUSH0 PUSH2 0x3E5C PUSH1 0x20 DUP4 PUSH2 0x3277 JUMP JUMPDEST SWAP2 POP PUSH2 0x3E67 DUP3 PUSH2 0x3E28 JUMP JUMPDEST PUSH1 0x20 DUP3 ADD SWAP1 POP SWAP2 SWAP1 POP JUMP JUMPDEST PUSH0 PUSH1 0x20 DUP3 ADD SWAP1 POP DUP2 DUP2 SUB PUSH0 DUP4 ADD MSTORE PUSH2 0x3E89 DUP2 PUSH2 0x3E50 JUMP JUMPDEST SWAP1 POP SWAP2 SWAP1 POP JUMP JUMPDEST PUSH32 0x4D617820737570706C7920726561636865640000000000000000000000000000 PUSH0 DUP3 ADD MSTORE POP JUMP JUMPDEST PUSH0 PUSH2 0x3EC4 PUSH1 0x12 DUP4 PUSH2 0x3277 JUMP JUMPDEST SWAP2 POP PUSH2 0x3ECF DUP3 PUSH2 0x3E90 JUMP JUMPDEST PUSH1 0x20 DUP3 ADD SWAP1 POP SWAP2 SWAP1 POP JUMP JUMPDEST PUSH0 PUSH1 0x20 DUP3 ADD SWAP1 POP DUP2 DUP2 SUB PUSH0 DUP4 ADD MSTORE PUSH2 0x3EF1 DUP2 PUSH2 0x3EB8 JUMP JUMPDEST SWAP1 POP SWAP2 SWAP1 POP JUMP JUMPDEST PUSH32 0x455243313135353A2063616C6C6572206973206E6F7420746F6B656E206F776E PUSH0 DUP3 ADD MSTORE PUSH32 0x6572206F7220617070726F766564000000000000000000000000000000000000 PUSH1 0x20 DUP3 ADD MSTORE POP JUMP JUMPDEST PUSH0 PUSH2 0x3F52 PUSH1 0x2E DUP4 PUSH2 0x3277 JUMP JUMPDEST SWAP2 POP PUSH2 0x3F5D DUP3 PUSH2 0x3EF8 JUMP JUMPDEST PUSH1 0x40 DUP3 ADD SWAP1 POP SWAP2 SWAP1 POP JUMP JUMPDEST PUSH0 PUSH1 0x20 DUP3 ADD SWAP1 POP DUP2 DUP2 SUB PUSH0 DUP4 ADD MSTORE PUSH2 0x3F7F DUP2 PUSH2 0x3F46 JUMP JUMPDEST SWAP1 POP SWAP2 SWAP1 POP JUMP JUMPDEST PUSH0 PUSH1 0x20 PUSH1 0x1F DUP4 ADD DIV SWAP1 POP SWAP2 SWAP1 POP JUMP JUMPDEST PUSH0 DUP3 DUP3 SHL SWAP1 POP SWAP3 SWAP2 POP POP JUMP JUMPDEST PUSH0 PUSH1 0x8 DUP4 MUL PUSH2 0x3FD0 PUSH32 0xFFFFFFFFFFFFFFFFFFFFFFFFFFFFFFFFFFFFFFFFFFFFFFFFFFFFFFFFFFFFFFFF DUP3 PUSH2 0x3F95 JUMP JUMPDEST PUSH2 0x3FDA DUP7 DUP4 PUSH2 0x3F95 JUMP JUMPDEST SWAP6 POP DUP1 NOT DUP5 AND SWAP4 POP DUP1 DUP7 AND DUP5 OR SWAP3 POP POP POP SWAP4 SWAP3 POP POP POP JUMP JUMPDEST PUSH0 DUP2 SWAP1 POP SWAP2 SWAP1 POP JUMP JUMPDEST PUSH0 PUSH2 0x4015 PUSH2 0x4010 PUSH2 0x400B DUP5 PUSH2 0x30F6 JUMP JUMPDEST PUSH2 0x3FF2 JUMP JUMPDEST PUSH2 0x30F6 JUMP JUMPDEST SWAP1 POP SWAP2 SWAP1 POP JUMP JUMPDEST PUSH0 DUP2 SWAP1 POP SWAP2 SWAP1 POP JUMP JUMPDEST PUSH2 0x402E DUP4 PUSH2 0x3FFB JUMP JUMPDEST PUSH2 0x4042 PUSH2 0x403A DUP3 PUSH2 0x401C JUMP JUMPDEST DUP5 DUP5 SLOAD PUSH2 0x3FA1 JUMP JUMPDEST DUP3 SSTORE POP POP POP POP JUMP JUMPDEST PUSH0 SWAP1 JUMP JUMPDEST PUSH2 0x4056 PUSH2 0x404A JUMP JUMPDEST PUSH2 0x4061 DUP2 DUP5 DUP5 PUSH2 0x4025 JUMP JUMPDEST POP POP POP JUMP JUMPDEST JUMPDEST DUP2 DUP2 LT ISZERO PUSH2 0x4084 JUMPI PUSH2 0x4079 PUSH0 DUP3 PUSH2 0x404E JUMP JUMPDEST PUSH1 0x1 DUP2 ADD SWAP1 POP PUSH2 0x4067 JUMP JUMPDEST POP POP JUMP JUMPDEST PUSH1 0x1F DUP3 GT ISZERO PUSH2 0x40C9 JUMPI PUSH2 0x409A DUP2 PUSH2 0x3CDB JUMP JUMPDEST PUSH2 0x40A3 DUP5 PUSH2 0x3F86 JUMP JUMPDEST DUP2 ADD PUSH1 0x20 DUP6 LT ISZERO PUSH2 0x40B2 JUMPI DUP2 SWAP1 POP JUMPDEST PUSH2 0x40C6 PUSH2 0x40BE DUP6 PUSH2 0x3F86 JUMP JUMPDEST DUP4 ADD DUP3 PUSH2 0x4066 JUMP JUMPDEST POP POP JUMPDEST POP POP POP JUMP JUMPDEST PUSH0 DUP3 DUP3 SHR SWAP1 POP SWAP3 SWAP2 POP POP JUMP JUMPDEST PUSH0 PUSH2 0x40E9 PUSH0 NOT DUP5 PUSH1 0x8 MUL PUSH2 0x40CE JUMP JUMPDEST NOT DUP1 DUP4 AND SWAP2 POP POP SWAP3 SWAP2 POP POP JUMP JUMPDEST PUSH0 PUSH2 0x4101 DUP4 DUP4 PUSH2 0x40DA JUMP JUMPDEST SWAP2 POP DUP3 PUSH1 0x2 MUL DUP3 OR SWAP1 POP SWAP3 SWAP2 POP POP JUMP JUMPDEST PUSH2 0x411A DUP3 PUSH2 0x326D JUMP JUMPDEST PUSH8 0xFFFFFFFFFFFFFFFF DUP2 GT ISZERO PUSH2 0x4133 JUMPI PUSH2 0x4132 PUSH2 0x3359 JUMP JUMPDEST JUMPDEST PUSH2 0x413D DUP3 SLOAD PUSH2 0x3CA1 JUMP JUMPDEST PUSH2 0x4148 DUP3 DUP3 DUP6 PUSH2 0x4088 JUMP JUMPDEST PUSH0 PUSH1 0x20 SWAP1 POP PUSH1 0x1F DUP4 GT PUSH1 0x1 DUP2 EQ PUSH2 0x4179 JUMPI PUSH0 DUP5 ISZERO PUSH2 0x4167 JUMPI DUP3 DUP8 ADD MLOAD SWAP1 POP JUMPDEST PUSH2 0x4171 DUP6 DUP3 PUSH2 0x40F6 JUMP JUMPDEST DUP7 SSTORE POP PUSH2 0x41D8 JUMP JUMPDEST PUSH1 0x1F NOT DUP5 AND PUSH2 0x4187 DUP7 PUSH2 0x3CDB JUMP JUMPDEST PUSH0 JUMPDEST DUP3 DUP2 LT ISZERO PUSH2 0x41AE JUMPI DUP5 DUP10 ADD MLOAD DUP3 SSTORE PUSH1 0x1 DUP3 ADD SWAP2 POP PUSH1 0x20 DUP6 ADD SWAP5 POP PUSH1 0x20 DUP2 ADD SWAP1 POP PUSH2 0x4189 JUMP JUMPDEST DUP7 DUP4 LT ISZERO PUSH2 0x41CB JUMPI DUP5 DUP10 ADD MLOAD PUSH2 0x41C7 PUSH1 0x1F DUP10 AND DUP3 PUSH2 0x40DA JUMP JUMPDEST DUP4 SSTORE POP JUMPDEST PUSH1 0x1 PUSH1 0x2 DUP9 MUL ADD DUP9 SSTORE POP POP POP JUMPDEST POP POP POP POP POP POP JUMP JUMPDEST PUSH32 0x455243313135353A206163636F756E747320616E6420696473206C656E677468 PUSH0 DUP3 ADD MSTORE PUSH32 0x206D69736D617463680000000000000000000000000000000000000000000000 PUSH1 0x20 DUP3 ADD MSTORE POP JUMP JUMPDEST PUSH0 PUSH2 0x423A PUSH1 0x29 DUP4 PUSH2 0x3277 JUMP JUMPDEST SWAP2 POP PUSH2 0x4245 DUP3 PUSH2 0x41E0 JUMP JUMPDEST PUSH1 0x40 DUP3 ADD SWAP1 POP SWAP2 SWAP1 POP JUMP JUMPDEST PUSH0 PUSH1 0x20 DUP3 ADD SWAP1 POP DUP2 DUP2 SUB PUSH0 DUP4 ADD MSTORE PUSH2 0x4267 DUP2 PUSH2 0x422E JUMP JUMPDEST SWAP1 POP SWAP2 SWAP1 POP JUMP JUMPDEST PUSH32 0x4E487B7100000000000000000000000000000000000000000000000000000000 PUSH0 MSTORE PUSH1 0x32 PUSH1 0x4 MSTORE PUSH1 0x24 PUSH0 REVERT JUMPDEST PUSH32 0x4E487B7100000000000000000000000000000000000000000000000000000000 PUSH0 MSTORE PUSH1 0x11 PUSH1 0x4 MSTORE PUSH1 0x24 PUSH0 REVERT JUMPDEST PUSH0 PUSH2 0x42D2 DUP3 PUSH2 0x30F6 JUMP JUMPDEST SWAP2 POP PUSH32 0xFFFFFFFFFFFFFFFFFFFFFFFFFFFFFFFFFFFFFFFFFFFFFFFFFFFFFFFFFFFFFFFF DUP3 SUB PUSH2 0x4304 JUMPI PUSH2 0x4303 PUSH2 0x429B JUMP JUMPDEST JUMPDEST PUSH1 0x1 DUP3 ADD SWAP1 POP SWAP2 SWAP1 POP JUMP JUMPDEST PUSH0 PUSH2 0x4319 DUP3 PUSH2 0x30F6 JUMP JUMPDEST SWAP2 POP PUSH2 0x4324 DUP4 PUSH2 0x30F6 JUMP JUMPDEST SWAP3 POP DUP3 DUP3 SUB SWAP1 POP DUP2 DUP2 GT ISZERO PUSH2 0x433C JUMPI PUSH2 0x433B PUSH2 0x429B JUMP JUMPDEST JUMPDEST SWAP3 SWAP2 POP POP JUMP JUMPDEST PUSH32 0x4F776E61626C653A206E6577206F776E657220697320746865207A65726F2061 PUSH0 DUP3 ADD MSTORE PUSH32 0x6464726573730000000000000000000000000000000000000000000000000000 PUSH1 0x20 DUP3 ADD MSTORE POP JUMP JUMPDEST PUSH0 PUSH2 0x439C PUSH1 0x26 DUP4 PUSH2 0x3277 JUMP JUMPDEST SWAP2 POP PUSH2 0x43A7 DUP3 PUSH2 0x4342 JUMP JUMPDEST PUSH1 0x40 DUP3 ADD SWAP1 POP SWAP2 SWAP1 POP JUMP JUMPDEST PUSH0 PUSH1 0x20 DUP3 ADD SWAP1 POP DUP2 DUP2 SUB PUSH0 DUP4 ADD MSTORE PUSH2 0x43C9 DUP2 PUSH2 0x4390 JUMP JUMPDEST SWAP1 POP SWAP2 SWAP1 POP JUMP JUMPDEST PUSH32 0x496E697469616C697A61626C653A20636F6E747261637420697320616C726561 PUSH0 DUP3 ADD MSTORE PUSH32 0x647920696E697469616C697A6564000000000000000000000000000000000000 PUSH1 0x20 DUP3 ADD MSTORE POP JUMP JUMPDEST PUSH0 PUSH2 0x442A PUSH1 0x2E DUP4 PUSH2 0x3277 JUMP JUMPDEST SWAP2 POP PUSH2 0x4435 DUP3 PUSH2 0x43D0 JUMP JUMPDEST PUSH1 0x40 DUP3 ADD SWAP1 POP SWAP2 SWAP1 POP JUMP JUMPDEST PUSH0 PUSH1 0x20 DUP3 ADD SWAP1 POP DUP2 DUP2 SUB PUSH0 DUP4 ADD MSTORE PUSH2 0x4457 DUP2 PUSH2 0x441E JUMP JUMPDEST SWAP1 POP SWAP2 SWAP1 POP JUMP JUMPDEST PUSH0 DUP2 SWAP1 POP SWAP2 SWAP1 POP JUMP JUMPDEST PUSH0 PUSH1 0xFF DUP3 AND SWAP1 POP SWAP2 SWAP1 POP JUMP JUMPDEST PUSH0 PUSH2 0x448D PUSH2 0x4488 PUSH2 0x4483 DUP5 PUSH2 0x445E JUMP JUMPDEST PUSH2 0x3FF2 JUMP JUMPDEST PUSH2 0x4467 JUMP JUMPDEST SWAP1 POP SWAP2 SWAP1 POP JUMP JUMPDEST PUSH2 0x449D DUP2 PUSH2 0x4473 JUMP JUMPDEST DUP3 MSTORE POP POP JUMP JUMPDEST PUSH0 PUSH1 0x20 DUP3 ADD SWAP1 POP PUSH2 0x44B6 PUSH0 DUP4 ADD DUP5 PUSH2 0x4494 JUMP JUMPDEST SWAP3 SWAP2 POP POP JUMP JUMPDEST PUSH32 0x4E487B7100000000000000000000000000000000000000000000000000000000 PUSH0 MSTORE PUSH1 0x12 PUSH1 0x4 MSTORE PUSH1 0x24 PUSH0 REVERT JUMPDEST PUSH32 0x4F776E61626C653A2063616C6C6572206973206E6F7420746865206F776E6572 PUSH0 DUP3 ADD MSTORE POP JUMP JUMPDEST PUSH0 PUSH2 0x451D PUSH1 0x20 DUP4 PUSH2 0x3277 JUMP JUMPDEST SWAP2 POP PUSH2 0x4528 DUP3 PUSH2 0x44E9 JUMP JUMPDEST PUSH1 0x20 DUP3 ADD SWAP1 POP SWAP2 SWAP1 POP JUMP JUMPDEST PUSH0 PUSH1 0x20 DUP3 ADD SWAP1 POP DUP2 DUP2 SUB PUSH0 DUP4 ADD MSTORE PUSH2 0x454A DUP2 PUSH2 0x4511 JUMP JUMPDEST SWAP1 POP SWAP2 SWAP1 POP JUMP JUMPDEST PUSH32 0x455243313135353A206D696E7420746F20746865207A65726F20616464726573 PUSH0 DUP3 ADD MSTORE PUSH32 0x7300000000000000000000000000000000000000000000000000000000000000 PUSH1 0x20 DUP3 ADD MSTORE POP JUMP JUMPDEST PUSH0 PUSH2 0x45AB PUSH1 0x21 DUP4 PUSH2 0x3277 JUMP JUMPDEST SWAP2 POP PUSH2 0x45B6 DUP3 PUSH2 0x4551 JUMP JUMPDEST PUSH1 0x40 DUP3 ADD SWAP1 POP SWAP2 SWAP1 POP JUMP JUMPDEST PUSH0 PUSH1 0x20 DUP3 ADD SWAP1 POP DUP2 DUP2 SUB PUSH0 DUP4 ADD MSTORE PUSH2 0x45D8 DUP2 PUSH2 0x459F JUMP JUMPDEST SWAP1 POP SWAP2 SWAP1 POP JUMP JUMPDEST PUSH0 PUSH2 0x45E9 DUP3 PUSH2 0x30F6 JUMP JUMPDEST SWAP2 POP PUSH2 0x45F4 DUP4 PUSH2 0x30F6 JUMP JUMPDEST SWAP3 POP DUP3 DUP3 ADD SWAP1 POP DUP1 DUP3 GT ISZERO PUSH2 0x460C JUMPI PUSH2 0x460B PUSH2 0x429B JUMP JUMPDEST JUMPDEST SWAP3 SWAP2 POP POP JUMP JUMPDEST PUSH0 PUSH1 0x40 DUP3 ADD SWAP1 POP PUSH2 0x4625 PUSH0 DUP4 ADD DUP6 PUSH2 0x3167 JUMP JUMPDEST PUSH2 0x4632 PUSH1 0x20 DUP4 ADD DUP5 PUSH2 0x3167 JUMP JUMPDEST SWAP4 SWAP3 POP POP POP JUMP JUMPDEST PUSH32 0x455243313135353A2069647320616E6420616D6F756E7473206C656E67746820 PUSH0 DUP3 ADD MSTORE PUSH32 0x6D69736D61746368000000000000000000000000000000000000000000000000 PUSH1 0x20 DUP3 ADD MSTORE POP JUMP JUMPDEST PUSH0 PUSH2 0x4693 PUSH1 0x28 DUP4 PUSH2 0x3277 JUMP JUMPDEST SWAP2 POP PUSH2 0x469E DUP3 PUSH2 0x4639 JUMP JUMPDEST PUSH1 0x40 DUP3 ADD SWAP1 POP SWAP2 SWAP1 POP JUMP JUMPDEST PUSH0 PUSH1 0x20 DUP3 ADD SWAP1 POP DUP2 DUP2 SUB PUSH0 DUP4 ADD MSTORE PUSH2 0x46C0 DUP2 PUSH2 0x4687 JUMP JUMPDEST SWAP1 POP SWAP2 SWAP1 POP JUMP JUMPDEST PUSH32 0x455243313135353A207472616E7366657220746F20746865207A65726F206164 PUSH0 DUP3 ADD MSTORE PUSH32 0x6472657373000000000000000000000000000000000000000000000000000000 PUSH1 0x20 DUP3 ADD MSTORE POP JUMP JUMPDEST PUSH0 PUSH2 0x4721 PUSH1 0x25 DUP4 PUSH2 0x3277 JUMP JUMPDEST SWAP2 POP PUSH2 0x472C DUP3 PUSH2 0x46C7 JUMP JUMPDEST PUSH1 0x40 DUP3 ADD SWAP1 POP SWAP2 SWAP1 POP JUMP JUMPDEST PUSH0 PUSH1 0x20 DUP3 ADD SWAP1 POP DUP2 DUP2 SUB PUSH0 DUP4 ADD MSTORE PUSH2 0x474E DUP2 PUSH2 0x4715 JUMP JUMPDEST SWAP1 POP SWAP2 SWAP1 POP JUMP JUMPDEST PUSH32 0x455243313135353A20696E73756666696369656E742062616C616E636520666F PUSH0 DUP3 ADD MSTORE PUSH32 0x72207472616E7366657200000000000000000000000000000000000000000000 PUSH1 0x20 DUP3 ADD MSTORE POP JUMP JUMPDEST PUSH0 PUSH2 0x47AF PUSH1 0x2A DUP4 PUSH2 0x3277 JUMP JUMPDEST SWAP2 POP PUSH2 0x47BA DUP3 PUSH2 0x4755 JUMP JUMPDEST PUSH1 0x40 DUP3 ADD SWAP1 POP SWAP2 SWAP1 POP JUMP JUMPDEST PUSH0 PUSH1 0x20 DUP3 ADD SWAP1 POP DUP2 DUP2 SUB PUSH0 DUP4 ADD MSTORE PUSH2 0x47DC DUP2 PUSH2 0x47A3 JUMP JUMPDEST SWAP1 POP SWAP2 SWAP1 POP JUMP JUMPDEST PUSH0 PUSH1 0x40 DUP3 ADD SWAP1 POP DUP2 DUP2 SUB PUSH0 DUP4 ADD MSTORE PUSH2 0x47FB DUP2 DUP6 PUSH2 0x3886 JUMP JUMPDEST SWAP1 POP DUP2 DUP2 SUB PUSH1 0x20 DUP4 ADD MSTORE PUSH2 0x480F DUP2 DUP5 PUSH2 0x3886 JUMP JUMPDEST SWAP1 POP SWAP4 SWAP3 POP POP POP JUMP JUMPDEST PUSH32 0x455243313135353A206275726E2066726F6D20746865207A65726F2061646472 PUSH0 DUP3 ADD MSTORE PUSH32 0x6573730000000000000000000000000000000000000000000000000000000000 PUSH1 0x20 DUP3 ADD MSTORE POP JUMP JUMPDEST PUSH0 PUSH2 0x4872 PUSH1 0x23 DUP4 PUSH2 0x3277 JUMP JUMPDEST SWAP2 POP PUSH2 0x487D DUP3 PUSH2 0x4818 JUMP JUMPDEST PUSH1 0x40 DUP3 ADD SWAP1 POP SWAP2 SWAP1 POP JUMP JUMPDEST PUSH0 PUSH1 0x20 DUP3 ADD SWAP1 POP DUP2 DUP2 SUB PUSH0 DUP4 ADD MSTORE PUSH2 0x489F DUP2 PUSH2 0x4866 JUMP JUMPDEST SWAP1 POP SWAP2 SWAP1 POP JUMP JUMPDEST PUSH32 0x455243313135353A206275726E20616D6F756E7420657863656564732062616C PUSH0 DUP3 ADD MSTORE PUSH32 0x616E636500000000000000000000000000000000000000000000000000000000 PUSH1 0x20 DUP3 ADD MSTORE POP JUMP JUMPDEST PUSH0 PUSH2 0x4900 PUSH1 0x24 DUP4 PUSH2 0x3277 JUMP JUMPDEST SWAP2 POP PUSH2 0x490B DUP3 PUSH2 0x48A6 JUMP JUMPDEST PUSH1 0x40 DUP3 ADD SWAP1 POP SWAP2 SWAP1 POP JUMP JUMPDEST PUSH0 PUSH1 0x20 DUP3 ADD SWAP1 POP DUP2 DUP2 SUB PUSH0 DUP4 ADD MSTORE PUSH2 0x492D DUP2 PUSH2 0x48F4 JUMP JUMPDEST SWAP1 POP SWAP2 SWAP1 POP JUMP JUMPDEST PUSH32 0x455243313135353A2073657474696E6720617070726F76616C20737461747573 PUSH0 DUP3 ADD MSTORE PUSH32 0x20666F722073656C660000000000000000000000000000000000000000000000 PUSH1 0x20 DUP3 ADD MSTORE POP JUMP JUMPDEST PUSH0 PUSH2 0x498E PUSH1 0x29 DUP4 PUSH2 0x3277 JUMP JUMPDEST SWAP2 POP PUSH2 0x4999 DUP3 PUSH2 0x4934 JUMP JUMPDEST PUSH1 0x40 DUP3 ADD SWAP1 POP SWAP2 SWAP1 POP JUMP JUMPDEST PUSH0 PUSH1 0x20 DUP3 ADD SWAP1 POP DUP2 DUP2 SUB PUSH0 DUP4 ADD MSTORE PUSH2 0x49BB DUP2 PUSH2 0x4982 JUMP JUMPDEST SWAP1 POP SWAP2 SWAP1 POP JUMP JUMPDEST PUSH32 0x496E697469616C697A61626C653A20636F6E7472616374206973206E6F742069 PUSH0 DUP3 ADD MSTORE PUSH32 0x6E697469616C697A696E67000000000000000000000000000000000000000000 PUSH1 0x20 DUP3 ADD MSTORE POP JUMP JUMPDEST PUSH0 PUSH2 0x4A1C PUSH1 0x2B DUP4 PUSH2 0x3277 JUMP JUMPDEST SWAP2 POP PUSH2 0x4A27 DUP3 PUSH2 0x49C2 JUMP JUMPDEST PUSH1 0x40 DUP3 ADD SWAP1 POP SWAP2 SWAP1 POP JUMP JUMPDEST PUSH0 PUSH1 0x20 DUP3 ADD SWAP1 POP DUP2 DUP2 SUB PUSH0 DUP4 ADD MSTORE PUSH2 0x4A49 DUP2 PUSH2 0x4A10 JUMP JUMPDEST SWAP1 POP SWAP2 SWAP1 POP JUMP JUMPDEST PUSH0 DUP2 MLOAD SWAP1 POP SWAP2 SWAP1 POP JUMP JUMPDEST PUSH0 DUP3 DUP3 MSTORE PUSH1 0x20 DUP3 ADD SWAP1 POP SWAP3 SWAP2 POP POP JUMP JUMPDEST PUSH0 PUSH2 0x4A74 DUP3 PUSH2 0x4A50 JUMP JUMPDEST PUSH2 0x4A7E DUP2 DUP6 PUSH2 0x4A5A JUMP JUMPDEST SWAP4 POP PUSH2 0x4A8E DUP2 DUP6 PUSH1 0x20 DUP7 ADD PUSH2 0x3287 JUMP JUMPDEST PUSH2 0x4A97 DUP2 PUSH2 0x32AF JUMP JUMPDEST DUP5 ADD SWAP2 POP POP SWAP3 SWAP2 POP POP JUMP JUMPDEST PUSH0 PUSH1 0xA0 DUP3 ADD SWAP1 POP PUSH2 0x4AB5 PUSH0 DUP4 ADD DUP9 PUSH2 0x398A JUMP JUMPDEST PUSH2 0x4AC2 PUSH1 0x20 DUP4 ADD DUP8 PUSH2 0x398A JUMP JUMPDEST PUSH2 0x4ACF PUSH1 0x40 DUP4 ADD DUP7 PUSH2 0x3167 JUMP JUMPDEST PUSH2 0x4ADC PUSH1 0x60 DUP4 ADD DUP6 PUSH2 0x3167 JUMP JUMPDEST DUP2 DUP2 SUB PUSH1 0x80 DUP4 ADD MSTORE PUSH2 0x4AEE DUP2 DUP5 PUSH2 0x4A6A JUMP JUMPDEST SWAP1 POP SWAP7 SWAP6 POP POP POP POP POP POP JUMP JUMPDEST PUSH0 DUP2 MLOAD SWAP1 POP PUSH2 0x4B08 DUP2 PUSH2 0x31BA JUMP JUMPDEST SWAP3 SWAP2 POP POP JUMP JUMPDEST PUSH0 PUSH1 0x20 DUP3 DUP5 SUB SLT ISZERO PUSH2 0x4B23 JUMPI PUSH2 0x4B22 PUSH2 0x3094 JUMP JUMPDEST JUMPDEST PUSH0 PUSH2 0x4B30 DUP5 DUP3 DUP6 ADD PUSH2 0x4AFA JUMP JUMPDEST SWAP2 POP POP SWAP3 SWAP2 POP POP JUMP JUMPDEST PUSH0 DUP2 PUSH1 0xE0 SHR SWAP1 POP SWAP2 SWAP1 POP JUMP JUMPDEST PUSH0 PUSH1 0x3 RETURNDATASIZE GT ISZERO PUSH2 0x4B61 JUMPI PUSH1 0x4 PUSH0 DUP1 RETURNDATACOPY PUSH2 0x4B5E PUSH0 MLOAD PUSH2 0x4B39 JUMP JUMPDEST SWAP1 POP JUMPDEST SWAP1 JUMP JUMPDEST PUSH0 PUSH1 0x44 RETURNDATASIZE LT PUSH2 0x4BF0 JUMPI PUSH2 0x4B75 PUSH2 0x308B JUMP JUMPDEST PUSH1 0x4 RETURNDATASIZE SUB PUSH1 0x4 DUP3 RETURNDATACOPY DUP1 MLOAD RETURNDATASIZE PUSH1 0x24 DUP3 ADD GT PUSH8 0xFFFFFFFFFFFFFFFF DUP3 GT OR ISZERO PUSH2 0x4B9D JUMPI POP POP PUSH2 0x4BF0 JUMP JUMPDEST DUP1 DUP3 ADD DUP1 MLOAD PUSH8 0xFFFFFFFFFFFFFFFF DUP2 GT ISZERO PUSH2 0x4BBB JUMPI POP POP POP POP PUSH2 0x4BF0 JUMP JUMPDEST DUP1 PUSH1 0x20 DUP4 ADD ADD PUSH1 0x4 RETURNDATASIZE SUB DUP6 ADD DUP2 GT ISZERO PUSH2 0x4BD8 JUMPI POP POP POP POP POP PUSH2 0x4BF0 JUMP JUMPDEST PUSH2 0x4BE7 DUP3 PUSH1 0x20 ADD DUP6 ADD DUP7 PUSH2 0x3386 JUMP JUMPDEST DUP3 SWAP6 POP POP POP POP POP POP JUMPDEST SWAP1 JUMP JUMPDEST PUSH32 0x455243313135353A207472616E7366657220746F206E6F6E2D45524331313535 PUSH0 DUP3 ADD MSTORE PUSH32 0x526563656976657220696D706C656D656E746572000000000000000000000000 PUSH1 0x20 DUP3 ADD MSTORE POP JUMP JUMPDEST PUSH0 PUSH2 0x4C4D PUSH1 0x34 DUP4 PUSH2 0x3277 JUMP JUMPDEST SWAP2 POP PUSH2 0x4C58 DUP3 PUSH2 0x4BF3 JUMP JUMPDEST PUSH1 0x40 DUP3 ADD SWAP1 POP SWAP2 SWAP1 POP JUMP JUMPDEST PUSH0 PUSH1 0x20 DUP3 ADD SWAP1 POP DUP2 DUP2 SUB PUSH0 DUP4 ADD MSTORE PUSH2 0x4C7A DUP2 PUSH2 0x4C41 JUMP JUMPDEST SWAP1 POP SWAP2 SWAP1 POP JUMP JUMPDEST PUSH32 0x455243313135353A204552433131353552656365697665722072656A65637465 PUSH0 DUP3 ADD MSTORE PUSH32 0x6420746F6B656E73000000000000000000000000000000000000000000000000 PUSH1 0x20 DUP3 ADD MSTORE POP JUMP JUMPDEST PUSH0 PUSH2 0x4CDB PUSH1 0x28 DUP4 PUSH2 0x3277 JUMP JUMPDEST SWAP2 POP PUSH2 0x4CE6 DUP3 PUSH2 0x4C81 JUMP JUMPDEST PUSH1 0x40 DUP3 ADD SWAP1 POP SWAP2 SWAP1 POP JUMP JUMPDEST PUSH0 PUSH1 0x20 DUP3 ADD SWAP1 POP DUP2 DUP2 SUB PUSH0 DUP4 ADD MSTORE PUSH2 0x4D08 DUP2 PUSH2 0x4CCF JUMP JUMPDEST SWAP1 POP SWAP2 SWAP1 POP JUMP JUMPDEST PUSH0 PUSH1 0xA0 DUP3 ADD SWAP1 POP PUSH2 0x4D22 PUSH0 DUP4 ADD DUP9 PUSH2 0x398A JUMP JUMPDEST PUSH2 0x4D2F PUSH1 0x20 DUP4 ADD DUP8 PUSH2 0x398A JUMP JUMPDEST DUP2 DUP2 SUB PUSH1 0x40 DUP4 ADD MSTORE PUSH2 0x4D41 DUP2 DUP7 PUSH2 0x3886 JUMP JUMPDEST SWAP1 POP DUP2 DUP2 SUB PUSH1 0x60 DUP4 ADD MSTORE PUSH2 0x4D55 DUP2 DUP6 PUSH2 0x3886 JUMP JUMPDEST SWAP1 POP DUP2 DUP2 SUB PUSH1 0x80 DUP4 ADD MSTORE PUSH2 0x4D69 DUP2 DUP5 PUSH2 0x4A6A JUMP JUMPDEST SWAP1 POP SWAP7 SWAP6 POP POP POP POP POP POP JUMP INVALID LOG2 PUSH5 0x6970667358 0x22 SLT KECCAK256 0xC2 0xE8 PUSH30 0xB73F222FF9AD0EEAE3728DAD857007692DA9D857DED6D85439050E063264 PUSH20 0x6F6C634300081400330000000000000000000000 "
		},
		"gasEstimates": {
			"creation": {
				"codeDepositCost": "3976600",
				"executionCost": "infinite",
				"totalCost": "infinite"
			},
			"external": {
				"MAX_SUPPLY_DEFAULT()": "436",
				"MAX_SUPPLY_FLAME()": "437",
				"MAX_SUPPLY_GROUNDED()": "392",
				"MAX_SUPPLY_LOW()": "416",
				"MAX_SUPPLY_LOWER()": "393",
				"TYPE_ALIVE()": "414",
				"TYPE_BE_BOLD()": "459",
				"TYPE_BREATH()": "370",
				"TYPE_CLAN()": "438",
				"TYPE_FIGHT()": "459",
				"TYPE_FLAME()": "371",
				"TYPE_GROUNDED()": "391",
				"TYPE_HELL()": "458",
				"TYPE_LEADER()": "392",
				"TYPE_ROOTED()": "459",
				"TYPE_ROYAL_LION()": "393",
				"TYPE_SILENCE()": "479",
				"TYPE_STING()": "480",
				"TYPE_TED()": "458",
				"TYPE_THUNDER()": "480",
				"TYPE_WING_OF_FREEDOM()": "415",
				"balanceOf(address,uint256)": "infinite",
				"balanceOfBatch(address[],uint256[])": "infinite",
				"burn(address,uint256,uint256)": "infinite",
				"burnBatch(address,uint256[],uint256[])": "infinite",
				"defineTypeNames()": "infinite",
				"initialize(string)": "infinite",
				"isApprovedForAll(address,address)": "infinite",
				"maxSupplies(uint256)": "infinite",
				"mint(uint256,uint256)": "infinite",
				"mintCosts(uint256)": "infinite",
				"owner()": "2560",
				"paused()": "2562",
				"renounceOwnership()": "30436",
				"safeBatchTransferFrom(address,address,uint256[],uint256[],bytes)": "infinite",
				"safeTransferFrom(address,address,uint256,uint256,bytes)": "infinite",
				"setApprovalForAll(address,bool)": "infinite",
				"setBaseTokenURI(string)": "infinite",
				"setNFTType(uint256,string,uint256,uint256)": "infinite",
				"supportsInterface(bytes4)": "832",
				"transferOwnership(address)": "30819",
				"typeNames(uint256)": "infinite",
				"uri(uint256)": "infinite"
			},
			"internal": {
				"getMaxSupply(uint256)": "281"
			}
		},
		"methodIdentifiers": {
			"MAX_SUPPLY_DEFAULT()": "6a5d48ca",
			"MAX_SUPPLY_FLAME()": "8a26cbfe",
			"MAX_SUPPLY_GROUNDED()": "52cb7901",
			"MAX_SUPPLY_LOW()": "074186b0",
			"MAX_SUPPLY_LOWER()": "20766729",
			"TYPE_ALIVE()": "cbeeee3f",
			"TYPE_BE_BOLD()": "4e7286bf",
			"TYPE_BREATH()": "4f4bcb99",
			"TYPE_CLAN()": "0d454388",
			"TYPE_FIGHT()": "30ed51c8",
			"TYPE_FLAME()": "3e007c1f",
			"TYPE_GROUNDED()": "f2f842cc",
			"TYPE_HELL()": "ea4df068",
			"TYPE_LEADER()": "8f754bce",
			"TYPE_ROOTED()": "8d0f7d36",
			"TYPE_ROYAL_LION()": "3fb0d0cb",
			"TYPE_SILENCE()": "f856cfe9",
			"TYPE_STING()": "706df796",
			"TYPE_TED()": "ac33e90e",
			"TYPE_THUNDER()": "ae19a59e",
			"TYPE_WING_OF_FREEDOM()": "89049a7f",
			"balanceOf(address,uint256)": "00fdd58e",
			"balanceOfBatch(address[],uint256[])": "4e1273f4",
			"burn(address,uint256,uint256)": "f5298aca",
			"burnBatch(address,uint256[],uint256[])": "6b20c454",
			"defineTypeNames()": "41620881",
			"initialize(string)": "f62d1888",
			"isApprovedForAll(address,address)": "e985e9c5",
			"maxSupplies(uint256)": "87962dcc",
			"mint(uint256,uint256)": "1b2ef1ca",
			"mintCosts(uint256)": "c70a2cf7",
			"owner()": "8da5cb5b",
			"paused()": "5c975abb",
			"renounceOwnership()": "715018a6",
			"safeBatchTransferFrom(address,address,uint256[],uint256[],bytes)": "2eb2c2d6",
			"safeTransferFrom(address,address,uint256,uint256,bytes)": "f242432a",
			"setApprovalForAll(address,bool)": "a22cb465",
			"setBaseTokenURI(string)": "30176e13",
			"setNFTType(uint256,string,uint256,uint256)": "c0019692",
			"supportsInterface(bytes4)": "01ffc9a7",
			"transferOwnership(address)": "f2fde38b",
			"typeNames(uint256)": "9732f1d5",
			"uri(uint256)": "0e89341c"
		}
	},
	"abi": [
		{
			"inputs": [],
			"stateMutability": "nonpayable",
			"type": "constructor"
		},
		{
			"anonymous": false,
			"inputs": [
				{
					"indexed": true,
					"internalType": "address",
					"name": "account",
					"type": "address"
				},
				{
					"indexed": true,
					"internalType": "address",
					"name": "operator",
					"type": "address"
				},
				{
					"indexed": false,
					"internalType": "bool",
					"name": "approved",
					"type": "bool"
				}
			],
			"name": "ApprovalForAll",
			"type": "event"
		},
		{
			"anonymous": false,
			"inputs": [
				{
					"indexed": false,
					"internalType": "uint8",
					"name": "version",
					"type": "uint8"
				}
			],
			"name": "Initialized",
			"type": "event"
		},
		{
			"anonymous": false,
			"inputs": [
				{
					"indexed": true,
					"internalType": "address",
					"name": "previousOwner",
					"type": "address"
				},
				{
					"indexed": true,
					"internalType": "address",
					"name": "newOwner",
					"type": "address"
				}
			],
			"name": "OwnershipTransferred",
			"type": "event"
		},
		{
			"anonymous": false,
			"inputs": [
				{
					"indexed": false,
					"internalType": "address",
					"name": "account",
					"type": "address"
				}
			],
			"name": "Paused",
			"type": "event"
		},
		{
			"anonymous": false,
			"inputs": [
				{
					"indexed": true,
					"internalType": "address",
					"name": "operator",
					"type": "address"
				},
				{
					"indexed": true,
					"internalType": "address",
					"name": "from",
					"type": "address"
				},
				{
					"indexed": true,
					"internalType": "address",
					"name": "to",
					"type": "address"
				},
				{
					"indexed": false,
					"internalType": "uint256[]",
					"name": "ids",
					"type": "uint256[]"
				},
				{
					"indexed": false,
					"internalType": "uint256[]",
					"name": "values",
					"type": "uint256[]"
				}
			],
			"name": "TransferBatch",
			"type": "event"
		},
		{
			"anonymous": false,
			"inputs": [
				{
					"indexed": true,
					"internalType": "address",
					"name": "operator",
					"type": "address"
				},
				{
					"indexed": true,
					"internalType": "address",
					"name": "from",
					"type": "address"
				},
				{
					"indexed": true,
					"internalType": "address",
					"name": "to",
					"type": "address"
				},
				{
					"indexed": false,
					"internalType": "uint256",
					"name": "id",
					"type": "uint256"
				},
				{
					"indexed": false,
					"internalType": "uint256",
					"name": "value",
					"type": "uint256"
				}
			],
			"name": "TransferSingle",
			"type": "event"
		},
		{
			"anonymous": false,
			"inputs": [
				{
					"indexed": false,
					"internalType": "string",
					"name": "value",
					"type": "string"
				},
				{
					"indexed": true,
					"internalType": "uint256",
					"name": "id",
					"type": "uint256"
				}
			],
			"name": "URI",
			"type": "event"
		},
		{
			"anonymous": false,
			"inputs": [
				{
					"indexed": false,
					"internalType": "address",
					"name": "account",
					"type": "address"
				}
			],
			"name": "Unpaused",
			"type": "event"
		},
		{
			"inputs": [],
			"name": "MAX_SUPPLY_DEFAULT",
			"outputs": [
				{
					"internalType": "uint256",
					"name": "",
					"type": "uint256"
				}
			],
			"stateMutability": "view",
			"type": "function"
		},
		{
			"inputs": [],
			"name": "MAX_SUPPLY_FLAME",
			"outputs": [
				{
					"internalType": "uint256",
					"name": "",
					"type": "uint256"
				}
			],
			"stateMutability": "view",
			"type": "function"
		},
		{
			"inputs": [],
			"name": "MAX_SUPPLY_GROUNDED",
			"outputs": [
				{
					"internalType": "uint256",
					"name": "",
					"type": "uint256"
				}
			],
			"stateMutability": "view",
			"type": "function"
		},
		{
			"inputs": [],
			"name": "MAX_SUPPLY_LOW",
			"outputs": [
				{
					"internalType": "uint256",
					"name": "",
					"type": "uint256"
				}
			],
			"stateMutability": "view",
			"type": "function"
		},
		{
			"inputs": [],
			"name": "MAX_SUPPLY_LOWER",
			"outputs": [
				{
					"internalType": "uint256",
					"name": "",
					"type": "uint256"
				}
			],
			"stateMutability": "view",
			"type": "function"
		},
		{
			"inputs": [],
			"name": "TYPE_ALIVE",
			"outputs": [
				{
					"internalType": "uint256",
					"name": "",
					"type": "uint256"
				}
			],
			"stateMutability": "view",
			"type": "function"
		},
		{
			"inputs": [],
			"name": "TYPE_BE_BOLD",
			"outputs": [
				{
					"internalType": "uint256",
					"name": "",
					"type": "uint256"
				}
			],
			"stateMutability": "view",
			"type": "function"
		},
		{
			"inputs": [],
			"name": "TYPE_BREATH",
			"outputs": [
				{
					"internalType": "uint256",
					"name": "",
					"type": "uint256"
				}
			],
			"stateMutability": "view",
			"type": "function"
		},
		{
			"inputs": [],
			"name": "TYPE_CLAN",
			"outputs": [
				{
					"internalType": "uint256",
					"name": "",
					"type": "uint256"
				}
			],
			"stateMutability": "view",
			"type": "function"
		},
		{
			"inputs": [],
			"name": "TYPE_FIGHT",
			"outputs": [
				{
					"internalType": "uint256",
					"name": "",
					"type": "uint256"
				}
			],
			"stateMutability": "view",
			"type": "function"
		},
		{
			"inputs": [],
			"name": "TYPE_FLAME",
			"outputs": [
				{
					"internalType": "uint256",
					"name": "",
					"type": "uint256"
				}
			],
			"stateMutability": "view",
			"type": "function"
		},
		{
			"inputs": [],
			"name": "TYPE_GROUNDED",
			"outputs": [
				{
					"internalType": "uint256",
					"name": "",
					"type": "uint256"
				}
			],
			"stateMutability": "view",
			"type": "function"
		},
		{
			"inputs": [],
			"name": "TYPE_HELL",
			"outputs": [
				{
					"internalType": "uint256",
					"name": "",
					"type": "uint256"
				}
			],
			"stateMutability": "view",
			"type": "function"
		},
		{
			"inputs": [],
			"name": "TYPE_LEADER",
			"outputs": [
				{
					"internalType": "uint256",
					"name": "",
					"type": "uint256"
				}
			],
			"stateMutability": "view",
			"type": "function"
		},
		{
			"inputs": [],
			"name": "TYPE_ROOTED",
			"outputs": [
				{
					"internalType": "uint256",
					"name": "",
					"type": "uint256"
				}
			],
			"stateMutability": "view",
			"type": "function"
		},
		{
			"inputs": [],
			"name": "TYPE_ROYAL_LION",
			"outputs": [
				{
					"internalType": "uint256",
					"name": "",
					"type": "uint256"
				}
			],
			"stateMutability": "view",
			"type": "function"
		},
		{
			"inputs": [],
			"name": "TYPE_SILENCE",
			"outputs": [
				{
					"internalType": "uint256",
					"name": "",
					"type": "uint256"
				}
			],
			"stateMutability": "view",
			"type": "function"
		},
		{
			"inputs": [],
			"name": "TYPE_STING",
			"outputs": [
				{
					"internalType": "uint256",
					"name": "",
					"type": "uint256"
				}
			],
			"stateMutability": "view",
			"type": "function"
		},
		{
			"inputs": [],
			"name": "TYPE_TED",
			"outputs": [
				{
					"internalType": "uint256",
					"name": "",
					"type": "uint256"
				}
			],
			"stateMutability": "view",
			"type": "function"
		},
		{
			"inputs": [],
			"name": "TYPE_THUNDER",
			"outputs": [
				{
					"internalType": "uint256",
					"name": "",
					"type": "uint256"
				}
			],
			"stateMutability": "view",
			"type": "function"
		},
		{
			"inputs": [],
			"name": "TYPE_WING_OF_FREEDOM",
			"outputs": [
				{
					"internalType": "uint256",
					"name": "",
					"type": "uint256"
				}
			],
			"stateMutability": "view",
			"type": "function"
		},
		{
			"inputs": [
				{
					"internalType": "address",
					"name": "account",
					"type": "address"
				},
				{
					"internalType": "uint256",
					"name": "id",
					"type": "uint256"
				}
			],
			"name": "balanceOf",
			"outputs": [
				{
					"internalType": "uint256",
					"name": "",
					"type": "uint256"
				}
			],
			"stateMutability": "view",
			"type": "function"
		},
		{
			"inputs": [
				{
					"internalType": "address[]",
					"name": "accounts",
					"type": "address[]"
				},
				{
					"internalType": "uint256[]",
					"name": "ids",
					"type": "uint256[]"
				}
			],
			"name": "balanceOfBatch",
			"outputs": [
				{
					"internalType": "uint256[]",
					"name": "",
					"type": "uint256[]"
				}
			],
			"stateMutability": "view",
			"type": "function"
		},
		{
			"inputs": [
				{
					"internalType": "address",
					"name": "account",
					"type": "address"
				},
				{
					"internalType": "uint256",
					"name": "id",
					"type": "uint256"
				},
				{
					"internalType": "uint256",
					"name": "value",
					"type": "uint256"
				}
			],
			"name": "burn",
			"outputs": [],
			"stateMutability": "nonpayable",
			"type": "function"
		},
		{
			"inputs": [
				{
					"internalType": "address",
					"name": "account",
					"type": "address"
				},
				{
					"internalType": "uint256[]",
					"name": "ids",
					"type": "uint256[]"
				},
				{
					"internalType": "uint256[]",
					"name": "values",
					"type": "uint256[]"
				}
			],
			"name": "burnBatch",
			"outputs": [],
			"stateMutability": "nonpayable",
			"type": "function"
		},
		{
			"inputs": [],
			"name": "defineTypeNames",
			"outputs": [],
			"stateMutability": "nonpayable",
			"type": "function"
		},
		{
			"inputs": [
				{
					"internalType": "string",
					"name": "baseTokenURI",
					"type": "string"
				}
			],
			"name": "initialize",
			"outputs": [],
			"stateMutability": "nonpayable",
			"type": "function"
		},
		{
			"inputs": [
				{
					"internalType": "address",
					"name": "account",
					"type": "address"
				},
				{
					"internalType": "address",
					"name": "operator",
					"type": "address"
				}
			],
			"name": "isApprovedForAll",
			"outputs": [
				{
					"internalType": "bool",
					"name": "",
					"type": "bool"
				}
			],
			"stateMutability": "view",
			"type": "function"
		},
		{
			"inputs": [
				{
					"internalType": "uint256",
					"name": "",
					"type": "uint256"
				}
			],
			"name": "maxSupplies",
			"outputs": [
				{
					"internalType": "uint256",
					"name": "",
					"type": "uint256"
				}
			],
			"stateMutability": "view",
			"type": "function"
		},
		{
			"inputs": [
				{
					"internalType": "uint256",
					"name": "id",
					"type": "uint256"
				},
				{
					"internalType": "uint256",
					"name": "amount",
					"type": "uint256"
				}
			],
			"name": "mint",
			"outputs": [],
			"stateMutability": "nonpayable",
			"type": "function"
		},
		{
			"inputs": [
				{
					"internalType": "uint256",
					"name": "",
					"type": "uint256"
				}
			],
			"name": "mintCosts",
			"outputs": [
				{
					"internalType": "uint256",
					"name": "",
					"type": "uint256"
				}
			],
			"stateMutability": "view",
			"type": "function"
		},
		{
			"inputs": [],
			"name": "owner",
			"outputs": [
				{
					"internalType": "address",
					"name": "",
					"type": "address"
				}
			],
			"stateMutability": "view",
			"type": "function"
		},
		{
			"inputs": [],
			"name": "paused",
			"outputs": [
				{
					"internalType": "bool",
					"name": "",
					"type": "bool"
				}
			],
			"stateMutability": "view",
			"type": "function"
		},
		{
			"inputs": [],
			"name": "renounceOwnership",
			"outputs": [],
			"stateMutability": "nonpayable",
			"type": "function"
		},
		{
			"inputs": [
				{
					"internalType": "address",
					"name": "from",
					"type": "address"
				},
				{
					"internalType": "address",
					"name": "to",
					"type": "address"
				},
				{
					"internalType": "uint256[]",
					"name": "ids",
					"type": "uint256[]"
				},
				{
					"internalType": "uint256[]",
					"name": "amounts",
					"type": "uint256[]"
				},
				{
					"internalType": "bytes",
					"name": "data",
					"type": "bytes"
				}
			],
			"name": "safeBatchTransferFrom",
			"outputs": [],
			"stateMutability": "nonpayable",
			"type": "function"
		},
		{
			"inputs": [
				{
					"internalType": "address",
					"name": "from",
					"type": "address"
				},
				{
					"internalType": "address",
					"name": "to",
					"type": "address"
				},
				{
					"internalType": "uint256",
					"name": "id",
					"type": "uint256"
				},
				{
					"internalType": "uint256",
					"name": "amount",
					"type": "uint256"
				},
				{
					"internalType": "bytes",
					"name": "data",
					"type": "bytes"
				}
			],
			"name": "safeTransferFrom",
			"outputs": [],
			"stateMutability": "nonpayable",
			"type": "function"
		},
		{
			"inputs": [
				{
					"internalType": "address",
					"name": "operator",
					"type": "address"
				},
				{
					"internalType": "bool",
					"name": "approved",
					"type": "bool"
				}
			],
			"name": "setApprovalForAll",
			"outputs": [],
			"stateMutability": "nonpayable",
			"type": "function"
		},
		{
			"inputs": [
				{
					"internalType": "string",
					"name": "newBaseURI",
					"type": "string"
				}
			],
			"name": "setBaseTokenURI",
			"outputs": [],
			"stateMutability": "nonpayable",
			"type": "function"
		},
		{
			"inputs": [
				{
					"internalType": "uint256",
					"name": "typeId",
					"type": "uint256"
				},
				{
					"internalType": "string",
					"name": "name",
					"type": "string"
				},
				{
					"internalType": "uint256",
					"name": "cost",
					"type": "uint256"
				},
				{
					"internalType": "uint256",
					"name": "supply",
					"type": "uint256"
				}
			],
			"name": "setNFTType",
			"outputs": [],
			"stateMutability": "nonpayable",
			"type": "function"
		},
		{
			"inputs": [
				{
					"internalType": "bytes4",
					"name": "interfaceId",
					"type": "bytes4"
				}
			],
			"name": "supportsInterface",
			"outputs": [
				{
					"internalType": "bool",
					"name": "",
					"type": "bool"
				}
			],
			"stateMutability": "view",
			"type": "function"
		},
		{
			"inputs": [
				{
					"internalType": "address",
					"name": "newOwner",
					"type": "address"
				}
			],
			"name": "transferOwnership",
			"outputs": [],
			"stateMutability": "nonpayable",
			"type": "function"
		},
		{
			"inputs": [
				{
					"internalType": "uint256",
					"name": "",
					"type": "uint256"
				}
			],
			"name": "typeNames",
			"outputs": [
				{
					"internalType": "string",
					"name": "",
					"type": "string"
				}
			],
			"stateMutability": "view",
			"type": "function"
		},
		{
			"inputs": [
				{
					"internalType": "uint256",
					"name": "tokenId",
					"type": "uint256"
				}
			],
			"name": "uri",
			"outputs": [
				{
					"internalType": "string",
					"name": "",
					"type": "string"
				}
			],
			"stateMutability": "view",
			"type": "function"
		}
	]
}